:100000000C9490040C94D7040C94D7040C94D7044B
:100010000C94D7040C94D7040C94D7040C94D704F4
:100020000C94D7040C94D7040C94F1260C94C42798
:100030000C940F1F0C94D7040C94D7040C94D70481
:100040000C94D7040C94D7040C94D7040C94D704C4
:100050000C94D7040C94771F0C94D7040C94D704F9
:100060000C94D7040C94D7040C94D7040C94D704A4
:100070000C94D7040C94D7040C94D7040C94D70494
:100080000C94D7040C94D7040C94D7040C94D70484
:100090000C94D7040C94D7040C94D7040C94D70474
:1000A0000C94D7040C94D7040C94D7043A25732FDE
:1000B000617263683D282E2A292F617263683D288A
:1000C00027616E7927290A00746865206B6579734A
:1000D000206F6620656E6F63680014001C001200BC
:1000E00018001D000B5839000A000700110010000D
:1000F0001B000B680C610864046237000C580D5833
:1001000006001762156416611A680D0033000E5759
:100110000E00360009580A58050013000F000900A8
:100120001900000000000000000029451457055781
:100130002A46000000000000000014021C02120207
:1001400018021D020B5839000A02070211021002A0
:100150001B020B020C020802040237000C580D5857
:1001600006021702150216021A020D0233000E577C
:100170000E02360009580A58050213020F0209023E
:10018000190200000000000000002945145705571F
:100190002A46000000000000000014021C022F008C
:1001A00030001D020B5839000A020702110210022A
:1001B0001B02E15C23020C57085715570C580D58C9
:1001C00006021702150216021A020D0201571E023C
:1001D0000657075709580A58050213020F02090269
:1001E000190200000000000000002B0201002D0297
:1001F000E45C000000000000000014021C02120277
:1002000018021D020B5839000A022F023002100298
:100210001B020B020C020802040238020C580D5893
:100220003102260227022102E35C0D020157045726
:100230000E02380009580A5831002502370013020F
:10024000190200000000000000002B002D0001003A
:100250002A460000000000000000015A025A035A1A
:10026000045A055A065A235A245A255A265A275AF6
:10027000285ADB5C075A095A0B5A0D5A115A165A5A
:100280001A5A1C5A1E5A205A225ADC5C085A0A5A18
:100290000C5A0E5A125A175A1B5A1D5A1F5A215AD3
:1002A000295A00000000000000000F5A105A185A86
:1002B000195A000000000000000000000900086555
:1002C000070000000100010038002400250026007E
:1002D0002502085506610564046200000100010062
:1002E00003572100220023002D0000002002E05CC3
:1002F000310000000100010002571E001F00200015
:100300002E02000000000000000001000100270094
:100310002E4E000000000000000000003502250203
:10032000240200000100010000004A0052004D00BC
:100330004B000855DE5CE25CDF5C00000100010060
:100340000000500051004F004E00000020021F022C
:100350001E0200000100010000000000000000007B
:10036000000000000000000000000E5131480100B4
:10037000010000000000000000000000000000007C
:1003800000000000010001000000400041004200A8
:1003900045000855015504550255000001000100B3
:1003A00000003D003E003F0044000000000000004F
:1003B000000000000100010000003A003B003C008A
:1003C00043000000000000000000000001002E02B9
:1003D000000000000000000000000000000000001D
:1003E00000000000010001000000FB00F000FC0024
:1003F000F9000000F600F500F40000000100010023
:100400000000F200F100F300FA000000000000001C
:1004100000000000010001000000000000000000DA
:1004200000000000000000000000000001000000CB
:100430000100000000000000000000000900086545
:1004400007000000010001003800240025002600FC
:1004500025020855066105640462000001000100E0
:1004600003572100220023002D0000002002E05C41
:10047000310000000100010002571E001F00200093
:100480002E020000000000000000E55C2C002700A8
:100490002E4E0000000000000000010035022F0277
:1004A000300224020100010022022F0030001F024E
:1004B0000100010023023602370238020100010068
:1004C00031022602270221020100010033021E022E
:1004D0002E00380001000100310025023700200203
:1004E00001000000000000000000E55C2D002E026D
:1004F0002C000000000000000000000000000000D0
:100500000000000001000100000040004100420026
:100510004500085501550455025500000100010031
:1005200000003D003E003F004400000000000000CD
:10053000000000000100010000003A003B003C0008
:1005400043000000000000000000E55C00002E02F7
:10055000000000000000000000000000000000009B
:10056000000000000100010000004A0052004D00A0
:100570004B000855015504550255000001000100CB
:100580000000500051004F004E000000000000002D
:100590000000000001000100000000000000000059
:1005A00000000000000000000000E55C000000000A
:1005B000000000000000000000000000000000003B
:1005C00000000000010001000000FB00F000FC0042
:1005D000F9000000F600F500F40000000100010041
:1005E0000000F200F100F300FA000000000000003B
:1005F00000000000010001000000000000000000F9
:1006000000000000000000000000E55C00000000A9
:1006100000000000000000000000000000000605CF
:1006200019050000000000000000000000000000AC
:10063000DD5C1D011B010601190100000000000026
:1006400000000D57135700000000000000001801C3
:100650000701000000000000000000000000000092
:100660000000000000000000000001000000000089
:100670000100000000000000000000000000000079
:1006800000002A2B280000000000000000000000ED
:10069000000000000029000000002C1E3420212250
:1006A00024342627252E362D3738271E1F202122B9
:1006B000232425263333362E37381F040506070832
:1006C000090A0B0C0D0E0F10111213141516171822
:1006D000191A1B1C1D2F3130232D35040506070860
:1006E000090A0B0C0D0E0F10111213141516171802
:1006F000191A1B1C1D2F3130354C00000000000062
:1007000000000000000000000000000000000000E9
:1007100000000000000000000000000101010101D4
:1007200001000101010100000000000000000000C4
:1007300000000000010001000101010101010101AF
:100740000101010101010101010101010101010199
:100750000101010101000000010100000000000092
:100760000000000000000000000000000000000089
:10077000000000000001010101000403300000003E
:100780001A03530070006C00690074006F0067006A
:1007900072006100700068007900000014035300CB
:1007A0004F00460054002F004800520055004600FC
:1007B00000000403090409029100050100A0FA09E0
:1007C0000400000103010100092111010001224080
:1007D000000705810308000A090401000103010262
:1007E00000092111010001224D00070582030800C4
:1007F0000A0904020001030000000921110100019F
:1008000022390007058303200001080B03020202BE
:100810000100090403000102020100052400100187
:10082000042402020524060304070584030800FFCC
:1008300009040400020A0000000705060210000572
:100840000705850210000512011001EF020108EDF5
:10085000FE606001000102030105010906A1010516
:100860000719E029E71500250195087501810205A2
:1008700008190129059505750191029501750391E6
:10088000010507190029F71500250195F875018163
:1008900002C005010902A1010901A1000509190110
:1008A000290515002501950575018102950175033E
:1008B00081010501093009311581257F95027508EF
:1008C000810609381581257F950175088106050C7B
:1008D0000A38021581257F950175088106C0C0057B
:1008E000010906A101050719E029E7150025019571
:1008F0000875018102950175088101050819012912
:10090000059505750191029501750391010507197A
:100910000029FF150026FF00950675088100C0001C
:1009200011241FBECFEFDAE0DEBFCDBF04B603FE59
:1009300027C080914A0490914B04A0914C04B0913F
:100940004D048730904BA740B04BD1F410924A042D
:1009500010924B0410924C0410924D0414BE84B7B4
:10096000877F84BF0FB6F894A89580916000886156
:1009700080936000109260000FBEE0E0FFE30995F5
:1009800013E0A0E0B1E0E2E2F7E502C005900D92CD
:10099000A833B107D9F724E0A8E3B3E001C01D9262
:1009A000AA34B207E1F70E941A240C948F2B0C94FE
:1009B00000000C94140A85E30E947D1481EE0C94CF
:1009C0007D1480EE0C947D1481EE0C947D14CF93F5
:1009D000DF93EC018881823020F088EC90E00E9467
:1009E000030CCE01DF91CF910C941F11CF93DF93B5
:1009F000EC018881823020F08CEA90E00E94030CA8
:100A0000CE01DF91CF910C941F1180EE0C947D14D8
:100A1000CF93C82F0E9486138C2FCF910C947D14F6
:100A2000CF93DF93EC0186E390E00E940805888174
:100A3000823020F08CE290E00E940805CE01DF9128
:100A4000CF910C941F11FC018081823020F089E34A
:100A500090E00C94080582E00E94021E81EE0C9446
:100A60008613CF93DF93EC0181EE0E948613CE01B3
:100A70000E94080581EEDF91CF910C947D14CF93F5
:100A8000DF93EC018881833040F081EE0E94861371
:100A900085E3DF91CF910C94861385E390E00E946B
:100AA00031058881823030F088E390E0DF91CF918A
:100AB0000C940805DF91CF910895CF93DF93EC015B
:100AC0008881823048F083E392E00E943105CE01B4
:100AD000DF91CF910C941F1187E390E00E940805ED
:100AE000F6CF1F93CF93DF93182FEB01209729F4B4
:100AF00080E0DF91CF911F91089580914003909104
:100B000041030E944D1F8A3F910590F7CE011123AA
:100B100021F00E94310581E0ECCF0E940805FBCF57
:100B2000EF92FF921F93CF93DF93162FEA01790183
:100B3000FC018281882399F00E94411F9093410318
:100B400080934003812F0E948613209701F18C2F00
:100B5000DF91CF911F91FF90EF900C948613862F19
:100B60000E947D14209719F08C2F0E947D14809193
:100B70004003909141030E944D1F8A3F910518F454
:100B8000C7010E9431051092410310924003DF918A
:100B9000CF911F91FF90EF9008956770772721E024
:100BA00030E001C0220F6A95EAF740913F03FC0153
:100BB0008281882321F0242B20933F0308952095E0
:100BC0002423FACFCF93DF93EC0180913F0380FF82
:100BD00003C080EEFE01099580913F0383FF03C0AF
:100BE00083EEFE01099580913F0382FF03C082EEF0
:100BF000FE01099580913F0381FF05C081EEFE0152
:100C0000DF91CF910994DF91CF9108950E9408055B
:100C100081E00E94EF1B63E081E00E94731D81E090
:100C200080933E0308951F93CF93DF93EB01142F1E
:100C3000FC0120812330A8F06832710561F488E25C
:100C400090E00E940805612F88E290E0DF91CF914B
:100C50001F910C940606862FDF91CF911F910C9463
:100C60008613223019F4642FCE01F0CF87818823B8
:100C700031F0842FDF91CF911F910C94EF1B86E808
:100C800093E10E94E205CE010E9408058DE794E100
:100C9000DF91CF911F910C94E20543E068E270E090
:100CA0000C94130642E06CE270E00C941306CF93B0
:100CB000C62F0E947D1480913E03882339F081E085
:100CC0000E947C1D10923E03CF9108958C2FCF91EE
:100CD0000C94101C63E088E290E00C94570662E0EC
:100CE0008CE290E00C9457061F93CF93DF93182F5C
:100CF000EA01CA01662351F00E943105123080F0EA
:100D0000CE01DF91CF911F910C9431050E9408050F
:100D1000123030F0CE01DF91CF911F910C94080575
:100D2000DF91CF911F910895CF93DF93EC018881DC
:100D30008330A8F08CE290E00E94080583E390E005
:100D40000E94310583E390E00E9431058CE290E03F
:100D50000E940805CE01DF91CF910C941F1143E34F
:100D600050E061E00E947406F5CFCF93DF93EC0171
:100D700088818330A8F08CE290E00E94080588E327
:100D800090E00E9408058EE290E00E9408058CE247
:100D900090E00E940805CE01DF91CF910C941F11C5
:100DA0004EE250E060E00E947406F5CFCF93DF93EF
:100DB000EC0188818330A8F08CE290E00E94080565
:100DC0008DE290E00E94080587E390E00E943105E3
:100DD0008CE290E00E940805CE01DF91CF910C9447
:100DE0001F1147E350E061E00E947406F5CFCF93F6
:100DF000DF93EC0188818330A8F08CE290E00E94C0
:100E0000080586E390E00E9431058DE290E00E94A3
:100E100008058CE290E00E940805CE01DF91CF9199
:100E20000C941F1146E350E061E00E947406F5CF78
:100E3000CF93DF93EA0181FF08C0CB010E94310507
:100E4000CE01DF91CF910C943105CB010E940805B2
:100E5000CE01DF91CF910C940805EF920F931F9371
:100E6000CF93DF93EC01862FBA01422F932F288175
:100E7000233040F0532F0E94180780E590E00E9435
:100E8000080505C0223059F4532F0E941807012B82
:100E900061F0DF91CF911F910F91EF9008952F8115
:100EA000222399F00115110541F4CE01DF91CF9174
:100EB0001F910F91EF900C941F11802FDF91CF9114
:100EC0001F910F91EF900C94861380FF08C0E110E2
:100ED00002C0462F972F842F0E943105D8CFE110F2
:100EE00002C0462F972F842FCACFEF920F931F93E4
:100EF000E12C10E000E024E330E044E350E063E064
:100F00000E942D071F910F91EF900895EF920F937C
:100F10001F93E12C10E000E025E330E045E350E0D2
:100F200060E00E942D071F910F91EF900895EF92BE
:100F30000F931F93E12C10E000E020E330E04FE23C
:100F400050E060E00E942D071F910F91EF900895EF
:100F5000EF920F931F93E12C10E000E020E330E0CC
:100F60004FE250E063E00E942D071F910F91EF9038
:100F70000895EF920F931F93E12C00EE10E027E20B
:100F800030E046E250E063E00E942D071F910F9190
:100F9000EF900895EF920F931F93E12C10E000E083
:100FA00024E330E044E350E060E00E942D071F910D
:100FB0000F91EF900895EF920F931F93EE24E39417
:100FC00010E000E027E330E046E350E063E00E94F9
:100FD0002D071F910F91EF900895EF920F931F939C
:100FE000EE24E39410E000E020E330E04FE250E034
:100FF00060E00E942D071F910F91EF900895EF92EE
:101000000F931F93EE24E39410E000E020E330E020
:101010004FE250E063E00E942D071F910F91EF9087
:101020000895EF920F931F93EE24E39410E000E0F5
:1010300027E230E046E250E063E00E942D071F9176
:101040000F91EF900895CF92DF92EF920F93CF938D
:10105000DF93C62FD42F6901FC018281882391F090
:101060000E94411F909341038093400380913D0370
:10107000C82BC0933D03DF91CF910F91EF90DF908C
:10108000CF900895802F0E94101C80913C038823EC
:1010900021F00E94101C10923C03B6018D2F0E947B
:1010A0007105811115C088E00E94101C80913D03DC
:1010B00090E021E030E0C13011F422E030E0822302
:1010C0009323892B29F08E2D0E94EF1BE0923C0385
:1010D0000E94DD1DC09580913D03C823C0933D0350
:1010E0001092410310924003C6CFFC0182818823F5
:1010F00019F0862F0C94EF1B862F0C94101CCF93A5
:10110000C0E08C2F0E94101CCF5FCF30D1F7CF9161
:10111000089580913A0390913B03C99721F489E3A4
:1011200090E00E94080510923B0310923A030E943F
:101130007F0880E00C94060CCF93C82F8091390370
:101140008C1791F083EE0E94861380EE0E94861326
:101150008EE290E00E94080580EE0E947D1483EEEE
:101160000E947D14C0933903CF9108950E947F0897
:1011700080E00E94060C80E00C949C08FC018281B7
:101180008823F1F00E947F0884E00E94EF1B0E94F8
:101190002A1E811102C00E940B1E0E94421E90E076
:1011A00090933C0480933B04806880933B040E94AE
:1011B000461E80913903811103C081E00C949C0884
:1011C0000895CF92DF92EF920F93CF93DF93EC01CC
:1011D0006B01CE3D8CE5D80709F4D7C008F061C09B
:1011E000C830F5E5DF0709F4BEC048F5CA32E6E4C9
:1011F000DE0709F4ECC050F4C933D10509F400C18D
:10120000C932D54409F4B5C081E09CC0C130E5E5E0
:10121000DE0709F47CC0C430F5E5DF0709F486C0B9
:10122000C133D84489F768E0C6010E94750836E0EA
:10123000E32E08E030E020E040E061E0D3C0CE30B3
:10124000E8E5DE07A8F4C930F8E5DF0708F0D8C004
:10125000C53087E5D80709F4B8C0C431D745A1F631
:1012600062E0C6010E94750886E0E82E02E0E2CF47
:10127000CC3DFCE5DF0709F46CC008F0D1C0CB3DE4
:10128000DC4511F6FB01828190913803882309F433
:1012900056C0916090933803933009F44DC080E0BC
:1012A00051C0CC30F1E6DF0791F100F5C23EECE52C
:1012B000DE0709F485C060F4C03E8CE5D80709F468
:1012C00075C008F469C02BE030E041EE50E061C029
:1012D000C43EFCE5DF0709F489C008F46EC0C53ED2
:1012E000DC4509F091CF0E948908D9CFC830F4E6D7
:1012F000DF07E1F078F4C430E2E6DE07B9F1C73188
:10130000F2E6DF0799F1C631D14609F07DCF60EEF4
:1013100070E00EC0CB30E8E6DE0729F1CA31F8E60E
:10132000DF0709F1C531D44609F06ECF62EE70E0F7
:10133000C6010E94CD0568CF0E94B608B0CF9E7F3F
:1013400090933803DF91CF910F91EF90DF90CF9082
:101350000895FB01828190913803882311F09260F7
:1013600099CF9D7FEDCF63EE70E0E2CF61EE70E04C
:10137000DFCF80913A0390913B03892B09F0B3CFE3
:1013800065E0C6010E9475083FCF23E230E050E0DF
:1013900040E063EE70E006C021E230E050E040E063
:1013A00061EE70E0C6010E9490052ECF2AE030E089
:1013B00041EE50E062EE70E0F5CF2AE130E085CFFB
:1013C00022E230E050E040E0F5CF63E0DACF66E0C3
:1013D000C6010E94750822E0E22E06E030E020E01F
:1013E00040E062E0C6010E9423080ECF68E0C6011B
:1013F0000E94750892E0E92E08E02CE430E0F0CF7E
:1014000080913A0390913B038C179D0721F0892B23
:1014100011F00E948908D0933B03C0933A03F4CEA5
:10142000CB010E94BE083BCF80E00C94201081E0ED
:1014300008950C94E1080E9474172FEF84E39CE058
:10144000215080409040E1F700C000000C949D1FA7
:10145000FF920F931F93CF93DF938C01FC01C08108
:10146000D1818091820381114EC08281882309F449
:1014700045C0CE010E94E51CF82E682FCE010E94C7
:101480008B1CBE018F2D0E94280CEC01B8010E941C
:10149000190A882309F468C0B801CE010E94871098
:1014A000882309F461C0B801CE010E945811882335
:1014B00009F45AC0B801CE010E948A0E882309F4AB
:1014C00053C0C531FCE5DF0709F425C108F5C1307B
:1014D000ECE5DE0709F44FC008F05FC0C115DC453C
:1014E000F1F181E08093470380934803C801DF91C5
:1014F000CF911F910F91FF900C94170ACE010E947B
:10150000BA1CF82EBECFCE010E94E51CBE01BBCF97
:10151000C53DECE5DE0709F4DBC0A0F4C43DDC45C5
:1015200001F7F8018281882309F4BBC010924703B8
:101530000E94411F909344038093430382E00E94E2
:10154000CC1412C0C83DECE5DE07F9F0C93DDC451E
:1015500041F6F8018281882339F082E01BC0F8014E
:10156000828181110E941B0A80E0DF91CF911F913F
:101570000F91FF900895F80182818823A9F380914B
:101580000604816080930604EFCFF80182818823EE
:1015900059F380E00E94B924E7CFF80182818823C3
:1015A00009F4A4CF0E942A1E811102C00E940B1EC2
:1015B0000E94421E90E090933C0480933B04FE0105
:1015C000E350FC4580913B048160E231F105C8F4B1
:1015D000E451F54F0C943F2BFE0A0A0B0E0B120B35
:1015E000160B1A0B1E0B220B260B2A0B2E0B320B83
:1015F000360B3A0B3E0B420B460B4A0B80913B04D9
:10160000826080933B0480913B040E94461E0E94AE
:101610007417AACF80913B048460F3CF80913B0480
:101620008860EFCF80913B048061EBCF80913B04D9
:101630008062E7CF80913B048064E3CF80913B04DC
:101640008068DFCF80913B048460EACF80913B04C7
:101650008E7FD7CF80913B048D7FD3CF80913B0489
:101660008B7FCFCF80913B04877FCBCF80913B0492
:101670008F7EC7CF80913B048F7DC3CF80913B0489
:101680008F7BBFCF80913B048F77BBCF80913B0492
:101690008B7FEACF90913B04892F97FB87F9805885
:1016A000B0CF8091470381110FC080914303909187
:1016B00044030E944D1F8A3F910530F486E20E9448
:1016C000861386E20E947D1482E00E94D3144CCFE0
:1016D000F8018281882351F0109248030E94411F33
:1016E000909346038093450380E229CF809148037D
:1016F00081110FC080914503909146030E944D1FB8
:101700008A3F910530F487E20E94861387E20E94A7
:101710007D1480E2DACF0E94CC1DF80192819923DA
:1017200081F08A7A91E009F490E09093420381116C
:1017300006C089E20E94551D0E94991DD2CE85E304
:10174000F9CF80914203811104C089E20E945C1D9F
:10175000F3CF85E3FBCFCF9390E0FC01E658F94F40
:10176000C4918650994FFC018491882369F081EEE1
:101770000E9486138C2F0E9486138C2F0E947D144A
:1017800081EECF910C947D148C2F0E9486138C2FA8
:10179000F8CFFF920F931F93CF93DF938C01F62E18
:1017A000F8018491882349F1E8012196813049F4B8
:1017B000FE011491812F0E948613812F0E947D14B7
:1017C00006C0823089F4FE0184910E9486138E0146
:1017D0000F5F1F4F8F2D815018F3EFE9FFE0319716
:1017E000F1F700C00000F7CF833019F4FE018491B7
:1017F000E5CF0E94AB0BE801EACFDF91CF911F91BB
:101800000F91FF90089560E00C94C90BCF93DF9384
:10181000C1E0D0E002C0CC0FDD1F8A95E2F78C2F2B
:101820000E943D1EBE0190E080E0DF91CF910C94BC
:101830008D1B0C94D9040E94F6110C94DA0E0895B5
:101840000C941F0C0C94200C90E080E008950895F7
:10185000972F70E02CE0929F600D711D1124FB0109
:1018600090E3899FE00DF11D1124EE0FFF1FE6525A
:10187000FF4F859194910895FC01EE0FFF1FE658EC
:10188000F84F859194910895CF93DF930E94280C8F
:101890000E94DC0DEC018115904408F094C0C11544
:1018A00080E3D80708F005C1C03ED10508F071C03B
:1018B000C03CD10508F0ECC0C83AD10580F4C53A67
:1018C000D10508F0E9C0C130D10509F46EC020F09F
:1018D000C430D10508F069C0D0E0C0E066C0CD3B9F
:1018E000D105D0F7C83AD10509F427C1C93AD105C5
:1018F00009F426C1CA3AD10509F425C1CB3AD1056C
:1019000009F424C1CC3AD10509F423C1CB3BD1055C
:1019100009F422C1CC3BD10509F421C1CD3AD1054E
:1019200009F420C1C03BD10509F41FC1CE3AD1054D
:1019300009F41EC1CF3AD10509F41DC1C13BD1053F
:1019400009F41CC1C23BD10509F41BC1C33BD1053D
:1019500009F41AC1C43BD10509F419C1C53BD1052D
:1019600009F418C1C63BD10509F417C1C73BD1051D
:1019700009F416C1C83BD10509F415C1C93BD1050D
:1019800009F414C1CA3BD10509F013C1CAE2D6E477
:101990000CC0CF3FD10509F060F4C03FD10508F07D
:1019A00086C0C83ED10508F097CFCE01DF91CF9118
:1019B0000895CE019F70C11520E2D207B0F30E94B6
:1019C0003C0CEC01F2CFC11584E5D807A0F5C11598
:1019D00023E5D20708F08EC0C11581E5D80708F5C8
:1019E000C11520E5D20708F46EC0CE0154E09695EB
:1019F00087955A95E1F783709C2F937021E030E032
:101A000002C0220F331F9A95E2F73C68382BC69527
:101A1000C695C37080E2C89FE0011124C22BD32B6E
:101A2000C4CFC11582E5D80708F050C0DC2FCC2701
:101A3000C16FD06ABACFC11526E5D20758F49C2FE2
:101A40008827C115D54508F469C0EC01CC27DF71A2
:101A5000D062ABCFC11588E5D80708F43DCFC115DA
:101A600029E5D20708F45EC0CE0190568115904258
:101A700008F032CF8D2F8F710E945C0EDD27D0626F
:101A800090E0982F882788279F71C82BD92B8DCF5E
:101A9000CE01805C910993CFC53AD10509F447C0C6
:101AA000C63AD10509F446C0C3E8D0E47ECFD0657C
:101AB0007CCFCE019927D3FF03C0EC01D86C75CF42
:101AC000EC01D06C72CFDF70D06A6FCFCE01837023
:101AD000992721E030E002C0220F331F8A95E2F7F8
:101AE000C695C69580E2C89FE0011124C22BD32B76
:101AF000DC685BCFCE018370992721E030E002C023
:101B0000220F331F8A95E2F7C695C69580E2C89FDB
:101B1000E0011124C22BD32BDA6847CFEC01C46F4C
:101B2000D06A43CFDC2FCC27C06FD06A3ECFC1E84C
:101B3000D0E43BCFC2E8D0E438CFC2EED4E435CF16
:101B4000C9EED4E432CFCAEED4E42FCFC5EBD4E44F
:101B50002CCFC6EBD4E429CFC3EBD4E426CFC4EB1F
:101B6000D4E423CFC7EBD4E420CFCCECD4E41DCF16
:101B7000CDECD4E41ACFC3E8D5E417CFCAE8D5E456
:101B800014CFC2E9D5E411CFC4E9D5E40ECFC1E248
:101B9000D6E40BCFC3E2D6E408CFC4E2D6E405CF47
:101BA000C5E2D6E402CFC6E2D6E4FFCEC7E2D6E471
:101BB000FCCEC0E0D4E4F9CE8238910549F1B0F40E
:101BC0008133910509F45CC048F48932910509F428
:101BD00052C08A32910509F458C0089585339105A1
:101BE00009F444C08933910599F00895833E910525
:101BF00031F138F4803E910591F0823E9105B1F0CB
:101C00000895863E910511F1873E910541F10895B1
:101C100020913B042370C9F080EE90E0089520915C
:101C20003B0420FF12C089E390E0089520913B041B
:101C300022FF0BC024FF2EC090E080E00895209189
:101C40003B0422FD2AC024FDF7CF089520913B04D8
:101C500023FFFBCF24FDF0CF87EE90E00895209185
:101C60003B0423FFF0CF86EE90E0089520913B04E3
:101C700025FD16C0089520913B0425FD14C008954C
:101C800020913B0426FD12C0089520913B0426FDBF
:101C900010C0089583EE90E0089582EE90E00895DC
:101CA00089E290E0089585E390E008958AE290E06B
:101CB000089581E390E0C9CFCF93C82F0E94421EC0
:101CC000282F30E030933C0420933B0482FF06C071
:101CD0009C2F9871983079F4C77FC46083FF06C049
:101CE0009C2F9871983171F4C77EC46184FDC77EC2
:101CF0008C2FCF9108959C2F9471943079F7CB7FDE
:101D0000C860ECCF9C2F9471943181F7CB7EC86171
:101D1000EDCF08950F931F93CF938C01FB01828128
:101D2000811106C0C1E08C2FCF911F910F910895B2
:101D3000C0915603C11125C006311C4599F70E9478
:101D4000890E81E0809356030E94411F90935503B2
:101D5000809354031092490310924B0310924A034C
:101D600010924D0310924C0310924F0310924E03A9
:101D70001092510310925003109253031092520389
:101D8000D2CF80915403909155030E944D1F883CFF
:101D9000910540F680914903E82FF0E0EE0FFF1F18
:101DA000E65BFC4F118300838F5F80934903C0E0A3
:101DB000BACF08950C94D90ECF93DF9385B780687E
:101DC00085BF85B7806885BFA5E2B3E049E253E0EF
:101DD000C1E0D0E08D91E82FE295EF70F0E061A1D5
:101DE0008F709E0101C0220F8A95EAF7922F90957D
:101DF000962391A382A1822B82A34A175B0751F7F6
:101E0000A9E1B3E045E253E0C1E0D0E08D91E82FD5
:101E1000E295EF70F0E061A18F709E0101C0220F8A
:101E20008A95EAF7922F9095962391A382A1822B0F
:101E300082A34A175B0751F71092600310925F0369
:101E4000109258031092570310926203109261038C
:101E500010925A0310925903109264031092630374
:101E600010925C0310925B0310926603109265035C
:101E700010925E0310925D03DF91CF910C94190CC8
:101E80004F925F927F928F929F92AF92BF92CF922A
:101E9000DF92EF92FF920F931F93CF93DF93C7E5EB
:101EA000D3E005E213E099E2A92E93E0B92EEE24E7
:101EB000E394F12C99249394C880D98019821882D4
:101EC000D8018D918D01E82FE295EF70F0E091A19E
:101ED0008F70970101C0220F8A95EAF7892F822B14
:101EE00081A382A1822E8094882182A3B0EABA9530
:101EF000F1F789E1482E83E0582E90E080E0D2018E
:101F00007D912D01472F42954F7050E0DA01909658
:101F10007C90488159817F70D70102C0AA0FBB1FF6
:101F20007A95E2F7BD01672109F068C0B701082E74
:101F300002C0660F771F0A94E2F7462B572B59838E
:101F4000488301968C309105D1F681A1882281A227
:101F500082A1282B22A388819981C816D90641F035
:101F6000909267030E94411F9093690380936803D6
:101F70002296A016B10609F09FCF809167038823AF
:101F800051F180916803909169030E944D1F06975B
:101F900010F18091570390915803909360038093C0
:101FA0005F038091590390915A0390936203809349
:101FB000610380915B0390915C0390936403809331
:101FC000630380915D0390915E0390936603809319
:101FD0006503109267030E941B0C81E0DF91CF9193
:101FE0001F910F91FF90EF90DF90CF90BF90AF9037
:101FF0009F908F907F905F904F90089570E060E089
:102000009CCFE82FF0E0EE0FFF1FE15AFC4F8081DC
:10201000918108950895EBE6F3E086E0DF011D92DB
:102020008A95E9F708950E942A1E811102C00E9434
:102030000B1E8DE090E00E94592B8093340408958C
:10204000CF93C82F0E940B10C09334046C2F8DE0E7
:1020500090E0CF910C94672BFF920F931F93CF9337
:10206000DF93D82FF62E0BE613E0C0E0CD1307C0A8
:10207000DF91CF911F910F91FF900C940B10F801FD
:1020800081918F01811101C0F1100E94DC23CF5F8B
:10209000EDCFE82FF0E0EE55FD4F9081E92FE2956E
:1020A000E695E695E370F0E0E559FC4F8081892BD9
:1020B000808380E0089560E084E00E942C1080E03E
:1020C0000E94DC2380E0089567E00E941F2BE82F28
:1020D000F0E0E559FC4F26E030E0291B310981E0B2
:1020E00090E0AC0102C0440F551F2A95E2F78081B1
:1020F000842B808380E00895EBE6F3E080818068A4
:10210000808361E086E00E942C1080E008959C01AD
:10211000FB0120338AE53807C1F030F4C9019A5534
:102120008A97D0F181E0089521333A45D9F790811B
:102130008181228143815481452B19F18F3F19F40C
:1021400081E09F3FF9F080E01DC090818181228174
:1021500043815481452B39F08F3F19F481E09F3F33
:1021600019F080E001C081E080FD09C0822F8170FC
:1021700020FFD9CF80E00E94201080E0089520E069
:10218000F5CF81E080FD06C0822F817020FFCBCF8C
:1021900081E0F1CF20E0F8CF40818181928163819D
:1021A0007481672B39F08F3F19F481E04F3F19F0AC
:1021B00080E001C081E080FD11C0892F90916A0309
:1021C00080FF11C09F5F90936A038091340488233D
:1021D00039F0813091F6822F0C94641080E0EECFBC
:1021E000822F0C9449108FEF890F80936A0381111D
:1021F00099CF80913404882329F0813009F0BDCF34
:102200000C947C100C945B10CF93DF93EC018E85C3
:10221000811112C081E08E878F810E94CF1D0E94A4
:10222000991DEA81FB8169897A89CE0106963097EA
:1022300019F0DF91CF910994DF91CF9108950F9319
:102240001F93CF93DF93EC018F8181112CC00A8102
:102250001B81175523E1209FC001219F900D112460
:10226000DC01A050BF4F1496ED91FC91159751964B
:102270006D917C918A5F9E4F309709F0099583E1BB
:10228000809FF001819FF00D1124E050FF4F878166
:102290000E94D51D0E94991D18821E8218861092D8
:1022A000720310927103DF91CF911F910F910895E6
:1022B000EF92FF920F931F93CF93DF938C01809146
:1022C000710390917203009771F08017910759F094
:1022D000975523E1289FF001299FF00D1124E0502C
:1022E000FF4F81E08487FB014281C80197558F3FF2
:1022F000910511F008F057C02091E202022E000C67
:10230000330B2817390714F48093E20223E1289F46
:102310007001299FF00C1124E701C050DF4F4D8759
:10232000FB0182818823B9F1198708878E818F5F2D
:102330008E830E94411F9B878A870E94081E8F837D
:10234000E881F98169897A89C7018A5F9E4F309750
:1023500009F0099580917103909172030097B9F08B
:1023600080179107A1F0975523E1289FE001299F4D
:10237000D00D1124CE0180509F4F21E0FC01248715
:102380000E940411CE018A5F9E4F0E941F1110937C
:1023900072030093710381E0DF91CF911F910F9140
:1023A000FF90EF9008954423B1F38091E2028F3FB4
:1023B00091F3C0E0D1E010E000E0FF24F3948091BD
:1023C000E202082E000C990B8017910724F38E81EE
:1023D000882341F0FC86CE010E940411CE010696AE
:1023E0000E941F110F5F1F4F6396E9CF0F931F933A
:1023F000CF93DF938091E202C0E0D3E18F3F91F56C
:10240000DF91CF911F910F910895D29FF001D39F3B
:10241000F00D1124E050FF4F0785108901151105BB
:1024200011F40AEF10E0D29FF001D39FF00D1124B8
:10243000E050FF4F86818823A1F0828593850E941A
:102440004D1F0817190768F4CD9F80011124C8019A
:1024500080509F4F0E940411C8018A5F9E4F0E94C6
:102460001F11CF5F2C2F30E08091E202082E000C6C
:10247000990B821793074CF6C3CF90937803809300
:1024800077030895E0917703F0917803309721F076
:102490000190F081E02D099480E00895E0917703A8
:1024A000F0917803309721F00280F381E02D0994B8
:1024B0000895E0917703F0917803309721F004803C
:1024C000F581E02D099408952091750330917603EC
:1024D0002817390771F09093760380937503E09184
:1024E0007703F0917803309721F00680F781E02D93
:1024F00009940895209173033091740328173907C4
:1025000071F09093740380937303E0917703F091DB
:102510007803309721F00084F185E02D0994089527
:1025200008950C94901281E008950E94381F0E9433
:10253000DC0E0E94C11F0C9413105F926F927F9269
:102540008F929F92AF92BF92CF92DF92EF92FF92C3
:102550000F931F93CF93DF93CDB7DEB72A970FB6B4
:10256000F894DEBF0FBECDBF0E94400F0E949312B1
:10257000882309F47AC09AE7A92E93E0B92E10E0D7
:1025800000E088248394912C502E802F0E9401100B
:102590007C01F501C190D1905F01C816D90609F4FC
:1025A0005EC08091060481FD0E940A1090E080E0E8
:1025B000CE24DF243401082E02C0660C771C0A9456
:1025C000E2F7960126213721232B09F443C08E839D
:1025D0005F82E620F72081E0EF2809F480E0888719
:1025E0000E94411F8160782F9A8789874E815F8181
:1025F00068858A850E945C13000F111FF801E65858
:10260000FC4F8081918168267926718260820E94C8
:1026100054210E944212909179038917B9F10E94C6
:102620004212809379032A960FB6F894DEBF0FBE4C
:10263000CDBFDF91CF911F910F91FF90EF90DF9071
:10264000CF90BF90AF909F908F907F906F905F9052
:102650000C94220C01968C30910509F0ABCF0F5FE2
:102660001F4F0430110509F08FCF8FEF89838A83C4
:102670001B820E94411F8160782F9D838C8349813A
:102680005A816B818D810E945C13C1CF2A960FB64F
:10269000F894DEBF0FBECDBFDF91CF911F910F9198
:1026A000FF90EF90DF90CF90BF90AF909F908F9072
:1026B0007F906F905F900895CF93DF93CDB7DEB793
:1026C0002B970FB6F894DEBF0FBECDBF4F83588750
:1026D00069877A878B871E821D8285E0FE01379687
:1026E000DE01119601900D928A95E1F749815A8198
:1026F0006B817C818D819E812B960FB6F894DEBF15
:102700000FBECDBFDF91CF910C945E1A882309F4E0
:10271000F3C08238B9F40E94421281FDEDC089E312
:102720000E94551D0E94991D2FEF81EE94E02150CB
:1027300080409040E1F700C0000089E30E945C1DEA
:102740000C94991D8338A1F40E94421280FDD4C0DC
:1027500083E50E94551D0E94991D2FEF81EE94E0A4
:10276000215080409040E1F700C0000083E5E6CFB3
:102770008438A1F40E94421282FDBEC087E40E9408
:10278000551D0E94991D2FEF81EE94E0215080404D
:102790009040E1F700C0000087E4D0CF9CEF980F95
:1027A000913A18F40E94551DCBCF90E2980F9830C3
:1027B00050F4877091E001C0990F8A95EAF7892F4C
:1027C0000E94CF1DBDCF9BE5980F933070F4853AE2
:1027D00031F0863A39F083E890E00C94641281E895
:1027E00090E0FBCF82E890E0F8CF98E5980F953124
:1027F00008F082C0883A09F440C0893A09F440C020
:102800008A3A09F440C08B3A09F440C08C3A09F482
:1028100040C08B3B09F440C08C3B09F440C08D3A6A
:1028200009F440C0803B09F440C08E3A09F440C02E
:102830008F3A09F440C0813B09F440C0823B09F45F
:1028400040C0833B09F440C0843B09F440C0853B51
:1028500009F440C0863B09F440C0873B09F440C0FE
:10286000883B09F440C0893B09F440C08A3B09F425
:1028700040C090E080E00C947A1282EE90E0FBCFB2
:1028800089EE90E0F8CF8AEE90E0F5CF85EB90E00E
:10289000F2CF86EB90E0EFCF83EB90E0ECCF84EBD0
:1028A00090E0E9CF87EB90E0E6CF8CEC90E0E3CFCF
:1028B0008DEC90E0E0CF83E891E0DDCF8AE891E015
:1028C000DACF82E991E0D7CF84E991E0D4CF81E2F9
:1028D00092E0D1CF83E292E0CECF84E292E0CBCF00
:1028E00085E292E0C8CF86E292E0C5CF87E292E02F
:1028F000C2CF8AE292E0BFCF0895882309F44BC08B
:10290000823871F40E94421281FF45C089E30E941F
:10291000551D0E94991D89E30E945C1D0C94991D10
:10292000833859F40E94421280FF35C083E50E942B
:10293000551D0E94991D83E5EFCF843859F40E94FC
:10294000421282FF28C087E40E94551D0E94991DF3
:1029500087E4E2CF9CEF980F913AF0F290E2980F63
:10296000983050F4877091E001C0990F8A95EAF78A
:10297000892F0E94D51DD2CF9BE5980F933020F46C
:1029800090E080E00C946412885A853120F490E045
:1029900080E00C947A120895882321F00E94CF1DC4
:1029A0000C94991D0895882321F00E94D51D0C9444
:1029B000991D08958F929F92AF92BF92DF92EF92EE
:1029C000FF920F931F93CF93DF937C01D62FC72FD6
:1029D000FC01058102950F70128111110E94EE1DFC
:1029E0000E94921DD82E882371F0112331F180E2CC
:1029F0008D0F883010F182E00E947C1D0E94921D94
:102A000091E0D82ED926BC2EB2949FE0B922EB2DAE
:102A1000F0E0E35FFA4E0C943F2B1F151F156F1566
:102A20006F15B016AA15B016B016EC15B0168716AD
:102A300087161B17B016B0162417D12CE4CF0C2F15
:102A40000F70C07F11F00295007F1123A9F00023C1
:102A500059F080E28D0F883010F0D11109C0802F1D
:102A60000E94CF1D0E94991D8D2F0E94861314C0B5
:102A7000802F0E94E01DF6CF8D2F0E947D14002331
:102A800059F080E28D0F883010F0D11124C0802FD2
:102A90000E94D51D0E94991DDD2009F4DCC10E9411
:102AA0006F1D80FDD8C1F70112820E94691D0E942E
:102AB000EF1BC7010E9437170E94691DDF91CF915C
:102AC0001F910F91FF90EF90DF90BF90AF909F907C
:102AD0008F900C94101C802F0E94E61DDBCFFC2FE2
:102AE000FF70BF2EC07FC03219F0B29480EFB822C1
:102AF000DD2339F0D130F9F0112331F1002329F031
:102B0000B3CF112361F0011104C08B2D0E94CC14AE
:102B1000C3CF8B2D0130D1F70E94021EBDCF011112
:102B200006C00E94051E8B2D0E94D314B5CF013024
:102B300009F4B2CFF6CF112321F0023008F0ACCF68
:102B4000E4CF0111A9CFEFCF002369F38D2F0E94AD
:102B50007D14A2CF112309F1D53F99F0D63FB9F0EA
:102B6000D43F49F48091350490913604816090936C
:102B70003604809335048D2F0E945D200E944921E8
:102B80008BCF80913504909136048260F0CF809194
:102B90003504909136048460EACFD53F89F0D63F62
:102BA000A9F0D43F49F480913504909136048E7F8A
:102BB00090933604809335048D2F0E94C520DECF7C
:102BC00080913504909136048D7FF2CF8091350449
:102BD000909136048B7FECCF8C2F837009F04BC023
:102BE000111136C02D2F229526952770220F220F06
:102BF0006D2F6F70862E912CB12CA12C022E04C04B
:102C0000880C991CAA1CBB1C0A94D2F760E070E0E7
:102C1000CB01D4FF0FC06FE070E080E090E004C013
:102C2000660F771F881F991F2A95D2F760957095B8
:102C300080959095C695C695C370C23071F0A0F48A
:102C4000682979298A299B29C13091F00E94A11B0A
:102C50000E9442120E94220C1FCF682979298A29DA
:102C60009B290E94B31BF4CF0E94A11BC501B40194
:102C70000E948F1BEDCF8695112311F08C2F817050
:102C8000882331F32D2F229526952770220F220FAE
:102C90006D2F6F70862E912CB12CA12C022E04C0AA
:102CA000880C991CAA1CBB1C0A94D2F760E070E047
:102CB000CB01D4FF0FC06FE070E080E090E004C073
:102CC000660F771F881F991F2A95D2F76095709518
:102CD00080959095C695C695C370C23051F080F42A
:102CE000682979298A299B29C13071F00E94661CC4
:102CF000AFCF682979298A299B290E94781CA8CFFF
:102D00000E94661CC501B4010E94541CA1CFE0E2E0
:102D1000ED0FE53108F070C0F0E0EF56F94E0C947D
:102D20003F2BA616A616A616A616A616A616A61615
:102D3000A616A616A616A616A616A616A616A616B3
:102D4000A616C316CF16D616DD16E716DF708C2F23
:102D50008F71112391F00E94EF1B8D2F0E94CC14D4
:102D6000E8E0BE1609F474CFBE1608F495CE86EFDF
:102D70008B0D823008F46CCF8FCE0E94101C8D2FEB
:102D80000E94D314EDCF112339F00111E9CF8C2F1C
:102D90008F710E94331CE4CF023010F7F8CF8C2FD4
:102DA0008F71112339F00E94EF1BDACF8C2F8F71B6
:102DB0001123C9F30E94101CD3CF112329F08C2FAB
:102DC0008F710E94DA1BCCCF0E94D51BC9CF112373
:102DD00049F0CF718C2F0E94EF1B63E08C2F0E9473
:102DE000731DBECF81E00E947C1D023008F4B8CF75
:102DF00082E00E947C1DB4CF112349F0002321F012
:102E00008D2F0E948613ACCF8C2F8F71CCCF0023D7
:102E100079F0D93349F42FEF87EE93E021508040C9
:102E20009040E1F700C000008D2F0E947D1498CFE4
:102E30008C2F8F71BFCF4C2F4F706D2FC7010E9409
:102E4000240C0E94071B28CE4C2F4F706D2FC701FA
:102E50000E94270C21CEDF91CF911F910F91FF90FF
:102E6000EF90DF90BF90AF909F908F9008950F9359
:102E70001F93CF93DF93EC01988189812B813C8153
:102E8000232B39F08F3F19F481E09F3F19F080E048
:102E900001C081E080FD17C0CE010E94280A88236E
:102EA00091F0688179818A810E94311D8C010E9494
:102EB0008A1C0E948C1BB801CE01DF91CF911F911B
:102EC0000F910C94DA14DF91CF911F910F91089517
:102ED0000E94EE1D0E94FF1D0E94631D0E94991D0D
:102EE0000E94DF210C9449210E94DD1D0C9468177B
:102EF0000E94271DE92FE295EF70E250EE30E0F4DA
:102F0000F0E0EB57F84E0C943F2B931793179C1758
:102F10009C179E179C179C179C1793179317A31722
:102F20009C179C17A317803F19F020F4803E20F4D3
:102F300081E00895843FE1F380E00895803EC0F38E
:102F4000813FD1F7F5CF93FB882780F90895CF9380
:102F5000DF9300D000D01F92CDB7DEB70F900F9057
:102F60000F900F900F90DF91CF910895CF93DF9343
:102F700000D000D000D0CDB7DEB726960FB6F894BB
:102F8000DEBF0FBECDBFDF91CF9108951F93CF93CA
:102F9000DF93C091830316E0809184038C1304C0F7
:102FA000DF91CF911F910895D0E01C9FF0011D9FEC
:102FB000F00D1124EB57FC4F4081518162817381E8
:102FC000848195810E94B6172196C770E5CF409104
:102FD000B5035091B6036091B7037091B803809127
:102FE000B9039091BA030C94B61720918303909182
:102FF000840356E0291302C080E0089530E0529F18
:10300000F001539FF00D1124EB57FC4F71817613A3
:1030100006C07081781303C07281741304C02F5FDF
:103020003F4F2770E7CF81E008951F93CF93DF9341
:103030008091BA03807FD1F48091B7038823B1F0E7
:1030400080918303D0918403B091B503C091B603FE
:103050004091B8035091B903A1E0BF3F09F0A0E04F
:10306000BA016095709516E0D81304C0DF91CF9136
:103070001F91089521E04115510521F02A2FCF3FDE
:1030800009F020E090E020FD38C0189FF001199F62
:10309000F00D1124EB57FC4F21812C132EC0208101
:1030A0002B132BC02281211128C0238134812417A6
:1030B000350700F1241B350B2A3F3105F0F4209130
:1030C000BA032F7020612093BA0326E0289FF001F5
:1030D000299FF00D1124E657FC4F80818F7080618D
:1030E000808385EB93E00E943717DF91CF911F918A
:1030F0000C94C617260F371FDFCF01968770B4CF09
:103100009F92AF92BF92CF92DF92EF92FF920F9376
:103110001F93CF93DF93CDB7DEB761970FB6F894C7
:10312000DEBF0FBECDBF8C0185E0F801DE011D962C
:1031300001900D928A95E1F7D801DC901196EC9000
:1031400011971296CC903091B5034091B6038091BF
:10315000B8039091B90321E0009731F04F3F19F483
:1031600021E03F3F09F020E020FD9AC1F801A38053
:10317000B4809090B703992009F43FC1A816B9060E
:10318000E0F1B501681B790BCB01FF24F3948A3F72
:10319000910508F0F12C8091BA03982F907FFF20C1
:1031A00009F4E2C091119DC0FC2C4E112BC03D11C1
:1031B00029C0C11027C08F7080618093BA030E941C
:1031C000E71785EB93E00E9437178091BA03D80187
:1031D00015968C938F2D61960FB6F894DEBF0FBEB7
:1031E000CDBFDF91CF911F910F91FF90EF90DF90B6
:1031F000CF90BF90AF909F900895809590958A0D45
:103200009B1DC3CF81E0A114B10431F0BFEFEB12DD
:1032100002C081E0DB1280E080FD1AC081E08C25D5
:1032200080FF18C04C2D6E2D8D2D0E94F517882320
:1032300089F085EB93E00E94371786E0E5EBF3E039
:10324000DF011D928A95E9F70E94E717F12CC2CFA2
:1032500080E0E6CF81E0AB2831F0BFEFEB1202C097
:1032600081E0DB1280E080FD25C081E08C25E82F25
:10327000E170AE2E80FF2CC04C2D6E2D8D2D0E9446
:10328000F517B82E811124C0DD86EE868D859E85CA
:103290000E94271D292F22952F70223068F024309C
:1032A00090F49F7069F0D80115969C91907F41F43D
:1032B000FB2C90CF80E0DBCF9F7011F08823C1F30F
:1032C000805E8830A8F3C8010E943717BA2CF0CF6F
:1032D000CC2009F47FCF8091BA0381608093BA0338
:1032E000B5CF4E1114C03D1112C0C11010C0F8016D
:1032F0008583C8010E94371786E0F801A5EBB3E08B
:1033000001900D928A95E1F70E94E71763CFDD8661
:10331000EE868D859E850E947817882309F4CAC0A1
:10332000CC2009F4C7C08091BA03803270F020919C
:10333000B5033091B60338872F831986BB86AA86DA
:103340008C87CE0107960E94371786E0F801A5EB1F
:10335000B3E001900D928A95E1F70E9415180E9442
:10336000E717FF24F39436CF911115C07A2DB98A4F
:10337000A88A4D2D5E2D6C2D89890E94A71785EB9B
:1033800093E00E94371786E0E5EBF3E0DF011D9242
:103390008A95E9F7B9CF4E1112C03D1110C0C11086
:1033A0000EC0F8018583C8010E943717E5EBF3E0F2
:1033B00086E0DF011D928A95E9F7F92C0BCFDD86B7
:1033C000EE868D859E850E947817882309F472C049
:1033D000CC2009F46FC08091BA03803208F4B5CFD5
:1033E0002091B5033091B6033A8329831B82BD82B5
:1033F000AC828E83CE010196A6CFA816B90638F10D
:10340000F501E81BF90BCF01F12C8A3F910508F07B
:103410003DC0FC2CCC2009F44DC04E1126C03D11FE
:1034200024C08091BA0380FD17C0982F907FA1F02F
:10343000D80115968C931597903F09F45ACF982F81
:10344000907F905F8F70892B15968C9352CF8095CB
:1034500090958A0D9B1DD8CF86E0F801A5EBB3E0CF
:1034600001900D928A95E1F7B5CEDD86EE868D85C9
:103470009E850E947817811168CF8091BA03816080
:103480008093BA03C8010E943717A4CE7A2DB98A57
:10349000A88A4D2D5E2D6C2D89890E94A71773CFA8
:1034A000CC2041F0DD86EE868D859E850E947817C2
:1034B00081114BCFC8010E94371753CF1F93CF9371
:1034C000DF93CDB7DEB72C970FB6F894DEBF0FBEF3
:1034D000CDBF4F83588769877A878B879C87CE01BA
:1034E00007960E948018882309F442C09F8188852E
:1034F0002A853B85232B39F08F3F19F481E09F3FCC
:1035000019F080E001C081E080FD08C04F8158853E
:1035100069857A858B859C850E94B61716E0809117
:10352000830390918403891709F467C0819FC001C8
:1035300011248B579C4F0E948018882309F45DC08A
:10354000E09183031E9FF0011124EB57FC4F408153
:10355000518162817381848195810E94B617809127
:10356000830390E001968770992780938303D7CFD8
:1035700086E0FE013796DE01119601900D928A9544
:10358000E1F79F8188852A853B85232B39F08F3F82
:1035900019F481E09F3F19F080E001C081E080FDD7
:1035A000BDCF2091840330E0C9010196877099272F
:1035B000409183034817190699F096E0929FD00135
:1035C000939FB00D1124AB57BC4FFE013196019073
:1035D0000D929A95E1F7809384030E94C6179ECFBF
:1035E0000E947417109284031092830386E0E5EB27
:1035F000F3E0DF011D928A95E9F72C960FB6F89457
:10360000DEBF0FBECDBFDF91CF911F910895EF9226
:10361000FF920F931F93CF93DF938C01892B81F03F
:10362000F12CEE24E394E8012196F801849184378B
:1036300070F4843008F05FC08130B1F08230A1F1C5
:10364000DF91CF911F910F91FF90EF9008958537F3
:1036500009F44CC008F43DC09CE7980F903780F700
:103660008F770E947D1449C00E5F1F4FFE01849129
:1036700090E2980F983060F48770FE2D01C0FF0F24
:103680008A95EAF78F2F0E94F11D0E94991D02C0B2
:103690000E9486138F2D815030F2EFE9FFE03197C1
:1036A000F1F700C00000F7CF0E5F1F4FFE018491BD
:1036B00090E2980F983050F48770FE2D01C0FF0FF4
:1036C0008A95EAF78F2F0E94F71DDFCF0E947D14A5
:1036D000E1CF0E5F1F4FFE01C491C150D8F28FE9B8
:1036E0009FE00197F1F700C00000F7CF0E5F1F4F7A
:1036F000FE01F490CFCF0E9486138E01CBCF0895A8
:103700000E947F1B6093DD037093DE038093DF03D1
:103710009093E0030C94681708950C94801B0F930A
:103720001F930091DD031091DE032091DF033091A0
:10373000E003602B712B822B932B1F910F910C9424
:10374000801B0F931F930091DD031091DE032091E6
:10375000DF033091E00360237123822393231F91C1
:103760000F910C94801B0F931F930091DD03109118
:10377000DE032091DF033091E00360277127822769
:1037800093271F910F910C94801B0C947F1B0C941A
:10379000C51B0E94C71B6093D9037093DA03809303
:1037A000DB039093DC030C94681760E070E0CB01BE
:1037B0000C94C91B0F931F9341E050E060E070E050
:1037C0008A019B0104C0000F111F221F331F8A951D
:1037D000D2F7C901B8011F910F910C94C91B0F9327
:1037E0001F9341E050E060E070E004C0440F551FBB
:1037F000661F771F8A95D2F78091D9039091DA03DB
:10380000A091DB03B091DC038A019B01082B192BEB
:103810002A2B3B2BC901B8011F910F910C94C91B96
:103820000F931F9341E050E060E070E004C0440F4C
:10383000551F661F771F8A95D2F7CB01BA01609595
:103840007095809590950091D9031091DA0320919D
:10385000DB033091DC0360237123822393231F91C8
:103860000F910C94C91B0F931F9341E050E060E04F
:1038700070E004C0440F551F661F771F8A95D2F76A
:103880008091D9039091DA03A091DB03B091DC031E
:103890008A019B01082719272A273B27C901B8015C
:1038A0001F910F910C94C91B0F931F930091D90383
:1038B0001091DA032091DB033091DC03602B712B34
:1038C000822B932B1F910F910C94C91B0F931F9365
:1038D0000091D9031091DA032091DB033091DC03CE
:1038E00060237123822393231F910F910C94C91B92
:1038F0000F931F930091D9031091DA032091DB03FA
:103900003091DC0360277127822793271F910F9145
:103910000C94C91B08952CE0929F800D1124982FC0
:10392000977071E001C0770F9A95EAF786958695B2
:10393000869525E0829FC001112450E040E0A62F2B
:10394000B0E0FC01E40FF51FE554FC4F60819D01E0
:10395000042E02C0369527950A94E2F7217021952E
:1039600026272723262720834F5F5F4F45305105A9
:1039700041F708952CE0929F800D1124982F9770A5
:1039800086958695869525E0829FA001112470E09A
:1039900060E080E0FA01E60FF71FE554FC4F20815C
:1039A00030E0092E02C0369527950A94E2F721707F
:1039B0003327062E01C0220F0A94EAF7822B6F5F8D
:1039C0007F4F6530710531F70895BF92CF92DF9236
:1039D000EF92FF920F931F93CF93DF938C01C090D0
:1039E000D903D090DA03E090DB03F090DC03809100
:1039F000DD039091DE03A091DF03B091E003C82ABC
:103A0000D92AEA2AFB2ACFE1D0E0BC2ED701C60191
:103A10000C2E04C0B695A795979587950A94D2F772
:103A200080FD0EC0219788F7B12C8B2DDF91CF91AF
:103A30001F910F91FF90EF90DF90CF90BF9008956E
:103A4000B8018C2F0E94440C019761F3EECFCF9305
:103A5000DF93EC010E94E51CBE01DF91CF910C9435
:103A6000440C1F93CF93DF93EB0190918203992332
:103A700031F0CB01DF91CF911F910C94271D88234A
:103A800079F0CB010E94E51C182F682FCE010E940F
:103A90008B1CBE01812FDF91CF911F910C94440CA0
:103AA000CB010E94BA1C182FF4CF682F8091E3023B
:103AB0009091E4020C94A81E682F8091E3029091EB
:103AC000E4020C94B31E8091E3029091E4020C9402
:103AD000BE1E8091E1038595859585950895809119
:103AE000E1038770089598E0899F90011124622B6B
:103AF0006093E1030C94EF1B9091E103809589237F
:103B00008093E103282F277061F4282F082E000CE2
:103B1000330B9217130629F08595859585950C949E
:103B2000101C08959091E103977081E009F480E002
:103B30000895E091E302F091E4028091050480830E
:103B4000E091E302F091E402808190910404892BDA
:103B50008083E091E302F091E4028081909103047C
:103B6000892B80839091E203992381F0E091E30215
:103B7000F091E4028081892B80838091E30290910F
:103B8000E4020E944B1E81111092E2038091E30235
:103B90009091E4020C944E12809105040895909146
:103BA0000504892B809305040895982F90958091A2
:103BB000050489238093050408951092050408954F
:103BC00090910404892B809304040895982F909574
:103BD00080910404892380930404089510920404BE
:103BE000089590910304892B809303040895982FDE
:103BF0009095809103048923809303040895109283
:103C0000030408958093E20308951092E203089557
:103C10008091E20308956DEE7EEF90E080E00E94D7
:103C2000792B60E082E090E00E94672B60E083E007
:103C300090E00E94672B60E084E090E00E94672B98
:103C400060E085E090E00E94672B60E08DE090E00E
:103C50000C94672B90E080E00E94612B21E08D3E68
:103C60009E4F09F020E0822F089582E090E00C94AE
:103C7000592B83E090E00C94592B682F83E090E05F
:103C80000C94672B84E090E00C94592B682F84E00F
:103C900090E00C94672BFC0131969C01205E3F4F15
:103CA00080E0919191118F5FE217F307D1F70895AA
:103CB0009C01FC0132969FEF80E04191461751F044
:103CC0009F3F19F4411101C0982F8F5F8E31A9F7E2
:103CD0009F3F09F40895290F311D97FD3A95F90189
:103CE00062830895FC01329680962191261303C0C9
:103CF000DF0111971C92E817F907B9F70895E62F2D
:103D0000E695E695E695EF3169F0E80FF92FF11D9C
:103D1000677021E030E001C0220F6A95EAF78181E7
:103D2000822B81830895E62FE695E695E695EF319F
:103D300071F0E80FF92FF11D677021E030E001C04C
:103D4000220F6A95EAF7209581812823218308951F
:103D500020911003222329F020913B0427FD0C948D
:103D60007F1E0C94581E20911003222329F02091CD
:103D70003B0427FD0C94931E0C94721EFC0131969B
:103D800080961192E817F907E1F7089580914104B0
:103D9000843039F11092070488E190E020E40FB6F6
:103DA000F894A895809360000FBE2093600080E097
:103DB0000E94220C83B7817F846083BF83B78160B8
:103DC00083BF7894889583B78E7F83BF0FB6F894AE
:103DD000A8958091600088618093600010926000D7
:103DE0000FBE089508950895CF930E94F21E0E9479
:103DF000400F0E94F31EC0E08C2F0E940110892BFF
:103E000031F4CF5FC430C1F780E0CF91089581E0F5
:103E1000FCCF0E9474170E9442120C94220C1F9235
:103E20000F920FB60F9211248F939F93AF93BF936E
:103E300080910704811113C0809137049091380458
:103E4000A0913904B0913A044196A11DB11D80930F
:103E5000370490933804A0933904B0933A04BF9187
:103E6000AF919F918F910F900FBE0F901F9018955B
:103E700082E084BD93E095BD9AEF97BD80936E007C
:103E800008952FB7F8948091370490913804A09149
:103E90003904B0913A042FBF0895CF92DF92EF9288
:103EA000FF920F931F932FB7F894409137045091CE
:103EB00038046091390470913A042FBF6A017B0184
:103EC000EE24FF248C0130E020E0C016D106E2068B
:103ED000F30650F0481B590BCA011F910F91FF9038
:103EE000EF90DF90CF90089541505109F3CF78942F
:103EF0001F920F920FB60F9211248F939F93AF933F
:103F0000BF938091370490913804A0913904B09107
:103F10003A040196A11DB11D809337049093380493
:103F2000A0933904B0933A04BF91AF919F918F91C0
:103F30000F900FBE0F901F90189581E08093E000C6
:103F400080E28093D8001092C9008FE19EE401972F
:103F5000F1F700C0000087E090EBDC0180934A0499
:103F600090934B04A0934C04B0934D0488E19CE0E3
:103F70000FB6F894A895809360000FBE90936000F0
:103F8000FFCF0E942A1E811102C00E940B1E0E94B8
:103F9000351E809306040E94421E90E090933C04DC
:103FA00080933B040E94391E682F70E090E080E00F
:103FB0000C948D1B80910A0480FF12C06091E8026E
:103FC00085E0689FB0011124759567957595679593
:103FD00060387105A8F561157105A1F1862F089566
:103FE00081FF09C06091E80285E0689FB00111245B
:103FF00075956795EDCF82FF07C06091E80285E077
:10400000689FB0011124E4CF20910B042223A9F072
:104010009091E7026091E80285E0689FB001112469
:104020002917B0F6269FA001279F500D1124692F54
:1040300070E0CA010E942B2BCBCF65E070E0CECFA1
:104040008FE7089581E0089580910A0480FF0CC0F5
:104050006091E60270E075956795759567956115B5
:10406000710549F1862F089581FF06C06091E6022F
:1040700070E075956795F3CF6091E60282FD0BC005
:1040800090910B049923A1F06091E5028091E602E2
:10409000961738F0682F70E06038710500F38FE7ED
:1040A0000895899FC001112470E00E942B2BF4CF4A
:1040B00061E070E0D7CF81E00895803F31F40E9445
:1040C000DA1F819580930E040895813F19F40E94B0
:1040D000DA1FF8CF823F31F40E94DA1F8195809376
:1040E0000D040895833F19F40E94DA1FF8CF893F29
:1040F00029F40E94242080930F0408958A3F21F41C
:104100000E9424208195F7CF8B3F31F40E94242018
:1041100081958093100408958C3F19F40E94242007
:10412000F8CF843F31F480910C04816080930C04BB
:104130000895853F21F480910C048260F7CF863F7B
:1041400021F480910C048460F1CF873F21F48091A9
:104150000C048860EBCF883F21F480910C048061CF
:10416000E5CF8D3F31F480910A04816080930A0489
:1041700008958E3F21F480910A048260F7CF8F3F2B
:10418000B9F780910A048460F1CF803FC1F4809137
:104190000E0487FD10920E0480910D0481110EC053
:1041A00080910E0481110AC080910F04811106C014
:1041B00080911004811102C010920B040895813F78
:1041C00029F480910E0418162CF3E6CF90910D047B
:1041D000823F29F497FFE0CF10920D04DDCF833F9B
:1041E00019F41916CCF3D8CF893F39F480910F0414
:1041F000181694F610920F04CFCF8A3F29F48091BD
:104200000F0487FFC9CFF6CF8B3F39F4809110049C
:1042100087FFC2CF10921004BFCF8C3F29F480914A
:1042200010041816BCF3B8CF843F31F480910C040D
:104230008E7F80930C04B0CF853F21F480910C04D5
:104240008D7FF7CF863F21F480910C048B7FF1CFD7
:10425000873F21F480910C04877FEBCF883F21F4C6
:1042600080910C048F7EE5CF8D3F31F480910A045C
:104270008E7F80930A0490CF8E3F21F480910A04B0
:104280008D7FF7CF8F3F09F087CF80910A048B7F16
:10429000F0CF8CE094E00E9459120E94411F90934D
:1042A00009048093080408951F93CF93DF938091AE
:1042B0000804909109040E944D1FAC0190910B04D9
:1042C0002091E90230E0911106C02091EA028AE0D3
:1042D000289F900111244217530780F080910D040C
:1042E00010910E04D0910F04C091100481110AC0E6
:1042F000111161C0D1115FC0C1115DC0DF91CF91BB
:104300001F9108959F3F19F09F5F90930B0418161B
:1043100024F40E94DA1F80930D0480910D0487FF1E
:1043200005C00E94DA1F819580930D04111624F4B4
:104330000E94DA1F80930E0480910E0487FF05C04F
:104340000E94DA1F819580930E0440910D0444234E
:1043500079F030910E04332359F025EB4203A0018C
:10436000112450930D0432039001112430930E0454
:104370001D1624F40E94242080930F0480910F04C2
:1043800087FF05C00E942420819580930F041C168E
:1043900024F40E942420809310048091100487FF4D
:1043A00005C00E942420819580931004DF91CF9155
:1043B0001F910C9449219F3F09F0A6CFB7CF85E00C
:1043C000ECE0F4E0DF011D928A95E9F710920B040E
:1043D00010920A0408958091310408950F931F9359
:1043E000CF93DF9300D01F92CDB7DEB78C010E9430
:1043F000C924823011F0843021F583E089831B8346
:104400000A8382E08093E9008FEF9091E800815069
:1044100095FD06C095ED9A95F1F700008111F5CF55
:104420008091E80085FF0DC050E040E063E070E05F
:10443000CE0101960E94E6248091E8008E77809359
:10444000E8000F900F900F90DF91CF911F910F9187
:104450000895CF93DF9300D01F92CDB7DEB72091A0
:104460004104243029F522E02983805891099B8357
:104470008A832093E9008FEF9091E800815095FDA9
:1044800006C095ED9A95F1F700008111F5CF809166
:10449000E80085FF0DC050E040E063E070E0CE0131
:1044A00001960E94E6248091E8008E778093E800D0
:1044B0000F900F900F90DF91CF910895CF93DF93DE
:1044C000EC010E94C924823011F08430F9F482E0BA
:1044D0008093E9008FEF9091E800815095FD06C030
:1044E00095ED9A95F1F700008111F5CF8091E800E4
:1044F00085FF0CC050E040E065E070E0CE010E9416
:10450000E6248091E8008E778093E800DF91CF91D8
:104510000895CF93DF93EC010E94C924823011F0FB
:104520008430F9F4809110038823F1F080913B04EA
:1045300087FF1AC083E08093E9008FEF9091E80035
:10454000815095FD06C095E19A95F1F70000811123
:10455000F5CF8091E80050E040E060E270E085FD3A
:104560001AC0DF91CF91089581E08093E9008FEF29
:104570009091E800815095FD06C095ED9A95F1F770
:1045800000008111F5CF8091E80085FFEACF50E06F
:1045900040E068E070E0CE010E94E6248091E800EF
:1045A0008E778093E80080E2FE01A1E1B4E0019003
:1045B0000D928A95E1F7D5CF80914004811109C011
:1045C0000E9476260E94D3268091E2008460809328
:1045D000E2000895109240040895089508950C94FF
:1045E000091F42E061EC81E00E94F42542E061ECA9
:1045F00082E00E94F42542E261EC83E00E94F4250F
:1046000042E061EC84E00E94F42542E160E886E04B
:104610000E94F42542E161E885E00C94F425809144
:104620004304833009F457C048F4813081F182306B
:1046300009F499C08BEE92E00C946D2A8A3009F44B
:1046400081C08B3009F464C08930A1F780914204A5
:10465000813281F78091460490914704009711F0D0
:10466000029741F78091E800877F8093E80080916E
:10467000E80082FF2BC08091F1008093310480918B
:10468000E8008B778093E8000E942826D3CF8091A2
:104690004204813A79F68091E800877F8093E800B0
:1046A0008091460490914704892B61F460E281E196
:1046B00094E070E00E9435258091E8008B7780932C
:1046C000E800B8CF60E090E080E0F3CF8091410453
:1046D0008111CDCF089580914204813A09F0AACF8B
:1046E0008091460490914704892B09F0A3CF8091D3
:1046F000E800877F8093E8008091E80080FFFCCF8E
:10470000809110038093F1008091E8008E77BACFFA
:1047100080914204813209F08DCF809146049091BE
:104720004704892B09F086CF8091E800877F80932A
:10473000E8000E94282680914404809310030E9480
:10474000741778CF80914204813209F073CF809141
:10475000E800877F8093E8000E9428268091450426
:104760008093320467CF80914204813A09F062CF8E
:104770008091E800877F8093E8008091E80080FFC7
:10478000FCCF80913204BECF82E090E09093FE0295
:104790008093FD028BEE92E00C94252A08958BEE17
:1047A00092E00E94C029892B31F08BEE92E00E94AA
:1047B000EF290C94CE230895CF93C091E9009091F6
:1047C000EC0090FD19C090E02091FB0220FF12C088
:1047D000CF70C92B9091EC029F709093E90090915B
:1047E000EB0090FF04C09091EE0097FD07C0CF70E2
:1047F000C093E900CF91089590E8E6CF9FEF209114
:10480000E800915025FD06C025ED2A95F1F700003E
:104810009111F5CF8093F1008BEE92E00E94782900
:104820008091E80080FFE3CF8091E8008E7780934D
:10483000E800DDCF84B7877F84BF0FB6F894A895D2
:1048400080916000886180936000109260000FBECC
:1048500080E880936100109261000E9491120E9492
:1048600076260E94D3268091E20084608093E20045
:1048700078940E945C290E94951286E093E00E9441
:104880003D120E94C42380914104853049F00E946A
:104890009D120E94CF238BEE92E00E94A929F3CFB4
:1048A0000E94C61E80913F04882369F30E94F41E73
:1048B000882349F30E94D024E6CF292F33272330C1
:1048C000310579F158F421303105F1F0223031050C
:1048D00019F190E080E030E020E01AC0213231058B
:1048E000C9F122323105A9F76330710590F7FB0158
:1048F000EE0FFF1FE45DFC4F20813181675D7C4F2F
:10490000FB01808190E004C082E190E027E438E080
:10491000FA0131832083089581E990E026EB37E0A6
:10492000F7CF99278130910579F040F082309105D9
:1049300071F0039771F6EAE7F7E002C0E2EBF7E007
:10494000849190E09F01E4CFECE9F7E0F9CFE0E853
:10495000F7E0F6CF6330710508F0BBCF660F771F25
:10496000FB01EE5CFC4F2081318189E090E0D0CFEB
:104970000895CF93C82F0E94B824C0933304CF91D9
:10498000089580914104843011F081E0089582E01F
:10499000089580913304811102C00C94C1240895BC
:1049A00080E189BD82E189BD09B400FEFDCF80911F
:1049B000D8008F7D8093D8008091E0008260809342
:1049C000E0008091E00081FDFCCF0895AF92BF929E
:1049D000CF92DF92FF920F931F93CF93DF936C01DF
:1049E000EB018A010E944726F82E811123C0011590
:1049F000110539F0F80180819181C81BD90BC80ECF
:104A0000D91EB12CA12C2097A9F08091E80085FD3A
:104A100022C08091E8008E778093E800011511058F
:104A2000A1F0F80180819181A80EB91EB182A08207
:104A300085E0F82E8F2DDF91CF911F910F91FF9080
:104A4000DF90CF90BF90AF9008950E9447268823B3
:104A5000D1F2F82EEFCFF60181916F018093F10032
:104A60002197FFEFAF1ABF0ACECFFC018091480417
:104A70009091490486179707A0F06115710529F4F4
:104A80009091E8009E779093E80090E061157105A1
:104A900051F4911108C08091E80082FF35C080E098
:104AA0000895BC01F2CF809141048823C9F185307B
:104AB000C9F18091E80083FD31C08091E80082FD5A
:104AC000EACF8091E80080FFE1CF2091F300809150
:104AD000F200322F282F6115710519F028303105A9
:104AE00058F091E02830310509F090E02091E8007D
:104AF0002E772093E800CACF81918093F100615016
:104B000071092F5F3F4FE7CF80914104882341F027
:104B1000853041F08091E80083FFBDCF81E00895AA
:104B200082E0089583E00895FC018091480490910B
:104B3000490486179707A0F06115710529F4809143
:104B4000E8008E778093E80090E06115710551F4DC
:104B5000911108C08091E80082FF36C080E008957E
:104B6000BC01F2CF809141048823D1F18530D1F18D
:104B70008091E80083FD32C08091E80082FDEACF99
:104B80008091E80080FFE1CF2091F3008091F20056
:104B9000322F282F6115710519F02830310558F092
:104BA00091E02830310509F090E08091E8008E779F
:104BB0008093E800CACF84918093F10031966150D0
:104BC00071092F5F3F4FE6CF80914104882341F068
:104BD000853041F08091E80083FFBCCF81E00895EB
:104BE00082E0089583E00895982F973028F08F7021
:104BF0008093E90081E008959093E900242F762FB7
:104C000050E0981731F07091EC002091ED00509138
:104C1000F00021FD02C09F5FE8CF3091EB003E7FA6
:104C20003093EB003091ED003D7F3093ED003091FB
:104C3000EB0031603093EB007093EC002093ED00BB
:104C40005093F0002091EE0027FDE5CF80E008951D
:104C50008091420487FF13C08091E80082FF06C064
:104C60008091E8008B778093E80004C08091410434
:104C70008111F2CF0895809141048823D9F3809166
:104C8000E80080FFF8CF8091E8008E77ECCF20918C
:104C9000E4003091E50085E69091EC0090FF06C0BD
:104CA0009091E80090FF06C080E008959091E800A0
:104CB00092FDFACF90914104992391F0953091F0B3
:104CC0009091EB0095FD10C04091E4005091E500FB
:104CD0002417350709F381509A01F1F684E008950D
:104CE00082E0089583E0089581E008950E94E4261B
:104CF0000E94EC26E0EEF0E0808181608083E8EDA8
:104D0000F0E080818F77808319BCA7EDB0E08C91B3
:104D10008E7F8C9380818F7E8083109240040895D3
:104D20000F931F93CF93DF930E94E4260E94EC26FB
:104D3000C8EDD0E088818F778883888180688883F8
:104D400088818F7D888319BC1092410410923D04A4
:104D500010923F0410923E0400EE10E0F8018081B2
:104D60008B7F808388818160888342E060E080E07F
:104D70000E94F425E1EEF0E080818E7F8083E2EEF8
:104D8000F0E0808181608083808188608083F80189
:104D900080818E7F8083888180618883DF91CF913D
:104DA0001F910F910895E8EDF0E080818F7E808360
:104DB000E7EDF0E080818160808384E082BF81E064
:104DC000809340040C949026E8EDF0E080818E7F83
:104DD00080831092E20008951092DA001092E100B0
:104DE00008951F920F920FB60F9211242F933F93A5
:104DF0004F935F936F937F938F939F93AF93BF93E3
:104E0000EF93FF938091E10082FF0BC08091E2005D
:104E100082FF07C08091E1008B7F8093E1000E94B8
:104E20005B298091DA0080FF19C08091D80080FF53
:104E300015C08091DA008E7F8093DA008091D900CE
:104E400080FF94C080E189BD82E189BD09B400FE84
:104E5000FDCF81E0809341040E94DC228091E1003B
:104E600080FF19C08091E20080FF15C08091E200B0
:104E70008E7F8093E2008091E20080618093E20067
:104E80008091D80080628093D80019BC85E080931F
:104E900041040E94EE228091E10084FF29C08091AC
:104EA000E20084FF25C080E189BD82E189BD09B4AB
:104EB00000FEFDCF8091D8008F7D8093D800809137
:104EC000E1008F7E8093E1008091E2008F7E8093ED
:104ED000E2008091E20081608093E20080913D04D5
:104EE000882309F449C084E0809341040E94EF22A2
:104EF0008091E10083FF29C08091E20083FF25C0FB
:104F00008091E100877F8093E10082E080934104FB
:104F100010923D048091E1008E7F8093E1008091AA
:104F2000E2008E7F8093E2008091E20080618093B6
:104F3000E20042E060E080E00E94F4258091F00011
:104F400088608093F0000E94ED22FF91EF91BF9165
:104F5000AF919F918F917F916F915F914F913F9111
:104F60002F910F900FBE0F901F90189519BC1092A3
:104F700041040E94EA2272CF8091E30087FD02C0C3
:104F800081E0B2CF83E0B0CF1F920F920FB60F92A5
:104F900011242F933F934F935F936F937F938F933E
:104FA0009F93AF93BF93CF93EF93FF93C091E9008B
:104FB000CF708091EC001092E9008091F000877F23
:104FC0008093F00078940E9400281092E90080916C
:104FD000F00088608093F000C093E900FF91EF91AA
:104FE000CF91BF91AF919F918F917F916F915F9181
:104FF0004F913F912F910F900FBE0F901F901895DA
:105000001F93CF93DF93CDB7DEB7AA970FB6F8946F
:10501000DEBF0FBECDBFE2E4F4E08091F1008193EA
:1050200024E0EA34F207C9F70E940F238091E800D8
:1050300083FF44C080914204909143049A3008F069
:105040003DC0E92FF0E0E95DF74D0C943F2B31288E
:1050500057285E2857285E28B528D7285E282E298D
:105060003B29803889F0823849F5809146048F7059
:10507000873020F58093E9008091EB0085FB88273D
:1050800080F91092E90006C080913E0490913F049F
:10509000911182609091E800977F9093E80080934F
:1050A000F1001092F1008091E8008E772DC0282F3A
:1050B0002D7F21F48823D1F0823059F18091E800CE
:1050C00083FF0AC08091E800877F8093E800809189
:1050D000EB0080628093EB00AA960FB6F894DEBFD7
:1050E0000FBECDBFDF91CF911F91089580914404F1
:1050F000813021F7933009F080E080933F041092D3
:10510000E9008091E800877F8093E8000E942826CC
:10511000D5CF809144048111F2CF809146048F70E5
:105120002FEF280F263050F68093E9002091EB00F6
:1051300020FFE5CF933031F48091EB0080628093C3
:10514000EB00DDCF9091EB0090619093EB0021E0BC
:1051500030E001C0220F8A95EAF72093EA0010920E
:10516000EA008091EB008860EACF8111A7CF10910F
:1051700044041F778091E3008078812B8093E300C3
:105180008091E800877F8093E8000E942826809124
:10519000E80080FFFCCF8091E30080688093E3000B
:1051A00083E0111101C082E08093410487CF8058D1
:1051B000823008F083CF80914404909145048C3D67
:1051C00023E09207A1F583E08A838AE289834FB7BF
:1051D000F894DE01139620E03EE051E2E32FF0E088
:1051E00050935700E49120FF03C0E295EF703F5FBA
:1051F000EF708E2F90E0EA30C0F0C7968D939D93AC
:105200002F5F243159F74FBF8091E800877F80934B
:10521000E8006AE270E0CE0101960E943525809197
:10522000E8008B778093E80049CFC096E7CF609184
:10523000460470914704AE014F5F5F4F0E945D24AA
:10524000BC01892B09F43ACF9091E800977F9093A5
:10525000E80089819A810E949425E1CF803809F085
:105260002DCF8091E800877F8093E80080913D04F6
:105270008093F10018CF811121CF90914404923096
:1052800008F01CCF8091E800877F8093E80090931E
:105290003D040E94282680913D04882331F084E05B
:1052A000809341040E94F12209CF8091E30087FDA1
:1052B000F6CF81E0F5CF0895CF9380914104882304
:1052C00099F0C091E900CF708091EC0080FD0EC094
:1052D00080E0C82B1092E9008091E80083FD0E94D5
:1052E0000028CF70C093E900CF91089580E8F1CFF6
:1052F00020914104243059F5FC014489558966897F
:105300007789452B462B472B11F181818F70809334
:10531000E9008091F3009091F2008927982789276E
:10532000892B11F480E008959091E8008091E800C5
:105330008E778093E80095FDF5CF0E944726811176
:1053400007C09091E8009E779093E800089582E06E
:10535000089520914104243091F4FC014489558939
:1053600066897789452B462B472B49F021812F7081
:105370002093E9002091E80020FD0C9478290895FD
:1053800020914104243019F090E080E00895FC0160
:105390004489558966897789452B462B472BA1F38C
:1053A00086818F708093E9008091E80082FFECCFC6
:1053B0008091F3009091F200892798278927009720
:1053C00031F42091E8002B772093E8000895809134
:1053D000F3009091F200892798278927089520915A
:1053E0004104243019F08FEF9FEF0895FC014489A8
:1053F000558966897789452B462B472BA1F38681F2
:105400008F708093E9008091E80082FFECCF80915B
:10541000F3009091F200892798278927892B91F032
:105420008091F10090E02091F3003091F200232769
:1054300032272327232B29F42091E8002B77209370
:10544000E80008958FEF9FEFEECF0F931F93CF9358
:10545000DF93CDB7DEB728970FB6F894DEBF0FBE47
:10546000CDBF8C0180914104843059F5F8018489C5
:105470009589A689B789892B8A2B8B2B11F1838576
:105480008F708093E90088E0E1E1F3E0DE0111969E
:1054900001900D928A95E1F750E040E068E070E0FD
:1054A000CE0101960E94E62450E040E062E070E008
:1054B000C80142960E94E6248091E8008E7780938E
:1054C000E80028960FB6F894DEBF0FBECDBFDF917F
:1054D000CF911F910F9108950895CF93DF93EC0121
:1054E0008091E80083FF10C028818091460490914C
:1054F00047042817190641F4809143048132F1F0E2
:1055000030F4803209F450C0DF91CF910895823297
:1055100009F47EC08332C1F7809142048132A1F741
:105520008091E800877F8093E8000E9428266091A0
:105530004404CE01DF91CF910C946C2A80914204F7
:10554000813A11F78091E800877F8093E80080918D
:10555000E80080FFFCCF8C899D89AE89BF8980934C
:10556000F100492F5A2F6B2F77274093F100AD019F
:10557000662777274093F1008B2F9927AA27BB270F
:105580008093F100888D8093F100898D8093F100E4
:105590008A8D8093F1008091E8008E778093E800F7
:1055A000DF91CF910C94282680914204813209F03A
:1055B000ABCF8091E800877F8093E8008091E8007E
:1055C00082FF21C03091F1002091F1009091F10013
:1055D0008091F1003C8B2D8B9E8B8F8B8091F10005
:1055E000888F8091F100898F8091F1008A8F80915E
:1055F000E8008B778093E8000E942826CE01DF9197
:10560000CF910C946C2A809141048111D7CF7CCF2B
:1056100080914204813209F077CF8091E800877F42
:105620008093E8000E9428268091440490914504CC
:10563000998B888BCE01DF91CF910C946C2A991BAA
:1056400079E004C0991F961708F0961B881F7A9579
:10565000C9F78095089597FB072E16F4009407D09C
:1056600077FD09D00E94452B07FC05D03EF49095AC
:1056700081959F4F0895709561957F4F0895EE0F26
:10568000FF1F0590F491E02D0994AA1BBB1B51E16B
:1056900007C0AA1FBB1FA617B70710F0A61BB70BA2
:1056A000881F991F5A95A9F780959095BC01CD0147
:1056B0000895F999FECF92BD81BDF89A992780B5DA
:1056C0000895A8E1B0E042E050E00C94812B262F31
:1056D000F999FECF92BD81BDF89A019700B40216E8
:1056E00039F01FBA20BD0FB6F894FA9AF99A0FBE96
:1056F00008950196272F0E94682B0C94672BDC01DC
:10570000CB01FC01F999FECF06C0F2BDE1BDF89ACC
:10571000319600B40D9241505040B8F70895F89476
:02572000FFCFB9
:1057220000002305E4040000000000000000000067
:1057320000000000009406000000000000000000CD
:105742000000000000000000100500000000000042
:1057520000000000000000000000005D05000000E5
:1057620000000000000000000000000000007507BB
:105772000000000000000000000000000000000027
:10578200004D066A06000000000000000000000054
:1057920000000000B506000000000000000000004C
:1057A200000000000000008607000000000000006A
:1057B20000000000000000000000D606000000000B
:1057C2000000000000000000000000000097070039
:1057D20000000000000000000000000000000000C7
:1057E200A807000000000000000000000000000008
:1057F200000000B907E10400000000000000000002
:10580200000000000000F706000000000000000099
:10581200000000000000000000E70400000000009B
:10582200000000000000000000000000CA070000A5
:10583200000000000000000000000000000000ED79
:10584200070000000000000000000000000000004F
:105852000000FF0700000000000000000000000040
:105862000000000000DB0700000000000000000054
:105872000000000000000000110805050000000003
:105882000000000000000000000000F6040000001C
:1058920000000000000000000000000000005206AE
:1058A2006F06000000000000000000000000000081
:1058B200003F05DB040000000000000000000000C3
:1058C200000000D0D0D0D0D0D001010204081020B6
:1058D2004142444848000000484850608182848820
:1058E20090A0C1C2C4D0D0D0D0D0D0C80000000097
:1058F20000000000000000000000000000000000A6
:105902000000FFE3032808140A321E03851000007A
:1059120001061000000184080000010000000000E0
:10592200000000000000EB2189225E222922EE21E4
:1059320001A120000000000200F0F1F4F5F6F76783
:10594200663635349790919293404D39DF0892082C
:085952005908C807E107FA0734
:00000001FF
