:100000000C9490040C94D7040C94D7040C94D7044B
:100010000C94D7040C94D7040C94D7040C94D704F4
:100020000C94D7040C94D7040C947B290C944E2A7E
:100030000C9499210C94D7040C94D7040C94D704F5
:100040000C94D7040C94D7040C94D7040C94D704C4
:100050000C94D7040C9401220C94D7040C94D7046C
:100060000C94D7040C94D7040C94D7040C94D704A4
:100070000C94D7040C94D7040C94D7040C94D70494
:100080000C94D7040C94D7040C94D7040C94D70484
:100090000C94D7040C94D7040C94D7040C94D70474
:1000A0000C94D7040C94D7040C94D7043A25732FDE
:1000B000617263683D282E2A292F617263683D288A
:1000C00027616E7927290A00746865206B6579734A
:1000D000206F6620656E6F63680002571C00120077
:1000E00018001D000A5809580A00070011001000E6
:1000F0001B0014680B61086404620A570B580C5803
:1001000006001762156416611A680D002D00340090
:100110000E0036000D580E58050013000F000900A0
:10012000190000000000000000002945DD5C0957AF
:100130000157000000000000000033021C02120200
:1001400018021D020A5809580A0207021102100279
:100150001B0214020B020802040238020B580C584E
:1001600006021702150216021A020D022D023402AF
:100170000E021E020D580E58050213020F0209024C
:100180001902000000000000000029000C022C00F1
:100190002A0000000000000000000C573700250274
:1001A000240200000100010000004A0052004D003E
:1001B0004B00E15C0D5706570E5738020100010055
:1001C0000000500051004F004E0000002E021F02A0
:1001D0001E023800010001000000000000000000C5
:1001E000000000000000000000000000DF5C0100D3
:1001F00001000000000000000000000000000000FE
:10020000000000000100010000572F002302300011
:1002100000000000000000000000000001000100DC
:100220003102260221022702000000000000000027
:10023000000000000100010038002F0220023002FF
:100240000000000000000000000001000100DE5C72
:100250004C00000000000000000000000000000052
:1002600000000000010001000000FB00F000FC00A5
:10027000F9000000F600F500F400000001000100A4
:100280000000F200F100F300FA000000000000009E
:10029000000000000100010000000000000000005C
:1002A000000000000000000000000100010001004B
:1002B00001000000000000000000000009000865C7
:1002C000070000000100010038002400250026007E
:1002D0002502085506610564046200000100010062
:1002E00004572100220023002D0000001B00E25CC7
:1002F000310000000100010003571E001F00200014
:100300002E02000000000000000001000100270094
:100310002E000000000000000000000000000000AF
:100320000000000001000100000040004100420008
:100330004500085501550455025500000100010013
:1003400000003D003E003F004400000000000000AF
:10035000000000000100010000003A003B003C00EA
:100360004300000000000000000001000100000048
:1003700000000000000000000000015A025A035A69
:10038000045A055A065A235A245A255A265A275AD5
:10039000285ADB5C075A095A0B5A0D5A115A165A39
:1003A0001A5A1C5A1E5A205A225ADC5C085A0A5AF7
:1003B0000C5A0E5A125A175A1B5A1D5A1F5A215AB2
:1003C000295A00000000000000000F5A105A185A65
:1003D000195A0000000000000000000000000603A1
:1003E0000B570000000000000000000000000000AB
:1003F00000001D011B010601055700000000000060
:100400000000075708570000000000000000180116
:1004100007010000000000000000000000000000D4
:10042000E05C00000000000000000000000001008F
:100430000100000000000000000033021C02120254
:1004400018021D02010001000A0207021102100237
:100450001B0214020B020802E35C370001000100DA
:100460000602E45C150216021A020D022D00340089
:100470000E02360001000100050213020F020902FC
:1004800019020000000000000000E55C0C022C4B8B
:100490002A00000000000000000000000000000032
:1004A0000000000001000100000040004100420087
:1004B0004500085501550455025500000100010092
:1004C00000003D003E003F0044000000000000002E
:1004D000000000000100010000003A003B003C0069
:1004E00043000000000000000000E55C0000000088
:1004F00000000000000000000000000000000000FC
:10050000000000000100010000004A0052004D0000
:100510004B0008550155045502550000010001002B
:100520000000500051004F004E000000000000008D
:1005300000000000010001000000000000000000B9
:1005400000000000000000000000E55C000000006A
:10055000010000000000000000000000000000009A
:1005600000000000010001000000FB00F000FC00A2
:10057000F9000000F600F500F400000001000100A1
:100580000000F200F100F300FA000000000000009B
:100590000000000001000100000000000000000059
:1005A00000000000000000000000E55C000000000A
:1005B00000000000000000000000000009000865C5
:1005C000070000000100010038002400250026007B
:1005D000250208550661056404620000010001005F
:1005E00004572100220023002D0000001B00E25CC4
:1005F000310000000100010003571E001F00200011
:100600002E020000000000000000E55C2C00270026
:100610002E00000000000000000033023700250219
:10062000240200000100010035002F0023023000E9
:1006300000003502360222023702380201000100B2
:100640003102260221022702000000002E021F02B2
:100650001E0238000100010031002F02200230028A
:1006600000000000000000000000E55C2E002C00EF
:100670002A00000000000000000000000000000050
:1006800000002A2B280000000000000000000000ED
:10069000000000000029000000002C1E3420212250
:1006A00024342627252E362D3738271E1F202122B9
:1006B000232425263333362E37381F040506070832
:1006C000090A0B0C0D0E0F10111213141516171822
:1006D000191A1B1C1D2F3130232D35040506070860
:1006E000090A0B0C0D0E0F10111213141516171802
:1006F000191A1B1C1D2F3130354C00000000000062
:1007000000000000000000000000000000000000E9
:1007100000000000000000000000000101010101D4
:1007200001000101010100000000000000000000C4
:1007300000000000010001000101010101010101AF
:100740000101010101010101010101010101010199
:100750000101010101000000010100000000000092
:100760000000000000000000000000000000000089
:10077000000000000001010101000403300000003E
:100780001A03530070006C00690074006F0067006A
:1007900072006100700068007900000014035300CB
:1007A0004F00460054002F004800520055004600FC
:1007B00000000403090409029100050100A0FA09E0
:1007C0000400000103010100092111010001224080
:1007D000000705810308000A090401000103010262
:1007E00000092111010001224D00070582030800C4
:1007F0000A0904020001030000000921110100019F
:1008000022390007058303200001080B03020202BE
:100810000100090403000102020100052400100187
:10082000042402020524060304070584030800FFCC
:1008300009040400020A0000000705060210000572
:100840000705850210000512011001EF020108EDF5
:10085000FE606001000102030105010906A1010516
:100860000719E029E71500250195087501810205A2
:1008700008190129059505750191029501750391E6
:10088000010507190029F71500250195F875018163
:1008900002C005010902A1010901A1000509190110
:1008A000290515002501950575018102950175033E
:1008B00081010501093009311581257F95027508EF
:1008C000810609381581257F950175088106050C7B
:1008D0000A38021581257F950175088106C0C0057B
:1008E000010906A101050719E029E7150025019571
:1008F0000875018102950175088101050819012912
:10090000059505750191029501750391010507197A
:100910000029FF150026FF00950675088100C0001C
:1009200011241FBECFEFDAE0DEBFCDBF04B603FE59
:1009300027C08091DC039091DD03A091DE03B0918C
:10094000DF038730904BA740B04BD1F41092DC030B
:100950001092DD031092DE031092DF0314BE84B701
:10096000877F84BF0FB6F894A89580916000886156
:1009700080936000109260000FBEE0E0FFE30995F5
:1009800012E0A0E0B1E0E6E3FCE502C005900D92C4
:10099000A63CB107D9F723E0A6ECB2E001C01D9256
:1009A000AC3DB207E1F70E94A4260C94192E0C94DA
:1009B00000000C94650C89E10E94071780EE0C94EE
:1009C0000717CF93DF93EC018881823020F088EC09
:1009D00090E00E948D0ECE01DF91CF910C94A9136F
:1009E000CF93DF93EC018881823020F08CEA90E095
:1009F0000E948D0ECE01DF91CF910C94A9136770E8
:100A0000772721E030E001C0220F6A95EAF7409194
:100A1000D002FC018281882321F0242B2093D00274
:100A2000089520952423FACF8770992721E030E09C
:100A300002C0220F331F8A95E2F78091D00290E026
:100A40002823392381E0232B09F480E00895CF93F4
:100A5000C82F81EE0E9410168C2FCF910C94101687
:100A60000E94071781EE0C94071783E390E00C9423
:100A7000300586E390E00E94300580EE0C94071765
:100A800087E390E00E94300581EE0C94071785E320
:100A900090E00E94300587E30E94071785EE90E002
:100AA0000E941405882319F081EE0C941016089505
:100AB00082E290E00E94300582EE0C94071789E1F3
:100AC00090E00E94300580EE0C94071783E390E0DD
:100AD0000C943005CF93C82F0E9410168C2FCF9105
:100AE0000C940717CF93DF93EC0186E390E00E940C
:100AF0006A058881823020F08CE290E00E946A05CD
:100B0000CE01DF91CF910C94A913CF93DF93EC0129
:100B100081EE0E941016CE010E946A0581EEDF91DF
:100B2000CF910C940717CF93DF93EC0185EE90E003
:100B30000E9414059F81882369F18881823018F111
:100B4000992349F085E390E00E942705CE01DF91CB
:100B5000CF910C94A913823029F484E992E00E9489
:100B6000500EF4CF1092D30298818091D30289174E
:100B700068F785E390E00E9485058091D3028F5F3E
:100B80008093D302F1CF9111DDCF85E390E00E94F5
:100B90008505DCCF992321F087E30E941016D6CF7C
:100BA00087E390E00E946A05D1CFCF93DF93EC01F9
:100BB0008881823020F087E390E00E946A0585E218
:100BC00090E00E948505CE01DF91CF910C94A9138E
:100BD000CF93DF93EC018881823048F083E392E089
:100BE0000E948505CE01DF91CF910C94A91387E374
:100BF00090E00E946A05F6CFCF93DF93EC018881E5
:100C00008230C8F080EE0E94101689E190E00E94C8
:100C1000850580EE0E9407178FE39CE90197F1F7A5
:100C200000C0000088E290E00E946A05CE01DF91DA
:100C3000CF910C94A9138F81882341F080EE0E94FC
:100C4000101689E190E00E942705F0CF80EE0E9407
:100C5000101689E190E00E94850580EE0E9407173A
:100C6000E5CF1F93CF93DF93182FEA01CA016623C4
:100C700041F00E948505123070F4DF91CF911F91F1
:100C800008950E946A051230C0F3CE01DF91CF9122
:100C90001F910C946A05CE01DF91CF911F910C94A6
:100CA0008505CF93DF93EC0188819F81833018F114
:100CB000992349F083E390E00E942705CE01DF915C
:100CC000CF910C94A913833029F487E992E00E9414
:100CD000500EF4CF1092D30298818091D3028917DD
:100CE00068F783E390E00E9485058091D3028F5FCF
:100CF0008093D302F1CF9111DDCF43E350E061E067
:100D00000E943106DBCFCF93DF93EC0188819F8176
:100D1000833018F1992349F086E390E00E9427057B
:100D2000CE01DF91CF910C94A913833029F48CE983
:100D300092E00E94500EF4CF1092D30298818091DD
:100D4000D302891768F786E390E00E9485058091B9
:100D5000D3028F5F8093D302F1CF823041F491119F
:100D6000DBCF46E350E061E00E943106D9CF992302
:100D7000C1F380EE0E941016D3CFCF93DF93EC0126
:100D800088819F81833018F1992349F087E390E0AF
:100D90000E942705CE01DF91CF910C94A9138330D7
:100DA00029F481EA92E00E94500EF4CF1092D3020F
:100DB00098818091D302891768F787E390E00E94B9
:100DC00085058091D3028F5F8093D302F1CF82306B
:100DD00041F49111DBCF47E350E061E00E9431061E
:100DE000D9CF9923C1F381EE0E941016D3CFCF93B0
:100DF000DF93EC0188819F81823038F1992349F09B
:100E000083E390E00E942705CE01DF91CF910C94FF
:100E1000A913823049F483E390E00E9485058DE2B6
:100E200090E00E946A05F0CF1092D30298818091E1
:100E3000D302891748F783E390E00E9485058091EB
:100E4000D3028F5F8093D302F1CF9111D9CF43E3C7
:100E500050E061E00E943106D7CFCF93DF93EC01E1
:100E600088819F81823058F0992379F082E290E066
:100E70000E942705CE01DF91CF910C94A9139923ED
:100E800021F082EE0E941016F5CF42E250E061E0C0
:100E90000E943106EFCF0F931F93CF93DF93EC01A6
:100EA0008B01009779F08130910599F00E9410161E
:100EB000C8010E946A058C2FDF91CF911F910F917D
:100EC0000C940717CB01DF91CF911F910F910C94D8
:100ED0006A05CB01DF91CF911F910F910C9485058D
:100EE0001F93CF93DF93182FEB01209789F0809108
:100EF000D1029091D2020E94D721883C910540F402
:100F0000BE01812F90E0DF91CF911F910C944B0790
:100F1000DF91CF911F910895CF93DF93EC018881EA
:100F20008230A8F069E170E080EE90E00E944B070B
:100F30008FE39CE90197F1F700C0000088E290E0A0
:100F40000E946A05CE01DF91CF910C94A9138F8185
:100F5000882339F080EE0E94101689E10E94101655
:100F6000F1CF69E170E080EE90E00E944B07EACF9C
:100F7000EF92FF921F93CF93DF93162FEA0179012F
:100F8000FC018281882399F00E94CB219093D202A8
:100F90008093D102209719F08C2F0E941016812F78
:100FA000DF91CF911F91FF90EF900C941016862F38
:100FB0000E940717209719F08C2F0E940717809125
:100FC000D1029091D2020E94D721883C910518F459
:100FD000C7010E9485051092D2021092D102DF91C2
:100FE000CF911F91FF90EF900895EF92FF920F9392
:100FF0001F93CF93DF937C01CB01D42F122F0E943C
:101000001405C82F882369F0F7010281002389F0B5
:10101000D11103C081EE0E940717812F0E94101684
:10102000C02F8C2FDF91CF911F910F91FF90EF90E8
:101030000895812F0E940717D111F3CF81EE0E94EE
:101040001016EFCF0E946A0581E00E94791E63E0CE
:1010500081E00E94FD1F81E08093CD020895DF9220
:10106000EF92FF920F931F93CF93DF93EC01F62E35
:10107000D72EE42E8F819091CC029923A9F0811173
:1010800033C08881823028F0821303C0C8010E94D7
:101090006A056E2DC801DF91CF911F910F91FF90CE
:1010A000EF90DF900C9422088823B9F0888181307A
:1010B00051F4842FDF91CF911F910F91FF90EF900A
:1010C000DF900C94791E862FDF91CF911F910F91A5
:1010D000FF90EF90DF900C9410161092D30298813D
:1010E0008091D302891740F0DF91CF911F910F912A
:1010F000FF90EF90DF9008958F2D9D2D0E946A053F
:101100008091D3028F5F8093D302E9CF0F931F9317
:1011100008E210E022E048E06AE270E00E942F0856
:101120001F910F9108950F931F930CE210E020E0A0
:1011300042E06CE270E00E942F081F910F91089529
:10114000CF93C62F0E9407178091CD02882349F0C4
:1011500081E00E9406201092CD021092CC02CF9125
:1011600008958C2F0E949A1EF6CF68E08AE290E0E4
:101170000C94A00862E08CE290E00C94A00810921D
:10118000D3028091D3028F3068F01092D002109277
:10119000D2021092D1021092CD021092CF02109280
:1011A000CE0208950E949A1E8091D3028F5F809391
:1011B000D302E7CFFC018281882319F0862F0C949B
:1011C000791E862F0C949A1E0F931F93CF93DF9353
:1011D000D62F8A01C22FFC018281882369F00E94E8
:1011E000CB219093D2028093D1028C2FDF91CF91AB
:1011F0001F910F910C94791E822F0E949A1EB801A4
:101200008D2F0E9470071092D2021092D102DF91AE
:10121000CF911F910F910895CF93FC01C2818091CE
:10122000CB02CC23A1F0482B4093CB02433021F0DA
:10123000C0E08C2FCF9108956623D9F3862F222307
:1012400019F00E94BD1EF5CF0E94791EF2CF409585
:1012500048234093CB024111EBCF2111E9CF862FD8
:101260000E949A1EE6CFCF92DF92EF920F93CF9318
:10127000DF93C62FD42F6901FC0182818823B9F046
:10128000802F0E94791EC13079F40093CA020E9417
:10129000CB219093D2028093D102DF91CF910F9115
:1012A000EF90DF90CF9008950093C902F0CF84E0D3
:1012B0000E949A1EB6018D2F0E947007C130A1F4C2
:1012C0008091CA020E949A1E1092CA028091C9029D
:1012D000843029F48E2D0E94791EE092C90210926A
:1012E000D2021092D102D9CF8091C9020E949A1ED7
:1012F0001092C9028091CA02843089F78E2D0E9413
:10130000791EE092CA02EBCFCF93C82F8091C8021A
:101310008C1791F083EE0E94101680EE0E9410163A
:101320008EE290E00E946A0580EE0E94071783EE2D
:101330000E940717C093C802CF910895811108C079
:101340000E94BF0880E00E94900E80E00C94840907
:1013500008950F931F93CF93DF938C01EB0180913E
:10136000CE029091CF028617970729F0892B19F0AA
:1013700080E00E949E09F8018281882359F00E9432
:10138000CB219093D2028093D102DF91CF911F9114
:101390000F9108958091D1029091D2020E94D7219D
:1013A000883C910520F4D093CF02C093CE021092D6
:1013B000D2021092D102E9CFFC018281882341F050
:1013C0000E94BF0887E00E94791E81E00C94840986
:1013D0000895EF920F931F93CF93DF93EB018F301C
:1013E00028E5920708F0D3C08B3028E5920708F073
:1013F00098C1813025E5920709F467C108F062C001
:101400008E3122E0920709F455C240F586339105EA
:1014100009F423C28733910509F433C28A9741F551
:1014200021E042E069E0CE010E940C098111ADC0CB
:101430002CE430E040E061EE70E0CE010E94F50760
:10144000182F8111A2C08A81882309F4DBC10E9470
:10145000CB219093D2028093D10246C1883322E0FF
:10146000920709F427C248F48333924009F4F2C189
:101470001092D2021092D10210C1893225E4920753
:1014800009F451C18C329B4499F721E041E069E0B5
:10149000CE010E940C09811178C028E230E040E0C2
:1014A00061EE70E0CE010E94F50728E230E0811184
:1014B0006CC040E065EE70E0CE010E94F50711E0DF
:1014C000182712C1823027E5920709F4C3C180F4BE
:1014D000883025E5920709F4F5C0813027E59207A9
:1014E00009F475C18430954519F662EE70E0D2C0FA
:1014F0008A3027E5920709F4D4C188F589309745E9
:1015000009F0B6CF21E041E069E0CE010E940C096C
:1015100081113BC08A81882321F08091C70280938A
:10152000CC0228E230E040E061EE70E0CE010E94A3
:10153000F50781112AC028E230E040E065EE70E056
:10154000CE010E94F507811120C062E0CE010E9409
:10155000DA0883E0E82E02E030E020E04AC089307B
:1015600028E5920709F4CDC08A30984509F080CF6C
:1015700021E041E060E0CE010E940C09182F882391
:1015800009F4A9C082E08093C60210E0ADC0843E99
:101590002CE5920709F456C108F04AC08F3D2CE5AE
:1015A000920709F40AC140F58C3D2CE5920709F435
:1015B00089C168F48B3D9C4509F05ACF21E041E098
:1015C00060E0CE010E940C098823F9F255C08D3DE0
:1015D0002CE5920709F4CFC08E3D9C4509F048CF19
:1015E00064E0CE010E94DA0893E0E92E04E021E3F2
:1015F00030E040E062E0DDC0813E2CE5920709F476
:1016000010C108F45BC1823E2CE5920709F413C1B6
:10161000833E9C4509F02CCF61EE70E0CE010E9424
:10162000FF0424E030E050E040E061EE70E0FFC0F5
:10163000873122E6920709F44BC088F58B3021E60A
:10164000920709F442C0E0F4853E9C4509F010CFB2
:101650002BE230E041E061EE70E0CE010E94F50740
:10166000811193CF2BE230E040E065EE70E0CE01D7
:101670000E94F507811189CF80E00E949E0985CFE5
:10168000863121E6920709F161EE70E084309246DE
:1016900009F0EECECE010E94FF0411E025C0853195
:1016A00024E6920709F421CF28F48830944609F4FF
:1016B0001CCFDECE843128E6920721F08A3198468D
:1016C00009F0D6CE63EE70E0E5CF60EE70E0E2CFD9
:1016D00065EE70E0DFCF8091C602882361F0815013
:1016E0008093C6020E949E09812FDF91CF911F91A6
:1016F0000F91EF9008956AE078E5CE010E94A90964
:10170000CCCF21E042E060E0CE010E940C09182F0E
:10171000811138CF8091C6028111E1CF69E078E56F
:10172000ECCFBC01EACF20E041E066E0CE010E94B0
:101730000C0981112ACF2BE230E041E061EE70E02C
:10174000CE010E94F507811120CF2BE230E040E06E
:1017500065EE70E0CE010E94F507811116CF8091F1
:10176000CE029091CF0265E0892B09F085CFCE01A2
:101770000E94DA0892CF20E042E066E0CE010E94AB
:101780000C09811102CF85EE90E00E94140523E040
:101790004CE050E0682FCE010E94E40863E0CE01E7
:1017A0000E94DA0832E0E32E03E030E020E040E07F
:1017B00061E0CE010E94330970CF64E0CE010E9447
:1017C000DA0822E0E22E04E02EE230E0F0CF21E061
:1017D00042E069E0CE010E940C098111D6CE2CE4D2
:1017E00030E040E061EE70E0CE010E94F50781112B
:1017F000CCCE8A81882321F08091C7028093CC02CD
:1018000068E0B5CF8091D1029091D2020E94D72199
:10181000883C910508F0B9CE8AE290E00E946A0502
:1018200063CF25E330E050E040E063EE70E0CE01AE
:101830000E94B80732CF2AE030E041EE50E062EE7D
:1018400070E0F5CF65EE70E0CE010E94FF0427E165
:1018500030E0E9CE23E332E02CCE8091CE029091AD
:10186000CF02892B19F425E330E023CE2EE130E0BE
:1018700041E065EE70E0CE010E94F507882399F300
:1018800084CE28E330E041E065EE70E0CE010E94B6
:10189000F50781117ACE28E330E041E061EE70E097
:1018A0000BCE85EE90E00E941405882319F081EE9E
:1018B0000E9407178A818093C702EFCECB010E9456
:1018C000DC0963CE21E042E07BCE80E00C94AA12DA
:1018D00081E008950C94E9090E94FE192FEF84E33A
:1018E0009CE0215080409040E1F700C000000C9443
:1018F0002722FF920F931F93CF93DF938C01FC015C
:10190000C081D1818091140381114EC082818823CE
:1019100009F445C0CE010E946F1FF82E682FCE013A
:101920000E94151FBE018F2D0E94B20EEC01B8015E
:101930000E946A0C882309F468C0B801CE010E9495
:101940001113882309F461C0B801CE010E94E2138B
:10195000882309F45AC0B801CE010E9414118823CB
:1019600009F453C0C531FCE5DF0709F425C108F5CA
:10197000C130ECE5DE0709F44FC008F05FC0C115C7
:10198000DC45F1F181E08093D9028093DA02C8014D
:10199000DF91CF911F910F91FF900C94680CCE01B5
:1019A0000E94441FF82EBECFCE010E946F1FBE01C1
:1019B000BBCFC53DECE5DE0709F4DBC0A0F4C43DB8
:1019C000DC4501F7F8018281882309F4BBC010923D
:1019D000D9020E94CB219093D6028093D50282E057
:1019E0000E94561712C0C83DECE5DE07F9F0C93D6C
:1019F000DC4541F6F8018281882339F082E01BC082
:101A0000F801828181110E946C0C80E0DF91CF91FE
:101A10001F910F91FF900895F80182818823A9F307
:101A200080919803816080939803EFCFF8018281C1
:101A3000882359F380E00E944327E7CFF801828191
:101A4000882309F4A4CF0E94B420811102C00E940F
:101A500095200E94CC2090E09093CE038093CD03FC
:101A6000FE01E350FC458091CD038160E231F10538
:101A7000C8F4E35CF24F0C94C92D4F0D5B0D5F0D64
:101A8000630D670D6B0D6F0D730D770D7B0D7F0D66
:101A9000830D870D8B0D8F0D930D970D9B0D8091F1
:101AA000CD0382608093CD038091CD030E94D0202E
:101AB0000E94FE19AACF8091CD038460F3CF80915C
:101AC000CD038860EFCF8091CD038061EBCF809113
:101AD000CD038062E7CF8091CD038064E3CF809116
:101AE000CD038068DFCF8091CD038460EACF809101
:101AF000CD038E7FD7CF8091CD038D7FD3CF8091C3
:101B0000CD038B7FCFCF8091CD03877FCBCF8091CB
:101B1000CD038F7EC7CF8091CD038F7DC3CF8091C2
:101B2000CD038F7BBFCF8091CD038F77BBCF8091CB
:101B3000CD038B7FEACF9091CD03892F97FB87F957
:101B40008058B0CF8091D90281110FC08091D50209
:101B50009091D6020E94D721883C910530F486E20C
:101B60000E94101686E20E94071782E00E945D170D
:101B70004CCFF8018281882351F01092DA020E9442
:101B8000CB219093D8028093D70280E229CF809115
:101B9000DA0281110FC08091D7029091D8020E9481
:101BA000D721883C910530F487E20E94101687E225
:101BB0000E94071780E2DACF0E945620F801928136
:101BC000992381F08A7A91E009F490E09093D4020D
:101BD000811106C089E20E94DF1F0E942320D2CE1D
:101BE00085E3F9CF8091D402811104C089E20E947B
:101BF000E61FF3CF85E3FBCFCF9390E0FC01E658DF
:101C0000F94FC4918650994FFC018491882369F063
:101C100081EE0E9410168C2F0E9410168C2F0E94AD
:101C2000071781EECF910C9407178C2F0E94101686
:101C30008C2FF8CFFF920F931F93CF93DF93EC017C
:101C4000F62E8881882331F18E010F5F1F4F81307E
:101C500041F4C9818C2F0E9410168C2F0E94071707
:101C600005C0823079F489810E941016E80121961E
:101C70008F2D815030F3EFE9FFE03197F1F700C08D
:101C80000000F7CF833011F48981E8CF0E94FC0D6A
:101C90008E01ECCFDF91CF911F910F91FF900895AE
:101CA00060E00C941A0EFF920F931F93CF93DF9373
:101CB0008C01F62EF8018491882349F1E8012196E0
:101CC000813049F4FE011491812F0E941016812F5A
:101CD0000E94071706C0823089F4FE0184910E9499
:101CE00010168E010F5F1F4F8F2D815018F3EFE9F3
:101CF000FFE03197F1F700C00000F7CF833019F40F
:101D0000FE018491E5CF0E94FC0DE801EACFDF914E
:101D1000CF911F910F91FF90089560E00C94530EA6
:101D2000CF93DF93C1E0D0E002C0CC0FDD1F8A95D6
:101D3000E2F78C2F0E94C720BE0190E080E0DF9187
:101D4000CF910C94171E0C94D9040E9480140C940B
:101D5000641108950C94A90E0C94AA0E90E080E0F2
:101D600008950895972F70E02CE0929F600D711DEB
:101D70001124FB0190E3899FE00DF11D1124EE0F6A
:101D8000FF1FE652FF4F859194910895FC01EE0FDD
:101D9000FF1FE658F84F859194910895CF93DF93F4
:101DA0000E94B20E0E946610EC018115904408F06A
:101DB00094C0C11580E3D80708F005C1C03ED10525
:101DC00008F071C0C03CD10508F0ECC0C83AD1059C
:101DD00080F4C53AD10508F0E9C0C130D10509F455
:101DE0006EC020F0C430D10508F069C0D0E0C0E07A
:101DF00066C0CD3BD105D0F7C83AD10509F427C15B
:101E0000C93AD10509F426C1CA3AD10509F425C158
:101E1000CB3AD10509F424C1CC3AD10509F423C148
:101E2000CB3BD10509F422C1CC3BD10509F421C13A
:101E3000CD3AD10509F420C1C03BD10509F41FC139
:101E4000CE3AD10509F41EC1CF3AD10509F41DC11E
:101E5000C13BD10509F41CC1C23BD10509F41BC12A
:101E6000C33BD10509F41AC1C43BD10509F419C11A
:101E7000C53BD10509F418C1C63BD10509F417C10A
:101E8000C73BD10509F416C1C83BD10509F415C1FA
:101E9000C93BD10509F414C1CA3BD10509F013C1EE
:101EA000CAE2D6E40CC0CF3FD10509F060F4C03FD0
:101EB000D10508F086C0C83ED10508F097CFCE0105
:101EC000DF91CF910895CE019F70C11520E2D20716
:101ED000B0F30E94C60EEC01F2CFC11584E5D8071D
:101EE000A0F5C11523E5D20708F08EC0C11581E524
:101EF000D80708F5C11520E5D20708F46EC0CE0159
:101F000054E0969587955A95E1F783709C2F9370CE
:101F100021E030E002C0220F331F9A95E2F73C68BF
:101F2000382BC695C695C37080E2C89FE001112486
:101F3000C22BD32BC4CFC11582E5D80708F050C0FF
:101F4000DC2FCC27C16FD06ABACFC11526E5D207E6
:101F500058F49C2F8827C115D54508F469C0EC01B9
:101F6000CC27DF71D062ABCFC11588E5D80708F464
:101F70003DCFC11529E5D20708F45EC0CE019056C9
:101F80008115904208F032CF8D2F8F710E94E6109C
:101F9000DD27D06290E0982F882788279F71C82B73
:101FA000D92B8DCFCE01805C910993CFC53AD10555
:101FB00009F447C0C63AD10509F446C0C3E8D0E4E5
:101FC0007ECFD0657CCFCE019927D3FF03C0EC0133
:101FD000D86C75CFEC01D06C72CFDF70D06A6FCF48
:101FE000CE018370992721E030E002C0220F331F19
:101FF0008A95E2F7C695C69580E2C89FE001112454
:10200000C22BD32BDC685BCFCE018370992721E0F4
:1020100030E002C0220F331F8A95E2F7C695C695BD
:1020200080E2C89FE0011124C22BD32BDA6847CF8E
:10203000EC01C46FD06A43CFDC2FCC27C06FD06ACD
:102040003ECFC1E8D0E43BCFC2E8D0E438CFC2EE07
:10205000D4E435CFC9EED4E432CFCAEED4E42FCFE6
:10206000C5EBD4E42CCFC6EBD4E429CFC3EBD4E446
:1020700026CFC4EBD4E423CFC7EBD4E420CFCCEC01
:10208000D4E41DCFCDECD4E41ACFC3E8D5E417CF08
:10209000CAE8D5E414CFC2E9D5E411CFC4E9D5E448
:1020A0000ECFC1E2D6E40BCFC3E2D6E408CFC4E240
:1020B000D6E405CFC5E2D6E402CFC6E2D6E4FFCE31
:1020C000C7E2D6E4FCCEC0E0D4E4F9CE8238910574
:1020D00049F1B0F48133910509F45CC048F48932C8
:1020E000910509F452C08A32910509F458C0089547
:1020F0008533910509F444C08933910599F0089519
:10210000833E910531F138F4803E910591F0823E95
:102110009105B1F00895863E910511F1873E910534
:1021200041F108952091CD032370C9F080EE90E035
:1021300008952091CD0320FF12C089E390E0089517
:102140002091CD0322FF0BC024FF2EC090E080E041
:1021500008952091CD0322FD2AC024FDF7CF0895D4
:102160002091CD0323FFFBCF24FDF0CF87EE90E03D
:1021700008952091CD0323FFF0CF86EE90E00895DF
:102180002091CD0325FD16C008952091CD0325FD96
:1021900014C008952091CD0326FD12C0089520910A
:1021A000CD0326FD10C0089583EE90E0089582EEE1
:1021B00090E0089589E290E0089585E390E0089525
:1021C0008AE290E0089581E390E0C9CFCF93C82FD1
:1021D0000E94CC20282F30E03093CE032093CD03F3
:1021E00082FF06C09C2F9871983079F4C77FC46035
:1021F00083FF06C09C2F9871983171F4C77EC4612B
:1022000084FDC77E8C2FCF9108959C2F94719430BC
:1022100079F7CB7FC860ECCF9C2F9471943181F714
:10222000CB7EC861EDCF08950F931F93CF938C01A0
:10223000FB018281811106C0C1E08C2FCF911F91DB
:102240000F910895C091E802C11125C006311C45C7
:1022500099F70E94131181E08093E8020E94CB213C
:102260009093E7028093E6021092DB021092DD0267
:102270001092DC021092DF021092DE021092E10254
:102280001092E0021092E3021092E2021092E50234
:102290001092E402D2CF8091E6029091E7020E9470
:1022A000D721883C910540F68091DB02E82FF0E0D1
:1022B000EE0FFF1FE452FD4F118300838F5F809369
:1022C000DB02C0E0BACF08950C946311CF93DF9383
:1022D00085B7806885BF85B7806885BFA2EBB2E00F
:1022E00046EB52E0C1E0D0E08D91E82FE295EF702F
:1022F000F0E061A18F709E0101C0220F8A95EAF77C
:10230000922F9095962391A382A1822B82A34A17A4
:102310005B0751F7A6EAB2E042EB52E0C1E0D0E041
:102320008D91E82FE295EF70F0E061A18F709E0132
:1023300001C0220F8A95EAF7922F9095962391A3D8
:1023400082A1822B82A34A175B0751F71092F202F7
:102350001092F1021092EA021092E9021092F40235
:102360001092F3021092EC021092EB021092F6021D
:102370001092F5021092EE021092ED021092F80205
:102380001092F7021092F0021092EF02DF91CF91BB
:102390000C94A30E4F925F927F928F929F92AF9276
:1023A000BF92CF92DF92EF92FF920F931F93CF9342
:1023B000DF93C9EED2E002EB12E096EBA92E92E099
:1023C000B92EEE24E394F12C99249394C880D980FB
:1023D00019821882D8018D918D01E82FE295EF7056
:1023E000F0E091A18F70970101C0220F8A95EAF762
:1023F000892F822B81A382A1822E8094882182A39F
:10240000B0EABA95F1F786EA482E82E0582E90E0BD
:1024100080E0D2017D912D01472F42954F7050E011
:10242000DA0190967C90488159817F70D70102C073
:10243000AA0FBB1F7A95E2F7BD01672109F068C0BA
:10244000B701082E02C0660F771F0A94E2F7462BE9
:10245000572B5983488301968C309105D1F681A181
:10246000882281A282A1282B22A388819981C81663
:10247000D90641F09092F9020E94CB219093FB0281
:102480008093FA022296A016B10609F09FCF8091A0
:10249000F902882351F18091FA029091FB020E9487
:1024A000D721069710F18091E9029091EA0290936A
:1024B000F2028093F1028091EB029091EC029093F2
:1024C000F4028093F3028091ED029091EE029093DA
:1024D000F6028093F5028091EF029091F0029093C2
:1024E000F8028093F7021092F9020E94A50E81E093
:1024F000DF91CF911F910F91FF90EF90DF90CF90E0
:10250000BF90AF909F908F907F905F904F90089575
:1025100070E060E09CCFE82FF0E0EE0FFF1FEF507F
:10252000FD4F8081918108950895EDEFF2E086E0FE
:10253000DF011D928A95E9F708950E94B420811168
:1025400002C00E9495208DE090E00E94E32D8093D0
:10255000C6030895CF93C82F0E949512C093C60357
:102560006C2F8DE090E0CF910C94F12DFF920F93A2
:102570001F93CF93DF93D82FF62E0DEF12E0C0E01C
:10258000CD1307C0DF91CF911F910F91FF900C9455
:102590009512F80181918F01811101C0F1100E9403
:1025A0006626CF5FEDCFE82FF0E0E35EFD4F908130
:1025B000E92FE295E695E695E370F0E0E350FD4FF4
:1025C0008081892B808380E0089560E084E00E9410
:1025D000B61280E00E94662680E0089567E00E94BF
:1025E000A92DE82FF0E0E350FD4F26E030E0291B55
:1025F000310981E090E0AC0102C0440F551F2A95DB
:10260000E2F78081842B808380E00895EDEFF2E093
:1026100080818068808361E086E00E94B61280E05D
:1026200008959C01FB0120338AE53807C1F030F49E
:10263000C9019A558A97D0F181E0089521333A452E
:10264000D9F790818181228143815481452B19F1F1
:102650008F3F19F481E09F3FF9F080E01DC0908129
:102660008181228143815481452B39F08F3F19F4B8
:1026700081E09F3F19F080E001C081E080FD09C04A
:10268000822F817020FFD9CF80E00E94AA1280E0C3
:10269000089520E0F5CF81E080FD06C0822F817093
:1026A00020FFCBCF81E0F1CF20E0F8CF40818181C6
:1026B000928163817481672B39F08F3F19F481E037
:1026C0004F3F19F080E001C081E080FD11C0892FEB
:1026D0009091FC0280FF11C09F5F9093FC0280915B
:1026E000C603882339F0813091F6822F0C94EE12C4
:1026F00080E0EECF822F0C94D3128FEF890F80935E
:10270000FC02811199CF8091C603882329F0813082
:1027100009F0BDCF0C9406130C94E512CF93DF9310
:10272000EC018E85811112C081E08E878F810E941D
:1027300059200E942320EA81FB8169897A89CE0190
:102740000696309719F0DF91CF910994DF91CF91E0
:1027500008950F931F93CF93DF93EC018F81811125
:102760002CC00A811B81175523E1209FC001219FA6
:10277000900D1124DC01A050BF4F1496ED91FC91F7
:10278000159751966D917C918A5F9E4F309709F015
:10279000099583E1809FF001819FF00D1124E050A5
:1027A000FF4F87810E945F200E94232018821E8293
:1027B00018861092040310920303DF91CF911F91AA
:1027C0000F910895EF92FF920F931F93CF93DF9392
:1027D0008C018091030390910403009771F080179E
:1027E000910759F0975523E1289FF001299FF00D9B
:1027F0001124E050FF4F81E08487FB014281C80132
:1028000097558F3F910511F008F057C020915D0258
:10281000022E000C330B2817390714F480935D0245
:1028200023E1289F7001299FF00C1124E701C0507B
:10283000DF4F4D87FB0182818823B9F11987088713
:102840008E818F5F8E830E94CB219B878A870E9417
:1028500092208F83E881F98169897A89C7018A5F2B
:102860009E4F309709F009958091030390910403DE
:102870000097B9F080179107A1F0975523E1289FA1
:10288000E001299FD00D1124CE0180509F4F21E0FF
:10289000FC0124870E948E13CE018A5F9E4F0E9406
:1028A000A913109304030093030381E0DF91CF91F8
:1028B0001F910F91FF90EF9008954423B1F3809101
:1028C0005D028F3F91F3C0E0D1E010E000E0FF2413
:1028D000F39480915D02082E000C990B80179107EC
:1028E00024F38E81882341F0FC86CE010E948E1352
:1028F000CE0106960E94A9130F5F1F4F6396E9CF82
:102900000F931F93CF93DF9380915D02C0E0D3E1DB
:102910008F3F91F5DF91CF911F910F910895D29F35
:10292000F001D39FF00D1124E050FF4F078510896F
:102930000115110511F408EC10E0D29FF001D39FAE
:10294000F00D1124E050FF4F86818823A1F082858D
:1029500093850E94D7210817190768F4CD9F80013D
:102960001124C80180509F4F0E948E13C8018A5FB6
:102970009E4F0E94A913CF5F2C2F30E080915D0203
:10298000082E000C990B821793074CF6C3CF909337
:102990000A03809309030895E0910903F0910A0363
:1029A000309721F00190F081E02D099480E00895A6
:1029B000E0910903F0910A03309721F00280F3813E
:1029C000E02D09940895E0910903F0910A033097EE
:1029D00021F00480F581E02D0994089520910703EA
:1029E000309108032817390771F0909308038093FA
:1029F0000703E0910903F0910A03309721F0068064
:102A0000F781E02D09940895209105033091060384
:102A10002817390771F09093060380930503E0911E
:102A20000903F0910A03309721F00084F185E02D2D
:102A30000994089508950C941A1581E008950E9450
:102A4000C2210E9466110E944B220C949D125F923B
:102A50006F927F928F929F92AF92BF92CF92DF92AE
:102A6000EF92FF920F931F93CF93DF93CDB7DEB713
:102A70002A970FB6F894DEBF0FBECDBF0E94CA11D1
:102A80000E941D15882309F47AC09CE0A92E93E0CA
:102A9000B92E10E000E088248394912C502E802FD2
:102AA0000E948B127C01F501C190D1905F01C81684
:102AB000D90609F45EC08091980381FD0E949412AA
:102AC00090E080E0CE24DF243401082E02C0660CA2
:102AD000771C0A94E2F7960126213721232B09F46B
:102AE00043C08E835F82E620F72081E0EF2809F45F
:102AF00080E088870E94CB218160782F9A87898720
:102B00004E815F8168858A850E94E615000F111F3E
:102B1000F801E45FFC4F80819181682679267182FB
:102B200060820E94DE230E94CC1490910B038917CF
:102B3000B9F10E94CC1480930B032A960FB6F89437
:102B4000DEBF0FBECDBFDF91CF911F910F91FF90E0
:102B5000EF90DF90CF90BF90AF909F908F907F903D
:102B60006F905F900C94AC0E01968C30910509F03B
:102B7000ABCF0F5F1F4F0430110509F08FCF8FEFE0
:102B800089838A831B820E94CB218160782F9D8359
:102B90008C8349815A816B818D810E94E615C1CF5A
:102BA0002A960FB6F894DEBF0FBECDBFDF91CF914E
:102BB0001F910F91FF90EF90DF90CF90BF90AF905B
:102BC0009F908F907F906F905F900895CF93DF9349
:102BD000CDB7DEB72B970FB6F894DEBF0FBECDBFD3
:102BE0004F83588769877A878B871E821D8285E08D
:102BF000FE013796DE01119601900D928A95E1F75C
:102C000049815A816B817C818D819E812B960FB683
:102C1000F894DEBF0FBECDBFDF91CF910C94E81CBE
:102C2000882309F4F3C08238B9F40E94CC1481FDE2
:102C3000EDC089E30E94DF1F0E9423202FEF81EE69
:102C400094E0215080409040E1F700C0000089E30B
:102C50000E94E61F0C9423208338A1F40E94CC1418
:102C600080FDD4C083E50E94DF1F0E9423202FEF48
:102C700081EE94E0215080409040E1F700C00000D8
:102C800083E5E6CF8438A1F40E94CC1482FDBEC057
:102C900087E40E94DF1F0E9423202FEF81EE94E043
:102CA000215080409040E1F700C0000087E4D0CF81
:102CB0009CEF980F913A18F40E94DF1FCBCF90E25F
:102CC000980F983050F4877091E001C0990F8A9561
:102CD000EAF7892F0E945920BDCF9BE5980F9330CA
:102CE00070F4853A31F0863A39F083E890E00C943C
:102CF000EE1481E890E0FBCF82E890E0F8CF98E511
:102D0000980F953108F082C0883A09F440C0893A9A
:102D100009F440C08A3A09F440C08B3A09F440C033
:102D20008C3A09F440C08B3B09F440C08C3B09F459
:102D300040C08D3A09F440C0803B09F440C08E3A4F
:102D400009F440C08F3A09F440C0813B09F440C007
:102D5000823B09F440C0833B09F440C0843B09F442
:102D600040C0853B09F440C0863B09F440C0873B26
:102D700009F440C0883B09F440C0893B09F440C0D5
:102D80008A3B09F440C090E080E00C94041582EE88
:102D900090E0FBCF89EE90E0F8CF8AEE90E0F5CF9F
:102DA00085EB90E0F2CF86EB90E0EFCF83EB90E005
:102DB000ECCF84EB90E0E9CF87EB90E0E6CF8CECB2
:102DC00090E0E3CF8DEC90E0E0CF83E891E0DDCFC1
:102DD0008AE891E0DACF82E991E0D7CF84E991E007
:102DE000D4CF81E292E0D1CF83E292E0CECF84E2F1
:102DF00092E0CBCF85E292E0C8CF86E292E0C5CFE9
:102E000087E292E0C2CF8AE292E0BFCF08958823A2
:102E100009F44BC0823871F40E94CC1481FF45C084
:102E200089E30E94DF1F0E94232089E30E94E61F9E
:102E30000C942320833859F40E94CC1480FF35C0B1
:102E400083E50E94DF1F0E94232083E5EFCF8438B3
:102E500059F40E94CC1482FF28C087E40E94DF1F2F
:102E60000E94232087E4E2CF9CEF980F913AF0F282
:102E700090E2980F983050F4877091E001C0990F5C
:102E80008A95EAF7892F0E945F20D2CF9BE5980FA1
:102E9000933020F490E080E00C94EE14885A853151
:102EA00020F490E080E00C9404150895882321F02C
:102EB0000E9459200C9423200895882321F00E9419
:102EC0005F200C94232008958F929F92AF92BF921F
:102ED000DF92EF92FF920F931F93CF93DF937C01CA
:102EE000D62FC72FFC01058102950F701281111199
:102EF0000E9478200E941C20D82E882371F0112374
:102F000031F180E28D0F883010F182E00E940620BE
:102F10000E941C2091E0D82ED926BC2EB2949FE0AE
:102F2000B922EB2DF0E0E956F84E0C94C92DA91703
:102F3000A917F917F9173A1934183A193A197618DE
:102F40003A1911191119A5193A193A19AE19D12CB2
:102F5000E4CF0C2F0F70C07F11F00295007F11237A
:102F6000A9F0002359F080E28D0F883010F0D111C4
:102F700009C0802F0E9459200E9423208D2F0E947B
:102F8000101614C0802F0E946A20F6CF8D2F0E9449
:102F90000717002359F080E28D0F883010F0D1110F
:102FA00024C0802F0E945F200E942320DD2009F48E
:102FB000DCC10E94F91F80FDD8C1F70112820E9476
:102FC000F31F0E94791EC7010E94C1190E94F31FBE
:102FD000DF91CF911F910F91FF90EF90DF90BF9005
:102FE000AF909F908F900C949A1E802F0E9470201B
:102FF000DBCFFC2FFF70BF2EC07FC03219F0B29420
:1030000080EFB822DD2339F0D130F9F0112331F10E
:10301000002329F0B3CF112361F0011104C08B2DDF
:103020000E945617C3CF8B2D0130D1F70E948C2000
:10303000BDCF011106C00E948F208B2D0E945D170D
:10304000B5CF013009F4B2CFF6CF112321F0023011
:1030500008F0ACCFE4CF0111A9CFEFCF002369F383
:103060008D2F0E940717A2CF112309F1D53F99F0A8
:10307000D63FB9F0D43F49F48091C7039091C8037B
:1030800081609093C8038093C7038D2F0E94E7222D
:103090000E94D3238BCF8091C7039091C803826095
:1030A000F0CF8091C7039091C8038460EACFD53FE9
:1030B00089F0D63FA9F0D43F49F48091C70390919D
:1030C000C8038E7F9093C8038093C7038D2F0E94FF
:1030D0004F23DECF8091C7039091C8038D7FF2CF3D
:1030E0008091C7039091C8038B7FECCF8C2F8370A6
:1030F00009F04BC0111136C02D2F2295269527704F
:10310000220F220F6D2F6F70862E912CB12CA12CC7
:10311000022E04C0880C991CAA1CBB1C0A94D2F76E
:1031200060E070E0CB01D4FF0FC06FE070E080E0A2
:1031300090E004C0660F771F881F991F2A95D2F769
:103140006095709580959095C695C695C370C23070
:1031500071F0A0F4682979298A299B29C13091F05E
:103160000E942B1E0E94CC140E94AC0E1FCF682917
:1031700079298A299B290E943D1EF4CF0E942B1E8B
:10318000C501B4010E94191EEDCF8695112311F0DF
:103190008C2F8170882331F32D2F2295269527704F
:1031A000220F220F6D2F6F70862E912CB12CA12C27
:1031B000022E04C0880C991CAA1CBB1C0A94D2F7CE
:1031C00060E070E0CB01D4FF0FC06FE070E080E002
:1031D00090E004C0660F771F881F991F2A95D2F7C9
:1031E0006095709580959095C695C695C370C230D0
:1031F00051F080F4682979298A299B29C13071F01E
:103200000E94F01EAFCF682979298A299B290E9444
:10321000021FA8CF0E94F01EC501B4010E94DE1E4D
:10322000A1CFE0E2ED0FE53108F070C0F0E0E55E1F
:10323000F64E0C94C92D3019301930193019301947
:103240003019301930193019301930193019301936
:103250003019301930194D19591960196719711938
:10326000DF708C2F8F71112391F00E94791E8D2FAA
:103270000E945617E8E0BE1609F474CFBE1608F493
:1032800095CE86EF8B0D823008F46CCF8FCE0E94E6
:103290009A1E8D2F0E945D17EDCF112339F0011179
:1032A000E9CF8C2F8F710E94BD1EE4CF023010F742
:1032B000F8CF8C2F8F71112339F00E94791EDACF4D
:1032C0008C2F8F711123C9F30E949A1ED3CF112323
:1032D00029F08C2F8F710E94641ECCCF0E945F1E3C
:1032E000C9CF112349F0CF718C2F0E94791E63E062
:1032F0008C2F0E94FD1FBECF81E00E94062002306D
:1033000008F4B8CF82E00E940620B4CF112349F020
:10331000002321F08D2F0E941016ACCF8C2F8F71BF
:10332000CCCF002379F0D93349F42FEF87EE93E027
:10333000215080409040E1F700C000008D2F0E9496
:10334000071798CF8C2F8F71BFCF4C2F4F706D2FD9
:10335000C7010E94AE0E0E94911D28CE4C2F4F70C7
:103360006D2FC7010E94B10E21CEDF91CF911F9129
:103370000F91FF90EF90DF90BF90AF909F908F9054
:1033800008950F931F93CF93DF93EC019881898168
:103390002B813C81232B39F08F3F19F481E09F3F33
:1033A00019F080E001C081E080FD17C0CE010E94CD
:1033B000790C882391F0688179818A810E94BB1FF2
:1033C0008C010E94141F0E94161EB801CE01DF91CD
:1033D000CF911F910F910C946417DF91CF911F91A2
:1033E0000F9108950E9478200E9489200E94ED1F6D
:1033F0000E9423200E9469240C94D3230E946720FA
:103400000C94F2190E94B11FE92FE295EF70E2507F
:10341000EE30E0F4F0E0E15FF54E0C94C92D1D1A9A
:103420001D1A261A261A281A261A261A261A1D1AAC
:103430001D1A2D1A261A261A2D1A803F19F020F46B
:10344000803E20F481E00895843FE1F380E0089518
:10345000803EC0F3813FD1F7F5CF93FB882780F9F9
:103460000895CF93DF9300D000D01F92CDB7DEB781
:103470000F900F900F900F900F90DF91CF910895C4
:10348000CF93DF9300D000D000D0CDB7DEB7269623
:103490000FB6F894DEBF0FBECDBFDF91CF91089578
:1034A0001F93CF93DF93C091150316E0809116030D
:1034B0008C1304C0DF91CF911F910895D0E01C9F21
:1034C000F0011D9FF00D1124E95EFC4F40815181F8
:1034D00062817381848195810E94401A2196C77010
:1034E000E5CF4091470350914803609149037091A3
:1034F0004A0380914B0390914C030C94401A209105
:1035000015039091160356E0291302C080E0089538
:1035100030E0529FF001539FF00D1124E95EFC4F03
:103520007181761306C07081781303C072817413A1
:1035300004C02F5F3F4F2770E7CF81E008951F93AE
:10354000CF93DF9380914C03807FD1F48091490326
:103550008823B1F080911503D0911603B0914703F1
:10356000C091480340914A0350914B03A1E0BF3FF3
:1035700009F0A0E0BA016095709516E0D81304C078
:10358000DF91CF911F91089521E04115510521F060
:103590002A2FCF3F09F020E090E020FD38C0189F8F
:1035A000F001199FF00D1124E95EFC4F21812C13CD
:1035B0002EC020812B132BC02281211128C02381F2
:1035C00034812417350700F1241B350B283C3105C5
:1035D000F0F420914C032F70206120934C0326E0DF
:1035E000289FF001299FF00D1124E45EFC4F80819B
:1035F0008F708061808387E493E00E94C119DF911E
:10360000CF911F910C94501A260F371FDFCF0196D0
:103610008770B4CF9F92AF92BF92CF92DF92EF921A
:10362000FF920F931F93CF93DF93CDB7DEB76197D0
:103630000FB6F894DEBF0FBECDBF8C0185E0F80158
:10364000DE011D9601900D928A95E1F7D801DC907C
:103650001196EC9011971296CC90309147034091BF
:10366000480380914A0390914B0321E0009731F089
:103670004F3F19F421E03F3F09F020E020FD9AC1BF
:10368000F801A380B48090904903992009F43FC1C8
:10369000A816B906E0F1B501681B790BCB01FF2430
:1036A000F394883C910508F0F12C80914C03982FFD
:1036B000907FFF2009F4E2C091119DC0FC2C4E11B7
:1036C0002BC03D1129C0C11027C08F70806180932D
:1036D0004C030E94711A87E493E00E94C119809103
:1036E0004C03D80115968C938F2D61960FB6F894E4
:1036F000DEBF0FBECDBFDF91CF911F910F91FF9025
:10370000EF90DF90CF90BF90AF909F9008958095FD
:1037100090958A0D9B1DC3CF81E0A114B10431F0B7
:10372000BFEFEB1202C081E0DB1280E080FD1AC027
:1037300081E08C2580FF18C04C2D6E2D8D2D0E94B0
:103740007F1A882389F087E493E00E94C11986E0FC
:10375000E7E4F3E0DF011D928A95E9F70E94711A10
:10376000F12CC2CF80E0E6CF81E0AB2831F0BFEF93
:10377000EB1202C081E0DB1280E080FD25C081E019
:103780008C25E82FE170AE2E80FF2CC04C2D6E2DC5
:103790008D2D0E947F1AB82E811124C0DD86EE8601
:1037A0008D859E850E94B11F292F22952F70223072
:1037B00068F0243090F49F7069F0D80115969C91C0
:1037C000907F41F4FB2C90CF80E0DBCF9F7011F015
:1037D0008823C1F3805E8830A8F3C8010E94C11914
:1037E000BA2CF0CFCC2009F47FCF80914C038160BC
:1037F00080934C03B5CF4E1114C03D1112C0C110BF
:1038000010C0F8018583C8010E94C11986E0F80143
:10381000A7E4B3E001900D928A95E1F70E94711A36
:1038200063CFDD86EE868D859E850E94021A8823F1
:1038300009F4CAC0CC2009F4C7C080914C0380327F
:1038400070F0209147033091480338872F83198601
:10385000BB86AA868C87CE0107960E94C11986E096
:10386000F801A7E4B3E001900D928A95E1F70E9478
:103870009F1A0E94711AFF24F39436CF911115C03C
:103880007A2DB98AA88A4D2D5E2D6C2D89890E94CA
:10389000311A87E493E00E94C11986E0E7E4F3E07F
:1038A000DF011D928A95E9F7B9CF4E1112C03D1183
:1038B00010C0C1100EC0F8018583C8010E94C11953
:1038C000E7E4F3E086E0DF011D928A95E9F7F92C41
:1038D0000BCFDD86EE868D859E850E94021A882399
:1038E00009F472C0CC2009F46FC080914C0380327F
:1038F00008F4B5CF20914703309148033A832983D8
:103900001B82BD82AC828E83CE010196A6CFA81603
:10391000B90638F1F501E81BF90BCF01F12C883C11
:10392000910508F03DC0FC2CCC2009F44DC04E118F
:1039300026C03D1124C080914C0380FD17C0982FF4
:10394000907FA1F0D80115968C931597903F09F4BC
:103950005ACF982F907F905F8F70892B15968C93FC
:1039600052CF809590958A0D9B1DD8CF86E0F801A7
:10397000A7E4B3E001900D928A95E1F7B5CEDD861C
:10398000EE868D859E850E94021A811168CF8091F6
:103990004C03816080934C03C8010E94C119A4CEDE
:1039A0007A2DB98AA88A4D2D5E2D6C2D89890E94A9
:1039B000311A73CFCC2041F0DD86EE868D859E8551
:1039C0000E94021A81114BCFC8010E94C11953CF26
:1039D0001F93CF93DF93CDB7DEB72C970FB6F89434
:1039E000DEBF0FBECDBF4F83588769877A878B872D
:1039F0009C87CE0107960E940A1B882309F442C0C7
:103A00009F8188852A853B85232B39F08F3F19F4C8
:103A100081E09F3F19F080E001C081E080FD08C097
:103A20004F81588569857A858B859C850E94401ACF
:103A300016E08091150390911603891709F467C069
:103A4000819FC0011124895E9C4F0E940A1B88231C
:103A500009F45DC0E09115031E9FF0011124E95E99
:103A6000FC4F4081518162817381848195810E94E4
:103A7000401A8091150390E00196877099278093F2
:103A80001503D7CF86E0FE013796DE01119601902F
:103A90000D928A95E1F79F8188852A853B85232BA6
:103AA00039F08F3F19F481E09F3F19F080E001C0A9
:103AB00081E080FDBDCF2091160330E0C901019661
:103AC00087709927409115034817190699F096E0D9
:103AD000929FD001939FB00D1124A95EBC4FFE01AF
:103AE000319601900D929A95E1F7809316030E940A
:103AF000501A9ECF0E94FE191092160310921503C1
:103B000086E0E7E4F3E0DF011D928A95E9F72C9661
:103B10000FB6F894DEBF0FBECDBFDF91CF911F91DE
:103B20000895EF92FF920F931F93CF93DF938C0131
:103B3000892B81F0F12CEE24E394E8012196F80121
:103B40008491843770F4843008F05FC08130B1F024
:103B50008230A1F1DF91CF911F910F91FF90EF90F3
:103B60000895853709F44CC008F43DC09CE7980FD0
:103B7000903780F78F770E94071749C00E5F1F4F5D
:103B8000FE01849190E2980F983060F48770FE2DCA
:103B900001C0FF0F8A95EAF78F2F0E947B200E94B9
:103BA000232002C00E9410168F2D815030F2EFE9C1
:103BB000FFE03197F1F700C00000F7CF0E5F1F4F15
:103BC000FE01849190E2980F983050F48770FE2D9A
:103BD00001C0FF0F8A95EAF78F2F0E948120DFCF67
:103BE0000E940717E1CF0E5F1F4FFE01C491C15025
:103BF000D8F28FE99FE00197F1F700C00000F7CFFE
:103C00000E5F1F4FFE01F490CFCF0E9410168E0161
:103C1000CBCF08950E94091E60936F0370937003C9
:103C200080937103909372030C94F21908950C948D
:103C30000A1E0F931F9300916F0310917003209140
:103C4000710330917203602B712B822B932B1F9188
:103C50000F910C940A1E0F931F9300916F03109104
:103C600070032091710330917203602371238223CA
:103C700093231F910F910C940A1E0F931F93009191
:103C80006F031091700320917103309172036027CC
:103C90007127822793271F910F910C940A1E0C9471
:103CA000091E0C944F1E0E94511E60936B0370936B
:103CB0006C0380936D0390936E030C94F21960E093
:103CC00070E0CB010C94531E0F931F9341E050E022
:103CD00060E070E08A019B0104C0000F111F221FE9
:103CE000331F8A95D2F7C901B8011F910F910C9427
:103CF000531E0F931F9341E050E060E070E004C05A
:103D0000440F551F661F771F8A95D2F780916B036A
:103D100090916C03A0916D03B0916E038A019B0199
:103D2000082B192B2A2B3B2BC901B8011F910F918E
:103D30000C94531E0F931F9341E050E060E070E03D
:103D400004C0440F551F661F771F8A95D2F7CB0119
:103D5000BA01609570958095909500916B031091D4
:103D60006C0320916D0330916E03602371238223D5
:103D700093231F910F910C94531E0F931F9341E0B7
:103D800050E060E070E004C0440F551F661F771FCD
:103D90008A95D2F780916B0390916C03A0916D038B
:103DA000B0916E038A019B01082719272A273B2718
:103DB000C901B8011F910F910C94531E0F931F93CB
:103DC00000916B0310916C0320916D0330916E0391
:103DD000602B712B822B932B1F910F910C94531EF0
:103DE0000F931F9300916B0310916C0320916D034F
:103DF00030916E0360237123822393231F910F91CF
:103E00000C94531E0F931F9300916B0310916C033E
:103E100020916D0330916E036027712782279327CD
:103E20001F910F910C94531E08952CE0929F800DCA
:103E30001124982F977071E001C0770F9A95EAF7D7
:103E400086958695869525E0829FC001112450E0D5
:103E500040E0A62FB0E0FC01E40FF51FE35BFC4F50
:103E600060819D01042E02C0369527950A94E2F7E1
:103E70002170219526272723262720834F5F5F4F18
:103E80004530510541F708952CE0929F800D112493
:103E9000982F977086958695869525E0829FA0013C
:103EA000112470E060E080E0FA01E60FF71FE35BA9
:103EB000FC4F208130E0092E02C0369527950A94E8
:103EC000E2F721703327062E01C0220F0A94EAF789
:103ED000822B6F5F7F4F6530710531F70895BF9278
:103EE000CF92DF92EF92FF920F931F93CF93DF93C6
:103EF0008C01C0906B03D0906C03E0906D03F09048
:103F00006E0380916F0390917003A0917103B09143
:103F10007203C82AD92AEA2AFB2ACFE1D0E0BC2EB4
:103F2000D701C6010C2E04C0B695A7959795879525
:103F30000A94D2F780FD0EC0219788F7B12C8B2D03
:103F4000DF91CF911F910F91FF90EF90DF90CF9075
:103F5000BF900895B8018C2F0E94CE0E019761F397
:103F6000EECFCF93DF93EC010E946F1FBE01DF9174
:103F7000CF910C94CE0E1F93CF93DF93EB019091D2
:103F80001403992331F0CB01DF91CF911F910C9451
:103F9000B11F882379F0CB010E946F1F182F682F63
:103FA000CE010E94151FBE01812FDF91CF911F917D
:103FB0000C94CE0ECB010E94441F182FF4CF682F13
:103FC00080915E0290915F020C943221682F809163
:103FD0005E0290915F020C943D2180915E0290916F
:103FE0005F020C9448218091730385958595859592
:103FF0000895809173038770089598E0899F9001D8
:104000001124622B609373030C94791E90917303B7
:104010008095892380937303282F277061F4282FBC
:10402000082E000C330B9217130629F08595859501
:1040300085950C949A1E089590917303977081E072
:1040400009F480E00895E0915E02F0915F028091B2
:1040500097038083E0915E02F0915F0280819091EE
:104060009603892B8083E0915E02F0915F0280814C
:1040700090919503892B808390917403992381F00B
:10408000E0915E02F0915F028081892B80838091B4
:104090005E0290915F020E94D520811110927403FC
:1040A00080915E0290915F020C94D81480919703E6
:1040B000089590919703892B809397030895982FE3
:1040C0009095809197038923809397030895109288
:1040D0009703089590919603892B809396030895F2
:1040E000982F909580919603892380939603089545
:1040F00010929603089590919503892B80939503D0
:104100000895982F90958091950389238093950326
:104110000895109295030895809374030895109262
:10412000740308958091740308956DEE7EEF90E01E
:1041300080E00E94032E60E082E090E00E94F12D7A
:1041400060E083E090E00E94F12D60E084E090E088
:104150000E94F12D60E085E090E00E94F12D60E08A
:104160008DE090E00C94F12D90E080E00E94EB2D2A
:1041700021E08D3E9E4F09F020E0822F089582E0DD
:1041800090E00C94E32D83E090E00C94E32D682FF5
:1041900083E090E00C94F12D84E090E00C94E32D0A
:1041A000682F84E090E00C94F12DFC0131969C0185
:1041B000205E3F4F80E0919191118F5FE217F307EE
:1041C000D1F708959C01FC0132969FEF80E0419168
:1041D000461751F09F3F19F4411101C0982F8F5F8E
:1041E0008E31A9F79F3F09F40895290F311D97FDDE
:1041F0003A95F90162830895FC01329680962191E7
:10420000261303C0DF0111971C92E817F907B9F7CD
:104210000895E62FE695E695E695EF3169F0E80F0B
:10422000F92FF11D677021E030E001C0220F6A957F
:10423000EAF78181822B81830895E62FE695E69542
:10424000E695EF3171F0E80FF92FF11D677021E06D
:1042500030E001C0220F6A95EAF72095818128237A
:104260002183089520918B02222329F02091CD03F0
:1042700027FD0C9409210C94E22020918B0222232B
:1042800029F02091CD0327FD0C941D210C94FC20D6
:10429000FC01319680961192E817F907E1F708952D
:1042A0008091D303843039F11092990388E190E032
:1042B00020E40FB6F894A895809360000FBE209379
:1042C000600080E00E94AC0E83B7817F846083BF72
:1042D00083B7816083BF7894889583B78E7F83BFCF
:1042E0000FB6F894A8958091600088618093600073
:1042F000109260000FBE089508950895CF930E9414
:104300007C210E94CA110E947D21C0E08C2F0E9456
:104310008B12892B31F4CF5FC430C1F780E0CF918D
:10432000089581E0FCCF0E94FE190E94CC140C94E9
:10433000AC0E1F920F920FB60F9211248F939F9382
:10434000AF93BF9380919903811113C08091C903EA
:104350009091CA03A091CB03B091CC034196A11DCB
:10436000B11D8093C9039093CA03A093CB03B0936C
:10437000CC03BF91AF919F918F910F900FBE0F9083
:104380001F90189582E084BD93E095BD9AEF97BD8C
:1043900080936E0008952FB7F8948091C90390918F
:1043A000CA03A091CB03B091CC032FBF0895CF9245
:1043B000DF92EF92FF920F931F932FB7F8944091E3
:1043C000C9035091CA036091CB037091CC032FBFF6
:1043D0006A017B01EE24FF248C0130E020E0C0164E
:1043E000D106E206F30650F0481B590BCA011F9193
:1043F0000F91FF90EF90DF90CF90089541505109B9
:10440000F3CF78941F920F920FB60F9211248F93CF
:104410009F93AF93BF938091C9039091CA03A091DA
:10442000CB03B091CC030196A11DB11D8093C903AC
:104430009093CA03A093CB03B093CC03BF91AF91E9
:104440009F918F910F900FBE0F901F90189581E054
:104450008093E00080E28093D8001092C9008FE141
:104460009EE40197F1F700C0000087E090EBDC01CB
:104470008093DC039093DD03A093DE03B093DF030E
:1044800088E19CE00FB6F894A895809360000FBE79
:1044900090936000FFCF0E94B420811102C00E945F
:1044A00095200E94BF20809398030E94CC2090E02A
:1044B0009093CE038093CD030E94C320682F70E0B9
:1044C00090E080E00C94171E80919C0380FF12C046
:1044D0006091630285E0689FB0011124759567952E
:1044E0007595679560387105A8F561157105A1F19D
:1044F000862F089581FF09C06091630285E0689F5F
:10450000B001112475956795EDCF82FF07C06091CA
:10451000630285E0689FB0011124E4CF20919D03E0
:104520002223A9F0909162026091630285E0689F66
:10453000B00111242917B0F6269FA001279F500D26
:104540001124692F70E0CA010E94B52DCBCF65E020
:1045500070E0CECF8FE7089581E0089580919C03AD
:1045600080FF0CC06091610270E07595679575954C
:1045700067956115710549F1862F089581FF06C081
:104580006091610270E075956795F3CF609161026B
:1045900082FD0BC090919D039923A1F06091600270
:1045A00080916102961738F0682F70E060387105CD
:1045B00000F38FE70895899FC001112470E00E94E5
:1045C000B52DF4CF61E070E0D7CF81E00895803F52
:1045D00031F40E94642281958093A0030895813F65
:1045E00019F40E946422F8CF823F31F40E946422C1
:1045F000819580939F030895833F19F40E9464225C
:10460000F8CF893F29F40E94AE228093A103089538
:104610008A3F21F40E94AE228195F7CF8B3F31F47F
:104620000E94AE2281958093A20308958C3F19F4D5
:104630000E94AE22F8CF843F31F480919E038160C6
:1046400080939E030895853F21F480919E038260AC
:10465000F7CF863F21F480919E038460F1CF873F9E
:1046600021F480919E038860EBCF883F21F48091F4
:104670009E038061E5CF8D3F31F480919C03816082
:1046800080939C0308958E3F21F480919C03826067
:10469000F7CF8F3FB9F780919C038460F1CF803FC3
:1046A000C1F48091A00387FD1092A00380919F0325
:1046B00081110EC08091A00381110AC08091A103D5
:1046C000811106C08091A203811102C010929D0346
:1046D0000895813F29F48091A00318162CF3E6CFAA
:1046E00090919F03823F29F497FFE0CF10929F03A0
:1046F000DDCF833F19F41916CCF3D8CF893F39F4B5
:104700008091A103181694F61092A103CFCF8A3F8F
:1047100029F48091A10387FFC9CFF6CF8B3F39F4ED
:104720008091A20387FFC2CF1092A203BFCF8C3F1C
:1047300029F48091A2031816BCF3B8CF843F31F45A
:1047400080919E038E7F80939E03B0CF853F21F49E
:1047500080919E038D7FF7CF863F21F480919E0349
:104760008B7FF1CF873F21F480919E03877FEBCF32
:10477000883F21F480919E038F7EE5CF8D3F31F4F9
:1047800080919C038E7F80939C0390CF8E3F21F479
:1047900080919C038D7FF7CF8F3F09F087CF809169
:1047A0009C038B7FF0CF8EE993E00E94E3140E947C
:1047B000CB2190939B0380939A0308951F93CF93EB
:1047C000DF9380919A0390919B030E94D721AC01C3
:1047D00090919D032091640230E0911106C02091D8
:1047E00065028AE0289F900111244217530780F048
:1047F00080919F031091A003D091A103C091A203C7
:1048000081110AC0111161C0D1115FC0C1115DC019
:10481000DF91CF911F9108959F3F19F09F5F909373
:104820009D03181624F40E94642280939F038091B4
:104830009F0387FF05C00E946422819580939F0398
:10484000111624F40E9464228093A0038091A00397
:1048500087FF05C00E94642281958093A003409148
:104860009F03442379F03091A003332359F025EBC3
:104870004203A001112450939F033203900111249D
:104880003093A0031D1624F40E94AE228093A1034E
:104890008091A10387FF05C00E94AE22819580937D
:1048A000A1031C1624F40E94AE228093A2038091DF
:1048B000A20387FF05C00E94AE2281958093A203C8
:1048C000DF91CF911F910C94D3239F3F09F0A6CF86
:1048D000B7CF85E0EEE9F3E0DF011D928A95E9F7B5
:1048E00010929D0310929C0308958091C303089534
:1048F0000F931F93CF93DF9300D01F92CDB7DEB7F6
:104900008C010E945327823011F0843021F583E01E
:1049100089831B830A8382E08093E9008FEF909163
:10492000E800815095FD06C095ED9A95F1F70000DD
:104930008111F5CF8091E80085FF0DC050E040E087
:1049400063E070E0CE0101960E9470278091E8003C
:104950008E778093E8000F900F900F90DF91CF91AA
:104960001F910F910895CF93DF9300D01F92CDB781
:10497000DEB72091D303243029F522E02983805823
:1049800091099B838A832093E9008FEF9091E8003F
:10499000815095FD06C095ED9A95F1F700008111C3
:1049A000F5CF8091E80085FF0DC050E040E063E066
:1049B00070E0CE0101960E9470278091E8008E770A
:1049C0008093E8000F900F900F90DF91CF910895A2
:1049D000CF93DF93EC010E945327823011F0843093
:1049E000F9F482E08093E9008FEF9091E800815024
:1049F00095FD06C095ED9A95F1F700008111F5CF70
:104A00008091E80085FF0CC050E040E065E070E078
:104A1000CE010E9470278091E8008E778093E80095
:104A2000DF91CF910895CF93DF93EC010E9453273C
:104A3000823011F08430F9F480918B028823F1F0F8
:104A40008091CD0387FF1AC083E08093E9008FEF48
:104A50009091E800815095FD06C095E19A95F1F797
:104A600000008111F5CF8091E80050E040E060E265
:104A700070E085FD1AC0DF91CF91089581E08093A9
:104A8000E9008FEF9091E800815095FD06C095ED0B
:104A90009A95F1F700008111F5CF8091E80085FF2C
:104AA000EACF50E040E068E070E0CE010E9470275D
:104AB0008091E8008E778093E80080E2FE01A3EA0F
:104AC000B3E001900D928A95E1F7D5CF8091D203A2
:104AD000811109C00E9400290E945D298091E20095
:104AE00084608093E20008951092D203089508959F
:104AF00008950C94932142E061EC81E00E947E28AD
:104B000042E061EC82E00E947E2842E261EC83E0B8
:104B10000E947E2842E061EC84E00E947E2842E10F
:104B200060E886E00E947E2842E161E885E00C941E
:104B30007E288091D503833009F457C048F4813032
:104B400081F1823009F499C086E692E00C94F72C4A
:104B50008A3009F481C08B3009F464C08930A1F730
:104B60008091D403813281F78091D8039091D90349
:104B7000009711F0029741F78091E800877F8093BA
:104B8000E8008091E80082FF2BC08091F1008093C3
:104B9000C3038091E8008B778093E8000E94B228DD
:104BA000D3CF8091D403813A79F68091E800877F52
:104BB0008093E8008091D8039091D903892B61F408
:104BC00060E283EA93E070E00E94BF278091E800F2
:104BD0008B778093E800B8CF60E090E080E0F3CF7F
:104BE0008091D3038111CDCF08958091D403813A70
:104BF00009F0AACF8091D8039091D903892B09F0AD
:104C0000A3CF8091E800877F8093E8008091E8003F
:104C100080FFFCCF80918B028093F1008091E800AF
:104C20008E77BACF8091D403813209F08DCF8091F5
:104C3000D8039091D903892B09F086CF8091E800A1
:104C4000877F8093E8000E94B2288091D6038093EA
:104C50008B020E94FE1978CF8091D403813209F033
:104C600073CF8091E800877F8093E8000E94B2288C
:104C70008091D7038093C40367CF8091D403813A96
:104C800009F062CF8091E800877F8093E8008091EF
:104C9000E80080FFFCCF8091C403BECF82E090E0AB
:104CA000909379028093780286E692E00C94AF2C80
:104CB000089586E692E00E944A2C892B31F086E620
:104CC00092E00E94792C0C9458260895CF93C091BD
:104CD000E9009091EC0090FD19C090E020917602DF
:104CE00020FF12C0CF70C92B909167029F709093E4
:104CF000E9009091EB0090FF04C09091EE0097FDC9
:104D000007C0CF70C093E900CF91089590E8E6CF37
:104D10009FEF2091E800915025FD06C025ED2A95D2
:104D2000F1F700009111F5CF8093F10086E692E053
:104D30000E94022C8091E80080FFE3CF8091E80080
:104D40008E778093E800DDCF84B7877F84BF0FB66E
:104D5000F894A8958091600088618093600010921B
:104D600060000FBE80E880936100109261000E9495
:104D70001B150E9400290E945D298091E200846039
:104D80008093E20078940E94E62B0E941F1581E830
:104D900092E00E94C7140E944E268091D303853072
:104DA00049F00E9427150E94592686E692E00E944B
:104DB000332CF3CF0E9450218091D103882369F3D3
:104DC0000E947E21882349F30E945A27E6CF292F8B
:104DD00033272330310579F158F421303105F1F0D2
:104DE0002230310519F190E080E030E020E01AC077
:104DF00021323105C9F122323105A9F7633071053D
:104E000090F7FB01EE0FFF1FE754FD4F208131812A
:104E10006A547D4FFB01808190E004C082E190E004
:104E200027E438E0FA0131832083089581E990E096
:104E300026EB37E0F7CF99278130910579F040F0E4
:104E40008230910571F0039771F6EAE7F7E002C04E
:104E5000E2EBF7E0849190E09F01E4CFECE9F7E02A
:104E6000F9CFE0E8F7E0F6CF6330710508F0BBCF8B
:104E7000660F771FFB01E154FD4F2081318189E0EE
:104E800090E0D0CF0895CF93C82F0E944227C093BF
:104E9000C503CF9108958091D303843011F081E050
:104EA000089582E008958091C503811102C00C9499
:104EB0004B27089580E189BD82E189BD09B400FED8
:104EC000FDCF8091D8008F7D8093D8008091E00045
:104ED00082608093E0008091E00081FDFCCF089526
:104EE000AF92BF92CF92DF92FF920F931F93CF9317
:104EF000DF936C01EB018A010E94D128F82E811109
:104F000023C00115110539F0F80180819181C81B7A
:104F1000D90BC80ED91EB12CA12C2097A9F08091D5
:104F2000E80085FD22C08091E8008E778093E8003C
:104F300001151105A1F0F80180819181A80EB91E1B
:104F4000B182A08285E0F82E8F2DDF91CF911F9145
:104F50000F91FF90DF90CF90BF90AF9008950E9487
:104F6000D1288823D1F2F82EEFCFF60181916F017D
:104F70008093F1002197FFEFAF1ABF0ACECFFC015B
:104F80008091DA039091DB0386179707A0F06115F3
:104F9000710529F49091E8009E779093E80090E0E5
:104FA0006115710551F4911108C08091E80082FFEC
:104FB00035C080E00895BC01F2CF8091D3038823EF
:104FC000C9F18530C9F18091E80083FD31C080913D
:104FD000E80082FDEACF8091E80080FFE1CF2091D8
:104FE000F3008091F200322F282F6115710519F01E
:104FF0002830310558F091E02830310509F090E073
:105000002091E8002E772093E800CACF8191809309
:10501000F100615071092F5F3F4FE7CF8091D303BB
:10502000882341F0853041F08091E80083FFBDCFB7
:1050300081E0089582E0089583E00895FC01809165
:10504000DA039091DB0386179707A0F061157105CD
:1050500029F48091E8008E778093E80090E0611554
:10506000710551F4911108C08091E80082FF36C0AB
:1050700080E00895BC01F2CF8091D3038823D1F161
:105080008530D1F18091E80083FD32C08091E80045
:1050900082FDEACF8091E80080FFE1CF2091F3000C
:1050A0008091F200322F282F6115710519F02830F8
:1050B000310558F091E02830310509F090E08091F9
:1050C000E8008E778093E800CACF84918093F10046
:1050D0003196615071092F5F3F4FE6CF8091D30326
:1050E000882341F0853041F08091E80083FFBCCFF8
:1050F00081E0089582E0089583E00895982F973025
:1051000028F08F708093E90081E008959093E90082
:10511000242F762F50E0981731F07091EC002091F9
:10512000ED005091F00021FD02C09F5FE8CF30916B
:10513000EB003E7F3093EB003091ED003D7F3093EC
:10514000ED003091EB0031603093EB007093EC0098
:105150002093ED005093F0002091EE0027FDE5CF65
:1051600080E008958091D40387FF13C08091E80008
:1051700082FF06C08091E8008B778093E80004C02E
:105180008091D3038111F2CF08958091D3038823B6
:10519000D9F38091E80080FFF8CF8091E8008E7706
:1051A000ECCF2091E4003091E50085E69091EC0091
:1051B00090FF06C09091E80090FF06C080E008953F
:1051C0009091E80092FDFACF9091D303992391F04A
:1051D000953091F09091EB0095FD10C04091E40066
:1051E0005091E5002417350709F381509A01F1F633
:1051F00084E0089582E0089583E0089581E00895B1
:105200000E946E290E947629E0EEF0E080818160A4
:105210008083E8EDF0E080818F77808319BCA7ED73
:10522000B0E08C918E7F8C9380818F7E80831092F2
:10523000D20308950F931F93CF93DF930E946E299B
:105240000E947629C8EDD0E088818F778883888195
:105250008068888388818F7D888319BC1092D303EE
:105260001092CF031092D1031092D00300EE10E001
:10527000F80180818B7F808388818160888342E010
:1052800060E080E00E947E28E1EEF0E080818E7F89
:105290008083E2EEF0E0808181608083808188609D
:1052A0008083F80180818E7F8083888180618883FC
:1052B000DF91CF911F910F910895E8EDF0E080818B
:1052C0008F7E8083E7EDF0E080818160808384E0E1
:1052D00082BF81E08093D2030C941A29E8EDF0E0BC
:1052E00080818E7F80831092E20008951092DA0010
:1052F0001092E10008951F920F920FB60F921124A1
:105300002F933F934F935F936F937F938F939F93CD
:10531000AF93BF93EF93FF938091E10082FF0BC0A7
:105320008091E20082FF07C08091E1008B7F809333
:10533000E1000E94E52B8091DA0080FF19C0809186
:10534000D80080FF15C08091DA008E7F8093DA004C
:105350008091D90080FF94C080E189BD82E189BD40
:1053600009B400FEFDCF81E08093D3030E9466253F
:105370008091E10080FF19C08091E20080FF15C09C
:105380008091E2008E7F8093E2008091E200806154
:105390008093E2008091D80080628093D80019BC8D
:1053A00085E08093D3030E9478258091E10084FFFB
:1053B00029C08091E20084FF25C080E189BD82E19F
:1053C00089BD09B400FEFDCF8091D8008F7D809308
:1053D000D8008091E1008F7E8093E1008091E2000F
:1053E0008F7E8093E2008091E20081608093E200F2
:1053F0008091CF03882309F449C084E08093D303CC
:105400000E9479258091E10083FF29C08091E2000C
:1054100083FF25C08091E100877F8093E10082E0D7
:105420008093D3031092CF038091E1008E7F80930D
:10543000E1008091E2008E7F8093E2008091E200A3
:1054400080618093E20042E060E080E00E947E287C
:105450008091F00088608093F0000E947725FF9192
:10546000EF91BF91AF919F918F917F916F915F91DC
:105470004F913F912F910F900FBE0F901F90189555
:1054800019BC1092D3030E94742572CF8091E3005F
:1054900087FD02C081E0B2CF83E0B0CF1F920F92B0
:1054A0000FB60F9211242F933F934F935F936F93F7
:1054B0007F938F939F93AF93BF93CF93EF93FF937C
:1054C000C091E900CF708091EC001092E9008091CA
:1054D000F000877F8093F00078940E948A2A1092CF
:1054E000E9008091F00088608093F000C093E900AB
:1054F000FF91EF91CF91BF91AF919F918F917F914C
:105500006F915F914F913F912F910F900FBE0F9030
:105510001F9018951F93CF93DF93CDB7DEB7AA974F
:105520000FB6F894DEBF0FBECDBFE4EDF3E080917F
:10553000F100819323E0EC3DF207C9F70E94992521
:105540008091E80083FF44C08091D4039091D503FB
:105550009A3008F03DC0E92FF0E0EF54F54D0C947F
:10556000C92DBB2AE12AE82AE12AE82A3F2B612B30
:10557000E82AB82BC52B803889F0823849F580910C
:10558000D8038F70873020F58093E9008091EB007D
:1055900085FB882780F91092E90006C08091D0032E
:1055A0009091D103911182609091E800977F909340
:1055B000E8008093F1001092F1008091E8008E776E
:1055C0002DC0282F2D7F21F48823D1F0823059F16E
:1055D0008091E80083FF0AC08091E800877F809374
:1055E000E8008091EB0080628093EB00AA960FB6F2
:1055F000F894DEBF0FBECDBFDF91CF911F9108950C
:105600008091D603813021F7933009F080E08093B8
:10561000D1031092E9008091E800877F8093E80031
:105620000E94B228D5CF8091D6038111F2CF80910C
:10563000D8038F702FEF280F263050F68093E900A3
:105640002091EB0020FFE5CF933031F48091EB0007
:1056500080628093EB00DDCF9091EB00906190939E
:10566000EB0021E030E001C0220F8A95EAF7209399
:10567000EA001092EA008091EB008860EACF811185
:10568000A7CF1091D6031F778091E3008078812BFC
:105690008093E3008091E800877F8093E8000E9478
:1056A000B2288091E80080FFFCCF8091E300806801
:1056B0008093E30083E0111101C082E08093D30363
:1056C00087CF8058823008F083CF8091D6039091A5
:1056D000D7038C3D23E09207A1F583E08A838AE219
:1056E00089834FB7F894DE01139620E03EE051E243
:1056F000E32FF0E050935700E49120FF03C0E295C0
:10570000EF703F5FEF708E2F90E0EA30C0F0C796E9
:105710008D939D932F5F243159F74FBF8091E800FF
:10572000877F8093E8006AE270E0CE0101960E94D4
:10573000BF278091E8008B778093E80049CFC0961F
:10574000E7CF6091D8037091D903AE014F5F5F4FEF
:105750000E94E726BC01892B09F43ACF9091E8001A
:10576000977F9093E80089819A810E941E28E1CF5B
:10577000803809F02DCF8091E800877F8093E80082
:105780008091CF038093F10018CF811121CF9091A8
:10579000D603923008F01CCF8091E800877F809379
:1057A000E8009093CF030E94B2288091CF03882312
:1057B00031F084E08093D3030E947B2509CF809150
:1057C000E30087FDF6CF81E0F5CF0895CF93809178
:1057D000D303882399F0C091E900CF708091EC0049
:1057E00080FD0EC080E0C82B1092E9008091E80097
:1057F00083FD0E948A2ACF70C093E900CF9108955B
:1058000080E8F1CF2091D303243059F5FC0144897D
:10581000558966897789452B462B472B11F1818164
:105820008F708093E9008091F3009091F2008927B6
:1058300098278927892B11F480E008959091E8003A
:105840008091E8008E778093E80095FDF5CF0E9467
:10585000D128811107C09091E8009E779093E800CD
:10586000089582E008952091D303243091F4FC013F
:105870004489558966897789452B462B472B49F002
:1058800021812F702093E9002091E80020FD0C94E5
:10589000022C08952091D303243019F090E080E089
:1058A0000895FC014489558966897789452B462BE3
:1058B000472BA1F386818F708093E9008091E800E7
:1058C00082FFECCF8091F3009091F2008927982716
:1058D0008927009731F42091E8002B772093E80086
:1058E00008958091F3009091F200892798278927E5
:1058F00008952091D303243019F08FEF9FEF08957E
:10590000FC014489558966897789452B462B472BAD
:10591000A1F386818F708093E9008091E80082FF77
:10592000ECCF8091F3009091F20089279827892786
:10593000892B91F08091F10090E02091F30030915B
:10594000F200232732272327232B29F42091E80074
:105950002B772093E80008958FEF9FEFEECF0F9302
:105960001F93CF93DF93CDB7DEB728970FB6F89488
:10597000DEBF0FBECDBF8C018091D303843059F5BB
:10598000F80184899589A689B789892B8A2B8B2B65
:1059900011F183858F708093E90088E0ECE8F2E0F4
:1059A000DE01119601900D928A95E1F750E040E0FA
:1059B00068E070E0CE0101960E94702750E040E060
:1059C00062E070E0C80142960E9470278091E80072
:1059D0008E778093E80028960FB6F894DEBF0FBE4E
:1059E000CDBFDF91CF911F910F9108950895CF936F
:1059F000DF93EC018091E80083FF10C02881809143
:105A0000D8039091D9032817190641F48091D50342
:105A10008132F1F030F4803209F450C0DF91CF913F
:105A20000895823209F47EC08332C1F78091D40395
:105A30008132A1F78091E800877F8093E8000E947F
:105A4000B2286091D603CE01DF91CF910C94F62C51
:105A50008091D403813A11F78091E800877F809389
:105A6000E8008091E80080FFFCCF8C899D89AE8999
:105A7000BF898093F100492F5A2F6B2F77274093CE
:105A8000F100AD01662777274093F1008B2F99270E
:105A9000AA27BB278093F100888D8093F100898D20
:105AA0008093F1008A8D8093F1008091E8008E77D9
:105AB0008093E800DF91CF910C94B2288091D403B9
:105AC000813209F0ABCF8091E800877F8093E800B6
:105AD0008091E80082FF21C03091F1002091F10017
