:100000000C94C0040C9407050C9407050C94070588
:100010000C9407050C9407050C9407050C94070530
:100020000C9407050C9407050C942A290C94FD29BF
:100030000C9448210C9407050C9407050C940705B3
:100040000C9407050C9407050C9407050C94070500
:100050000C9407050C94B0210C9407050C9407052B
:100060000C9407050C9407050C9407050C940705E0
:100070000C9407050C9407050C9407050C940705D0
:100080000C9407050C9407050C9407050C940705C0
:100090000C9407050C9407050C9407050C940705B0
:1000A0000C9407050C9407050C9407053A25732F4B
:1000B000617263683D282E2A292F617263683D288A
:1000C00027616E7927290A00746865206B6579734A
:1000D000206F6620656E6F63680033001C0012009D
:1000E00018001D000A580B580A00070011001000E4
:1000F0001B0014680B610864046237000C580D582B
:1001000006001762156416611A680D002D00340090
:100110000E0036000E580F58050013000F0009009E
:100120001900000000000000000029440C4206579E
:100130002A45000000000000000033021C021202E9
:1001400018021D020A580B580A0207021102100277
:100150001B0214020B020802040238020C580D584C
:1001600006021702150216021A020D022D023402AF
:100170000E021E020E580F58050213020F0209024A
:100180001902000000000000000029000C022C00F1
:100190002A00000000000000000033001C001200D4
:1001A00018001D000A580B580A020702110210021B
:1001B0001B0214000B000800040007570C580D58D0
:1001C00006021702150216021A020D002D00340055
:1001D0000E0035000E580F58050213020F020902D7
:1001E000190200000000000000002B00010003576E
:1001F0004C49000000000000000033021C02120203
:1002000018021D020A580B580A00070011001000BE
:100210001B0014020B020802040238020C580D588D
:1002200006001700150016001A000D022D023402F8
:100230000E0238000E580F58050013000F00090079
:10024000190000000000000000002B000C0201005B
:100250004C00000000000000000000000000000052
:10026000000000000100010000572F0023023000B1
:10027000000000000000000000000000010001007C
:1002800031022602210227020000000000000000C7
:10029000000000000100010038002F02200230029F
:1002A000000000000000000000000100010031001B
:1002B000E25C000000000000000008573700250243
:1002C000240200000100010000004A0052004D001D
:1002D0004B00E15C0957E05C0A573802010001005D
:1002E0000000500051004F004E0000002E021F027F
:1002F0001E023800010001000000000000000000A4
:1003000000000000000000000000E35C0B5701004B
:1003100001000000000000000000015A025A035AC8
:10032000045A055A065A235A245A255A265A275A35
:10033000285ADB5C075A095A0B5A0D5A115A165A99
:100340001A5A1C5A1E5A205A225ADC5C085A0A5A57
:100350000C5A0E5A125A175A1B5A1D5A1F5A215A12
:10036000295A0000000000000F5A105A0000000037
:10037000185A195A00000000000000000900086522
:1003800007000000010001003800240025002600BD
:1003900025020855066105640462000001000100A1
:1003A00002572100220023002D0000001B00DE5C0C
:1003B000310000000100010001571E001F00200055
:1003C0002E020000000000000000010001002700D4
:1003D0002E000000000000000000000000000000EF
:1003E00000000000010001000000FB00F000FC0024
:1003F000F9000000F600F500F40000000100010023
:100400000000F200F100F300FA000000000000001C
:1004100000000000010001000000000000000000DA
:1004200000000000000000000000010001000100C9
:1004300001000000000000000000000000000605B0
:10044000190500000000000000000000000000008E
:10045000DD5C1D011B010601190100000000000008
:1004600000000457055700000000000000001801BC
:100470000701000000000000000000000000000074
:10048000000000000000000000000000010000006B
:10049000010000000000000000000000000000005B
:1004A0000000000001000100000040004100420087
:1004B0004500085501550455025500000100010092
:1004C00000003D003E003F0044000000000000002E
:1004D000000000000100010000003A003B003C0069
:1004E00043000000000000000000E45C0000000089
:1004F0000000000000000000000033001C02120297
:1005000018021D020A580B580A02070211021002B3
:100510001B0214020B020802040237000C580D588B
:1005200006021702150216021A020D022D003400EF
:100530000E0236000E580F58050213020F02090270
:1005400019020000000000000000E45CDF5C2C6287
:100550002A4C000000000000000000000000000025
:10056000000000000100010000004A0052004D00A0
:100570004B000855015504550255000001000100CB
:100580000000500051004F004E000000000000002D
:100590000000000001000100000000000000000059
:1005A00000000000000000000000E45C000000000B
:1005B000000000000000000000000000000000003B
:1005C00000000000010001000000FB00F000FC0042
:1005D000F9000000F600F500F40000000100010041
:1005E0000000F200F100F300FA000000000000003B
:1005F00000000000010001000000000000000000F9
:1006000000000000000000000000E45C00000000AA
:100610000000000000000000000000000900086564
:10062000070000000100010038002400250026001A
:1006300025020855066105640462000001000100FE
:1006400002572100220023002D0000002002DE5C62
:10065000310000000100010001571E001F002000B2
:100660002E020000000000000000E45C2C002700C7
:100670002E000000000000000000010037002502ED
:10068000240235020100010035002F002302300052
:100690000100010036022202370238020100010087
:1006A00031022602210227020100010033021F024B
:1006B0001E0238000100010031002F02200230022A
:1006C00001000000000000000000E45C2E002E028B
:1006D0002C000000000000000000000000000000EE
:1006E00000002A2B2800000000000000000000008D
:1006F000000000000029000000002C1E34202122F0
:1007000024342627252E362D3738271E1F20212258
:10071000232425263333362E37381F0405060708D1
:10072000090A0B0C0D0E0F101112131415161718C1
:10073000191A1B1C1D2F3130232D350405060708FF
:10074000090A0B0C0D0E0F101112131415161718A1
:10075000191A1B1C1D2F3130354C00000000000001
:100760000000000000000000000000000000000089
:100770000000000000000000000000010101010174
:100780000100010101010000000000000000000064
:10079000000000000100010001010101010101014F
:1007A0000101010101010101010101010101010139
:1007B0000101010101000000010100000000000032
:1007C0000000000000000000000000000000000029
:1007D00000000000000101010100040330000000DE
:1007E0001A03530070006C00690074006F0067000A
:1007F000720061007000680079000000140353006B
:100800004F00460054002F0048005200550046009B
:1008100000000403090409029100050100A0FA097F
:10082000040000010301010009211101000122401F
:10083000000705810308000A090401000103010201
:1008400000092111010001224D0007058203080063
:100850000A0904020001030000000921110100013E
:1008600022390007058303200001080B030202025E
:100870000100090403000102020100052400100127
:10088000042402020524060304070584030800FF6C
:1008900009040400020A0000000705060210000512
:1008A0000705850210000512011001EF020108ED95
:1008B000FE606001000102030105010906A10105B6
:1008C0000719E029E7150025019508750181020542
:1008D0000819012905950575019102950175039186
:1008E000010507190029F71500250195F875018103
:1008F00002C005010902A1010901A10005091901B0
:1009000029051500250195057501810295017503DD
:1009100081010501093009311581257F950275088E
:10092000810609381581257F950175088106050C1A
:100930000A38021581257F950175088106C0C0051A
:10094000010906A101050719E029E7150025019510
:1009500008750181029501750881010508190129B1
:10096000059505750191029501750391010507191A
:100970000029FF150026FF00950675088100C000BC
:1009800011241FBECFEFDAE0DEBFCDBF04B603FEF9
:1009900027C08091A8039091A903A091AA03B091C8
:1009A000AB038730904BA740B04BD1F41092A80313
:1009B0001092A9031092AA031092AB0314BE84B73D
:1009C000877F84BF0FB6F894A895809160008861F6
:1009D00080936000109260000FBEE0E0FFE3099595
:1009E00012E0A0E0B1E0E4E9FBE502C005900D9261
:1009F000A239B107D9F723E0A2E9B2E001C01D9204
:100A0000A83AB207E1F70E9453260C94C82D0C9423
:100A100000000C94C70B8EE20E94691689E00C94CA
:100A2000FC1DCF93DF93EC018881823020F088ECAD
:100A300090E00E94EF0DCE01DF91CF910C940B134B
:100A4000CF93DF93EC018881823020F08CEA90E034
:100A50000E94EF0DCE01DF91CF910C940B136770C4
:100A6000772721E030E001C0220F6A95EAF7409134
:100A70009F02FC018281882321F0242B20939F0276
:100A8000089520952423FACFCF93DF93EC01809132
:100A90009F0280FF03C080EEFE01099580919F02B6
:100AA00083FF03C083EEFE01099580919F0282FFC0
:100AB00003C082EEFE01099580919F0281FF03C071
:100AC00081EEFE01099580919F0285FF05C085EEAC
:100AD000FE01DF91CF910994DF91CF910895CF93DB
:100AE000C82F81EE0E9472158C2FCF910C94721535
:100AF0000E94691681EE0C94691683E390E00C94D1
:100B0000780586E390E00E94780580EE0C946916E3
:100B100087E390E00C94780585E390E00C947805E9
:100B2000CF93C82F0E9472158C2FCF910C94691609
:100B3000CF93DF93EC0186E390E00E9490058881DB
:100B4000823020F08CE290E00E949005CE01DF918F
:100B5000CF910C940B13CF93DF93EC0181EE0E94A5
:100B60007215CE010E94900581EEDF91CF910C9419
:100B700069161F93CF93DF93EC0198818F81923098
:100B8000E8F0882351F085E390E00E946F05CE01E4
:100B9000DF91CF911F910C940B1310E0923051F420
:100BA0008BE592E00E94B20DF2CF85E390E00E94C7
:100BB000AB051F5F88811817C0F3E9CF8111E3CF20
:100BC00085E390E00E94AB05E2CFCF93DF93EC0189
:100BD0008881823020F087E390E00E94900585E2D2
:100BE00090E00E94AB05CE01DF91CF910C940B13E6
:100BF000CF93DF93EC018881823048F083E392E069
:100C00000E94AB05CE01DF91CF910C940B1387E3CB
:100C100090E00E949005F6CF0F931F93CF93DF9340
:100C2000EC018B01009779F08130910599F00E94D9
:100C30007215C8010E9490058C2FDF91CF911F91F2
:100C40000F910C946916CB01DF91CF911F910F91F9
:100C50000C949005CB01DF91CF911F910F910C94D3
:100C6000AB051F93CF93DF93182FEB01209729F447
:100C700080E0DF91CF911F91089580919D02909126
:100C80009E020E9486218A3F910590F7BE01812F26
:100C900090E00E940C0681E0ECCFEF92FF921F9350
:100CA000CF93DF93162FEA017901FC01828188231B
:100CB00099F00E947A2190939E0280939D02812F49
:100CC0000E947215209701F18C2FDF91CF911F9117
:100CD000FF90EF900C947215862F0E946916209752
:100CE00019F08C2F0E94691680919D0290919E02AE
:100CF0000E9486218A3F910518F4C7010E94AB0526
:100D000010929E0210929D02DF91CF911F91FF9051
:100D1000EF9008950F931F93CF93DF93EC01142F5F
:100D2000022F20919F02211107C0C0E08C2FDF917C
:100D3000CF911F910F91089530E06770772781E080
:100D400090E002C0880F991F6A95E2F782239323EF
:100D50002817390751F76091370370913803809154
:100D6000390390913A030E94F71F81110DC0CA8187
:100D7000C11117C0802F0E946916111103C081EEA6
:100D80000E947215C1E0D2CF609137037091380391
:100D90008091390390913A030E94F71F8B3029F616
:100DA000E6CF111103C081EE0E946916802F0E94C8
:100DB0007215BCCF0E94900581E00E94DB1D63E0AC
:100DC00081E00E945F1F81E080939C020895CF9292
:100DD000DF92EF92FF920F931F93CF93DF936C01FB
:100DE000EB01122FC701F6012081233038F18781F2
:100DF000882359F0862FDF91CF911F910F91FF909B
:100E0000EF90DF90CF900C947215241315C0CE0193
:100E10000E94900519C0CE010E9490051F5FF60147
:100E200080811817C0F3DF91CF911F910F91FF9030
:100E3000EF90DF90CF90089510E0F1CF2230B9F419
:100E4000433029F4023019F3612FCE0106C002307D
:100E5000D9F7009709F4CB01612FDF91CF911F9152
:100E60000F91FF90EF90DF90CF900C94DA062781DE
:100E7000222359F0812FDF91CF911F910F91FF9085
:100E8000EF90DF90CF900C94DB1D0130B9F018F09B
:100E90000230D1F2C8CF82E795E10E944405CE012D
:100EA0000E94900589E696E1DF91CF911F910F9105
:100EB000FF90EF90DF90CF900C944405009709F4D9
:100EC000B2CFDF91CF911F910F91FF90EF90DF9004
:100ED000CF900C949005EF92FF920F93F12CE12CA0
:100EE00000919B0223E043E068E270E00E94E70685
:100EF0000F91FF90EF900895EF92FF920F9328E2E9
:100F0000E22EF12C00919B0223E040E06CE270E0C5
:100F10000E94E7060F91FF90EF900895CF93C62FA0
:100F20000E94691680919C02882349F081E00E940A
:100F3000681F10929C0210929B02CF9108958C2FF3
:100F40000E94FC1DF6CF63E088E290E00C948E07CF
:100F500063E08CE290E00C948E071F93CF93DF93B5
:100F6000182FEA01CA01662351F00E94AB05123026
:100F700080F0CE01DF91CF911F910C94AB050E94C0
:100F80009005123030F0CE01DF91CF911F910C947B
:100F90009005DF91CF911F9108951F93CF93DF9319
:100FA000EC0188819F818330E8F0992351F083E33D
:100FB00090E00E946F05CE01DF91CF911F910C94BC
:100FC0000B1310E0833051F48EE592E00E94B20DD5
:100FD000F2CF83E390E00E94AB051F5F8881181772
:100FE000C0F3E9CF9111E3CF43E350E061E00E9409
:100FF000AD07E1CF1F93CF93DF93EC0188819F81F1
:101000008330E0F0992349F08EE20E947215CE0100
:10101000DF91CF911F910C940B1310E0833051F4AA
:1010200083E692E00E94B20DF2CF8EE290E00E9441
:1010300090051F5F88811817C0F3E9CF992321F02D
:1010400089E00E94DB1DE3CF4EE250E060E00E94A9
:10105000AD07DDCF1F93CF93DF93EC0188819F8194
:101060008330E8F0992351F086E390E00E946F0509
:10107000CE01DF91CF911F910C940B1310E08330C0
:1010800051F488E692E00E94B20DF2CF86E390E040
:101090000E94AB051F5F88811817C0F3E9CF992321
:1010A00021F080EE0E947215E3CF46E350E061E04C
:1010B0000E94AD07DDCF1F93CF93DF93EC018881B2
:1010C0009F818330E8F0992351F087E390E00E94FC
:1010D0006F05CE01DF91CF911F910C940B1310E09F
:1010E000833051F48DE692E00E94B20DF2CF87E397
:1010F00090E00E94AB051F5F88811817C0F3E9CF0D
:10110000992321F081EE0E947215E3CF47E350E06E
:1011100061E00E94AD07DDCFAF92BF92CF92EF9218
:101120000F93CF93DF93C62FD42F5901FC018281F7
:10113000882321F1002361F0B901842F90E0DF9131
:10114000CF910F91EF90CF90BF90AF900C940C0681
:101150008E2D0E94DB1D0E947A2190939E02809327
:101160009D0280919A02C82BC0939A02DF91CF9181
:101170000F91EF90CF90BF90AF900895609137039B
:10118000709138038091390390913A030E94F71FC0
:10119000883079F50E94FC1DB5018D2F0E94310623
:1011A00081111AC080919902882321F00E94FC1DB0
:1011B0001092990280919A0290E021E030E0C130D3
:1011C00011F422E030E082239323892B29F08C2D27
:1011D0000E94DB1DC09299020E94C91FC095809198
:1011E0009A02C823C0939A0210929E0210929D0206
:1011F000BDCFF8E0EF1681F28E2DCCCFFC018281BD
:10120000882319F0862F0C94DB1D862F0C94FC1D6F
:10121000CF93C0E08C2F0E94FC1DCF5FC031D1F76F
:1012200010929F0210929E0210929D0210929C02B8
:1012300010929A02109299021092980210929702BC
:10124000CF910895CF93FC01C28180919602CC2367
:1012500069F0682B60939602633021F0C0E08C2F18
:10126000CF91089587E00E94DB1DF9CF6095682338
:10127000609396026111F2CF87E00E94FC1DEFCFD0
:101280000E94080980E00C94F20DCF93DF93EB01EC
:10129000FC018281882349F00E947A2190939E026A
:1012A00080939D02DF91CF91089580919D0290914E
:1012B0009E020E9486218A3F910520F4D0939802D5
:1012C000C093970210929E0210929D02EBCFCF9393
:1012D000C82F809195028C1791F083EE0E947215B1
:1012E00080EE0E9472158EE290E00E94900580EEE2
:1012F0000E94691683EE0E946916C0939502CF91F1
:1013000008950E94080980E00E94F20D80E00C948C
:101310006709FC0182818823F1F00E94080986E0B8
:101320000E94DB1D0E946320811102C00E944420A4
:101330000E947B2090E090939A03809399038068A9
:10134000809399030E947F2080919502811103C0B0
:1013500081E00C9467090895AF92BF92CF92EF920B
:101360000F93CF93DF93EC015B01C33E8CE5D8076D
:10137000B9F4FB01928181E0892700919202080F64
:10138000009392029093930265E0C62E78E0E72ED8
:101390002BE230E041E061E0C5010E948C08E8C02A
:1013A00010929202CB3DFCE5DF0709F4D3C108F0AF
:1013B00078C0CA32E5E4DE0709F464C150F5C733EA
:1013C000D10509F4A1C1A8F4C133D10509F484C140
:1013D000C633D10509F48AC1AB9779F5FB01828147
:1013E0008093930261E0C5010E94220991E0892760
:1013F0003BC0CC3082E4D80709F408C1C932E4E428
:10140000DE0709F4D5C0C833D240B9F41092930274
:10141000AFC0C83085E5D80709F4A5C098F4C1303D
:10142000F5E5DF0709F488C0C43085E5D80709F47D
:101430008FC0CA32DC4409F412C110929E0210928D
:101440009D0296C0C630F7E5DF0709F4EAC0A0F4B4
:10145000C330D74591F7FB018281882309F488C006
:101460009091930290939B02DF91CF910F91EF9017
:10147000CF90BF90AF900895CE018A5098450697BF
:10148000E0F680919702909198028C179D0721F0C9
:10149000892B11F00E944009BE01C5010E94450937
:1014A00067C0CB30F1E6DF0709F446C0A0F5CF3DB9
:1014B000ECE5DE0709F470C088F4CD3D8CE5D80773
:1014C00009F444C108F459C12AE030E041EE50E08B
:1014D00062EE70E0C5010E944D064AC0C13EFCE5C7
:1014E000DF0709F42CC108F425C1C23EECE5DE0794
:1014F00009F4EAC0C43EDC4509F09FCF2BE230E09E
:1015000040E061EE70E0C5010E948A0681113FC093
:101510000E9440093CC0CC3282E6D80759F178F4E9
:10152000C430F2E6DF07A9F1C73182E6D807E9F156
:10153000C631D14609F081CF60EE70E016C0C531EA
:10154000F4E6DF0729F038F4C830D44609F075CF47
:1015500062EE70E00AC0C431F8E6DF0721F0CA315C
:10156000D84609F06ACF63EE70E0C5010E942F05EE
:1015700081E07ACF28E230E040E065EE70E0C5011E
:101580000E948A06882329F088E20E94691680E07A
:101590006BCF61EE70E0E9CF2CE030E050E040E04E
:1015A00061EE70E0C5010E944D0665EE70E0DDCF92
:1015B0002BE230E040E061EE70E0C5010E948A0657
:1015C0008111E5CF2BE230E041E065EE70E0C5012E
:1015D0000E948A068111DBCF61E0C5010E942209C9
:1015E0008111D5CF8091970290919802892B09F0B3
:1015F0008FCF64E0C5010E94FE0845E0C42E54E090
:10160000E52E00E030E020E040E0C5CE62E0C5011C
:101610000E94220962E08111BACFC5010E94FE0832
:10162000A7CFFB018281882321F0809193028093D0
:101630009B0228E230E040E061EE70E0C5010E94CC
:101640008A068111A1CF28E230E040E065EE70E02B
:10165000C5010E948A06811197CF63E0DECF2CE49A
:1016600030E040E061EE70E0C5010E948A062CE4A3
:1016700030E040E081118BCF65EE70E0C5010E9443
:101680008A06B4CE2CE430E040E061EE70E0C501A3
:101690000E948A0681117BCF2CE430E040E065EEA9
:1016A00070E0C5010E948A06811171CF65E0C50115
:1016B0000E94FE0824E0C22E35E0E32E00E030E078
:1016C00020E040E062E068CE84E0C82E98E0E92E99
:1016D00000E02CE430E0F5CF80919302882309F4F8
:1016E00047CF88E290E00E94900551CF2EE130E094
:1016F00041E061EE70E0C5010E948A062EE130E013
:10170000811145CF41E0B8CFFB018281882381F070
:1017100082E08093930228E330E041E061EE70E0E4
:10172000C5010E948A06811132CF25E330E0EACF5D
:1017300080E0EFCF22E230E050E040E0C9CE25E388
:1017400030E050E040E063EE70E0C4CECB010E9498
:1017500089091DCFFB01828190919402882349F071
:10176000916090939402933009F011CF0E94810907
:101770000ECF9E7F9093940277CEFB018281909151
:101780009402882311F09260ECCF9D7FF3CF80E02C
:101790000C940C1281E008950C94AC090E9460191D
:1017A0002FEF84E39CE0215080409040E1F700C09F
:1017B00000000C94D621FF920F931F93CF93DF93D9
:1017C0008C01FC01C081D1818091E00281114EC069
:1017D0008281882309F445C0CE010E94D11EF82ED3
:1017E000682FCE010E94771EBE018F2D0E94140E1D
:1017F000EC01B8010E94CC0B882309F468C0B80141
:10180000CE010E947312882309F461C0B801CE0191
:101810000E944413882309F45AC0B801CE010E94E3
:101820007610882309F453C0C531FCE5DF0709F4BD
:1018300025C108F5C130ECE5DE0709F44FC008F01A
:101840005FC0C115DC45F1F181E08093A502809372
:10185000A602C801DF91CF911F910F91FF900C94C8
:10186000CA0BCE010E94A61EF82EBECFCE010E944A
:10187000D11EBE01BBCFC53DECE5DE0709F4DBC0E0
:10188000A0F4C43DDC4501F7F8018281882309F406
:10189000BBC01092A5020E947A219093A20280936D
:1018A000A10282E00E94B81612C0C83DECE5DE0736
:1018B000F9F0C93DDC4541F6F8018281882339F011
:1018C00082E01BC0F801828181110E94CE0B80E072
:1018D000DF91CF911F910F91FF900895F8018281C0
:1018E0008823A9F380916403816080936403EFCF20
:1018F000F8018281882359F380E00E94F226E7CF25
:10190000F8018281882309F4A4CF0E946320811109
:1019100002C00E9444200E947B2090E090939A0392
:1019200080939903FE01E350FC4580919903816007
:10193000E231F105C8F4E156F34F0C94782DB10C67
:10194000BD0CC10CC50CC90CCD0CD10CD50CD90CDF
:10195000DD0CE10CE50CE90CED0CF10CF50CF90CCF
:10196000FD0C809199038260809399038091990383
:101970000E947F200E946019AACF80919903846001
:10198000F3CF809199038860EFCF809199038061B4
:10199000EBCF809199038062E7CF809199038064B7
:1019A000E3CF809199038068DFCF809199038460B1
:1019B000EACF809199038E7FD7CF809199038D7F55
:1019C000D3CF809199038B7FCFCF80919903877F6D
:1019D000CBCF809199038F7EC7CF809199038F7D64
:1019E000C3CF809199038F7BBFCF809199038F776D
:1019F000BBCF809199038B7FEACF90919903892F78
:101A000097FB87F98058B0CF8091A50281110FC054
:101A10008091A1029091A2020E9486218A3F9105A5
:101A200030F486E20E94721586E20E94691682E016
:101A30000E94BF164CCFF8018281882351F010928A
:101A4000A6020E947A219093A4028093A30280E2CE
:101A500029CF8091A60281110FC08091A30290919D
:101A6000A4020E9486218A3F910530F487E20E94F9
:101A7000721587E20E94691680E2DACF0E94B81FD1
:101A8000F8019281992381F08A7A91E009F490E03B
:101A90009093A002811106C089E20E94411F0E941A
:101AA000851FD2CE85E3F9CF8091A002811104C0B9
:101AB00089E20E94481FF3CF85E3FBCFCF9390E0EC
:101AC000FC01E652F94FC491865A984FFC0184916B
:101AD000882369F081EE0E9472158C2F0E94721586
:101AE0008C2F0E94691681EECF910C9469168C2F71
:101AF0000E9472158C2FF8CFFF920F931F93CF93F4
:101B0000DF93EC01F62E8881882331F18E010F5F7F
:101B10001F4F813041F4C9818C2F0E9472158C2F88
:101B20000E94691605C0823079F489810E9472157D
:101B3000E80121968F2D815030F3EFE9FFE03197D6
:101B4000F1F700C00000F7CF833011F48981E8CFAE
:101B50000E945E0D8E01ECCFDF91CF911F910F910E
:101B6000FF90089560E00C947C0DFF920F931F93FB
:101B7000CF93DF938C01F62EF8018491882349F1ED
:101B8000E8012196813049F4FE011491812F0E94D1
:101B90007215812F0E94691606C0823089F4FE01F9
:101BA00084910E9472158E010F5F1F4F8F2D8150FF
:101BB00018F3EFE9FFE03197F1F700C00000F7CF2D
:101BC000833019F4FE018491E5CF0E945E0DE80197
:101BD000EACFDF91CF911F910F91FF90089560E0C0
:101BE0000C94B50DCF93DF93C1E0D0E002C0CC0FD1
:101BF000DD1F8A95E2F78C2F0E947620BE0190E0CF
:101C000080E0DF91CF910C94791D0C9409050E941E
:101C1000E2130C94C61008950C940B0E0C940C0E49
:101C200090E080E008950895972F70E02CE0929F57
:101C3000600D711D1124FB0190E3899FE00DF11DE2
:101C40001124EE0FFF1FE652FF4F859194910895E6
:101C5000FC01EE0FFF1FE652F84F85919491089515
:101C6000CF93DF930E94140E0E94C80FEC018115E0
:101C7000904408F094C0C11580E3D80708F005C16E
:101C8000C03ED10508F071C0C03CD10508F0ECC0E1
:101C9000C83AD10580F4C53AD10508F0E9C0C13091
:101CA000D10509F46EC020F0C430D10508F069C038
:101CB000D0E0C0E066C0CD3BD105D0F7C83AD10531
:101CC00009F427C1C93AD10509F426C1CA3AD10598
:101CD00009F425C1CB3AD10509F424C1CC3AD10588
:101CE00009F423C1CB3BD10509F422C1CC3BD1057A
:101CF00009F421C1CD3AD10509F420C1C03BD10579
:101D000009F41FC1CE3AD10509F41EC1CF3AD1055D
:101D100009F41DC1C13BD10509F41CC1C23BD10569
:101D200009F41BC1C33BD10509F41AC1C43BD10559
:101D300009F419C1C53BD10509F418C1C63BD10549
:101D400009F417C1C73BD10509F416C1C83BD10539
:101D500009F415C1C93BD10509F414C1CA3BD10529
:101D600009F013C1CAE2D6E40CC0CF3FD10509F097
:101D700060F4C03FD10508F086C0C83ED10508F028
:101D800097CFCE01DF91CF910895CE019F70C115FD
:101D900020E2D207B0F30E94280EEC01F2CFC11569
:101DA00084E5D807A0F5C11523E5D20708F08EC059
:101DB000C11581E5D80708F5C11520E5D20708F45B
:101DC0006EC0CE0154E0969587955A95E1F78370E1
:101DD0009C2F937021E030E002C0220F331F9A95B0
:101DE000E2F73C68382BC695C695C37080E2C89F61
:101DF000E0011124C22BD32BC4CFC11582E5D80733
:101E000008F050C0DC2FCC27C16FD06ABACFC11503
:101E100026E5D20758F49C2F8827C115D54508F42C
:101E200069C0EC01CC27DF71D062ABCFC11588E56A
:101E3000D80708F43DCFC11529E5D20708F45EC0E4
:101E4000CE0190568115904208F032CF8D2F8F71C0
:101E50000E944810DD27D06290E0982F88278827BD
:101E60009F71C82BD92B8DCFCE01805C910993CF68
:101E7000C53AD10509F447C0C63AD10509F446C0B0
:101E8000C3E8D0E47ECFD0657CCFCE019927D3FFC5
:101E900003C0EC01D86C75CFEC01D06C72CFDF7051
:101EA000D06A6FCFCE018370992721E030E002C065
:101EB000220F331F8A95E2F7C695C69580E2C89F28
:101EC000E0011124C22BD32BDC685BCFCE018370E1
:101ED000992721E030E002C0220F331F8A95E2F7F4
:101EE000C695C69580E2C89FE0011124C22BD32B72
:101EF000DA6847CFEC01C46FD06A43CFDC2FCC2720
:101F0000C06FD06A3ECFC1E8D0E43BCFC2E8D0E496
:101F100038CFC2EED4E435CFC9EED4E432CFCAEE26
:101F2000D4E42FCFC5EBD4E42CCFC6EBD4E429CF37
:101F3000C3EBD4E426CFC4EBD4E423CFC7EBD4E483
:101F400020CFCCECD4E41DCFCDECD4E41ACFC3E841
:101F5000D5E417CFCAE8D5E414CFC2E9D5E411CF50
:101F6000C4E9D5E40ECFC1E2D6E40BCFC3E2D6E498
:101F700008CFC4E2D6E405CFC5E2D6E402CFC6E27C
:101F8000D6E4FFCEC7E2D6E4FCCEC0E0D4E4F9CE7E
:101F90008238910549F1B0F48133910509F45CC0B0
:101FA00048F48932910509F452C08A32910509F446
:101FB00058C008958533910509F444C089339105CB
:101FC00099F00895833E910531F138F4803E9105F2
:101FD00091F0823E9105B1F00895863E910511F190
:101FE000873E910541F10895209199032370C9F02E
:101FF00080EE90E008952091990320FF12C089E3BC
:1020000090E008952091990322FF0BC024FF2EC079
:1020100090E080E008952091990322FD2AC024FDDC
:10202000F7CF08952091990323FFFBCF24FDF0CF34
:1020300087EE90E008952091990323FFF0CF86EE7C
:1020400090E008952091990325FD16C008952091F0
:10205000990325FD14C008952091990326FD12C00F
:1020600008952091990326FD10C0089583EE90E015
:10207000089582EE90E0089589E290E0089585E366
:1020800090E008958AE290E0089581E390E0C9CF5E
:10209000CF93C82F0E947B20282F30E030939A03E3
:1020A0002093990382FF06C09C2F9871983079F491
:1020B000C77FC46083FF06C09C2F9871983171F46C
:1020C000C77EC46184FDC77E8C2FCF9108959C2F5D
:1020D0009471943079F7CB7FC860ECCF9C2F9471CA
:1020E000943181F7CB7EC861EDCF08950F931F9394
:1020F000CF938C01FB018281811106C0C1E08C2F3E
:10210000CF911F910F910895C091B402C11125C0C4
:1021100006311C4599F70E94751081E08093B40246
:102120000E947A219093B3028093B2021092A70288
:102130001092A9021092A8021092AB021092AA0269
:102140001092AD021092AC021092AF021092AE0249
:102150001092B1021092B002D2CF8091B20290914F
:10216000B3020E948621883C910540F68091A70227
:10217000E82FF0E0EE0FFF1FE855FD4F11830083BD
:102180008F5F8093A702C0E0BACF08950C94C5106A
:10219000CF93DF9385B7806885BF85B7806885BF9B
:1021A000AEE7B2E042E852E0C1E0D0E08D91E82F26
:1021B000E295EF70F0E061A18F709E0101C0220FE7
:1021C0008A95EAF7922F9095962391A382A1822B6C
:1021D00082A34A175B0751F7A2E7B2E04EE752E04D
:1021E000C1E0D0E08D91E82FE295EF70F0E061A1C1
:1021F0008F709E0101C0220F8A95EAF7922F909569
:10220000962391A382A1822B82A34A175B0751F7E1
:102210001092BE021092BD021092B6021092B50248
:102220001092C0021092BF021092B8021092B70230
:102230001092C2021092C1021092BA021092B90218
:102240001092C4021092C3021092BC021092BB0200
:10225000DF91CF910C94050E4F925F927F928F92F7
:102260009F92AF92BF92CF92DF92EF92FF920F9325
:102270001F93CF93DF93C5EBD2E00EE712E092E815
:10228000A92E92E0B92EEE24E394F12C9924939494
:10229000C880D98019821882D8018D918D01E82FCC
:1022A000E295EF70F0E091A18F70970101C0220FCD
:1022B0008A95EAF7892F822B81A382A1822E8094AE
:1022C000882182A3B0EABA95F1F782E7482E82E02E
:1022D000582E90E080E0D2017D912D01472F42954C
:1022E0004F7050E0DA0190967C90488159817F7060
:1022F000D70102C0AA0FBB1F7A95E2F7BD01672183
:1023000009F068C0B701082E02C0660F771F0A9453
:10231000E2F7462B572B5983488301968C30910561
:10232000D1F681A1882281A282A1282B22A38881B3
:102330009981C816D90641F09092C5020E947A216F
:102340009093C7028093C6022296A016B10609F0A8
:102350009FCF8091C502882351F18091C602909150
:10236000C7020E948621069710F18091B5029091D4
:10237000B6029093BE028093BD028091B702909105
:10238000B8029093C0028093BF028091B9029091ED
:10239000BA029093C2028093C1028091BB029091D5
:1023A000BC029093C4028093C3021092C5020E94A3
:1023B000070E81E0DF91CF911F910F91FF90EF9079
:1023C000DF90CF90BF90AF909F908F907F905F9065
:1023D0004F90089570E060E09CCFE82FF0E0EE0FA2
:1023E000FF1FE354FD4F8081918108950895E9EC2A
:1023F000F2E086E0DF011D928A95E9F708950E94D8
:102400006320811102C00E9444208DE090E00E9470
:10241000922D809392030895CF93C82F0E94F711B5
:10242000C09392036C2F8DE090E0CF910C94A02D7F
:10243000FF920F931F93CF93DF93D82FF62E09ECC3
:1024400012E0C0E0CD1307C0DF91CF911F910F9133
:10245000FF900C94F711F80181918F01811101C057
:10246000F1100E941526CF5FEDCFE82FF0E0EC5180
:10247000FE4F9081E92FE295E695E695E370F0E056
:10248000E753FD4F8081892B808380E0089560E0D1
:1024900084E00E94181280E00E94152680E00895D2
:1024A00067E00E94582DE82FF0E0E753FD4F26E04B
:1024B00030E0291B310981E090E0AC0102C0440FFB
:1024C000551F2A95E2F78081842B808380E0089550
:1024D000E9ECF2E080818068808361E086E00E9420
:1024E000181280E008959C01FB0120338AE538072B
:1024F000C1F030F4C9019A558A97D0F181E008956E
:1025000021333A45D9F790818181228143815481D9
:10251000452B19F18F3F19F481E09F3FF9F080E0DE
:102520001DC090818181228143815481452B39F0E6
:102530008F3F19F481E09F3F19F080E001C081E0F6
:1025400080FD09C0822F817020FFD9CF80E00E94DA
:102550000C1280E0089520E0F5CF81E080FD06C0F8
:10256000822F817020FFCBCF81E0F1CF20E0F8CF28
:1025700040818181928163817481672B39F08F3F23
:1025800019F481E04F3F19F080E001C081E080FD47
:1025900011C0892F9091C80280FF11C09F5F909356
:1025A000C80280919203882339F0813091F6822FFE
:1025B0000C94501280E0EECF822F0C9435128FEFE6
:1025C000890F8093C802811199CF8091920388234B
:1025D00029F0813009F0BDCF0C9468120C94471299
:1025E000CF93DF93EC018E85811112C081E08E873D
:1025F0008F810E94BB1F0E94851FEA81FB81698930
:102600007A89CE010696309719F0DF91CF9109941F
:10261000DF91CF9108950F931F93CF93DF93EC0138
:102620008F8181112CC00A811B81175523E1209FC6
:10263000C001219F900D1124DC01A050BF4F1496C2
:10264000ED91FC91159751966D917C918A5F9E4F0B
:10265000309709F0099583E1809FF001819FF00D8B
:102660001124E050FF4F87810E94C11F0E94851FE7
:1026700018821E8218861092D0021092CF02DF912B
:10268000CF911F910F910895EF92FF920F931F9397
:10269000CF93DF938C018091CF029091D00200976D
:1026A00071F08017910759F0975523E1289FF001A9
:1026B000299FF00D1124E050FF4F81E08487FB013A
:1026C0004281C80197558F3F910511F008F057C01E
:1026D00020912402022E000C330B2817390714F422
:1026E0008093240223E1289F7001299FF00C11247C
:1026F000E701C050DF4F4D87FB0182818823B9F18C
:10270000198708878E818F5F8E830E947A219B872D
:102710008A870E94F41F8F83E881F98169897A8909
:10272000C7018A5F9E4F309709F009958091CF02CB
:102730009091D0020097B9F080179107A1F09755BA
:1027400023E1289FE001299FD00D1124CE01805064
:102750009F4F21E0FC0124870E94F012CE018A5F86
:102760009E4F0E940B131093D0020093CF0281E082
:10277000DF91CF911F910F91FF90EF900895442327
:10278000B1F3809124028F3F91F3C0E0D1E010E0DB
:1027900000E0FF24F39480912402082E000C990B92
:1027A0008017910724F38E81882341F0FC86CE01A7
:1027B0000E94F012CE0106960E940B130F5F1F4F6E
:1027C0006396E9CF0F931F93CF93DF9380912402F9
:1027D000C0E0D3E18F3F91F5DF91CF911F910F9131
:1027E0000895D29FF001D39FF00D1124E050FF4FC8
:1027F000078510890115110511F40AEF10E0D29F29
:10280000F001D39FF00D1124E050FF4F8681882303
:10281000A1F0828593850E9486210817190768F424
:10282000CD9F80011124C80180509F4F0E94F0125B
:10283000C8018A5F9E4F0E940B13CF5F2C2F30E0A0
:1028400080912402082E000C990B821793074CF6F6
:10285000C3CF9093D6028093D5020895E091D5021C
:10286000F091D602309721F00190F081E02D09948B
:1028700080E00895E091D502F091D602309721F0E2
:102880000280F381E02D09940895E091D502F09142
:10289000D602309721F00480F581E02D0994089547
:1028A0002091D3023091D4022817390771F0909308
:1028B000D4028093D302E091D502F091D6023097F2
:1028C00021F00680F781E02D099408952091D1022E
:1028D0003091D2022817390771F09093D202809379
:1028E000D102E091D502F091D602309721F0008418
:1028F000F185E02D0994089508950C947C1481E0ED
:1029000008950E9471210E94C8100E94FA210C941F
:10291000FF115F926F927F928F929F92AF92BF92C0
:10292000CF92DF92EF92FF920F931F93CF93DF939B
:10293000CDB7DEB72A970FB6F894DEBF0FBECDBF76
:102940000E942C110E947F14882309F47AC098ED0C
:10295000A92E92E0B92E10E000E088248394912CF7
:10296000502E802F0E94ED117C01F501C190D19075
:102970005F01C816D90609F45EC08091640381FD29
:102980000E94F61190E080E0CE24DF243401082E6E
:1029900002C0660C771C0A94E2F7960126213721C3
:1029A000232B09F443C08E835F82E620F72081E069
:1029B000EF2809F480E088870E947A218160782FCF
:1029C0009A8789874E815F8168858A850E9448152C
:1029D000000F111FF801E852FD4F80819181682698
:1029E0007926718260820E948D230E942E1490911C
:1029F000D7028917B9F10E942E148093D7022A9624
:102A00000FB6F894DEBF0FBECDBFDF91CF911F91FF
:102A10000F91FF90EF90DF90CF90BF90AF909F907D
:102A20008F907F906F905F900C940E0E01968C307B
:102A3000910509F0ABCF0F5F1F4F0430110509F06E
:102A40008FCF8FEF89838A831B820E947A218160D6
:102A5000782F9D838C8349815A816B818D810E945F
:102A60004815C1CF2A960FB6F894DEBF0FBECDBF72
:102A7000DF91CF911F910F91FF90EF90DF90CF905A
:102A8000BF90AF909F908F907F906F905F900895D0
:102A9000CF93DF93CDB7DEB72B970FB6F894DEBF99
:102AA0000FBECDBF4F83588769877A878B871E8279
:102AB0001D8285E0FE013796DE01119601900D9290
:102AC0008A95E1F749815A816B817C818D819E8154
:102AD0002B960FB6F894DEBF0FBECDBFDF91CF911E
:102AE0000C944A1C882309F4F3C08238B9F40E947C
:102AF0002E1481FDEDC089E30E94411F0E94851FB5
:102B00002FEF81EE94E0215080409040E1F700C02B
:102B1000000089E30E94481F0C94851F8338A1F4AC
:102B20000E942E1480FDD4C083E50E94411F0E94A4
:102B3000851F2FEF81EE94E0215080409040E1F717
:102B400000C0000083E5E6CF8438A1F40E942E1473
:102B500082FDBEC087E40E94411F0E94851F2FEFA7
:102B600081EE94E0215080409040E1F700C00000E9
:102B700087E4D0CF9CEF980F913A18F40E94411F40
:102B8000CBCF90E2980F983050F4877091E001C05D
:102B9000990F8A95EAF7892F0E94BB1FBDCF9BE54D
:102BA000980F933070F4853A31F0863A39F083E823
:102BB00090E00C94501481E890E0FBCF82E890E024
:102BC000F8CF98E5980F953108F082C0883A09F45B
:102BD00040C0893A09F440C08A3A09F440C08B3AAF
:102BE00009F440C08C3A09F440C08B3B09F440C062
:102BF0008C3B09F440C08D3A09F440C0803B09F495
:102C000040C08E3A09F440C08F3A09F440C0813B7D
:102C100009F440C0823B09F440C0833B09F440C042
:102C2000843B09F440C0853B09F440C0863B09F46D
:102C300040C0873B09F440C0883B09F440C0893B51
:102C400009F440C08A3B09F440C090E080E00C9455
:102C5000661482EE90E0FBCF89EE90E0F8CF8AEE2A
:102C600090E0F5CF85EB90E0F2CF86EB90E0EFCFF0
:102C700083EB90E0ECCF84EB90E0E9CF87EB90E042
:102C8000E6CF8CEC90E0E3CF8DEC90E0E0CF83E8F2
:102C900091E0DDCF8AE891E0DACF82E991E0D7CF09
:102CA00084E991E0D4CF81E292E0D1CF83E292E057
:102CB000CECF84E292E0CBCF85E292E0C8CF86E22D
:102CC00092E0C5CF87E292E0C2CF8AE292E0BFCF26
:102CD0000895882309F44BC0823871F40E942E14A1
:102CE00081FF45C089E30E94411F0E94851F89E33F
:102CF0000E94481F0C94851F833859F40E942E149B
:102D000080FF35C083E50E94411F0E94851F83E537
:102D1000EFCF843859F40E942E1482FF28C087E434
:102D20000E94411F0E94851F87E4E2CF9CEF980F0D
:102D3000913AF0F290E2980F983050F4877091E059
:102D400001C0990F8A95EAF7892F0E94C11FD2CF3F
:102D50009BE5980F933020F490E080E00C945014A1
:102D6000885A853120F490E080E00C946614089530
:102D7000882321F00E94BB1F0C94851F089588238F
:102D800021F00E94C11F0C94851F08958F929F927D
:102D9000AF92BF92DF92EF92FF920F931F93CF9368
:102DA000DF937C01D62FC72FFC01058102950F70A0
:102DB000128111110E94DA1F0E947E1FD82E8823D3
:102DC00071F0112331F180E28D0F883010F182E033
:102DD0000E94681F0E947E1F91E0D82ED926BC2E2B
:102DE000B2949FE0B922EB2DF0E0E750F94E0C943D
:102DF000782D0B170B175B175B179C1896179C18F1
:102E00009C18D8179C187318731807199C189C18CD
:102E10001019D12CE4CF0C2F0F70C07F11F0029548
:102E2000007F1123A9F0002359F080E28D0F883034
:102E300010F0D11109C0802F0E94BB1F0E94851F76
:102E40008D2F0E94721514C0802F0E94CC1FF6CFC8
:102E50008D2F0E946916002359F080E28D0F883073
:102E600010F0D11124C0802F0E94C11F0E94851F25
:102E7000DD2009F4DCC10E945B1F80FDD8C1F70191
:102E800012820E94551F0E94DB1DC7010E94231958
:102E90000E94551FDF91CF911F910F91FF90EF90EE
:102EA000DF90BF90AF909F908F900C94FC1D802F6F
:102EB0000E94D21FDBCFFC2FFF70BF2EC07FC0321D
:102EC00019F0B29480EFB822DD2339F0D130F9F057
:102ED000112331F1002329F0B3CF112361F0011147
:102EE00004C08B2D0E94B816C3CF8B2D0130D1F7B3
:102EF0000E94EE1FBDCF011106C00E94F11F8B2D55
:102F00000E94BF16B5CF013009F4B2CFF6CF11231E
:102F100021F0023008F0ACCFE4CF0111A9CFEFCF00
:102F2000002369F38D2F0E946916A2CF112309F1A6
:102F3000D53F99F0D63FB9F0D43F49F4809193033F
:102F400090919403816090939403809393038D2FC9
:102F50000E9496220E9482238BCF809193039091AE
:102F600094038260F0CF80919303909194038460E6
:102F7000EACFD53F89F0D63FA9F0D43F49F48091FC
:102F80009303909194038E7F909394038093930383
:102F90008D2F0E94FE22DECF8091930390919403A7
:102FA0008D7FF2CF80919303909194038B7FECCF30
:102FB0008C2F837009F04BC0111136C02D2F229534
:102FC00026952770220F220F6D2F6F70862E912C61
:102FD000B12CA12C022E04C0880C991CAA1CBB1C6D
:102FE0000A94D2F760E070E0CB01D4FF0FC06FE02D
:102FF00070E080E090E004C0660F771F881F991F83
:103000002A95D2F76095709580959095C695C6954E
:10301000C370C23071F0A0F4682979298A299B29EC
:10302000C13091F00E948D1D0E942E140E940E0E40
:103030001FCF682979298A299B290E949F1DF4CFD7
:103040000E948D1DC501B4010E947B1DEDCF8695A8
:10305000112311F08C2F8170882331F32D2F2295AD
:1030600026952770220F220F6D2F6F70862E912CC0
:10307000B12CA12C022E04C0880C991CAA1CBB1CCC
:103080000A94D2F760E070E0CB01D4FF0FC06FE08C
:1030900070E080E090E004C0660F771F881F991FE2
:1030A0002A95D2F76095709580959095C695C695AE
:1030B000C370C23051F080F4682979298A299B298C
:1030C000C13071F00E94521EAFCF682979298A2938
:1030D0009B290E94641EA8CF0E94521EC501B40104
:1030E0000E94401EA1CFE0E2ED0FE53108F070C074
:1030F000F0E0E358F74E0C94782D9218921892183D
:10310000921892189218921892189218921892186F
:1031100092189218921892189218AF18BB18C218E9
:10312000C918D318DF708C2F8F71112391F00E9472
:10313000DB1D8D2F0E94B816E8E0BE1609F474CF8F
:10314000BE1608F495CE86EF8B0D823008F46CCF56
:103150008FCE0E94FC1D8D2F0E94BF16EDCF112334
:1031600039F00111E9CF8C2F8F710E941F1EE4CF1F
:10317000023010F7F8CF8C2F8F71112339F00E9495
:10318000DB1DDACF8C2F8F711123C9F30E94FC1D38
:10319000D3CF112329F08C2F8F710E94C61DCCCF65
:1031A0000E94C11DC9CF112349F0CF718C2F0E94FD
:1031B000DB1D63E08C2F0E945F1FBECF81E00E9469
:1031C000681F023008F4B8CF82E00E94681FB4CFB5
:1031D000112349F0002321F08D2F0E947215ACCFEE
:1031E0008C2F8F71CCCF002379F0D93349F42FEF96
:1031F00087EE93E0215080409040E1F700C000004E
:103200008D2F0E94691698CF8C2F8F71BFCF4C2FB6
:103210004F706D2FC7010E94100E0E94F31C28CE24
:103220004C2F4F706D2FC7010E94130E21CEDF91DE
:10323000CF911F910F91FF90EF90DF90BF90AF90D3
:103240009F908F9008950F931F93CF93DF93EC017E
:10325000988189812B813C81232B39F08F3F19F490
:1032600081E09F3F19F080E001C081E080FD17C040
:10327000CE010E94DB0B882391F0688179818A81DD
:103280000E941D1F8C010E94761E0E94781DB801AD
:10329000CE01DF91CF911F910F910C94C616DF9153
:1032A000CF911F910F9108950E94DA1F0E94EB1F8A
:1032B0000E944F1F0E94851F0E9418240C94822395
:1032C0000E94C91F0C9454190E94131FE92FE29504
:1032D000EF70E250EE30E0F4F0E0EF58F64E0C9470
:1032E000782D7F197F19881988198A1988198819E2
:1032F00088197F197F198F19881988198F19803FAC
:1033000019F020F4803E20F481E00895843FE1F339
:1033100080E00895803EC0F3813FD1F7F5CF93FB65
:10332000882780F90895CF93DF9300D000D01F92B3
:10333000CDB7DEB70F900F900F900F900F90DF91E9
:10334000CF910895CF93DF9300D000D000D0CDB7B8
:10335000DEB726960FB6F894DEBF0FBECDBFDF9165
:10336000CF9108951F93CF93DF93C091E10216E0B0
:103370008091E2028C1304C0DF91CF911F910895D8
:10338000D0E01C9FF0011D9FF00D1124ED51FD4F69
:103390004081518162817381848195810E94A2194B
:1033A0002196C770E5CF40911303509114036091AB
:1033B00015037091160380911703909118030C94D4
:1033C000A2192091E1029091E20256E0291302C075
:1033D00080E0089530E0529FF001539FF00D1124DA
:1033E000ED51FD4F7181761306C07081781303C0D3
:1033F0007281741304C02F5F3F4F2770E7CF81E0C5
:1034000008951F93CF93DF9380911803807FD1F4A9
:10341000809115038823B1F08091E102D091E202FE
:10342000B0911303C09114034091160350911703F8
:10343000A1E0BF3F09F0A0E0BA016095709516E0E9
:10344000D81304C0DF91CF911F91089521E0411559
:10345000510521F02A2FCF3F09F020E090E020FD18
:1034600038C0189FF001199FF00D1124ED51FD4F48
:1034700021812C132EC020812B132BC022812111DE
:1034800028C0238134812417350700F1241B350B14
:103490002A3F3105F0F4209118032F70206120930A
:1034A000180326E0289FF001299FF00D1124E85110
:1034B000FD4F80818F708061808383E193E00E9463
:1034C0002319DF91CF911F910C94B219260F371F4A
:1034D000DFCF01968770B4CF9F92AF92BF92CF9209
:1034E000DF92EF92FF920F931F93CF93DF93CDB7AD
:1034F000DEB761970FB6F894DEBF0FBECDBF8C016B
:1035000085E0F801DE011D9601900D928A95E1F7A4
:10351000D801DC901196EC9011971296CC903091D6
:10352000130340911403809116039091170321E037
:10353000009731F04F3F19F421E03F3F09F020E0C0
:1035400020FD9AC1F801A380B480909015039920C2
:1035500009F43FC1A816B906E0F1B501681B790B63
:10356000CB01FF24F3948A3F910508F0F12C809160
:103570001803982F907FFF2009F4E2C091119DC09D
:10358000FC2C4E112BC03D1129C0C11027C08F70DB
:103590008061809318030E94D31983E193E00E9415
:1035A000231980911803D80115968C938F2D61965D
:1035B0000FB6F894DEBF0FBECDBFDF91CF911F9144
:1035C0000F91FF90EF90DF90CF90BF90AF909F90C2
:1035D0000895809590958A0D9B1DC3CF81E0A1141D
:1035E000B10431F0BFEFEB1202C081E0DB1280E0EA
:1035F00080FD1AC081E08C2580FF18C04C2D6E2DF7
:103600008D2D0E94E119882389F083E193E00E94C7
:10361000231986E0E3E1F3E0DF011D928A95E9F7E3
:103620000E94D319F12CC2CF80E0E6CF81E0AB2815
:1036300031F0BFEFEB1202C081E0DB1280E080FDD1
:1036400025C081E08C25E82FE170AE2E80FF2CC0D4
:103650004C2D6E2D8D2D0E94E119B82E811124C0A4
:10366000DD86EE868D859E850E94131F292F22956B
:103670002F70223068F0243090F49F7069F0D801E8
:1036800015969C91907F41F4FB2C90CF80E0DBCF8E
:103690009F7011F08823C1F3805E8830A8F3C801C1
:1036A0000E942319BA2CF0CFCC2009F47FCF80914F
:1036B0001803816080931803B5CF4E1114C03D11DB
:1036C00012C0C11010C0F8018583C8010E942319DF
:1036D00086E0F801A3E1B3E001900D928A95E1F74D
:1036E0000E94D31963CFDD86EE868D859E850E946C
:1036F0006419882309F4CAC0CC2009F4C7C080919A
:103700001803803270F0209113033091140338872E
:103710002F831986BB86AA868C87CE0107960E94C6
:10372000231986E0F801A3E1B3E001900D928A9598
:10373000E1F70E94011A0E94D319FF24F39436CFB7
:10374000911115C07A2DB98AA88A4D2D5E2D6C2D48
:1037500089890E94931983E193E00E94231986E0EE
:10376000E3E1F3E0DF011D928A95E9F7B9CF4E114D
:1037700012C03D1110C0C1100EC0F8018583C801F0
:103780000E942319E3E1F3E086E0DF011D928A95B0
:10379000E9F7F92C0BCFDD86EE868D859E850E949C
:1037A0006419882309F472C0CC2009F46FC0809199
:1037B0001803803208F4B5CF20911303309114031D
:1037C0003A8329831B82BD82AC828E83CE0101960F
:1037D000A6CFA816B90638F1F501E81BF90BCF0101
:1037E000F12C8A3F910508F03DC0FC2CCC2009F457
:1037F0004DC04E1126C03D1124C08091180380FD9C
:1038000017C0982F907FA1F0D80115968C9315972B
:10381000903F09F45ACF982F907F905F8F70892B3B
:1038200015968C9352CF809590958A0D9B1DD8CF7D
:1038300086E0F801A3E1B3E001900D928A95E1F7EB
:10384000B5CEDD86EE868D859E850E946419811138
:1038500068CF80911803816080931803C8010E948B
:103860002319A4CE7A2DB98AA88A4D2D5E2D6C2DF0
:1038700089890E94931973CFCC2041F0DD86EE86B2
:103880008D859E850E94641981114BCFC8010E94CD
:10389000231953CF1F93CF93DF93CDB7DEB72C9768
:1038A0000FB6F894DEBF0FBECDBF4F835887698730
:1038B0007A878B879C87CE0107960E946C1A882393
:1038C00009F442C09F8188852A853B85232B39F0E6
:1038D0008F3F19F481E09F3F19F080E001C081E043
:1038E00080FD08C04F81588569857A858B859C85C8
:1038F0000E94A21916E08091E1029091E2028917DC
:1039000009F467C0819FC00111248D519D4F0E9411
:103910006C1A882309F45DC0E091E1021E9FF0015A
:103920001124ED51FD4F4081518162817381848169
:1039300095810E94A2198091E10290E00196877022
:1039400099278093E102D7CF86E0FE013796DE010A
:10395000119601900D928A95E1F79F8188852A85BD
:103960003B85232B39F08F3F19F481E09F3F19F0FD
:1039700080E001C081E080FDBDCF2091E20230E017
:10398000C9010196877099274091E10248171906ED
:1039900099F096E0929FD001939FB00D1124AD5104
:1039A000BD4FFE01319601900D929A95E1F78093FB
:1039B000E2020E94B2199ECF0E9460191092E202A8
:1039C0001092E10286E0E3E1F3E0DF011D928A95C7
:1039D000E9F72C960FB6F894DEBF0FBECDBFDF918E
:1039E000CF911F910895EF92FF920F931F93CF9362
:1039F000DF938C01892B81F0F12CEE24E394E80114
:103A00002196F8018491843770F4843008F05FC007
:103A10008130B1F08230A1F1DF91CF911F910F91F0
:103A2000FF90EF900895853709F44CC008F43DC02D
:103A30009CE7980F903780F78F770E94691649C0EE
:103A40000E5F1F4FFE01849190E2980F983060F452
:103A50008770FE2D01C0FF0F8A95EAF78F2F0E9415
:103A6000DD1F0E94851F02C00E9472158F2D81509C
:103A700030F2EFE9FFE03197F1F700C00000F7CF37
:103A80000E5F1F4FFE01849190E2980F983050F422
:103A90008770FE2D01C0FF0F8A95EAF78F2F0E94D5
:103AA000E31FDFCF0E946916E1CF0E5F1F4FFE01BB
:103AB000C491C150D8F28FE99FE00197F1F700C09F
:103AC0000000F7CF0E5F1F4FFE01F490CFCF0E9492
:103AD00072158E01CBCF08950E946B1D60933B033E
:103AE00070933C0380933D0390933E030C945419D0
:103AF00008950C946C1D0F931F9300913B0310913C
:103B00003C0320913D0330913E03602B712B822BAF
:103B1000932B1F910F910C946C1D0F931F93009189
:103B20003B0310913C0320913D0330913E03602301
:103B30007123822393231F910F910C946C1D0F937B
:103B40001F9300913B0310913C0320913D03309162
:103B50003E0360277127822793271F910F910C94B2
:103B60006C1D0C946B1D0C94B11D0E94B31D6093D1
:103B70003703709338038093390390933A030C947E
:103B8000541960E070E0CB010C94B51D0F931F93A6
:103B900041E050E060E070E08A019B0104C0000F4A
:103BA000111F221F331F8A95D2F7C901B8011F9137
:103BB0000F910C94B51D0F931F9341E050E060E00E
:103BC00070E004C0440F551F661F771F8A95D2F717
:103BD0008091370390913803A0913903B0913A0353
:103BE0008A019B01082B192B2A2B3B2BC901B801F9
:103BF0001F910F910C94B51D0F931F9341E050E05E
:103C000060E070E004C0440F551F661F771F8A955F
:103C1000D2F7CB01BA01609570958095909500918F
:103C20003703109138032091390330913A03602310
:103C30007123822393231F910F910C94B51D0F9331
:103C40001F9341E050E060E070E004C0440F551F56
:103C5000661F771F8A95D2F78091370390913803BA
:103C6000A0913903B0913A038A019B0108271927D3
:103C70002A273B27C901B8011F910F910C94B51D4C
:103C80000F931F930091370310913803209139034C
:103C900030913A03602B712B822B932B1F910F9144
:103CA0000C94B51D0F931F930091370310913803A7
:103CB0002091390330913A036023712382239323A7
:103CC0001F910F910C94B51D0F931F930091370313
:103CD000109138032091390330913A0360277127FE
:103CE000822793271F910F910C94B51D08952CE006
:103CF000929F800D1124982F977071E001C0770F6B
:103D00009A95EAF786958695869525E0829FC0016B
:103D1000112450E040E0A62FB0E0FC01E40FF51FB5
:103D2000E75EFC4F60819D01042E02C03695279509
:103D30000A94E2F72170219526272723262720833E
:103D40004F5F5F4F4530510541F708952CE0929F3A
:103D5000800D1124982F977086958695869525E07D
:103D6000829FA001112470E060E080E0FA01E60F7C
:103D7000F71FE75EFC4F208130E0092E02C0369528
:103D800027950A94E2F721703327062E01C0220FEF
:103D90000A94EAF7822B6F5F7F4F6530710531F728
:103DA0000895BF92CF92DF92EF92FF920F931F93ED
:103DB000CF93DF938C01C0903703D0903803E0900D
:103DC0003903F0903A0380913B0390913C03A0911A
:103DD0003D03B0913E03C82AD92AEA2AFB2ACFE143
:103DE000D0E0BC2ED701C6010C2E04C0B695A79515
:103DF000979587950A94D2F780FD0EC0219788F792
:103E0000B12C8B2DDF91CF911F910F91FF90EF90EF
:103E1000DF90CF90BF900895B8018C2F0E94300E94
:103E2000019761F3EECFCF93DF93EC010E94D11E97
:103E3000BE01DF91CF910C94300E1F93CF93DF938F
:103E4000EB019091E002992331F0CB01DF91CF910A
:103E50001F910C94131F882379F0CB010E94D11E6F
:103E6000182F682FCE010E94771EBE01812FDF918F
:103E7000CF911F910C94300ECB010E94A61E182FDB
:103E8000F4CF682F80912502909126020C94E120B6
:103E9000682F80912502909126020C94EC2080914D
:103EA0002502909126020C94F72080913F0385957E
:103EB00085958595089580913F038770089598E0D2
:103EC000899F90011124622B60933F030C94DB1DAA
:103ED00090913F038095892380933F03282F27707B
:103EE00061F4282F082E000C330B9217130629F0CB
:103EF0008595859585950C94FC1D089590913F03BB
:103F0000977081E009F480E00895E0912502F09136
:103F10002602809163038083E0912502F0912602BE
:103F2000808190916203892B8083E0912502F0913A
:103F30002602808190916103892B808390914003B8
:103F4000992381F0E0912502F09126028081892B4E
:103F5000808380912502909126020E948420811105
:103F60001092400380912502909126020C943A14FD
:103F700080916303089590916303892B8093630379
:103F80000895982F9095809163038923809363030C
:103F9000089510926303089590916203892B809392
:103FA00062030895982F90958091620389238093EE
:103FB0006203089510926203089590916103892B22
:103FC000809361030895982F9095809161038923D0
:103FD00080936103089510926103089580934003D4
:103FE0000895109240030895809140030895CF9260
:103FF000DF92EF92FF926C01EE24FF2420E0C114C7
:10400000D104E104F10419F0C701B60120E1C72E83
:10401000D82EE92EFF24C114D104E104F10419F0D3
:10402000285FC701B6016B017C0154E0F694E79468
:10403000D794C7945A95D1F7C114D104E104F1047F
:1040400019F02C5FC701B6016B017C0142E0F694C8
:10405000E794D794C7944A95D1F7C114D104E104E9
:10406000F10419F02E5FC701B601969587957795F3
:104070006795672B682B692B09F02F5F822FFF90C4
:10408000EF90DF90CF9008956DEE7EEF90E080E0AE
:104090000E94B22D60E082E090E00E94A02D60E0DE
:1040A00083E090E00E94A02D60E084E090E00E9418
:1040B000A02D60E085E090E00E94A02D60E08DE002
:1040C00090E00C94A02D90E080E00E949A2D21E0D9
:1040D0008D3E9E4F09F020E0822F089582E090E00F
:1040E0000C94922D83E090E00C94922D682F83E045
:1040F00090E00C94A02D84E090E00C94922D682F19
:1041000084E090E00C94A02DFC0131969C01205E8F
:104110003F4F80E0919191118F5FE217F307D1F744
:1041200008959C01FC0132969FEF80E04191461773
:1041300051F09F3F19F4411101C0982F8F5F8E31CC
:10414000A9F79F3F09F40895290F311D97FD3A956E
:10415000F90162830895FC0132968096219126131D
:1041600003C0DF0111971C92E817F907B9F708950A
:10417000E62FE695E695E695EF3169F0E80FF92F21
:10418000F11D677021E030E001C0220F6A95EAF767
:104190008181822B81830895E62FE695E695E69549
:1041A000EF3171F0E80FF92FF11D677021E030E079
:1041B00001C0220F6A95EAF7209581812823218387
:1041C000089520915202222329F02091990327FD7E
:1041D0000C94B8200C94912020915202222329F0B3
:1041E0002091990327FD0C94CC200C94AB20FC016A
:1041F000319680961192E817F907E1F708958091BA
:104200009F03843039F11092650388E190E020E447
:104210000FB6F894A895809360000FBE20936000BD
:1042200080E00E940E0E83B7817F846083BF83B7D6
:10423000816083BF7894889583B78E7F83BF0FB6E4
:10424000F894A89580916000886180936000109236
:1042500060000FBE089508950895CF930E942B210A
:104260000E942C110E942C21C0E08C2F0E94ED1185
:10427000892B31F4CF5FC430C1F780E0CF9108952E
:1042800081E0FCCF0E9460190E942E140C940E0E47
:104290001F920F920FB60F9211248F939F93AF939B
:1042A000BF9380916503811113C080919503909114
:1042B0009603A0919703B09198034196A11DB11D5B
:1042C0008093950390939603A0939703B0939803DC
:1042D000BF91AF919F918F910F900FBE0F901F9044
:1042E000189582E084BD93E095BD9AEF97BD8093C9
:1042F0006E0008952FB7F8948091950390919603DE
:10430000A0919703B09198032FBF0895CF92DF92A9
:10431000EF92FF920F931F932FB7F894409195035C
:104320005091960360919703709198032FBF6A0193
:104330007B01EE24FF248C0130E020E0C016D10682
:10434000E206F30650F0481B590BCA011F910F916A
:10435000FF90EF90DF90CF90089541505109F3CF37
:1043600078941F920F920FB60F9211248F939F9300
:10437000AF93BF938091950390919603A09197037B
:10438000B09198030196A11DB11D80939503909360
:104390009603A0939703B0939803BF91AF919F9119
:1043A0008F910F900FBE0F901F90189581E0809312
:1043B000E00080E28093D8001092C9008FE19EE473
:1043C0000197F1F700C0000087E090EBDC018093DB
:1043D000A8039093A903A093AA03B093AB0388E129
:1043E0009CE00FB6F894A895809360000FBE909360
:1043F0006000FFCF0E946320811102C00E94442010
:104400000E946E20809364030E947B2090E0909332
:104410009A03809399030E947220682F70E090E0C5
:1044200080E00C94791D8091680380FF12C0609138
:104430002A0285E0689FB0011124759567957595EE
:10444000679560387105A8F561157105A1F1862F92
:10445000089581FF09C060912A0285E0689FB0013C
:10446000112475956795EDCF82FF07C060912A02F0
:1044700085E0689FB0011124E4CF209169032223D5
:10448000A9F09091290260912A0285E0689FB0010D
:1044900011242917B0F6269FA001279F500D112443
:1044A000692F70E0CA010E94642DCBCF65E070E0F7
:1044B000CECF8FE7089581E008958091680380FF53
:1044C0000CC06091280270E07595679575956795A9
:1044D0006115710549F1862F089581FF06C060912D
:1044E000280270E075956795F3CF6091280282FDF0
:1044F0000BC0909169039923A1F0609127028091EC
:104500002802961738F0682F70E06038710500F3C4
:104510008FE70895899FC001112470E00E94642DE7
:10452000F4CF61E070E0D7CF81E00895803F31F4AF
:104530000E941322819580936C030895813F19F4A2
:104540000E941322F8CF823F31F40E9413228195FA
:1045500080936B030895833F19F40E941322F8CFD0
:10456000893F29F40E945D2280936D0308958A3F5C
:1045700021F40E945D228195F7CF8B3F31F40E9498
:104580005D22819580936E0308958C3F19F40E94FB
:104590005D22F8CF843F31F480916A03816080937B
:1045A0006A030895853F21F480916A038260F7CF02
:1045B000863F21F480916A038460F1CF873F21F424
:1045C00080916A038860EBCF883F21F480916A0371
:1045D0008061E5CF8D3F31F48091680381608093E5
:1045E000680308958E3F21F4809168038260F7CFBD
:1045F0008F3FB9F7809168038460F1CF803FC1F4A9
:1046000080916C0387FD10926C0380916B03811184
:104610000EC080916C0381110AC080916D038111DD
:1046200006C080916E03811102C010926903089543
:10463000813F29F480916C0318162CF3E6CF9091FA
:104640006B03823F29F497FFE0CF10926B03DDCF1D
:10465000833F19F41916CCF3D8CF893F39F48091F0
:104660006D03181694F610926D03CFCF8A3F29F48C
:1046700080916D0387FFC9CFF6CF8B3F39F48091CE
:104680006E0387FFC2CF10926E03BFCF8C3F29F419
:1046900080916E031816BCF3B8CF843F31F480913B
:1046A0006A038E7F80936A03B0CF853F21F48091A7
:1046B0006A038D7FF7CF863F21F480916A038B7F59
:1046C000F1CF873F21F480916A03877FEBCF883F4A
:1046D00021F480916A038F7EE5CF8D3F31F4809184
:1046E00068038E7F8093680390CF8E3F21F4809182
:1046F00068038D7FF7CF8F3F09F087CF80916803E4
:104700008B7FF0CF8AE693E00E9445140E947A21C5
:10471000909367038093660308951F93CF93DF936D
:1047200080916603909167030E948621AC0190916D
:10473000690320912B0230E0911106C020912C02D8
:104740008AE0289F900111244217530780F080913E
:104750006B0310916C03D0916D03C0916E038111B6
:104760000AC0111161C0D1115FC0C1115DC0DF91DC
:10477000CF911F9108959F3F19F09F5F9093690318
:10478000181624F40E94132280936B0380916B030C
:1047900087FF05C00E941322819580936B03111639
:1047A00024F40E94132280936C0380916C0387FF92
:1047B00005C00E941322819580936C0340916B0386
:1047C000442379F030916C03332359F025EB4203F5
:1047D000A001112450936B033203900111243093F4
:1047E0006C031D1624F40E945D2280936D0380915A
:1047F0006D0387FF05C00E945D22819580936D0344
:104800001C1624F40E945D2280936E0380916E0337
:1048100087FF05C00E945D22819580936E03DF9122
:10482000CF911F910C9482239F3F09F0A6CFB7CF61
:1048300085E0EAE6F3E0DF011D928A95E9F7109240
:10484000690310926803089580918F0308950F9370
:104850001F93CF93DF9300D01F92CDB7DEB78C01AB
:104860000E940227823011F0843021F583E0898391
:104870001B830A8382E08093E9008FEF9091E80028
:10488000815095FD06C095ED9A95F1F700008111D4
:10489000F5CF8091E80085FF0DC050E040E063E077
:1048A00070E0CE0101960E941F278091E8008E776C
:1048B0008093E8000F900F900F90DF91CF911F91A0
:1048C0000F910895CF93DF9300D01F92CDB7DEB73D
:1048D00020919F03243029F522E0298380589109F3
:1048E0009B838A832093E9008FEF9091E8008150A9
:1048F00095FD06C095ED9A95F1F700008111F5CF71
:104900008091E80085FF0DC050E040E063E070E07A
:10491000CE0101960E941F278091E8008E77809338
:10492000E8000F900F900F90DF91CF910895CF93F3
:10493000DF93EC010E940227823011F08430F9F4F9
:1049400082E08093E9008FEF9091E800815095FD1F
:1049500006C095ED9A95F1F700008111F5CF809191
:10496000E80085FF0CC050E040E065E070E0CE015B
:104970000E941F278091E8008E778093E800DF91E6
:10498000CF910895CF93DF93EC010E9402278230EC
:1049900011F08430F9F4809152028823F1F0809173
:1049A000990387FF1AC083E08093E9008FEF90910D
:1049B000E800815095FD06C095E19A95F1F7000059
:1049C0008111F5CF8091E80050E040E060E270E0B6
:1049D00085FD1AC0DF91CF91089581E08093E900B1
:1049E0008FEF9091E800815095FD06C095ED9A9566
:1049F000F1F700008111F5CF8091E80085FFEACF43
:104A000050E040E068E070E0CE010E941F278091F6
:104A1000E8008E778093E80080E2FE01AFE6B3E025
:104A200001900D928A95E1F7D5CF80919E03811177
:104A300009C00E94AF280E940C298091E200846086
:104A40008093E200089510929E03089508950895BA
:104A50000C94422142E061EC81E00E942D2842E06A
:104A600061EC82E00E942D2842E261EC83E00E942A
:104A70002D2842E061EC84E00E942D2842E160E8AC
:104A800086E00E942D2842E161E885E00C942D2803
:104A90008091A103833009F457C048F4813081F13B
:104AA000823009F499C08DE292E00C94A62C8A30F1
:104AB00009F481C08B3009F464C08930A1F780917A
:104AC000A003813281F78091A4039091A503009700
:104AD00011F0029741F78091E800877F8093E8000A
:104AE0008091E80082FF2BC08091F10080938F03BA
:104AF0008091E8008B778093E8000E946128D3CFF3
:104B00008091A003813A79F68091E800877F8093B5
:104B1000E8008091A4039091A503892B61F460E2E1
:104B20008FE693E070E00E946E278091E8008B771B
:104B30008093E800B8CF60E090E080E0F3CF809110
:104B40009F038111CDCF08958091A003813A09F090
:104B5000AACF8091A4039091A503892B09F0A3CF3C
:104B60008091E800877F8093E8008091E80080FFD3
:104B7000FCCF809152028093F1008091E8008E7703
:104B8000BACF8091A003813209F08DCF8091A40328
:104B90009091A503892B09F086CF8091E800877F4B
:104BA0008093E8000E9461288091A20380935202C2
:104BB0000E94601978CF8091A003813209F073CFF1
:104BC0008091E800877F8093E8000E9461288091AF
:104BD000A3038093900367CF8091A003813A09F0EB
:104BE00062CF8091E800877F8093E8008091E800A1
:104BF00080FFFCCF80919003BECF82E090E0909345
:104C0000400280933F028DE292E00C945E2C089566
:104C10008DE292E00E94F92B892B31F08DE292E037
:104C20000E94282C0C9407260895CF93C091E90088
:104C30009091EC0090FD19C090E020913D0220FF82
:104C400012C0CF70C92B90912E029F709093E900F3
:104C50009091EB0090FF04C09091EE0097FD07C08B
:104C6000CF70C093E900CF91089590E8E6CF9FEF11
:104C70002091E800915025FD06C025ED2A95F1F719
:104C800000009111F5CF8093F1008DE292E00E9437
:104C9000B12B8091E80080FFE3CF8091E8008E7710
:104CA0008093E800DDCF84B7877F84BF0FB6F89488
:104CB000A8958091600088618093600010926000E8
:104CC0000FBE80E880936100109261000E947D1405
:104CD0000E94AF280E940C298091E200846080939A
:104CE000E20078940E94952B0E94811488E492E05F
:104CF0000E9429140E94FD2580919F03853049F070
:104D00000E9489140E9408268DE292E00E94E22B04
:104D1000F3CF0E94FF2080919D03882369F30E94B6
:104D20002D21882349F30E940927E6CF292F332715
:104D30002330310579F158F421303105F1F022307A
:104D4000310519F190E080E030E020E01AC0213216
:104D50003105C9F122323105A9F76330710590F7A9
:104D6000FB01EE0FFF1FEB57FD4F208131816E5786
:104D70007D4FFB01808190E004C082E190E027EA52
:104D800038E0FA0131832083089581E990E026E13B
:104D900038E0F7CF99278130910579F040F08230E3
:104DA000910571F0039771F6EAEDF7E002C0E2E1D8
:104DB000F8E0849190E09F01E4CFECEFF7E0F9CFC9
:104DC000E0EEF7E0F6CF6330710508F0BBCF660F79
:104DD000771FFB01E557FD4F2081318189E090E08D
:104DE000D0CF0895CF93C82F0E94F126C09391038E
:104DF000CF91089580919F03843011F081E0089550
:104E000082E0089580919103811102C00C94FA26EA
:104E1000089580E189BD82E189BD09B400FEFDCF1E
:104E20008091D8008F7D8093D8008091E0008260CF
:104E30008093E0008091E00081FDFCCF0895AF9267
:104E4000BF92CF92DF92FF920F931F93CF93DF9386
:104E50006C01EB018A010E948028F82E811123C089
:104E60000115110539F0F80180819181C81BD90B1A
:104E7000C80ED91EB12CA12C2097A9F08091E80072
:104E800085FD22C08091E8008E778093E8000115AF
:104E90001105A1F0F80180819181A80EB91EB1829F
:104EA000A08285E0F82E8F2DDF91CF911F910F9179
:104EB000FF90DF90CF90BF90AF9008950E94802820
:104EC0008823D1F2F82EEFCFF60181916F01809304
:104ED000F1002197FFEFAF1ABF0ACECFFC018091FE
:104EE000A6039091A70386179707A0F06115710597
:104EF00029F49091E8009E779093E80090E0611586
:104F0000710551F4911108C08091E80082FF35C00D
:104F100080E00895BC01F2CF80919F038823C9F1FE
:104F20008530C9F18091E80083FD31C08091E800AF
:104F300082FDEACF8091E80080FFE1CF2091F3006D
:104F40008091F200322F282F6115710519F0283059
:104F5000310558F091E02830310509F090E02091BA
:104F6000E8002E772093E800CACF81918093F1006A
:104F7000615071092F5F3F4FE7CF80919F038823D6
:104F800041F0853041F08091E80083FFBDCF81E0A2
:104F9000089582E0089583E00895FC018091A603BE
:104FA0009091A70386179707A0F06115710529F462
:104FB0008091E8008E778093E80090E0611571059C
:104FC00051F4911108C08091E80082FF36C080E062
:104FD0000895BC01F2CF80919F038823D1F18530E1
:104FE000D1F18091E80083FD32C08091E80082FD1C
:104FF000EACF8091E80080FFE1CF2091F30080911B
:10500000F200322F282F6115710519F02830310573
:1050100058F091E02830310509F090E08091E800E7
:105020008E778093E800CACF84918093F100319607
:10503000615071092F5F3F4FE6CF80919F03882316
:1050400041F0853041F08091E80083FFBCCF81E0E2
:10505000089582E0089583E00895982F973028F00E
:105060008F708093E90081E008959093E900242FE8
:10507000762F50E0981731F07091EC002091ED0000
:105080005091F00021FD02C09F5FE8CF3091EB000E
:105090003E7F3093EB003091ED003D7F3093ED008B
:1050A0003091EB0031603093EB007093EC00209373
:1050B000ED005093F0002091EE0027FDE5CF80E059
:1050C00008958091A00387FF13C08091E80082FFBC
:1050D00006C08091E8008B778093E80004C080913F
:1050E0009F038111F2CF089580919F038823D9F304
:1050F0008091E80080FFF8CF8091E8008E77ECCFB8
:105100002091E4003091E50085E69091EC0090FF5D
:1051100006C09091E80090FF06C080E0089590914D
:10512000E80092FDFACF90919F03992391F095307A
:1051300091F09091EB0095FD10C04091E4005091EA
:10514000E5002417350709F381509A01F1F684E050
:10515000089582E0089583E0089581E008950E9413
:105160001D290E942529E0EEF0E080818160808386
:10517000E8EDF0E080818F77808319BCA7EDB0E087
:105180008C918E7F8C9380818F7E808310929E0382
:1051900008950F931F93CF93DF930E941D290E94C0
:1051A0002529C8EDD0E088818F7788838881806841
:1051B000888388818F7D888319BC10929F03109209
:1051C0009B0310929D0310929C0300EE10E0F801E7
:1051D00080818B7F808388818160888342E060E06A
:1051E00080E00E942D28E1EEF0E080818E7F8083B8
:1051F000E2EEF0E08081816080838081886080833E
:10520000F80180818E7F8083888180618883DF912F
:10521000CF911F910F910895E8EDF0E080818F7E8E
:105220008083E7EDF0E080818160808384E082BF4D
:1052300081E080939E030C94C928E8EDF0E0808122
:105240008E7F80831092E20008951092DA0010920F
:10525000E10008951F920F920FB60F9211242F9321
:105260003F934F935F936F937F938F939F93AF93EE
:10527000BF93EF93FF938091E10082FF0BC0809179
:10528000E20082FF07C08091E1008B7F8093E10004
:105290000E94942B8091DA0080FF19C08091D80081
:1052A00080FF15C08091DA008E7F8093DA008091B4
:1052B000D90080FF94C080E189BD82E189BD09B435
:1052C00000FEFDCF81E080939F030E941525809111
:1052D000E10080FF19C08091E20080FF15C080913D
:1052E000E2008E7F8093E2008091E20080618093F3
:1052F000E2008091D80080628093D80019BC85E0DC
:1053000080939F030E9427258091E10084FF29C09C
:105310008091E20084FF25C080E189BD82E189BDE2
:1053200009B400FEFDCF8091D8008F7D8093D80016
:105330008091E1008F7E8093E1008091E2008F7E7A
:105340008093E2008091E20081608093E20080918E
:105350009B03882309F449C084E080939F030E9443
:1053600028258091E10083FF29C08091E20083FF1E
:1053700025C08091E100877F8093E10082E08093E7
:105380009F0310929B038091E1008E7F8093E10048
:105390008091E2008E7F8093E2008091E200806144
:1053A0008093E20042E060E080E00E942D2880913E
:1053B000F00088608093F0000E942625FF91EF9115
:1053C000BF91AF919F918F917F916F915F914F911D
:1053D0003F912F910F900FBE0F901F90189519BC01
:1053E00010929F030E94232572CF8091E30087FDD6
:1053F00002C081E0B2CF83E0B0CF1F920F920FB610
:105400000F9211242F933F934F935F936F937F934A
:105410008F939F93AF93BF93CF93EF93FF93C091DD
:10542000E900CF708091EC001092E9008091F000CB
:10543000877F8093F00078940E94392A1092E900C7
:105440008091F00088608093F000C093E900FF91A4
:10545000EF91CF91BF91AF919F918F917F916F917C
:105460005F914F913F912F910F900FBE0F901F9022
:1054700018951F93CF93DF93CDB7DEB7AA970FB6DA
:10548000F894DEBF0FBECDBFE0EAF3E08091F100FB
:10549000819323E0E83AF207C9F70E9448258091FA
:1054A000E80083FF44C08091A0039091A1039A304B
:1054B00008F03DC0E92FF0E0E05AF54D0C94782D4E
:1054C0006A2A902A972A902A972AEE2A102B972A3E
:1054D000672B742B803889F0823849F58091A403BA
:1054E0008F70873020F58093E9008091EB0085FB79
:1054F000882780F91092E90006C080919C03909162
:105500009D03911182609091E800977F9093E8004D
:105510008093F1001092F1008091E8008E772DC009
:10552000282F2D7F21F48823D1F0823059F18091EA
:10553000E80083FF0AC08091E800877F8093E8003D
:105540008091EB0080628093EB00AA960FB6F894EE
:10555000DEBF0FBECDBFDF91CF911F910895809127
:10556000A203813021F7933009F080E080939D03FE
:105570001092E9008091E800877F8093E8000E9404
:105580006128D5CF8091A2038111F2CF8091A4032D
:105590008F702FEF280F263050F68093E90020916E
:1055A000EB0020FFE5CF933031F48091EB00806277
:1055B0008093EB00DDCF9091EB0090619093EB0036
:1055C00021E030E001C0220F8A95EAF72093EA003B
:1055D0001092EA008091EB008860EACF8111A7CF9A
:1055E0001091A2031F778091E3008078812B809334
:1055F000E3008091E800877F8093E8000E946128A3
:105600008091E80080FFFCCF8091E3008068809368
:10561000E30083E0111101C082E080939F0387CFF4
:105620008058823008F083CF8091A2039091A30329
:105630008C3D23E09207A1F583E08A838AE2898387
:105640004FB7F894DE01139620E03EE051E2E32FDD
:10565000F0E050935700E49120FF03C0E295EF7013
:105660003F5FEF708E2F90E0EA30C0F0C7968D93C9
:105670009D932F5F243159F74FBF8091E800877FBA
:105680008093E8006AE270E0CE0101960E946E27E6
:105690008091E8008B778093E80049CFC096E7CFF0
:1056A0006091A4037091A503AE014F5F5F4F0E940C
:1056B0009626BC01892B09F43ACF9091E800977F98
:1056C0009093E80089819A810E94CD27E1CF8038AC
:1056D00009F02DCF8091E800877F8093E8008091CA
:1056E0009B038093F10018CF811121CF9091A203E9
:1056F000923008F01CCF8091E800877F8093E8000B
:1057000090939B030E94612880919B03882331F032
:1057100084E080939F030E942A2509CF8091E300B3
:1057200087FDF6CF81E0F5CF0895CF9380919F0359
:10573000882399F0C091E900CF708091EC0080FD42
:105740000EC080E0C82B1092E9008091E80083FD34
:105750000E94392ACF70C093E900CF91089580E864
:10576000F1CF20919F03243059F5FC0144895589DC
:1057700066897789452B462B472B11F181818F70E4
:105780008093E9008091F3009091F2008927982797
:105790008927892B11F480E008959091E800809189
:1057A000E8008E778093E80095FDF5CF0E94802871
:1057B000811107C09091E8009E779093E8000895CA
:1057C00082E0089520919F03243091F4FC014489E4
:1057D000558966897789452B462B472B49F02181CE
:1057E0002F702093E9002091E80020FD0C94B12B4C
:1057F000089520919F03243019F090E080E00895EF
:10580000FC014489558966897789452B462B472BAE
:10581000A1F386818F708093E9008091E80082FF78
:10582000ECCF8091F3009091F20089279827892787
:10583000009731F42091E8002B772093E800089539
:105840008091F3009091F200892798278927089585
:1058500020919F03243019F08FEF9FEF0895FC01F2
:105860004489558966897789452B462B472BA1F3B7
:1058700086818F708093E9008091E80082FFECCFF1
:105880008091F3009091F200892798278927892B2E
:1058900091F08091F10090E02091F3003091F200BE
:1058A000232732272327232B29F42091E8002B7765
:1058B0002093E80008958FEF9FEFEECF0F931F9393
:1058C000CF93DF93CDB7DEB728970FB6F894DEBF3E
:1058D0000FBECDBF8C0180919F03843059F5F80134
:1058E00084899589A689B789892B8A2B8B2B11F1FD
:1058F00083858F708093E90088E0E3E5F2E0DE01C4
:10590000119601900D928A95E1F750E040E068E031
:1059100070E0CE0101960E941F2750E040E062E057
:1059200070E0C80142960E941F278091E8008E77A0
:105930008093E80028960FB6F894DEBF0FBECDBF67
:10594000DF91CF911F910F9108950895CF93DF9329
:10595000EC018091E80083FF10C028818091A403AE
:105960009091A5032817190641F48091A103813273
:10597000F1F030F4803209F450C0DF91CF910895F6
:10598000823209F47EC08332C1F78091A003813254
:10599000A1F78091E800877F8093E8000E9461284A
:1059A0006091A203CE01DF91CF910C94A52C809140
:1059B000A003813A11F78091E800877F8093E80087
:1059C0008091E80080FFFCCF8C899D89AE89BF89DA
:1059D0008093F100492F5A2F6B2F77274093F100C6
:1059E000AD01662777274093F1008B2F9927AA27CF
:1059F000BB278093F100888D8093F100898D80937F
:105A0000F1008A8D8093F1008091E8008E77809379
:105A1000E800DF91CF910C9461288091A00381323E
:105A200009F0ABCF8091E800877F8093E8008091F8
:105A3000E80082FF21C03091F1002091F1009091A7
:105A4000F1008091F1003C8B2D8B9E8B8F8B809190
:105A5000F100888F8091F100898F8091F1008A8F09
:105A60008091E8008B778093E8000E946128CE0146
:105A7000DF91CF910C94A52C80919F038111D7CFFA
:105A80007CCF8091A003813209F077CF8091E8002C
:105A9000877F8093E8000E9461288091A203909103
:105AA000A303998B888BCE01DF91CF910C94A52C09
:105AB000991B79E004C0991F961708F0961B881F60
:105AC0007A95C9F78095089597FB072E16F40094F0
:105AD00007D077FD09D00E947E2D07FC05D03EF44B
