:100000000C946D020C94B4020C94B4020C94B402DF
:100010000C94B4020C94B4020C94B4020C94B40288
:100020000C94B4020C94B4020C943B1C0C940E1D62
:100030000C9494160C94B4020C94B4020C94B40274
:100040000C94B4020C94B4020C94B4020C94B40258
:100050000C94B4020C94FC160C94B4020C94B402EC
:100060000C94B4020C94B4020C94B4020C94B40238
:100070000C94B4020C94B4020C94B4020C94B40228
:100080000C94B4020C94B4020C94B4020C94B40218
:100090000C94B4020C94B4020C94B4020C94B40208
:1000A0000C94B4020C94B4020C94B40229003400F1
:1000B0003600370013001C0009000A000600150076
:1000C0000F002A00E20004001200080018000C00D3
:1000D00007000B001700110016002800E100330094
:1000E00014000D000E001B00050010001A0019007E
:1000F0001D00E3000000000000000000E05CDF5C89
:100100002C00E0000000000000000000015A025A2C
:10011000035A045A055A065A235A245A255A265A6B
:10012000275A285ADB5C075A095A0B5A0D5A115A9A
:10013000165A1A5A1C5A1E5A205A225ADC5C085A5D
:100140000A5A0C5A0E5A125A175A1B5A1D5A1F5A3B
:10015000215A295A00000000000000000F5A105ACE
:10016000185A195A00000000000000001E001E006E
:100170001E001E001E001E001E001E001E001E008F
:100180001E001E00DB5C14001A000800150017009A
:100190001C0018000C00120013002F00DC5C04008F
:1001A0001600070009000A000B000D000E000F00EA
:1001B00033003400000000000000000006001900B9
:1001C00011001000000000000000000035001E00BB
:1001D0001F0020002100220023002400250026000B
:1001E00027000000E200AD00AC00AE00AB00A900AB
:1001F0000000000000002F0030003800E1001D0169
:100200001B0106011901AA00A800000000002D0032
:100210002E00E3000000000000000000E05C010090
:100220004C00E0000000000000000000DE5C3A002E
:100230003B003C003D0000006500460047004800D0
:1002400000000000E2003E003F00400041000000CE
:10025000000049004A004B0000000000E10042009D
:10026000430044004500000000004C004D004E00DB
:100270003100E30000000000000000000100DF5C2E
:100280002B00E0000000000000000000DD5C00002A
:10029000000000000000470054005F0060006100A3
:1002A0002D000000E2004A0052004D004B003900D2
:1002B00055005C005D005E0057002800E100500022
:1002C00051004F004E000653620059005A005B0077
:1002D0000000E30000000000000000000100010039
:1002E0000000E0000000000000000000000000002E
:1002F000000000000000000054005F00600061008A
:1003000056000000E2004A0052004D004B00000081
:1003100055005C005D005E0057002800E1005000C1
:1003200051004F004E00DA5C620059005A005B0039
:100330000000E300000000000000000000000000DA
:100340000000E00000000000000000000403300096
:1003500000001A03530070006C00690074006F0005
:1003600067007200610070006800790000001403EB
:1003700053004F00460054002F0048005200550023
:10038000460000000403090409029100050100A0D1
:10039000FA09040000010301010009211101000113
:1003A0002240000705810308000A09040100010337
:1003B0000000000921110100012236000705820317
:1003C00008000A09040200010300000009211101CC
:1003D000000122390007058303200001080B0302F6
:1003E00002020100090403000102020100052400C9
:1003F00010010424020205240603040705840308EF
:1004000000FF09040400020A0000000705060210AC
:1004100000050705850210000512011001EF020119
:1004200008EDFE606001000102030105010906A15B
:1004300001050719E029E7150025019508750181D7
:1004400002050819012905950575019102950175A7
:100450000391010507190029F71500250195F87585
:10046000018102C005010980A10185021601002653
:1004700003001A81002A8300751095018100C005D0
:100480000C0901A1018503160100269C021A010036
:100490002A9C02751095018100C005010906A10181
:1004A000050719E029E71500250195087501810266
:1004B0009501750881010508190129059505750142
:1004C00091029501750391010507190029FF150097
:1004D00026FF00950675088100C011241FBECFEFCE
:1004E000DAE0DEBFCDBF04B603FE27C080918C02E8
:1004F00090918D02A0918E02B0918F028730904B27
:10050000A740B04BD1F410928C0210928D02109241
:100510008E0210928F0214BE84B7877F84BF0FB6FD
:10052000F894A89580916000886180936000109293
:1005300060000FBEE0E0FFE3099511E0A0E0B1E04C
:10054000E6E6F1E402C005900D92A039B107D9F7B3
:1005500022E0A0E9B1E001C01D92AC38B207E1F79A
:100560000E9464190C94B1200C9400000C94470371
:10057000CF93C0E08C2F0E949813CF5FC730D1F784
:10058000CF910895109290010E94B80280E00C94DF
:10059000D604FC0182818823B9F00E94B80282E06F
:1005A0000E9477130E94AF15811102C00E9490151E
:1005B0000E94C71590E090937E0280937D02806830
:1005C00080937D020C94CB1508950E94B80281E0BF
:1005D0000C947713CF93DB018A5D9C45C1E0873093
:1005E000910518F5FC01E950FD4F0C947520FE02B1
:1005F000040318033F033B0322032F0312968C913D
:1006000081110DC0C0E011C01296CC918091900173
:10061000CC2341F0816080939001833099F70E9450
:10062000C202F0CF8E7F809390018C2FCF910895DE
:100630001296CC9180919001CC2311F08260EBCF87
:100640008D7FF1CF1296CC9183E0CC2361F00E9494
:10065000771345E064E083E00E94E904D3CF12966B
:10066000CC9184E0F2CF0E94981345E064E083E0EF
:100670000E94E904DACFCB010E94C902C3CF1296CF
:100680008C91882309F4BECF0E94E502BBCF80E0A5
:100690000C943F0981E008950C94EA020E94340F03
:1006A0002FEF84E39CE0215080409040E1F700C0B0
:1006B00000000C942217FF920F931F93CF93DF93A8
:1006C0008C01FC01C081D1818091CF01811146C094
:1006D00082818823F1F1CE010E946D14F82E682FDB
:1006E000CE010E941314BE018F2D0E944705EC011C
:1006F000B8010E944C03882309F461C0B801CE01FF
:100700000E94A609882309F45AC0B801CE010E94AC
:10071000A907882309F453C0C531FCE5DF0709F4B4
:1007200025C108F5C130ECE5DE0709F44FC008F03B
:100730005FC0C115DC45F1F181E0809396018093A3
:100740009701C801DF91CF911F910F91FF900C94F9
:100750004A03CE010E944214F82EC5CFCE010E945A
:100760006D14BE01C2CFC53DECE5DE0709F4DBC068
:10077000A0F4C43DDC4501F7F8018281882309F427
:10078000BBC0109296010E94C6169093930180936D
:10079000920182E00E94A50C12C0C83DECE5DE0784
:1007A000F9F0C93DDC4541F6F8018281882339F032
:1007B00082E01BC0F801828181110E944E0380E01B
:1007C000DF91CF911F910F91FF900895F8018281E1
:1007D0008823A9F380915302816080935302EFCF65
:1007E000F8018281882359F380E00E94031AE7CF41
:1007F000F8018281882309F4A4CF0E94AF158111EA
:1008000002C00E9490150E94C71590E090937E024E
:1008100080937D02FE01E350FC4580917D02816062
:10082000E231F105C8F4E95EFB4F0C947520290410
:10083000350439043D044104450449044D04510480
:10084000550459045D046104650469046D04710470
:10085000750480917D02826080937D0280917D028B
:100860000E94CB150E94340FAACF80917D02846034
:10087000F3CF80917D028860EFCF80917D0280610F
:10088000EBCF80917D028062E7CF80917D02806412
:10089000E3CF80917D028068DFCF80917D0284600C
:1008A000EACF80917D028E7FD7CF80917D028D7FB0
:1008B000D3CF80917D028B7FCFCF80917D02877FC8
:1008C000CBCF80917D028F7EC7CF80917D028F7DBF
:1008D000C3CF80917D028F7BBFCF80917D028F77C8
:1008E000BBCF80917D028B7FEACF90917D02892FD3
:1008F00097FB87F98058B0CF8091960181110FC086
:1009000080919201909193010E94D216883C9105AA
:1009100030F486E20E945F0B86E20E94560C82E071
:100920000E94AC0C4CCFF8018281882351F01092C8
:1009300097010E94C616909395018093940180E2DE
:1009400029CF8091970181110FC0809194019091DE
:1009500095010E94D216883C910530F487E20E94EE
:100960005F0B87E20E94560C80E2DACF0E9454159A
:10097000F8019281992381F08A7A91E009F490E05C
:1009800090939101811106C089E20E94DD140E94BA
:100990002115D2CE85E3F9CF80919101811104C058
:1009A00089E20E94E414F3CF85E3FBCFCF93DF937A
:1009B000C1E0D0E002C0CC0FDD1F8A95E2F78C2F9A
:1009C0000E94C215BE0190E080E0DF91CF910C94AF
:1009D00015138F929F92AF92BF92CF92DF92EF92B8
:1009E000FF920F931F93C12CD12C7601C3949701D2
:1009F000860104C0000F111F221F331F6A95D2F712
:100A00004601570104C0880C991CAA1CBB1C8A957E
:100A1000D2F7D501C401802B912BA22BB32B0091CF
:100A200026021091270220912802309129020823E2
:100A300019232A233B2380179107A207B30769F4E0
:100A4000842F1F910F91FF90EF90DF90CF90BF9078
:100A5000AF909F908F900C947713842F1F910F91DC
:100A6000FF90EF90DF90CF90BF90AF909F908F90CE
:100A70000C9498130C94B6020C94F90708950C94F6
:100A80003E050C943F0590E080E008950895972F6F
:100A900070E02CE0929F600D711D1124FB0190E32A
:100AA000899FE00DF11D1124EE0FFF1FE455FF4F4C
:100AB000859194910895FC01EE0FFF1FE45BFC4FBC
:100AC000859194910895CF93DF930E9447050E94EA
:100AD000FB06EC018115904408F094C0C11580E339
:100AE000D80708F005C1C03ED10508F071C0C03C70
:100AF000D10508F0ECC0C83AD10580F4C53AD1055B
:100B000008F0E9C0C130D10509F46EC020F0C4304E
:100B1000D10508F069C0D0E0C0E066C0CD3BD1058A
:100B2000D0F7C83AD10509F427C1C93AD10509F46B
:100B300026C1CA3AD10509F425C1CB3AD10509F439
:100B400024C1CC3AD10509F423C1CB3BD10509F42A
:100B500022C1CC3BD10509F421C1CD3AD10509F41C
:100B600020C1C03BD10509F41FC1CE3AD10509F41B
:100B70001EC1CF3AD10509F41DC1C13BD10509F40D
:100B80001CC1C23BD10509F41BC1C33BD10509F40B
:100B90001AC1C43BD10509F419C1C53BD10509F4FB
:100BA00018C1C63BD10509F417C1C73BD10509F4EB
:100BB00016C1C83BD10509F415C1C93BD10509F4DB
:100BC00014C1CA3BD10509F013C1CAE2D6E40CC076
:100BD000CF3FD10509F060F4C03FD10508F086C0D1
:100BE000C83ED10508F097CFCE01DF91CF9108958F
:100BF000CE019F70C11520E2D207B0F30E945B05C1
:100C0000EC01F2CFC11584E5D807A0F5C11523E5A5
:100C1000D20708F08EC0C11581E5D80708F5C115C7
:100C200020E5D20708F46EC0CE0154E09695879572
:100C30005A95E1F783709C2F937021E030E002C059
:100C4000220F331F9A95E2F73C68382BC695C6955C
:100C5000C37080E2C89FE0011124C22BD32BC4CF04
:100C6000C11582E5D80708F050C0DC2FCC27C16F32
:100C7000D06ABACFC11526E5D20758F49C2F882731
:100C8000C115D54508F469C0EC01CC27DF71D062ED
:100C9000ABCFC11588E5D80708F43DCFC11529E5CC
:100CA000D20708F45EC0CE0190568115904208F03C
:100CB00032CF8D2F8F710E947B07DD27D06290E0AD
:100CC000982F882788279F71C82BD92B8DCFCE01CD
:100CD000805C910993CFC53AD10509F447C0C63A63
:100CE000D10509F446C0C3E8D0E47ECFD0657CCFFF
:100CF000CE019927D3FF03C0EC01D86C75CFEC016E
:100D0000D06C72CFDF70D06A6FCFCE01837099271D
:100D100021E030E002C0220F331F8A95E2F7C6952A
:100D2000C69580E2C89FE0011124C22BD32BDC685A
:100D30005BCFCE018370992721E030E002C0220F03
:100D4000331F8A95E2F7C695C69580E2C89FE001F9
:100D50001124C22BD32BDA6847CFEC01C46FD06AC1
:100D600043CFDC2FCC27C06FD06A3ECFC1E8D0E4A0
:100D70003BCFC2E8D0E438CFC2EED4E435CFC9EEE1
:100D8000D4E432CFCAEED4E42FCFC5EBD4E42CCFD9
:100D9000C6EBD4E429CFC3EBD4E426CFC4EBD4E430
:100DA00023CFC7EBD4E420CFCCECD4E41DCFCDECE3
:100DB000D4E41ACFC3E8D5E417CFCAE8D5E414CFFA
:100DC000C2E9D5E411CFC4E9D5E40ECFC1E2D6E43F
:100DD0000BCFC3E2D6E408CFC4E2D6E405CFC5E228
:100DE000D6E402CFC6E2D6E4FFCEC7E2D6E4FCCE1C
:100DF000C0E0D4E4F9CE8238910549F1B0F48133F2
:100E0000910509F45CC048F48932910509F452C097
:100E10008A32910509F458C008958533910509F483
:100E200044C08933910599F00895833E910531F1CD
:100E300038F4803E910591F0823E9105B1F008951D
:100E4000863E910511F1873E910541F1089520916B
:100E50007D022370C9F080EE90E0089520917D021C
:100E600020FF12C089E390E0089520917D0222FFC7
:100E70000BC024FF2EC090E080E0089520917D02F9
:100E800022FD2AC024FDF7CF089520917D0223FF83
:100E9000FBCF24FDF0CF87EE90E0089520917D02F6
:100EA00023FFF0CF86EE90E0089520917D0225FD8E
:100EB00016C0089520917D0225FD14C0089520914B
:100EC0007D0226FD12C0089520917D0226FD10C0EE
:100ED000089583EE90E0089582EE90E0089589E20F
:100EE00090E0089585E390E008958AE290E0089507
:100EF00081E390E0C9CFCF93C82F0E94C715282F58
:100F000030E030937E0220937D0282FF06C09C2F4A
:100F10009871983079F4C77FC46083FF06C09C2F16
:100F20009871983171F4C77EC46184FDC77E8C2F9F
:100F3000CF9108959C2F9471943079F7CB7FC8603E
:100F4000ECCF9C2F9471943181F7CB7EC861EDCFAB
:100F500008950F931F93CF938C01FB018281811120
:100F600006C0C1E08C2FCF911F910F910895C091C1
:100F7000A501C11125C006311C4599F70E94A8079B
:100F800081E08093A5010E94C6169093A4018093EE
:100F9000A3011092980110929A0110929901109257
:100FA0009C0110929B0110929E0110929D01109243
:100FB000A00110929F011092A2011092A101D2CF24
:100FC0008091A3019091A4010E94D216883C9105C2
:100FD00040F680919801E82FF0E0EE0FFF1FE756F2
:100FE000FE4F118300838F5F80939801C0E0BACFDA
:100FF00008950C94F807CF93DF9385B7806885BF79
:1010000085B7806885BFACE7B1E040E851E0C1E05A
:10101000D0E08D91E82FE295EF70F0E061A18F7044
:101020009E0101C0220F8A95EAF7922F9095962390
:1010300091A382A1822B82A34A175B0751F7A0E7F5
:10104000B1E04CE751E0C1E0D0E08D91E82FE295AE
:10105000EF70F0E061A18F709E0101C0220F8A95B0
:10106000EAF7922F9095962391A382A1822B82A3D7
:101070004A175B0751F71092AF011092AE01109220
:10108000A7011092A6011092B1011092B001109226
:10109000A9011092A8011092B3011092B20110920E
:1010A000AB011092AA011092B5011092B4011092F6
:1010B000AD011092AC01DF91CF910C943A054F92A3
:1010C0005F927F928F929F92AF92BF92CF92DF9268
:1010D000EF92FF920F931F93CF93DF93C6EAD1E075
:1010E0000CE711E090E8A92E91E0B92EEE24E394EC
:1010F000F12C99249394C880D98019821882D80140
:101100008D918D01E82FE295EF70F0E091A18F7045
:10111000970101C0220F8A95EAF7892F822B81A3BC
:1011200082A1822E8094882182A3B0EABA95F1F739
:1011300080E7482E81E0582E90E080E0D2017D913A
:101140002D01472F42954F7050E0DA0190967C9028
:10115000488159817F70D70102C0AA0FBB1F7A95C1
:10116000E2F7BD01672109F068C0B701082E02C08F
:10117000660F771F0A94E2F7462B572B5983488353
:1011800001968C309105D1F681A1882281A282A19D
:10119000282B22A388819981C816D90641F0909204
:1011A000B6010E94C6169093B8018093B7012296AB
:1011B000A016B10609F09FCF8091B601882351F1A6
:1011C0008091B7019091B8010E94D216069710F154
:1011D0008091A6019091A7019093AF018093AE01F9
:1011E0008091A8019091A9019093B1018093B001E1
:1011F0008091AA019091AB019093B3018093B201C9
:101200008091AC019091AD019093B5018093B401B0
:101210001092B6010E943C0581E0DF91CF911F91B1
:101220000F91FF90EF90DF90CF90BF90AF909F9085
:101230008F907F905F904F90089570E060E09CCF1A
:10124000E82FF0E0EE0FFF1FE255FE4F8081918105
:1012500008950895EAEBF1E086E0DF011D928A959A
:10126000E9F708950E94AF15811102C00E94901500
:101270008DE090E00E947B20809378020895CF93C8
:10128000C82F0E942A09C09378026C2F8DE090E04D
:10129000CF910C948920FF920F931F93CF93DF93EC
:1012A000D82FF62E0AEB11E0C0E0CD1307C0DF9176
:1012B000CF911F910F91FF900C942A09F801819111
:1012C0008F01811101C0F1100E942619CF5FEDCF6F
:1012D000E82FF0E0E050FF4F9081E92FE295E6958E
:1012E000E695E370F0E0E654FE4F8081892B808321
:1012F00080E0089560E084E00E944B0980E00E9455
:10130000261980E0089567E00E946920E82FF0E048
:10131000E654FE4F26E030E0291B310981E090E0E1
:10132000AC0102C0440F551F2A95E2F78081842B3F
:10133000808380E00895EAEBF1E08081806880831B
:1013400061E086E00E944B0980E008959C01FB016A
:1013500020338AE53807C1F030F4C9019A558A97DD
:10136000D0F181E0089521333A45D9F79081818108
:10137000228143815481452B19F18F3F19F481E07B
:101380009F3FF9F080E01DC09081818122814381DF
:101390005481452B39F08F3F19F481E09F3F19F0BC
:1013A00080E001C081E080FD09C0822F817020FFB4
:1013B000D9CF80E00E943F0980E0089520E0F5CF7A
:1013C00081E080FD06C0822F817020FFCBCF81E0BD
:1013D000F1CF20E0F8CF40818181928163817481D7
:1013E000672B39F08F3F19F481E04F3F19F080E00F
:1013F00001C081E080FD11C0892F9091B90180FF6B
:1014000011C09F5F9093B90180917802882339F0D1
:10141000813091F6822F0C94830980E0EECF822FE9
:101420000C9468098FEF890F8093B901811199CFCE
:1014300080917802882329F0813009F0BDCF0C9487
:101440009B090C947A099093C5018093C401089577
:10145000E091C401F091C501309721F00190F08135
:10146000E02D099480E00895E091C401F091C50158
:10147000309721F00280F381E02D099408952091A6
:10148000C2013091C3012817390771F09093C3014D
:101490008093C201E091C401F091C501309721F021
:1014A0000680F781E02D099408952091C0013091C4
:1014B000C1012817390771F09093C1018093C001D1
:1014C000E091C401F091C501309721F00084F185CD
:1014D000E02D0994089508950C946B0A81E0089515
:1014E0000E94BD160E94FB070E9446170C94320909
:1014F0005F926F927F928F929F92AF92BF92CF92A4
:10150000DF92EF92FF920F931F93CF93DF93CDB7AC
:10151000DEB72A970FB6F894DEBF0FBECDBF0E948C
:101520005F080E946E0A882309F478C097ECA92E00
:1015300091E0B92E10E000E088248394912C502E85
:10154000802F0E9420097C01F501C190D1905F019C
:10155000C816D90609F45CC08091530281FD0E942F
:10156000290990E080E0CE24DF243401082E02C057
:10157000660C771C0A94E2F7960126213721232B6B
:1015800009F441C08E835F82E620F72081E0EF28D6
:1015900009F480E088870E94C6168160782F9A87B8
:1015A00089874E815F8168858A850E94350B000F8F
:1015B000111FF801E953FE4F808191816826792639
:1015C000718260820E94280A9091C6018917B9F140
:1015D0000E94280A8093C6012A960FB6F894DEBFAF
:1015E0000FBECDBFDF91CF911F910F91FF90EF9074
:1015F000DF90CF90BF90AF909F908F907F906F9033
:101600005F900C94410501968C30910509F0ADCFA7
:101610000F5F1F4F0430110509F091CF8FEF8983C1
:101620008A831B820E94C6168160782F9D838C83DB
:1016300049815A816B818D810E94350BC3CF2A96D7
:101640000FB6F894DEBF0FBECDBFDF91CF911F91D3
:101650000F91FF90EF90DF90CF90BF90AF909F9051
:101660008F907F906F905F900895CF93DF93CDB769
:10167000DEB72B970FB6F894DEBF0FBECDBF4F83FA
:10168000588769877A878B871E821D8285E0FE01D5
:101690003796DE01119601900D928A95E1F7498106
:1016A0005A816B817C818D819E812B960FB6F89437
:1016B000DEBF0FBECDBFDF91CF910C94E611882322
:1016C00009F4F3C08238B9F40E94280A81FDEDC004
:1016D00089E30E94DD140E9421152FEF81EE94E032
:1016E000215080409040E1F700C0000089E30E9453
:1016F000E4140C9421158338A1F40E94280A80FD7B
:10170000D4C083E50E94DD140E9421152FEF81EEE5
:1017100094E0215080409040E1F700C0000083E554
:10172000E6CF8438A1F40E94280A82FDBEC087E477
:101730000E94DD140E9421152FEF81EE94E02150CC
:1017400080409040E1F700C0000087E4D0CF9CEFDC
:10175000980F913A18F40E94DD14CBCF90E2980FC5
:10176000983050F4877091E001C0990F8A95EAF79C
:10177000892F0E945715BDCF9BE5980F933070F4C9
:10178000853A31F0863A39F083E890E00C943F0ACC
:1017900081E890E0FBCF82E890E0F8CF98E5980FE1
:1017A000953108F082C0883A09F440C0893A09F4BA
:1017B00040C08A3A09F440C08B3A09F440C08C3AE0
:1017C00009F440C08B3B09F440C08C3B09F440C095
:1017D0008D3A09F440C0803B09F440C08E3A09F4C8
:1017E00040C08F3A09F440C0813B09F440C0823BBD
:1017F00009F440C0833B09F440C0843B09F440C075
:10180000853B09F440C0863B09F440C0873B09F49E
:1018100040C0883B09F440C0893B09F440C08A3B82
:1018200009F440C090E080E00C94550A82EE90E00C
:10183000FBCF89EE90E0F8CF8AEE90E0F5CF85EB14
:1018400090E0F2CF86EB90E0EFCF83EB90E0ECCF2F
:1018500084EB90E0E9CF87EB90E0E6CF8CEC90E072
:10186000E3CF8DEC90E0E0CF83E891E0DDCF8AE834
:1018700091E0DACF82E991E0D7CF84E991E0D4CF4B
:1018800081E292E0D1CF83E292E0CECF84E292E097
:10189000CBCF85E292E0C8CF86E292E0C5CF87E267
:1018A00092E0C2CF8AE292E0BFCF0895882309F484
:1018B0004BC0823871F40E94280A81FF45C089E339
:1018C0000E94DD140E94211589E30E94E4140C9407
:1018D0002115833859F40E94280A80FF35C083E51A
:1018E0000E94DD140E94211583E5EFCF843859F45E
:1018F0000E94280A82FF28C087E40E94DD140E940B
:10190000211587E4E2CF9CEF980F913AF0F290E234
:10191000980F983050F4877091E001C0990F8A9524
:10192000EAF7892F0E945D15D2CF9BE5980F93307F
:1019300020F490E080E00C943F0A885A853120F42E
:1019400090E080E00C94550A0895882321F00E94CD
:1019500057150C9421150895882321F00E945D15D8
:101960000C94211508958F929F92AF92BF92DF92AF
:10197000EF92FF920F931F93CF93DF937C01D62FAB
:10198000C72FFC01058102950F70128111110E9471
:1019900076150E941A15D82E882371F0112331F183
:1019A00080E28D0F883010F182E00E9404150E94C1
:1019B0001A1591E0D82ED926BC2EB2949FE0B922F8
:1019C000EB2DF0E0EA51F34F0C947520F80CF80C75
:1019D000480D480D8A0D910D910D910DB20D910D8F
:1019E0004D0E4D0ED70E910D910DE00ED12CE4CF82
:1019F0000C2F0F70C07F11F00295007F1123A9F00A
:101A0000002359F080E28D0F883010F0D11109C009
:101A1000802F0E9457150E9421158D2F0E945F0B69
:101A200014C0802F0E946815F6CF8D2F0E94560C8F
:101A3000002359F080E28D0F883010F0D11124C0BE
:101A4000802F0E945D150E942115DD2009F4BFC181
:101A50000E94F71480FDBBC1F70112820E94F114AD
:101A60000E947713C7010E94F30E0E94F114DF91C8
:101A7000CF911F910F91FF90EF90DF90BF90AF90AB
:101A80009F908F900C949813802F0E946E15DBCF3F
:101A9000FC2FFF70BF2EC07FC03219F0B29480EFD0
:101AA000B822DD2369F0D13021F1112369F100233F
:101AB00029F1F701858180FFB0CF8F7085831EC02B
:101AC000112359F08B2D011103C00E94A50CBDCF2D
:101AD0000130D9F70E948A15B8CF011106C00E94C3
:101AE0008D158B2D0E94AC0CB0CF013009F4ADCF19
:101AF000F6CF112329F0063008F0A7CF8B2DE5CFC4
:101B0000053008F0A2CFEDCF002359F38D2F0E94AE
:101B1000560C9BCF8C2F86958695837079F08130FB
:101B2000B9F098E0B91609F459C0B91608F48DCF88
:101B300086EF8B0D823008F451C087CF8D2F9C2FFC
:101B40009370111102C090E080E00E943F0A7DCFA7
:101B50008D2F9C2F9370111102C090E080E00E94A5
:101B6000550A73CF8C2F837009F04BC0111136C00A
:101B70002D2F229526952770220F220F6D2F6F7023
:101B8000862E912CB12CA12C022E04C0880C991CFD
:101B9000AA1CBB1C0A94D2F760E070E0CB01D4FF12
:101BA0000FC06FE070E080E090E004C0660F771F28
:101BB000881F991F2A95D2F760957095809590950A
:101BC000C695C695C370C23071F0A0F46829792912
:101BD0008A299B29C13091F00E9429130E94280A6A
:101BE0000E94410532CF682979298A299B290E94C0
:101BF0003B13F4CF0E942913C501B4010E941713AF
:101C0000EDCF8695112311F08C2F8170882331F34D
:101C10002D2F229526952770220F220F6D2F6F7082
:101C2000862E912CB12CA12C022E04C0880C991C5C
:101C3000AA1CBB1C0A94D2F760E070E0CB01D4FF71
:101C40000FC06FE070E080E090E004C0660F771F87
:101C5000881F991F2A95D2F7609570958095909569
:101C6000C695C695C370C23051F080F468297929B1
:101C70008A299B29C13071F00E94EE13AFCF6829E9
:101C800079298A299B290E940014A8CF0E94EE136B
:101C9000C501B4010E94DC13A1CFE0E2ED0FE531F4
:101CA00008F066C0F0E0E95AF14F0C9475206C0E14
:101CB0006C0E6C0E6C0E6C0E6C0E6C0E6C0E6C0E54
:101CC0006C0E6C0E6C0E6C0E6C0E6C0E6C0E7D0E33
:101CD0008B0E920E990EA30EDF708C2F8F71112335
:101CE00031F00E9477138D2F0E94A50C1ACF0E940D
:101CF00098138D2F0E94AC0C14CF112341F00530A6
:101D000008F00FCF8C2F8F710E94BB130ACF0630C3
:101D100008F007CFF7CF8C2F8F71112339F00E9475
:101D20007713FFCE8C2F8F711123C9F30E94981364
:101D3000F8CE112329F08C2F8F710E946213F1CEFF
:101D40000E945D13EECE112349F0CF718C2F0E94BB
:101D5000771363E08C2F0E94FB14E3CE81E00E9496
:101D60000415023008F4DDCE82E00E940415D9CEBD
:101D7000112349F0002321F08D2F0E945F0BD1CE5B
:101D80008C2F8F71CCCF002379F0D93349F4FFEF3A
:101D900027EE83E0F15020408040E1F700C00000D2
:101DA0008D2F0E94560CBDCE8C2F8F71BFCF4C2F24
:101DB0004F706D2FC7010E9443050E948F1245CEC0
:101DC0004C2F4F706D2FC7010E9446053ECEDF910C
:101DD000CF911F910F91FF90EF90DF90BF90AF9048
:101DE0009F908F9008950F931F93CF93DF93EC01F3
:101DF000988189812B813C81232B39F08F3F19F405
:101E000081E09F3F19F080E001C081E080FD17C0B4
:101E1000CE010E945B03882391F0688179818A81D9
:101E20000E94B9148C010E9412140E941413B8016C
:101E3000CE01DF91CF911F910F910C94B30CDF91E4
:101E4000CF911F910F9108950E9476150E948715DA
:101E50000E94EB140E94211590E080E00E943F0A4E
:101E600090E080E00C94550A0E9465150C94240FB4
:101E70000E94AF14E92FE295EF70E250EE30E0F4EB
:101E8000F0E0EB5BF04F0C947520530F530F5C0F99
:101E90005C0F5E0F5C0F5C0F5C0F530F530F630FF3
:101EA0005C0F5C0F630F803F19F020F4803E20F43C
:101EB00081E00895843FE1F380E00895803EC0F31F
:101EC000813FD1F7F5CF93FB882780F90895CF9311
:101ED000DF9300D000D01F92CDB7DEB70F900F90E8
:101EE0000F900F900F90DF91CF910895CF93DF93D4
:101EF00000D000D000D0CDB7DEB726960FB6F8944C
:101F0000DEBF0FBECDBFDF91CF9108951F93CF935A
:101F1000DF93C091D00116E08091D1018C1304C0F1
:101F2000DF91CF911F910895D0E01C9FF0011D9F7C
:101F3000F00D1124EE52FE4F408151816281738178
:101F4000848195810E94760F2196C770E5CF4091DC
:101F50000202509103026091040270910502809187
:101F60000602909107020C94760F1F93CF93DF9394
:101F700080910702807FD1F4809104028823B1F020
:101F80008091D001D091D101B0910202C0910302A1
:101F90004091050250910602A1E0BF3F09F0A0E088
:101FA000BA016095709516E0D81304C0DF91CF9107
:101FB0001F91089521E04115510521F02A2FCF3FAF
:101FC00009F020E090E020FD38C0189FF001199F33
:101FD000F00D1124EE52FE4F21812C132EC02081D2
:101FE0002B132BC02281211128C023813481241777
:101FF000350700F1241B350B283C3105F0F4209106
:1020000007022F7020612093070226E0289FF0012D
:10201000299FF00D1124E952FE4F80818F7080615D
:10202000808382E092E00E94F30EDF91CF911F91B6
:102030000C94860F260F371FDFCF01968770B4CF21
:10204000AF92BF92CF92DF92EF92FF920F931F93C6
:10205000CF93DF93CDB7DEB761970FB6F894DEBFAD
:102060000FBECDBF8C0185E0F801DE011D96019009
:102070000D928A95E1F7D8014C9111965C911197D8
:102080001296EC9030910202609103028091050259
:102090009091060221E0009731F06F3F19F421E0A2
:1020A0003F3F09F020E0B22FB170BB2E20FD80C170
:1020B000F801C380D480A0900402AA2009F427C1AB
:1020C000C816D906D0F1D601A81BB90BCD01FF2443
:1020D000F394883C910508F0F12C80910702982F29
:1020E000907FFF2009F4CAC0911187C0FE2C6513B0
:1020F00029C0341327C0E11025C08F708061809300
:1021000007020E94A70F82E092E00E94F30E8091E6
:102110000702F80185838F2D61960FB6F894DEBF14
:102120000FBECDBFDF91CF911F910F91FF90EF9028
:10213000DF90CF90BF90AF900895809590958C0DD3
:102140009D1DC5CF81E0CD2831F05F3F19F481E0BE
:102150004F3F09F080E080FD24C081E08E25F82FFC
:10216000F170DF2E80FF3FC08091D0012091D1011E
:1021700036E0821318C04D875E878D859E850E944C
:10218000AF14292F22952F70223008F1243030F51A
:102190009F7009F1D80115969C91907FE1F4FB2C7A
:1021A000BACF80E0DCCF90E0389FF001399FF00D8E
:1021B0001124EE52FE4F6181561306C06081461312
:1021C00003C062816E110FC001968770D2CF9F70DD
:1021D00011F0882321F3805E883008F3C8010E9443
:1021E000F30EBD2CDCCFEE2009F495CF80910702D1
:1021F000816080930702F12C8ECF651312C03413D7
:1022000010C0E1100EC0F8018583C8010E94F30ED2
:1022100086E0F801A2E0B2E001900D928A95E1F724
:1022200041C04D875E878D859E850E94380F88232B
:1022300009F4C8C0EE2009F4C5C0809107028032BD
:1022400070F0209102023091030238872F831986A3
:10225000DB86CA868C87CE0107960E94F30E86E045
:10226000F801A2E0B2E001900D928A95E1F70E9498
:10227000B50F0E94A70FFF24F3944DCF911115C005
:102280007C2DD98AC88A6E2D89890E94670F82E0C9
:1022900092E00E94F30E86E0E2E0F2E0DF011D92A0
:1022A0008A95E9F70E94A70F36CF651312C0341341
:1022B00010C0E1100EC0F8018583C8010E94F30E22
:1022C000E2E0F2E086E0DF011D928A95E9F7FA2C60
:1022D00022CF4D875E878D859E850E94380F88238B
:1022E00009F470C0EE2009F46DC0809107028032BD
:1022F00008F4B5CF20910202309103023A8329837A
:102300001B82DD82CC828E83CE010196A6CFC816B9
:10231000D90638F1F601E81BF90BCF01F12C883C06
:10232000910508F03DC0FE2CEE2009F44BC065136A
:1023300026C0341324C08091070280FD17C0982F57
:10234000907FA1F0D80115968C931597903F09F4D2
:102350005CCF982F907F905F8F70892B15968C9310
:1023600054CF809590958C0D9D1DD8CF86E0F801B7
:10237000A2E0B2E001900D928A95E1F7CCCE4D87B4
:102380005E878D859E850E94380F811168CF809170
:102390000702816080930702C8010E94F30EBBCE42
:1023A0007C2DD98AC88A6E2D89890E94670F73CFC8
:1023B000EE2041F04D875E878D859E850E94380F07
:1023C00081114DCFC8010E94F30E55CF1F93CF93BB
:1023D000DF93CDB7DEB72C970FB6F894DEBF0FBEF4
:1023E000CDBF4F83588769877A878B879C87CE01BB
:1023F00007960E942010882309F442C09F81888597
:102400002A853B85232B39F08F3F19F481E09F3FCC
:1024100019F080E001C081E080FD08C04F8158853F
:1024200069857A858B859C850E94760F16E0809160
:10243000D0019091D101891709F467C0819FC00133
:1024400011248E529E4F0E942010882309F45DC0F3
:10245000E091D0011E9FF0011124EE52FE4F408109
:10246000518162817381848195810E94760F809170
:10247000D00190E00196877099278093D001D7CF43
:1024800086E0FE013796DE01119601900D928A9545
:10249000E1F79F8188852A853B85232B39F08F3F83
:1024A00019F481E09F3F19F080E001C081E080FDD8
:1024B000BDCF2091D10130E0C901019687709927E5
:1024C0004091D0014817190699F096E0929FD001EB
:1024D000939FB00D1124AE52BE4FFE013196019074
:1024E0000D929A95E1F78093D1010E94860F9ECFBD
:1024F0000E94340F1092D1011092D00186E0E2E0E8
:10250000F2E0DF011D928A95E9F72C960FB6F89458
:10251000DEBF0FBECDBFDF91CF911F910895EF9227
:10252000FF920F931F93CF93DF938C01892B81F040
:10253000F12CEE24E394E8012196F801849184378C
:1025400070F4843008F05FC08130B1F08230A1F1C6
:10255000DF91CF911F910F91FF90EF9008958537F4
:1025600009F44CC008F43DC09CE7980F903780F701
:102570008F770E94560C49C00E5F1F4FFE01849159
:1025800090E2980F983060F48770FE2D01C0FF0F25
:102590008A95EAF78F2F0E9479150E94211502C0B3
:1025A0000E945F0B8F2D815030F2EFE9FFE03197F1
:1025B000F1F700C00000F7CF0E5F1F4FFE018491BE
:1025C00090E2980F983050F48770FE2D01C0FF0FF5
:1025D0008A95EAF78F2F0E947F15DFCF0E94560C55
:1025E000E1CF0E5F1F4FFE01C491C150D8F28FE9B9
:1025F0009FE00197F1F700C00000F7CF0E5F1F4F7B
:10260000FE01F490CFCF0E945F0B8E01CBCF0895D7
:102610000E94071360932A0270932B0280932C026E
:1026200090932D020C94240F08950C9408130F938B
:102630001F9300912A0210912B0220912C023091BD
:102640002D02602B712B822B932B1F910F910C94D9
:1026500008130F931F9300912A0210912B022091CF
:102660002C0230912D0260237123822393231F912A
:102670000F910C9408130F931F9300912A0210914D
:102680002B0220912C0230912D0260277127822786
:1026900093271F910F910C9408130C9407130C941B
:1026A0004D130E944F13609326027093270280936C
:1026B0002802909329020C94240F60E070E0CB0173
:1026C0000C9451130F931F9341E050E060E070E0D1
:1026D0008A019B0104C0000F111F221F331F8A951E
:1026E000D2F7C901B8011F910F910C9451130F93A8
:1026F0001F9341E050E060E070E004C0440F551FBC
:10270000661F771F8A95D2F7809126029091270243
:10271000A0912802B09129028A019B01082B192B54
:102720002A2B3B2BC901B8011F910F910C94511317
:102730000F931F9341E050E060E070E004C0440F4D
:10274000551F661F771F8A95D2F7CB01BA01609596
:102750007095809590950091260210912702209106
:1027600028023091290260237123822393231F9131
:102770000F910C9451130F931F9341E050E060E0D0
:1027800070E004C0440F551F661F771F8A95D2F76B
:102790008091260290912702A0912802B0912902EF
:1027A0008A019B01082719272A273B27C901B8015D
:1027B0001F910F910C9451130F931F9300912602B8
:1027C000109127022091280230912902602B712B51
:1027D000822B932B1F910F910C9451130F931F93E6
:1027E000009126021091270220912802309129029F
:1027F00060237123822393231F910F910C94511313
:102800000F931F9300912602109127022091280216
:102810003091290260277127822793271F910F91FA
:102820000C94511308952CE0929F800D1124982F41
:10283000977071E001C0770F9A95EAF786958695B3
:10284000869525E0829FC001112450E040E0A62F2C
:10285000B0E0FC01E40FF51FE85FFD4F60819D01D2
:10286000042E02C0369527950A94E2F7217021952F
:1028700026272723262720834F5F5F4F45305105AA
:1028800041F708952CE0929F800D1124982F9770A6
:1028900086958695869525E0829FA001112470E09B
:1028A00060E080E0FA01E60FF71FE85FFD4F20814E
:1028B00030E0092E02C0369527950A94E2F7217080
:1028C0003327062E01C0220F0A94EAF7822B6F5F8E
:1028D0007F4F6530710531F70895BF92CF92DF9237
:1028E000EF92FF920F931F93CF93DF938C01C090D1
:1028F0002602D0902702E0902802F09029028091D1
:102900002A0290912B02A0912C02B0912D02C82A8C
:10291000D92AEA2AFB2ACFE1D0E0BC2ED701C60192
:102920000C2E04C0B695A795979587950A94D2F773
:1029300080FD0EC0219788F7B12C8B2DDF91CF91B0
:102940001F910F91FF90EF90DF90CF90BF9008956F
:10295000B8018C2F0E946305019761F3EECFCF93EE
:10296000DF93EC010E946D14BE01DF91CF910C94B6
:1029700063051F93CF93DF93EB019091CF019923D0
:1029800031F0CB01DF91CF911F910C94AF148823CC
:1029900079F0CB010E946D14182F682FCE010E9490
:1029A0001314BE01812FDF91CF911F910C94630509
:1029B000CB010E944214182FF4CF682F8091400160
:1029C000909141010C942D16682F809140019091B7
:1029D00041010C94381680914001909141010C9472
:1029E000431680912E028595859585950895809151
:1029F0002E028770089598E0899F90011124622B20
:102A000060932E020C94771390912E028095892367
:102A100080932E02282F277061F4282F082E000C97
:102A2000330B9217130629F08595859585950C949F
:102A30009813089590912E02977081E009F480E038
:102A40000895E0914001F09141018091520280830C
:102A5000E0914001F0914101808190915102892BD8
:102A60008083E0914001F09141018081909150027A
:102A7000892B808390912F02992381F0E09140016E
:102A8000F09141018081892B808380914001909158
:102A900041010E94D015811110922F0280914001B6
:102AA000909141010C94340A8091520208959091C2
:102AB0005202892B809352020895982F909580910D
:102AC000520289238093520208951092520208956F
:102AD00090915102892B809351020895982F9095DF
:102AE00080915102892380935102089510925102DE
:102AF000089590915002892B809350020895982F49
:102B000090958091500289238093500208951092ED
:102B10005002089580932F02089510922F02089575
:102B20006DEE7EEF90E080E00E949B2060E082E00E
:102B300090E00E94892060E083E090E00E9489207C
:102B400060E084E090E00E94892060E085E090E011
:102B50000E94892060E08DE090E00C94892090E054
:102B600080E00E94832021E08D3E9E4F09F020E00E
:102B7000822F089582E090E00C947B2083E090E027
:102B80000C947B20682F83E090E00C94892084E0F3
:102B900090E00C947B20682F84E090E00C948920D6
:102BA000FC0131969C01205E3F4F80E09191911194
:102BB0008F5FE217F307D1F708959C01FC0132966D
:102BC0009FEF80E04191461751F09F3F19F441116A
:102BD00001C0982F8F5F8E31A9F79F3F09F40895A8
:102BE000290F311D97FD3A95F90162830895FC0183
:102BF000329680962191261303C0DF0111971C9213
:102C0000E817F907B9F70895E62FE695E695E695F2
:102C1000EF3169F0E80FF92FF11D677021E030E026
:102C200001C0220F6A95EAF78181822B8183089582
:102C3000E62FE695E695E695EF3171F0E80FF92F6E
:102C4000F11D677021E030E001C0220F6A95EAF7BC
:102C500020958181282321830895209167012223D3
:102C600029F020917D0227FD0C9404160C94DD15AB
:102C700020916701222329F020917D0227FD0C94E9
:102C800018160C94F715FC01319680961192E817EE
:102C9000F907E1F7089580918302843039F11092A9
:102CA000540288E190E020E40FB6F894A895809350
:102CB00060000FBE2093600080E00E94410583B752
:102CC000817F846083BF83B7816083BF7894889558
:102CD00083B78E7F83BF0FB6F894A895809160006C
:102CE000886180936000109260000FBE089508957F
:102CF0000895CF930E9477160E945F080E9478166D
:102D0000C0E08C2F0E942009892B31F4CF5FC430A2
:102D1000C1F780E0CF91089581E0FCCF0E94340F8D
:102D20000E94280A0C9441051F920F920FB60F9231
:102D300011248F939F93AF93BF938091540281117D
:102D400013C08091790290917A02A0917B02B09198
:102D50007C024196A11DB11D8093790290937A0265
:102D6000A0937B02B0937C02BF91AF919F918F9112
:102D70000F900FBE0F901F90189582E084BD93E0D6
:102D800095BD9AEF97BD80936E0008952FB7F89484
:102D90008091790290917A02A0917B02B0917C029D
:102DA0002FBF0895CF92DF92EF92FF920F931F9360
:102DB0002FB7F8944091790250917A0260917B028A
:102DC00070917C022FBF6A017B01EE24FF248C01ED
:102DD00030E020E0C016D106E206F30650F0481BB2
:102DE000590BCA011F910F91FF90EF90DF90CF9088
:102DF000089541505109F3CF78941F920F920FB666
:102E00000F9211248F939F93AF93BF938091790278
:102E100090917A02A0917B02B0917C020196A11D53
:102E2000B11D8093790290937A02A0937B02B093B4
:102E30007C02BF91AF919F918F910F900FBE0F9029
:102E40001F90189581E08093E00080E28093D80085
:102E50001092C9008FE19EE40197F1F700C00000D5
:102E600087E090EBDC0180938C0290938D02A0931D
:102E70008E02B0938F0288E19CE00FB6F894A8957B
:102E8000809360000FBE90936000FFCF0E94AF154B
:102E9000811102C00E9490150E94BA1580935302BE
:102EA0000E94C71590E090937E0280937D020E945D
:102EB000BE15682F70E090E080E00C9415138091AF
:102EC0007502089508950F931F93CF93DF9300D059
:102ED0001F92CDB7DEB78C010E94131A823011F019
:102EE000843021F583E089831B830A8382E0809309
:102EF000E9008FEF9091E800815095FD06C095EDB7
:102F00009A95F1F700008111F5CF8091E80085FFD7
:102F10000DC050E040E063E070E0CE0101960E94F9
:102F2000301A8091E8008E778093E8000F900F9020
:102F30000F90DF91CF911F910F910895CF93DF9361
:102F400000D01F92CDB7DEB720918302243029F53F
:102F500022E02983805891099B838A832093E9008A
:102F60008FEF9091E800815095FD06C095ED9A9500
:102F7000F1F700008111F5CF8091E80085FF0DC0C9
:102F800050E040E063E070E0CE0101960E94301A0C
:102F90008091E8008E778093E8000F900F900F905B
:102FA000DF91CF910895CF93DF93EC010E94131A24
:102FB000823011F08430F9F4809167018823F1F0B8
:102FC00080917D0287FF1AC083E08093E9008FEF34
:102FD0009091E800815095FD06C095E19A95F1F732
:102FE00000008111F5CF8091E80050E040E060E200
:102FF00070E085FD1AC0DF91CF91089581E0809344
:10300000E9008FEF9091E800815095FD06C095EDA5
:103010009A95F1F700008111F5CF8091E80085FFC6
:10302000EACF50E040E068E070E0CE010E94301A44
:103030008091E8008E778093E80080E2FE01A5E5AC
:10304000B2E001900D928A95E1F7D5CF809182028E
:10305000811109C00E94C01B0E941D1C8091E200CA
:1030600084608093E200089510928202089508958A
:1030700008950C948E1642E061EC81E00E943E1BA4
:1030800042E061EC82E00E943E1B42E261EC83E0A0
:103090000E943E1B42E061EC84E00E943E1B42E144
:1030A00060E886E00E943E1B42E161E885E00C9406
:1030B0003E1B80918502833009F457C048F481306B
:1030C00081F1823009F499C082E491E00C94B71F39
:1030D0008A3009F481C08B3009F464C08930A1F7CB
:1030E00080918402813281F78091880290918902D7
:1030F000009711F0029741F78091E800877F809355
:10310000E8008091E80082FF2BC08091F10080935D
:1031100075028091E8008B778093E8000E94721B13
:10312000D3CF80918402813A79F68091E800877F3D
:103130008093E8008091880290918902892B61F444
:1031400060E285E592E070E00E947F1A8091E800DD
:103150008B778093E800B8CF60E090E080E0F3CF19
:10316000809183028111CDCF089580918402813AAC
:1031700009F0AACF8091880290918902892B09F0E9
:10318000A3CF8091E800877F8093E8008091E800DA
:1031900080FFFCCF809167018093F1008091E8006F
:1031A0008E77BACF80918402813209F08DCF8091E1
:1031B000880290918902892B09F086CF8091E800DE
:1031C000877F8093E8000E94721B80918602809323
:1031D00067010E94340F78CF80918402813209F018
:1031E00073CF8091E800877F8093E8000E94721B74
:1031F000809187028093760267CF80918402813A22
:1032000009F062CF8091E800877F8093E800809189
:10321000E80080FFFCCF80917602BECF82E090E094
:10322000909355018093540182E491E00C946F1FB8
:10323000089582E491E00E940A1F892B31F082E414
:1032400091E00E94391F0C9418190895CF93C091F2
:10325000E9009091EC0090FD19C090E0209152019E
:1032600020FF12C0CF70C92B909143019F709093A3
:10327000E9009091EB0090FF04C09091EE0097FD63
:1032800007C0CF70C093E900CF91089590E8E6CFD2
:103290009FEF2091E800915025FD06C025ED2A956D
:1032A000F1F700009111F5CF8093F10082E491E0F5
:1032B0000E94C21E8091E80080FFE3CF8091E80069
:1032C0008E778093E800DDCF84B7877F84BF0FB609
:1032D000F894A895809160008861809360001092B6
:1032E00060000FBE80E880936100109261000E9430
:1032F0006C0A0E94C01B0E941D1C8091E200846029
:103300008093E20078940E94A61E0E94700A8DE5C8
:1033100091E00E94230A0E940E1980918302853059
:1033200049F00E94780A0E94191982E491E00E94F3
:10333000F31EF3CF0E944B1680918102882369F31C
:103340000E947916882349F30E941A1AE6CF292F82
:1033500033272330310579F158F421303105F1F06C
:103360002230310519F190E080E030E020E01AC011
:1033700021323105C9F122323105A9F763307105D7
:1033800090F7FB01EE0FFF1FED57FE4F20813181BB
:1033900060587E4FFB01808190E004C082E190E0A4
:1033A00029E134E0FA0131832083089581E990E036
:1033B00028E833E0F7CF99278130910579F040F084
:1033C0008230910571F0039771F6ECE4F3E002C0EE
:1033D000E4E8F3E0849190E09F01E4CFEEE6F3E0CF
:1033E000F9CFE2E5F3E0F6CF6330710508F0BBCF2B
:1033F000660F771FFB01E757FE4F2081318189E07F
:1034000090E0D0CF0895CF93C82F0E94021AC093A6
:103410007702CF91089580918302843011F081E08A
:10342000089582E0089580917702811102C00C9482
:103430000B1A089580E189BD82E189BD09B400FEBF
:10344000FDCF8091D8008F7D8093D8008091E000DF
:1034500082608093E0008091E00081FDFCCF0895C0
:10346000AF92BF92CF92DF92FF920F931F93CF93B1
:10347000DF936C01EB018A010E94911BF82E8111F0
:1034800023C00115110539F0F80180819181C81B15
:10349000D90BC80ED91EB12CA12C2097A9F0809170
:1034A000E80085FD22C08091E8008E778093E800D7
:1034B00001151105A1F0F80180819181A80EB91EB6
:1034C000B182A08285E0F82E8F2DDF91CF911F91E0
:1034D0000F91FF90DF90CF90BF90AF9008950E9422
:1034E000911B8823D1F2F82EEFCFF60181916F0165
:1034F0008093F1002197FFEFAF1ABF0ACECFFC01F6
:1035000080918A0290918B0286179707A0F061152F
:10351000710529F49091E8009E779093E80090E07F
:103520006115710551F4911108C08091E80082FF86
:1035300035C080E00895BC01F2CF809183028823DA
:10354000C9F18530C9F18091E80083FD31C08091D7
:10355000E80082FDEACF8091E80080FFE1CF209172
:10356000F3008091F200322F282F6115710519F0B8
:103570002830310558F091E02830310509F090E00D
:103580002091E8002E772093E800CACF81918093A4
:10359000F100615071092F5F3F4FE7CF80918302A7
:1035A000882341F0853041F08091E80083FFBDCF52
:1035B00081E0089582E0089583E00895FC01809100
:1035C0008A0290918B0286179707A0F0611571050A
:1035D00029F48091E8008E778093E80090E06115EF
:1035E000710551F4911108C08091E80082FF36C046
:1035F00080E00895BC01F2CF809183028823D1F14D
:103600008530D1F18091E80083FD32C08091E800DF
:1036100082FDEACF8091E80080FFE1CF2091F300A6
:103620008091F200322F282F6115710519F0283092
:10363000310558F091E02830310509F090E0809193
:10364000E8008E778093E800CACF84918093F100E0
:103650003196615071092F5F3F4FE6CF8091830211
:10366000882341F0853041F08091E80083FFBCCF92
:1036700081E0089582E0089583E00895982F9730BF
:1036800028F08F708093E90081E008959093E9001D
:10369000242F762F50E0981731F07091EC00209194
:1036A000ED005091F00021FD02C09F5FE8CF309106
:1036B000EB003E7F3093EB003091ED003D7F309387
:1036C000ED003091EB0031603093EB007093EC0033
:1036D0002093ED005093F0002091EE0027FDE5CF00
:1036E00080E008958091840287FF13C08091E800F4
:1036F00082FF06C08091E8008B778093E80004C0C9
:10370000809183028111F2CF0895809183028823F2
:10371000D9F38091E80080FFF8CF8091E8008E77A0
:10372000ECCF2091E4003091E50085E69091EC002B
:1037300090FF06C09091E80090FF06C080E00895D9
:103740009091E80092FDFACF90918302992391F035
:10375000953091F09091EB0095FD10C04091E40000
:103760005091E5002417350709F381509A01F1F6CD
:1037700084E0089582E0089583E0089581E008954B
:103780000E942E1C0E94361CE0EEF0E080818160D9
:103790008083E8EDF0E080818F77808319BCA7ED0E
:1037A000B0E08C918E7F8C9380818F7E808310928D
:1037B000820208950F931F93CF93DF930E942E1CD4
:1037C0000E94361CC8EDD0E088818F77888388817D
:1037D0008068888388818F7D888319BC10928302DA
:1037E00010927F02109281021092800200EE10E08F
:1037F000F80180818B7F808388818160888342E0AB
:1038000060E080E00E943E1BE1EEF0E080818E7F70
:103810008083E2EEF0E08081816080838081886037
:103820008083F80180818E7F808388818061888396
:10383000DF91CF911F910F910895E8EDF0E0808125
:103840008F7E8083E7EDF0E080818160808384E07B
:1038500082BF81E0809382020C94DA1BE8EDF0E0F5
:1038600080818E7F80831092E20008951092DA00AA
:103870001092E10008951F920F920FB60F9211243B
:103880002F933F934F935F936F937F938F939F9368
:10389000AF93BF93EF93FF938091E10082FF0BC042
:1038A0008091E20082FF07C08091E1008B7F8093CE
:1038B000E1000E94A51E8091DA0080FF19C080916E
:1038C000D80080FF15C08091DA008E7F8093DA00E7
:1038D0008091D90080FF94C080E189BD82E189BDDB
:1038E00009B400FEFDCF81E0809383020E94261878
:1038F0008091E10080FF19C08091E20080FF15C037
:103900008091E2008E7F8093E2008091E2008061EE
:103910008093E2008091D80080628093D80019BC27
:1039200085E0809383020E9438188091E10084FF33
:1039300029C08091E20084FF25C080E189BD82E139
:1039400089BD09B400FEFDCF8091D8008F7D8093A2
:10395000D8008091E1008F7E8093E1008091E200A9
:103960008F7E8093E2008091E20081608093E2008C
:1039700080917F02882309F449C084E08093830208
:103980000E9439188091E10083FF29C08091E200F4
:1039900083FF25C08091E100877F8093E10082E072
:1039A0008093830210927F028091E1008E7F80934A
:1039B000E1008091E2008E7F8093E2008091E2003E
:1039C00080618093E20042E060E080E00E943E1B64
:1039D0008091F00088608093F0000E943718FF917A
:1039E000EF91BF91AF919F918F917F916F915F9177
:1039F0004F913F912F910F900FBE0F901F901895F0
:103A000019BC109283020E94341872CF8091E30097
:103A100087FD02C081E0B2CF83E0B0CF1F920F924A
:103A20000FB60F9211242F933F934F935F936F9391
:103A30007F938F939F93AF93BF93CF93EF93FF9316
:103A4000C091E900CF708091EC001092E900809164
:103A5000F000877F8093F00078940E944A1D1092B6
:103A6000E9008091F00088608093F000C093E90045
:103A7000FF91EF91CF91BF91AF919F918F917F91E6
:103A80006F915F914F913F912F910F900FBE0F90CB
:103A90001F9018951F93CF93DF93CDB7DEB7AA97EA
:103AA0000FB6F894DEBF0FBECDBFE4E8F2E0809120
:103AB000F100819322E0EC38F207C9F70E9459180F
:103AC0008091E80083FF44C0809184029091850238
:103AD0009A3008F03DC0E92FF0E0EF58F24E0C9418
:103AE00075207B1DA11DA81DA11DA81DFF1D211E48
:103AF000A81D781E851E803889F0823849F580918E
:103B000088028F70873020F58093E9008091EB0068
:103B100085FB882780F91092E90006C08091800219
:103B200090918102911182609091E800977F90932B
:103B3000E8008093F1001092F1008091E8008E7708
:103B40002DC0282F2D7F21F48823D1F0823059F108
:103B50008091E80083FF0AC08091E800877F80930E
:103B6000E8008091EB0080628093EB00AA960FB68C
:103B7000F894DEBF0FBECDBFDF91CF911F910895A6
:103B800080918602813021F7933009F080E08093A4
:103B900081021092E9008091E800877F8093E8001D
:103BA0000E94721BD5CF809186028111F2CF809145
:103BB00088028F702FEF280F263050F68093E9008F
:103BC0002091EB0020FFE5CF933031F48091EB00A2
:103BD00080628093EB00DDCF9091EB009061909339
:103BE000EB0021E030E001C0220F8A95EAF7209334
:103BF000EA001092EA008091EB008860EACF811120
:103C0000A7CF109186021F778091E3008078812BE7
:103C10008093E3008091E800877F8093E8000E9412
:103C2000721B8091E80080FFFCCF8091E3008068E8
:103C30008093E30083E0111101C082E0809383024E
:103C400087CF8058823008F083CF80918602909190
:103C500087028C3D23E09207A1F583E08A838AE204
:103C600089834FB7F894DE01139620E03EE051E2DD
:103C7000E32FF0E050935700E49120FF03C0E2955A
:103C8000EF703F5FEF708E2F90E0EA30C0F0C79684
:103C90008D939D932F5F243159F74FBF8091E8009A
:103CA000877F8093E8006AE270E0CE0101960E946F
:103CB0007F1A8091E8008B778093E80049CFC09607
:103CC000E7CF6091880270918902AE014F5F5F4F2C
:103CD0000E94A719BC01892B09F43ACF9091E80002
:103CE000977F9093E80089819A810E94DE1AE1CF44
:103CF000803809F02DCF8091E800877F8093E8001D
:103D000080917F028093F10018CF811121CF909193
:103D10008602923008F01CCF8091E800877F809364
:103D2000E80090937F020E94721B80917F0288239B
:103D300031F084E0809383020E943B1809CF809188
:103D4000E30087FDF6CF81E0F5CF0895CF93809112
:103D50008302882399F0C091E900CF708091EC0034
:103D600080FD0EC080E0C82B1092E9008091E80031
:103D700083FD0E944A1DCF70C093E900CF91089542
:103D800080E8F1CF20918302243059F5FC01448969
:103D9000558966897789452B462B472B11F18181FF
:103DA0008F708093E9008091F3009091F200892751
:103DB00098278927892B11F480E008959091E800D5
:103DC0008091E8008E778093E80095FDF5CF0E9402
:103DD000911B811107C09091E8009E779093E800B5
:103DE000089582E0089520918302243091F4FC012B
:103DF0004489558966897789452B462B472B49F09D
:103E000021812F702093E9002091E80020FD0C947F
:103E1000C21E089520918302243019F090E080E0C2
:103E20000895FC014489558966897789452B462B7D
:103E3000472BA1F386818F708093E9008091E80081
:103E400082FFECCF8091F3009091F20089279827B0
:103E50008927009731F42091E8002B772093E80020
:103E600008958091F3009091F2008927982789277F
:103E7000089520918302243019F08FEF9FEF089569
:103E8000FC014489558966897789452B462B472B48
:103E9000A1F386818F708093E9008091E80082FF12
:103EA000ECCF8091F3009091F20089279827892721
:103EB000892B91F08091F10090E02091F3003091F6
:103EC000F200232732272327232B29F42091E8000F
:103ED0002B772093E80008958FEF9FEFEECF0F939D
:103EE0001F93CF93DF93CDB7DEB728970FB6F89423
:103EF000DEBF0FBECDBF8C0180918302843059F5A7
:103F0000F80184899589A689B789892B8A2B8B2BFF
:103F100011F183858F708093E90088E0E8E6F1E095
:103F2000DE01119601900D928A95E1F750E040E094
:103F300068E070E0CE0101960E94301A50E040E047
:103F400062E070E0C80142960E94301A8091E80059
:103F50008E778093E80028960FB6F894DEBF0FBEE8
:103F6000CDBFDF91CF911F910F9108950895CF9309
:103F7000DF93EC018091E80083FF10C028818091DD
:103F80008802909189022817190641F480918502D0
:103F90008132F1F030F4803209F450C0DF91CF91DA
:103FA0000895823209F47EC08332C1F78091840281
:103FB0008132A1F78091E800877F8093E8000E941A
:103FC000721B60918602CE01DF91CF910C94B61FD7
:103FD00080918402813A11F78091E800877F809375
:103FE000E8008091E80080FFFCCF8C899D89AE8934
:103FF000BF898093F100492F5A2F6B2F7727409369
:10400000F100AD01662777274093F1008B2F9927A8
:10401000AA27BB278093F100888D8093F100898DBA
:104020008093F1008A8D8093F1008091E8008E7773
:104030008093E800DF91CF910C94721B80918402F1
:10404000813209F0ABCF8091E800877F8093E80050
:104050008091E80082FF21C03091F1002091F100B1
:104060009091F1008091F1003C8B2D8B9E8B8F8B7A
:104070008091F100888F8091F100898F8091F1000B
:104080008A8F8091E8008B778093E8000E94721BF2
:10409000CE01DF91CF910C94B61F809183028111E4
:1040A000D7CF7CCF80918402813209F077CF809185
:1040B000E800877F8093E8000E94721B809186024F
:1040C00090918702998B888BCE01DF91CF910C94D0
:1040D000B61F991B79E004C0991F961708F0961B2C
:1040E000881F7A95C9F780950895EE0FFF1F0590F8
:1040F000F491E02D0994F999FECF92BD81BDF89A13
:10410000992780B50895A8E1B0E042E050E00C9412
:10411000A320262FF999FECF92BD81BDF89A019771
:1041200000B4021639F01FBA20BD0FB6F894FA9AFF
:10413000F99A0FBE08950196272F0E948A200C94A9
:104140008920DC01CB01FC01F999FECF06C0F2BD4C
:10415000E1BDF89A319600B40D9241505040B8F745
:064160000895F894FFCF62
:1041660000D0D0D0D0D0D0010102040810204142A6
:10417600444848000000484850608182848890A0E6
:10418600C1C2C4D0D0D0D0D0D0C80000000000003A
:104196000000000000000000000000000000000019
:1041A600300203851000000106100000018408009B
:1041B600000100000000000000000000005F17D3AF
:1041C6001762179E17631701A12000000000020066
:1041D600F0F1F4F5F6F767663635349790919293D9
:1041E6004036399A0464042B049A03B303CC0300C3
:00000001FF
