:100000000C94C0040C9407050C9407050C94070588
:100010000C9407050C9407050C9407050C94070530
:100020000C9407050C9407050C947B280C944E291E
:100030000C9499200C9407050C9407050C94070563
:100040000C9407050C9407050C9407050C94070500
:100050000C9407050C9401210C9407050C940705DA
:100060000C9407050C9407050C9407050C940705E0
:100070000C9407050C9407050C9407050C940705D0
:100080000C9407050C9407050C9407050C940705C0
:100090000C9407050C9407050C9407050C940705B0
:1000A0000C9407050C9407050C9407053A25732F4B
:1000B000617263683D282E2A292F617263683D288A
:1000C00027616E7927290A00746865206B6579734A
:1000D000206F6620656E6F63680033001C0012009D
:1000E00018001D000D5839000A000700110010000B
:1000F0001B0014680C610864046237000E580F5826
:1001000006001762156416611A680D002D00340090
:100110000E0036000B580C58050013000F000900A4
:100120001900000000000000000029440B420A579B
:100130002A45000000000000000033021C021202E9
:1001400018021D020D5839000A020702110210029E
:100150001B0214020C020802040238020E580F5847
:1001600006021702150216021A020D022D023402AF
:100170000E021E020B580C58050213020F02090250
:100180001902000000000000000029000B022C00F2
:100190002A00000000000000000033001C001200D4
:1001A00018001D000D5839000A0207021102100242
:1001B0001B0214000C00080004000B570E580F58C7
:1001C00006021702150216021A020D002D00340055
:1001D0000E0035000B580C58050213020F020902DD
:1001E000190200000000000000002B00010004576D
:1001F0004C4A000000000000000033021C02120202
:1002000018021D020D5839000A00070011001000E5
:100210001B0014020C020802040238020E580F5888
:1002200006001700150016001A000D022D023402F8
:100230000E0238000B580C58050013000F0009007F
:10024000190000000000000000002B000B0201005C
:100250004C00000000000000000000000000000052
:10026000000000000100010000572F0023023000B1
:10027000000000000000000000000000010001007C
:1002800031022602210227020000000000000000C7
:10029000000000000100010038002F02200230029F
:1002A000000000000000000000000100010031001B
:1002B000E15C00000000000000000157370025024B
:1002C000240200000100010000004A0052004D001D
:1002D0004B00E05C0757DF5C065738020100010065
:1002E0000000500051004F004E0000002E021F027F
:1002F0001E023800010001000000000000000000A4
:1003000000000000000000000000E25C0557010052
:1003100001000000000000000000015A025A035AC8
:10032000045A055A065A235A245A255A265A275A35
:10033000285ADB5C075A095A0B5A0D5A115A165A99
:100340001A5A1C5A1E5A205A225ADC5C085A0A5A57
:100350000C5A0E5A125A175A1B5A1D5A1F5A215A12
:10036000295A00000000000000000F5A105A185AC5
:10037000195A000000000000000000000900086594
:1003800007000000010001003800240025002600BD
:1003900025020855066105640462000001000100A1
:1003A00003572100220023002D0000001B00DE5C0B
:1003B000310000000100010002571E001F00200054
:1003C0002E020000000000000000010001002700D4
:1003D0002E000000000000000000000000000000EF
:1003E0000000000001000100000040004100420048
:1003F0004500085501550455025500000100010053
:1004000000003D003E003F004400000000000000EE
:10041000000000000100010000003A003B003C0029
:100420004300000000000000000001000100010086
:1004300001000000000000000000000000000000BB
:1004400000000000010001000000FB00F000FC00C3
:10045000F9000000F600F500F400000001000100C2
:100460000000F200F100F300FA00000000000000BC
:10047000000000000100010000000000000000007A
:100480000000000000000000000001000100010069
:100490000100000000000000000000000000060550
:1004A000190500000000000000000000000000002E
:1004B000DD5C1D011B0106011901000000000000A8
:1004C0000000085709570000000000000000180154
:1004D0000701000000000000000000000000000014
:1004E000000000000000000000000100000000000B
:1004F0000100000000000000000000000900086585
:10050000070000000100010038002400250026003B
:10051000250208550661056404620000010001001F
:1005200003572100220023002D0000002002DE5C82
:10053000310000000100010002571E001F002000D2
:100540002E020000000000000000E35C2C002700E9
:100550002E0000000000000000000100370025020E
:10056000240235020100010035002F002302300073
:1005700001000100360222023702380201000100A8
:1005800031022602210227020100010033021F026C
:100590001E0238000100010031002F02200230024B
:1005A00001000000000000000000E35C2E002E02AD
:1005B0002C0000000000000000000000000000000F
:1005C0000000000001000100000040004100420066
:1005D0004500085501550455025500000100010071
:1005E00000003D003E003F0044000000000000000D
:1005F000000000000100010000003A003B003C0048
:1006000043000000000000000000E35C00002E0238
:1006100000000000000000000000000000000000DA
:10062000000000000100010000004A0052004D00DF
:100630004B0008550155045502550000010001000A
:100640000000500051004F004E000000000000006C
:100650000000000001000100000000000000000098
:1006600000000000000000000000E35C000000004B
:10067000000000000000000000000000000000007A
:1006800000000000010001000000FB00F000FC0081
:10069000F9000000F600F500F40000000100010080
:1006A0000000F200F100F300FA000000000000007A
:1006B0000000000001000100000000000000000038
:1006C00000000000000000000000E35C00000000EB
:1006D000000000000000000000000000000000001A
:1006E00000002A2B2800000000000000000000008D
:1006F000000000000029000000002C1E34202122F0
:1007000024342627252E362D3738271E1F20212258
:10071000232425263333362E37381F0405060708D1
:10072000090A0B0C0D0E0F101112131415161718C1
:10073000191A1B1C1D2F3130232D350405060708FF
:10074000090A0B0C0D0E0F101112131415161718A1
:10075000191A1B1C1D2F3130354C00000000000001
:100760000000000000000000000000000000000089
:100770000000000000000000000000010101010174
:100780000100010101010000000000000000000064
:10079000000000000100010001010101010101014F
:1007A0000101010101010101010101010101010139
:1007B0000101010101000000010100000000000032
:1007C0000000000000000000000000000000000029
:1007D00000000000000101010100040330000000DE
:1007E0001A03530070006C00690074006F0067000A
:1007F000720061007000680079000000140353006B
:100800004F00460054002F0048005200550046009B
:1008100000000403090409029100050100A0FA097F
:10082000040000010301010009211101000122401F
:10083000000705810308000A090401000103010201
:1008400000092111010001224D0007058203080063
:100850000A0904020001030000000921110100013E
:1008600022390007058303200001080B030202025E
:100870000100090403000102020100052400100127
:10088000042402020524060304070584030800FF6C
:1008900009040400020A0000000705060210000512
:1008A0000705850210000512011001EF020108ED95
:1008B000FE606001000102030105010906A10105B6
:1008C0000719E029E7150025019508750181020542
:1008D0000819012905950575019102950175039186
:1008E000010507190029F71500250195F875018103
:1008F00002C005010902A1010901A10005091901B0
:1009000029051500250195057501810295017503DD
:1009100081010501093009311581257F950275088E
:10092000810609381581257F950175088106050C1A
:100930000A38021581257F950175088106C0C0051A
:10094000010906A101050719E029E7150025019510
:1009500008750181029501750881010508190129B1
:10096000059505750191029501750391010507191A
:100970000029FF150026FF00950675088100C000BC
:1009800011241FBECFEFDAE0DEBFCDBF04B603FEF9
:1009900027C08091A7039091A803A091A903B091CB
:1009A000AA038730904BA740B04BD1F41092A70315
:1009B0001092A8031092A9031092AA0314BE84B740
:1009C000877F84BF0FB6F894A895809160008861F6
:1009D00080936000109260000FBEE0E0FFE3099595
:1009E00012E0A0E0B1E0E6E3FAE502C005900D9266
:1009F000A239B107D9F723E0A2E9B2E001C01D9204
:100A0000A73AB207E1F70E94A4250C94192D0C9483
:100A100000000C94170B8EE20E94B9158AE00C942A
:100A20004D1DCF93DF93EC018881823020F088EC5C
:100A300090E00E943F0DCE01DF91CF910C945B12AC
:100A4000CF93DF93EC018881823020F08CEA90E034
:100A50000E943F0DCE01DF91CF910C945B12677025
:100A6000772721E030E001C0220F6A95EAF7409134
:100A70009E02FC018281882321F0242B20939E0278
:100A8000089520952423FACFCF93DF93EC01809132
:100A90009E0280FF03C080EEFE01099580919E02B8
:100AA00083FF03C083EEFE01099580919E0282FFC1
:100AB00003C082EEFE01099580919E0281FF03C072
:100AC00081EEFE01099580919E0285FF05C085EEAD
:100AD000FE01DF91CF910994DF91CF910895CF93DB
:100AE000C82F81EE0E94C2148C2FCF910C94C21497
:100AF0000E94B91581EE0C94B91583E390E00C9433
:100B0000780587E390E00C94780586E390E00E94F6
:100B1000780580EE0C94B91585E390E00C94780587
:100B2000CF93C82F0E94C2148C2FCF910C94B9156B
:100B3000CF93DF93EC0186E390E00E9490058881DB
:100B4000823020F08CE290E00E949005CE01DF918F
:100B5000CF910C945B12CF93DF93EC0181EE0E9456
:100B6000C214CE010E94900581EEDF91CF910C94CA
:100B7000B9151F93CF93DF93EC0198818F81923049
:100B8000E8F0882351F085E390E00E946F05CE01E4
:100B9000DF91CF911F910C945B1210E0923051F4D1
:100BA0008BE592E00E94020DF2CF85E390E00E9477
:100BB000AB051F5F88811817C0F3E9CF8111E3CF20
:100BC00085E390E00E94AB05E2CFCF93DF93EC0189
:100BD0008881823020F087E390E00E94900585E2D2
:100BE00090E00E94AB05CE01DF91CF910C945B1297
:100BF000CF93DF93EC018881823048F083E392E069
:100C00000E94AB05CE01DF91CF910C945B1287E37C
:100C100090E00E949005F6CF1F93CF93DF93182F9B
:100C2000EB01209729F480E0DF91CF911F91089587
:100C300080919C0290919D020E94D7208A3F91054D
:100C400090F7CE01112321F00E94AB0581E0ECCF9B
:100C50000E949005FBCFEF92FF921F93CF93DF93FB
:100C6000162FEA017901FC018281882399F00E9404
:100C7000CB2090939D0280939C02812F0E94C214EE
:100C8000209701F18C2FDF91CF911F91FF90EF9072
:100C90000C94C214862F0E94B915209719F08C2F3E
:100CA0000E94B91580919C0290919D020E94D720CC
:100CB0008A3F910518F4C7010E94AB0510929D026E
:100CC00010929C02DF91CF911F91FF90EF900895B9
:100CD0000F931F93CF93DF93EC01142F022F2091DA
:100CE0009E02211107C0C0E08C2FDF91CF911F9190
:100CF0000F91089530E06770772781E090E002C09F
:100D0000880F991F6A95E2F78223932328173907E2
:100D100051F76091360370913703809138039091B9
:100D200039030E94481F8111DECFCA81CC2349F0CC
:100D3000111103C081EE0E94B915802F0E94C214C8
:100D4000D3CF802F0E94B915111103C081EE0E94EC
:100D5000C214C1E0C9CF0E94900581E00E942C1D01
:100D600063E081E00E94B01E81E080939B020895C1
:100D7000CF92DF92EF92FF920F931F93CF93DF9367
:100D80006C01EB01122FFC019081933038F18781C7
:100D9000882359F0862FDF91CF911F910F91FF90FB
:100DA000EF90DF90CF900C94C214941315C0CE0135
:100DB0000E94900519C0CE010E9490051F5FF601A8
:100DC00080811817C0F3DF91CF911F910F91FF9091
:100DD000EF90DF90CF90089510E0F1CF923081F442
:100DE000433011F4023019F3612FCE01DF91CF911E
:100DF0001F910F91FF90EF90DF90CF900C94AB0676
:100E00008781882359F0822FDF91CF911F910F9115
:100E1000FF90EF90DF90CF900C942C1D0130B9F033
:100E200018F0023009F3CFCF82EC94E10E94440520
:100E3000CE010E94900589EB95E1DF91CF911F9142
:100E40000F91FF90EF90DF90CF900C944405E11448
:100E5000F10409F4B8CFC701DF91CF911F910F9131
:100E6000FF90EF90DF90CF900C949005EF92FF925F
:100E70000F93F12CE12C00919A0223E043E068E209
:100E800070E00E94B8060F91FF90EF900895EF92E6
:100E9000FF920F9328E2E22EF12C00919A0223E0B8
:100EA00040E06CE270E00E94B8060F91FF90EF9076
:100EB0000895CF93C62F0E94B91580919B02882375
:100EC00049F081E00E94B91E10929B0210929A0292
:100ED000CF9108958C2F0E944D1DF8CF63E088E2DA
:100EE00090E00C94590763E08CE290E00C94590771
:100EF0001F93CF93DF93182FEA01CA01662351F0A5
:100F00000E94AB05123080F0CE01DF91CF911F918E
:100F10000C94AB050E949005123030F0CE01DF91A9
:100F2000CF911F910C949005DF91CF911F9108955F
:100F30001F93CF93DF93EC0188819F818330E8F08A
:100F4000992351F083E390E00E946F05CE01DF9179
:100F5000CF911F910C945B1210E0833051F48EE519
:100F600092E00E94020DF2CF83E390E00E94AB0575
:100F70001F5F88811817C0F3E9CF9111E3CF43E3D6
:100F800050E061E00E947807E1CF1F93CF93DF9399
:100F9000EC0188819F818330E0F0992349F08EE253
:100FA0000E94C214CE01DF91CF911F910C945B126D
:100FB00010E0833051F483E692E00E94020DF2CFFC
:100FC0008EE290E00E9490051F5F88811817C0F3A1
:100FD000E9CF992321F08AE00E942C1DE3CF4EE255
:100FE00050E060E00E947807DDCF1F93CF93DF933E
:100FF000EC0188819F818330E8F0992351F087E3E9
:1010000090E00E946F05CE01DF91CF911F910C946B
:101010005B1210E0833051F488E692E00E94020DEA
:10102000F2CF87E390E00E94AB051F5F888118171D
:10103000C0F3E9CF992321F081EE0E94C214E3CFDF
:1010400047E350E061E00E947807DDCF1F93CF9324
:10105000DF93EC0188819F818330E8F0992351F080
:1010600086E390E00E946F05CE01DF91CF911F9142
:101070000C945B1210E0833051F48DE692E00E94F4
:10108000020DF2CF86E390E00E94AB051F5F8881DE
:101090001817C0F3E9CF992321F080EE0E94C21403
:1010A000E3CF46E350E061E00E947807DDCFCF92C6
:1010B000DF92EF920F93CF93DF93C62FD42F690166
:1010C000FC0182818823A9F0802F0E942C1D0E94A0
:1010D000CB2090939D0280939C0280919902C82B13
:1010E000C0939902DF91CF910F91EF90DF90CF9055
:1010F0000895609136037091370380913803909181
:1011000039030E94481F893079F50E944D1DB601B0
:101110008D2F0E940C0681111AC08091980288239D
:1011200021F00E944D1D109298028091990290E04A
:1011300021E030E0C13011F422E030E0822393233B
:10114000892B29F08E2D0E942C1DE09298020E947E
:101150001A1FC09580919902C823C09399021092DA
:101160009D0210929C02BECF093089F2802FCDCF14
:10117000FC018281882319F0862F0C942C1D862F68
:101180000C944D1DCF93C0E08C2F0E944D1DCF5F5E
:10119000C031D1F710929E0210929D0210929C02D3
:1011A00010929B021092990210929802109297024C
:1011B00010929602CF910895CF93FC01C281809145
:1011C0009502CC2369F0682B60939502633021F07F
:1011D000C0E08C2FCF91089587E00E942C1DF9CF9D
:1011E00060956823609395026111F2CF87E00E94B9
:1011F0004D1DEFCF8091960290919702C99721F4EF
:1012000089E390E00E9490050E94C20880E00C945F
:10121000420DCF93DF93EB01FC018281882349F0DB
:101220000E94CB2090939D0280939C02DF91CF91EE
:10123000089580919C0290919D020E94D7208A3F40
:10124000910520F4D0939702C093960210929D02CC
:1012500010929C02EBCFCF93C82F809194028C17F1
:1012600091F083EE0E94C21480EE0E94C2148EE2BE
:1012700090E00E94900580EE0E94B91583EE0E94D6
:10128000B915C0939402CF9108950E94C20880E0DE
:101290000E94420D80E00C942B09FC01828188237E
:1012A000F1F00E94C20886E00E942C1D0E94B41F2B
:1012B000811102C00E94951F0E94CC1F90E0909364
:1012C0009903809398038068809398030E94D01FAD
:1012D00080919402811103C081E00C942B09089540
:1012E000CF92DF92EF920F93CF93DF93EC016B01DC
:1012F000CB3D8CE5D80709F4B8C008F05AC0CA3213
:10130000F5E4DF0709F46BC168F5C933D10509F4C9
:101310007AC1C0F4C633D10509F4E4C0C733D1059E
:1013200009F4CBC0AB9709F03FC0FB018281882351
:1013300009F4DEC081E08093920261E0C6010E9460
:10134000DC08CAC0CB30E2E4DE0709F4E0C0C932F1
:10135000F4E4DF0709F412C1C833D24029F5109232
:10136000920281C0C430E7E5DE0709F4E5C080F4ED
:10137000C43085E5D80709F466C0C830E5E5DE0766
:1013800009F46CC0C130D54579F460EE70E068C0F6
:10139000CA3087E5D80709F4D9C030F0CE018B50A8
:1013A0009845059708F42FC110929D0210929C0257
:1013B0005AC0C33EFCE5DF0709F497C028F5CF3DCE
:1013C000ECE5DE0709F497C088F4CD3D8CE5D8073D
:1013D00009F429C108F464C02AE030E041EE50E08D
:1013E00062EE70E0C6010E942B063DC0C13EFCE5E6
:1013F000DF0709F4ECC008F483C025E0E22E09E021
:101400002BE230E041E0DEC0C731E2E6DE0709F45E
:1014100051C080F4C63181E6D80709F4B6CF61EE39
:1014200070E0C430E2E6DE07D9F0CC30D14609F0F6
:10143000BBCFABCFC53184E6D80729F038F4C8302C
:10144000D44609F0B1CF62EE70E00AC0C43188E63C
:10145000D80721F0CA31D84609F0A6CF63EE70E074
:10146000C6010E942F05C1E013C0FB01C28180911B
:101470009302CC2351F0816080939302833011F06A
:10148000C0E006C00E944509FBCF8E7F8093930287
:101490008C2FDF91CF910F91EF90DF90CF90089537
:1014A000FB01C28180919302CC2311F08260E4CFD2
:1014B0008D7FECCF65EE70E0D3CFFB018281882376
:1014C00071F082E08093920225E330E041E065EE26
:1014D00070E0C6010E946806C1E0C827D9CF10920B
:1014E0009202F2CF2EE130E0F1CF0E94FA08C8CF8D
:1014F0001092920222CF22E230E050E040E070CF22
:1015000025E330E050E040E063EE70E06BCF2CE28A
:1015100030E040E061EE70E0C6010E946806811193
:10152000AFCF62E0C6010E94DC0862E08111A8CF63
:10153000C6010E94B80897CFFB01C281CC2309F4F1
:1015400092CF8091920280939A02A2CFFB01828176
:10155000882321F08091920280939A0228E230E061
:1015600040E065EE70E0C6010E946806882321F025
:1015700088E20E94B91584CF63E0DACF2BE230E035
:1015800040E061EE70E0C6010E946806811178CFEC
:1015900061E0C6010E94DC08C82F811171CF8091E3
:1015A000960290919702892B19F00E94FA0870CF49
:1015B00064E0C6010E94B80835E0E32E04E030E0A4
:1015C00020E040E061E0C6010E9457084CCF94E063
:1015D000E92E09E02CE430E040E062E0F4CF2CE4B6
:1015E00030E040E065EE70E0C6010E9468068111BF
:1015F00047CF65E0C6010E94B80884E0E82E05E008
:1016000030E020E0E9CF80919602909197028C170C
:101610009D0721F0892B11F00E94FA08BE01C60136
:101620000E94090920CFCB010E944D0929CF80E0FB
:101630000C945C1181E008950C9470090E94B1181B
:101640002FEF84E39CE0215080409040E1F700C000
:1016500000000C942721FF920F931F93CF93DF93E9
:101660008C01FC01C081D1818091DF0281114EC0CB
:101670008281882309F445C0CE010E94221EF82EE3
:10168000682FCE010E94C81DBE018F2D0E94640DDF
:10169000EC01B8010E941C0B882309F468C0B80152
:1016A000CE010E94C311882309F461C0B801CE01A4
:1016B0000E949412882309F45AC0B801CE010E94F6
:1016C000C60F882309F453C0C531FCE5DF0709F4D0
:1016D00025C108F5C130ECE5DE0709F44FC008F07C
:1016E0005FC0C115DC45F1F181E08093A4028093D5
:1016F000A502C801DF91CF911F910F91FF900C942B
:101700001A0BCE010E94F71DF82EBECFCE010E940B
:10171000221EBE01BBCFC53DECE5DE0709F4DBC0F0
:10172000A0F4C43DDC4501F7F8018281882309F467
:10173000BBC01092A4020E94CB209093A102809380
:10174000A00282E00E94081612C0C83DECE5DE0748
:10175000F9F0C93DDC4541F6F8018281882339F072
:1017600082E01BC0F801828181110E941E0B80E083
:10177000DF91CF911F910F91FF900895F801828121
:101780008823A9F380916303816080936303EFCF83
:10179000F8018281882359F380E00E944326E7CF35
:1017A000F8018281882309F4A4CF0E94B41F81111B
:1017B00002C00E94951F0E94CC1F90E09093990355
:1017C00080939803FE01E350FC458091980381606B
:1017D000E231F105C8F4E151F44F0C94C92C010C2D
:1017E0000D0C110C150C190C1D0C210C250C290CC1
:1017F0002D0C310C350C390C3D0C410C450C490CB1
:101800004D0C809198038260809398038091980397
:101810000E94D01F0E94B118AACF809198038460C3
:10182000F3CF809198038860EFCF80919803806117
:10183000EBCF809198038062E7CF8091980380641A
:10184000E3CF809198038068DFCF80919803846014
:10185000EACF809198038E7FD7CF809198038D7FB8
:10186000D3CF809198038B7FCFCF80919803877FD0
:10187000CBCF809198038F7EC7CF809198038F7DC7
:10188000C3CF809198038F7BBFCF809198038F77D0
:10189000BBCF809198038B7FEACF90919803892FDB
:1018A00097FB87F98058B0CF8091A40281110FC0B7
:1018B0008091A0029091A1020E94D7208A3F9105B9
:1018C00030F486E20E94C21486E20E94B91582E0DA
:1018D0000E940F164CCFF8018281882351F010929C
:1018E000A5020E94CB209093A3028093A20280E2E3
:1018F00029CF8091A50281110FC08091A202909101
:10190000A3020E94D7208A3F910530F487E20E940B
:10191000C21487E20E94B91580E2DACF0E94091F43
:10192000F8019281992381F08A7A91E009F490E09C
:1019300090939F02811106C089E20E94921E0E942C
:10194000D61ED2CE85E3F9CF80919F02811104C0CB
:1019500089E20E94991EF3CF85E3FBCFCF9390E0FD
:10196000FC01E652F94FC491865A984FFC018491CC
:10197000882369F081EE0E94C2148C2F0E94C21449
:101980008C2F0E94B91581EECF910C94B9158C2F34
:101990000E94C2148C2FF8CFFF920F931F93CF9306
:1019A000DF93EC01F62E8881882331F18E010F5FE1
:1019B0001F4F813041F4C9818C2F0E94C2148C2F9B
:1019C0000E94B91505C0823079F489810E94C21441
:1019D000E80121968F2D815030F3EFE9FFE0319738
:1019E000F1F700C00000F7CF833011F48981E8CF10
:1019F0000E94AE0C8E01ECCFDF91CF911F910F9121
:101A0000FF90089560E00C94CC0CFF920F931F930D
:101A1000CF93DF938C01F62EF8018491882349F14E
:101A2000E8012196813049F4FE011491812F0E9432
:101A3000C214812F0E94B91506C0823089F4FE01BC
:101A400084910E94C2148E010F5F1F4F8F2D815011
:101A500018F3EFE9FFE03197F1F700C00000F7CF8E
:101A6000833019F4FE018491E5CF0E94AE0CE801A9
:101A7000EACFDF91CF911F910F91FF90089560E021
:101A80000C94050DCF93DF93C1E0D0E002C0CC0FE2
:101A9000DD1F8A95E2F78C2F0E94C71FBE0190E0E0
:101AA00080E0DF91CF910C94CA1C0C9409050E9430
:101AB00032130C94161008950C945B0D0C945C0D6D
:101AC00090E080E008950895972F70E02CE0929FB9
:101AD000600D711D1124FB0190E3899FE00DF11D44
:101AE0001124EE0FFF1FE652FF4F85919491089548
:101AF000FC01EE0FFF1FE652F84F85919491089577
:101B0000CF93DF930E94640D0E94180FEC018115A2
:101B1000904408F094C0C11580E3D80708F005C1CF
:101B2000C03ED10508F071C0C03CD10508F0ECC042
:101B3000C83AD10580F4C53AD10508F0E9C0C130F2
:101B4000D10509F46EC020F0C430D10508F069C099
:101B5000D0E0C0E066C0CD3BD105D0F7C83AD10592
:101B600009F427C1C93AD10509F426C1CA3AD105F9
:101B700009F425C1CB3AD10509F424C1CC3AD105E9
:101B800009F423C1CB3BD10509F422C1CC3BD105DB
:101B900009F421C1CD3AD10509F420C1C03BD105DA
:101BA00009F41FC1CE3AD10509F41EC1CF3AD105BF
:101BB00009F41DC1C13BD10509F41CC1C23BD105CB
:101BC00009F41BC1C33BD10509F41AC1C43BD105BB
:101BD00009F419C1C53BD10509F418C1C63BD105AB
:101BE00009F417C1C73BD10509F416C1C83BD1059B
:101BF00009F415C1C93BD10509F414C1CA3BD1058B
:101C000009F013C1CAE2D6E40CC0CF3FD10509F0F8
:101C100060F4C03FD10508F086C0C83ED10508F089
:101C200097CFCE01DF91CF910895CE019F70C1155E
:101C300020E2D207B0F30E94780DEC01F2CFC1157B
:101C400084E5D807A0F5C11523E5D20708F08EC0BA
:101C5000C11581E5D80708F5C11520E5D20708F4BC
:101C60006EC0CE0154E0969587955A95E1F7837042
:101C70009C2F937021E030E002C0220F331F9A9511
:101C8000E2F73C68382BC695C695C37080E2C89FC2
:101C9000E0011124C22BD32BC4CFC11582E5D80794
:101CA00008F050C0DC2FCC27C16FD06ABACFC11565
:101CB00026E5D20758F49C2F8827C115D54508F48E
:101CC00069C0EC01CC27DF71D062ABCFC11588E5CC
:101CD000D80708F43DCFC11529E5D20708F45EC046
:101CE000CE0190568115904208F032CF8D2F8F7122
:101CF0000E94980FDD27D06290E0982F88278827D0
:101D00009F71C82BD92B8DCFCE01805C910993CFC9
:101D1000C53AD10509F447C0C63AD10509F446C011
:101D2000C3E8D0E47ECFD0657CCFCE019927D3FF26
:101D300003C0EC01D86C75CFEC01D06C72CFDF70B2
:101D4000D06A6FCFCE018370992721E030E002C0C6
:101D5000220F331F8A95E2F7C695C69580E2C89F89
:101D6000E0011124C22BD32BDC685BCFCE01837042
:101D7000992721E030E002C0220F331F8A95E2F755
:101D8000C695C69580E2C89FE0011124C22BD32BD3
:101D9000DA6847CFEC01C46FD06A43CFDC2FCC2781
:101DA000C06FD06A3ECFC1E8D0E43BCFC2E8D0E4F8
:101DB00038CFC2EED4E435CFC9EED4E432CFCAEE88
:101DC000D4E42FCFC5EBD4E42CCFC6EBD4E429CF99
:101DD000C3EBD4E426CFC4EBD4E423CFC7EBD4E4E5
:101DE00020CFCCECD4E41DCFCDECD4E41ACFC3E8A3
:101DF000D5E417CFCAE8D5E414CFC2E9D5E411CFB2
:101E0000C4E9D5E40ECFC1E2D6E40BCFC3E2D6E4F9
:101E100008CFC4E2D6E405CFC5E2D6E402CFC6E2DD
:101E2000D6E4FFCEC7E2D6E4FCCEC0E0D4E4F9CEDF
:101E30008238910549F1B0F48133910509F45CC011
:101E400048F48932910509F452C08A32910509F4A7
:101E500058C008958533910509F444C0893391052C
:101E600099F00895833E910531F138F4803E910553
:101E700091F0823E9105B1F00895863E910511F1F1
:101E8000873E910541F10895209198032370C9F090
:101E900080EE90E008952091980320FF12C089E31E
:101EA00090E008952091980322FF0BC024FF2EC0DC
:101EB00090E080E008952091980322FD2AC024FD3F
:101EC000F7CF08952091980323FFFBCF24FDF0CF97
:101ED00087EE90E008952091980323FFF0CF86EEDF
:101EE00090E008952091980325FD16C00895209153
:101EF000980325FD14C008952091980326FD12C073
:101F000008952091980326FD10C0089583EE90E077
:101F1000089582EE90E0089589E290E0089585E3C7
:101F200090E008958AE290E0089581E390E0C9CFBF
:101F3000CF93C82F0E94CC1F282F30E030939903F5
:101F40002093980382FF06C09C2F9871983079F4F3
:101F5000C77FC46083FF06C09C2F9871983171F4CD
:101F6000C77EC46184FDC77E8C2FCF9108959C2FBE
:101F70009471943079F7CB7FC860ECCF9C2F94712B
:101F8000943181F7CB7EC861EDCF08950F931F93F5
:101F9000CF938C01FB018281811106C0C1E08C2F9F
:101FA000CF911F910F910895C091B302C11125C027
:101FB00006311C4599F70E94C50F81E08093B3025A
:101FC0000E94CB209093B2028093B1021092A6029D
:101FD0001092A8021092A7021092AA021092A902CF
:101FE0001092AC021092AB021092AE021092AD02AF
:101FF0001092B0021092AF02D2CF8091B1029091B4
:10200000B2020E94D720883C910540F68091A6023A
:10201000E82FF0E0EE0FFF1FE955FD4F118300831D
:102020008F5F8093A602C0E0BACF08950C9415107C
:10203000CF93DF9385B7806885BF85B7806885BFFC
:10204000AEE7B2E042E852E0C1E0D0E08D91E82F87
:10205000E295EF70F0E061A18F709E0101C0220F48
:102060008A95EAF7922F9095962391A382A1822BCD
:1020700082A34A175B0751F7A2E7B2E04EE752E0AE
:10208000C1E0D0E08D91E82FE295EF70F0E061A122
:102090008F709E0101C0220F8A95EAF7922F9095CA
:1020A000962391A382A1822B82A34A175B0751F743
:1020B0001092BD021092BC021092B5021092B402AE
:1020C0001092BF021092BE021092B7021092B60296
:1020D0001092C1021092C0021092B9021092B8027E
:1020E0001092C3021092C2021092BB021092BA0266
:1020F000DF91CF910C94550D4F925F927F928F920A
:102100009F92AF92BF92CF92DF92EF92FF920F9386
:102110001F93CF93DF93C4EBD2E00EE712E092E877
:10212000A92E92E0B92EEE24E394F12C99249394F5
:10213000C880D98019821882D8018D918D01E82F2D
:10214000E295EF70F0E091A18F70970101C0220F2E
:102150008A95EAF7892F822B81A382A1822E80940F
:10216000882182A3B0EABA95F1F782E7482E82E08F
:10217000582E90E080E0D2017D912D01472F4295AD
:102180004F7050E0DA0190967C90488159817F70C1
:10219000D70102C0AA0FBB1F7A95E2F7BD016721E4
:1021A00009F068C0B701082E02C0660F771F0A94B5
:1021B000E2F7462B572B5983488301968C309105C3
:1021C000D1F681A1882281A282A1282B22A3888115
:1021D0009981C816D90641F09092C4020E94CB2082
:1021E0009093C6028093C5022296A016B10609F00C
:1021F0009FCF8091C402882351F18091C5029091B4
:10220000C6020E94D720069710F18091B4029091E7
:10221000B5029093BD028093BC028091B60290916A
:10222000B7029093BF028093BE028091B802909152
:10223000B9029093C1028093C0028091BA0290913A
:10224000BB029093C3028093C2021092C4020E9408
:10225000570D81E0DF91CF911F910F91FF90EF908B
:10226000DF90CF90BF90AF909F908F907F905F90C6
:102270004F90089570E060E09CCFE82FF0E0EE0F03
:10228000FF1FE454FD4F8081918108950895E8EC8B
:10229000F2E086E0DF011D928A95E9F708950E9439
:1022A000B41F811102C00E94951F8DE090E00E9432
:1022B000E32C809391030895CF93C82F0E94471178
:1022C000C09391036C2F8DE090E0CF910C94F12C92
:1022D000FF920F931F93CF93DF93D82FF62E08EC26
:1022E00012E0C0E0CD1307C0DF91CF911F910F9195
:1022F000FF900C944711F80181918F01811101C069
:10230000F1100E946625CF5FEDCFE82FF0E0EC5191
:10231000FE4F9081E92FE295E695E695E370F0E0B7
:10232000E853FD4F8081892B808380E0089560E031
:1023300084E00E94681180E00E94662580E0089594
:1023400067E00E94A92CE82FF0E0E853FD4F26E05B
:1023500030E0291B310981E090E0AC0102C0440F5C
:10236000551F2A95E2F78081842B808380E00895B1
:10237000E8ECF2E080818068808361E086E00E9482
:10238000681180E008959C01FB0120338AE538073D
:10239000C1F030F4C9019A558A97D0F181E00895CF
:1023A00021333A45D9F7908181812281438154813B
:1023B000452B19F18F3F19F481E09F3FF9F080E040
:1023C0001DC090818181228143815481452B39F048
:1023D0008F3F19F481E09F3F19F080E001C081E058
:1023E00080FD09C0822F817020FFD9CF80E00E943C
:1023F0005C1180E0089520E0F5CF81E080FD06C00B
:10240000822F817020FFCBCF81E0F1CF20E0F8CF89
:1024100040818181928163817481672B39F08F3F84
:1024200019F481E04F3F19F080E001C081E080FDA8
:1024300011C0892F9091C70280FF11C09F5F9093B8
:10244000C70280919103882339F0813091F6822F61
:102450000C94A01180E0EECF822F0C9485118FEFA9
:10246000890F8093C702811199CF809191038823AE
:1024700029F0813009F0BDCF0C94B8110C9497115C
:10248000CF93DF93EC018E85811112C081E08E879E
:102490008F810E940C1F0E94D61EEA81FB816989F0
:1024A0007A89CE010696309719F0DF91CF91099481
:1024B000DF91CF9108950F931F93CF93DF93EC019A
:1024C0008F8181112CC00A811B81175523E1209F28
:1024D000C001219F900D1124DC01A050BF4F149624
:1024E000ED91FC91159751966D917C918A5F9E4F6D
:1024F000309709F0099583E1809FF001819FF00DED
:102500001124E050FF4F87810E94121F0E94D61EA7
:1025100018821E8218861092CF021092CE02DF918E
:10252000CF911F910F910895EF92FF920F931F93F8
:10253000CF93DF938C018091CE029091CF020097D0
:1025400071F08017910759F0975523E1289FF0010A
:10255000299FF00D1124E050FF4F81E08487FB019B
:102560004281C80197558F3F910511F008F057C07F
:1025700020912402022E000C330B2817390714F483
:102580008093240223E1289F7001299FF00C1124DD
:10259000E701C050DF4F4D87FB0182818823B9F1ED
:1025A000198708878E818F5F8E830E94CB209B873F
:1025B0008A870E94451F8F83E881F98169897A891A
:1025C000C7018A5F9E4F309709F009958091CE022E
:1025D0009091CF020097B9F080179107A1F097551D
:1025E00023E1289FE001299FD00D1124CE018050C6
:1025F0009F4F21E0FC0124870E944012CE018A5F98
:102600009E4F0E945B121093CF020093CE0281E096
:10261000DF91CF911F910F91FF90EF900895442388
:10262000B1F3809124028F3F91F3C0E0D1E010E03C
:1026300000E0FF24F39480912402082E000C990BF3
:102640008017910724F38E81882341F0FC86CE0108
:102650000E944012CE0106960E945B120F5F1F4F30
:102660006396E9CF0F931F93CF93DF93809124025A
:10267000C0E0D3E18F3F91F5DF91CF911F910F9192
:102680000895D29FF001D39FF00D1124E050FF4F29
:10269000078510890115110511F40AEF10E0D29F8A
:1026A000F001D39FF00D1124E050FF4F8681882365
:1026B000A1F0828593850E94D7200817190768F436
:1026C000CD9F80011124C80180509F4F0E9440126D
:1026D000C8018A5F9E4F0E945B12CF5F2C2F30E0B3
:1026E00080912402082E000C990B821793074CF658
:1026F000C3CF9093D5028093D4020895E091D40281
:10270000F091D502309721F00190F081E02D0994ED
:1027100080E00895E091D402F091D502309721F045
:102720000280F381E02D09940895E091D402F091A4
:10273000D502309721F00480F581E02D09940895A9
:102740002091D2023091D3022817390771F090936B
:10275000D3028093D202E091D402F091D502309757
:1027600021F00680F781E02D099408952091D00290
:102770003091D1022817390771F09093D1028093DC
:10278000D002E091D402F091D502309721F000847C
:10279000F185E02D0994089508950C94CC1381E0FF
:1027A00008950E94C2200E9418100E944B210C9490
:1027B0004F115F926F927F928F929F92AF92BF92D2
:1027C000CF92DF92EF92FF920F931F93CF93DF93FD
:1027D000CDB7DEB72A970FB6F894DEBF0FBECDBFD8
:1027E0000E947C100E94CF13882309F47AC097EDD1
:1027F000A92E92E0B92E10E000E088248394912C59
:10280000502E802F0E943D117C01F501C190D19086
:102810005F01C816D90609F45EC08091630381FD8B
:102820000E94461190E080E0CE24DF243401082E7F
:1028300002C0660C771C0A94E2F796012621372124
:10284000232B09F443C08E835F82E620F72081E0CA
:10285000EF2809F480E088870E94CB208160782FE0
:102860009A8789874E815F8168858A850E9498143E
:10287000000F111FF801E952FD4F808191816826F8
:102880007926718260820E94DE220E947E139091DE
:10289000D6028917B9F10E947E138093D6022A9638
:1028A0000FB6F894DEBF0FBECDBFDF91CF911F9161
:1028B0000F91FF90EF90DF90CF90BF90AF909F90DF
:1028C0008F907F906F905F900C945E0D01968C308E
:1028D000910509F0ABCF0F5F1F4F0430110509F0D0
:1028E0008FCF8FEF89838A831B820E94CB208160E8
:1028F000782F9D838C8349815A816B818D810E94C1
:102900009814C1CF2A960FB6F894DEBF0FBECDBF84
:10291000DF91CF911F910F91FF90EF90DF90CF90BB
:10292000BF90AF909F908F907F906F905F90089531
:10293000CF93DF93CDB7DEB72B970FB6F894DEBFFA
:102940000FBECDBF4F83588769877A878B871E82DA
:102950001D8285E0FE013796DE01119601900D92F1
:102960008A95E1F749815A816B817C818D819E81B5
:102970002B960FB6F894DEBF0FBECDBFDF91CF917F
:102980000C949B1B882309F4F3C08238B9F40E948D
:102990007E1381FDEDC089E30E94921E0E94D61E27
:1029A0002FEF81EE94E0215080409040E1F700C08D
:1029B000000089E30E94991E0C94D61E8338A1F46E
:1029C0000E947E1380FDD4C083E50E94921E0E9467
:1029D000D61E2FEF81EE94E0215080409040E1F729
:1029E00000C0000083E5E6CF8438A1F40E947E1386
:1029F00082FDBEC087E40E94921E0E94D61E2FEF69
:102A000081EE94E0215080409040E1F700C000004A
:102A100087E4D0CF9CEF980F913A18F40E94921E51
:102A2000CBCF90E2980F983050F4877091E001C0BE
:102A3000990F8A95EAF7892F0E940C1FBDCF9BE55D
:102A4000980F933070F4853A31F0863A39F083E884
:102A500090E00C94A01381E890E0FBCF82E890E036
:102A6000F8CF98E5980F953108F082C0883A09F4BC
:102A700040C0893A09F440C08A3A09F440C08B3A10
:102A800009F440C08C3A09F440C08B3B09F440C0C3
:102A90008C3B09F440C08D3A09F440C0803B09F4F6
:102AA00040C08E3A09F440C08F3A09F440C0813BDF
:102AB00009F440C0823B09F440C0833B09F440C0A4
:102AC000843B09F440C0853B09F440C0863B09F4CF
:102AD00040C0873B09F440C0883B09F440C0893BB3
:102AE00009F440C08A3B09F440C090E080E00C94B7
:102AF000B61382EE90E0FBCF89EE90E0F8CF8AEE3D
:102B000090E0F5CF85EB90E0F2CF86EB90E0EFCF51
:102B100083EB90E0ECCF84EB90E0E9CF87EB90E0A3
:102B2000E6CF8CEC90E0E3CF8DEC90E0E0CF83E853
:102B300091E0DDCF8AE891E0DACF82E991E0D7CF6A
:102B400084E991E0D4CF81E292E0D1CF83E292E0B8
:102B5000CECF84E292E0CBCF85E292E0C8CF86E28E
:102B600092E0C5CF87E292E0C2CF8AE292E0BFCF87
:102B70000895882309F44BC0823871F40E947E13B3
:102B800081FF45C089E30E94921E0E94D61E89E300
:102B90000E94991E0C94D61E833859F40E947E130D
:102BA00080FF35C083E50E94921E0E94D61E83E5F9
:102BB000EFCF843859F40E947E1382FF28C087E447
:102BC0000E94921E0E94D61E87E4E2CF9CEF980FCF
:102BD000913AF0F290E2980F983050F4877091E0BB
:102BE00001C0990F8A95EAF7892F0E94121FD2CF50
:102BF0009BE5980F933020F490E080E00C94A013B4
:102C0000885A853120F490E080E00C94B613089542
:102C1000882321F00E940C1F0C94D61E089588234F
:102C200021F00E94121F0C94D61E08958F929F923D
:102C3000AF92BF92DF92EF92FF920F931F93CF93C9
:102C4000DF937C01D62FC72FFC01058102950F7001
:102C5000128111110E942B1F0E94CF1ED82E882393
:102C600071F0112331F180E28D0F883010F182E094
:102C70000E94B91E0E94CF1E91E0D82ED926BC2EEC
:102C8000B2949FE0B922EB2DF0E0E75BF94E0C9493
:102C9000C92C5B165B16AB16AB16ED17E716ED17D6
:102CA000ED172917ED17C417C4175818ED17ED17AE
:102CB0006118D12CE4CF0C2F0F70C07F11F002955A
:102CC000007F1123A9F0002359F080E28D0F883096
:102CD00010F0D11109C0802F0E940C1F0E94D61E37
:102CE0008D2F0E94C21414C0802F0E941D1FF6CF8A
:102CF0008D2F0E94B915002359F080E28D0F883086
:102D000010F0D11124C0802F0E94121F0E94D61EE5
:102D1000DD2009F4DDC10E94AC1E80FDD9C1F701A0
:102D200012820E94A61E0E942C1DC7010E947418C8
:102D30000E94A61EDF91CF911F910F91FF90EF90FF
:102D4000DF90BF90AF909F908F900C944D1D802F7F
:102D50000E94231FDBCFFC2FFF70BF2EC07FC0322D
:102D600019F0B29480EFB822DD2339F0D130F9F0B8
:102D7000112339F1002329F0B3CF112361F00111A0
:102D800004C08B2D0E940816C3CF8B2D0130D1F7C4
:102D90000E943F1FBDCF011106C00E94421F8B2D14
:102DA0000E940F16B5CF013009F4B2CFF6CF112330
:102DB00021F0063008F0ACCFE4CF053008F0A8CF02
:102DC000EECF002361F38D2F0E94B915A1CF1123FF
:102DD00009F1D53F99F0D63FB9F0D43F49F480913D
:102DE0009203909193038160909393038093920355
:102DF0008D2F0E94E7210E94D3228ACF80919203D7
:102E0000909193038260F0CF80919203909193030D
:102E10008460EACFD53F89F0D63FA9F0D43F49F48A
:102E200080919203909193038E7F9093930380936C
:102E300092038D2F0E944F22DECF809192039091BA
:102E400093038D7FF2CF80919203909193038B7FB8
:102E5000ECCF8C2F837009F04BC0111136C02D2F91
:102E6000229526952770220F220F6D2F6F70862EC8
:102E7000912CB12CA12C022E04C0880C991CAA1CE8
:102E8000BB1C0A94D2F760E070E0CB01D4FF0FC006
:102E90006FE070E080E090E004C0660F771F881F4D
:102EA000991F2A95D2F76095709580959095C69553
:102EB000C695C370C23071F0A0F4682979298A29B7
:102EC0009B29C13091F00E94DE1C0E947E130E945B
:102ED0005E0D1ECF682979298A299B290E94F01C42
:102EE000F4CF0E94DE1CC501B4010E94CC1CEDCFC2
:102EF0008695112311F08C2F8170882331F32D2FAB
:102F0000229526952770220F220F6D2F6F70862E27
:102F1000912CB12CA12C022E04C0880C991CAA1C47
:102F2000BB1C0A94D2F760E070E0CB01D4FF0FC065
:102F30006FE070E080E090E004C0660F771F881FAC
:102F4000991F2A95D2F76095709580959095C695B2
:102F5000C695C370C23051F080F4682979298A2956
:102F60009B29C13071F00E94A31DAFCF6829792938
:102F70008A299B290E94B51DA8CF0E94A31DC501C7
:102F8000B4010E94911DA1CFE0E2ED0FE53108F000
:102F900070C0F0E0E253F84E0C94C92CE317E3172D
:102FA000E317E317E317E317E317E317E317E31751
:102FB000E317E317E317E317E317E31700180C18F9
:102FC00013181A182418DF708C2F8F71112391F0A9
:102FD0000E942C1D8D2F0E940816E8E0BE1609F4F1
:102FE00074CFBE1608F494CE86EF8B0D823008F4B1
:102FF0006CCF8ECE0E944D1D8D2F0E940F16EDCFEF
:10300000112339F0053048F78C2F8F710E94701D05
:10301000E4CF063010F7F8CF8C2F8F71112339F0E1
:103020000E942C1DDACF8C2F8F711123C9F30E94BF
:103030004D1DD3CF112329F08C2F8F710E94171DA6
:10304000CCCF0E94121DC9CF112349F0CF718C2F14
:103050000E942C1D63E08C2F0E94B01EBECF81E029
:103060000E94B91E023008F4B8CF82E00E94B91E57
:10307000B4CF112349F0002321F08D2F0E94C214F8
:10308000ACCF8C2F8F71CCCF002379F0D93349F49A
:103090002FEF87EE93E0215080409040E1F700C091
:1030A00000008D2F0E94B91598CF8C2F8F71BFCF44
:1030B0004C2F4F706D2FC7010E94600D0E94441C61
:1030C00027CE4C2F4F706D2FC7010E94630D20CE6D
:1030D000DF91CF911F910F91FF90EF90DF90BF9004
:1030E000AF909F908F9008950F931F93CF93DF938E
:1030F000EC01988189812B813C81232B39F08F3F12
:1031000019F481E09F3F19F080E001C081E080FD6B
:1031100017C0CE010E942B0B882391F06881798122
:103120008A810E946E1E8C010E94C71D0E94C91CCC
:10313000B801CE01DF91CF911F910F910C9416161B
:10314000DF91CF911F910F9108950E942B1F0E9434
:103150003C1F0E94A01E0E94D61E0E9469230C9450
:10316000D3220E941A1F0C94A5180E94641EE92FF6
:10317000E295EF70E250EE30E0F4F0E0EE53F74EFF
:103180000C94C92CD018D018D918D918DB18D91814
:10319000D918D918D018D018E018D918D918E018AB
:1031A000803F19F020F4803E20F481E00895843FB0
:1031B000E1F380E00895803EC0F3813FD1F7F5CF81
:1031C00093FB882780F90895CF93DF9300D000D038
:1031D0001F92CDB7DEB70F900F900F900F900F900A
:1031E000DF91CF910895CF93DF9300D000D000D02E
:1031F000CDB7DEB726960FB6F894DEBF0FBECDBFB3
:10320000DF91CF9108951F93CF93DF93C091E00298
:1032100016E08091E1028C1304C0DF91CF911F91E1
:103220000895D0E01C9FF0011D9FF00D1124EE5178
:10323000FD4F4081518162817381848195810E941B
:10324000F3182196C770E5CF4091120350911303F4
:1032500060911403709115038091160390911703E8
:103260000C94F3182091E0029091E10256E02913AA
:1032700002C080E0089530E0529FF001539FF00DAE
:103280001124EE51FD4F7181761306C070817813C1
:1032900003C07281741304C02F5F3F4F2770E7CFC4
:1032A00081E008951F93CF93DF9380911703807F70
:1032B000D1F4809114038823B1F08091E002D09181
:1032C000E102B0911203C091130340911503509194
:1032D0001603A1E0BF3F09F0A0E0BA016095709528
:1032E00016E0D81304C0DF91CF911F91089521E01B
:1032F0004115510521F02A2FCF3F09F020E090E041
:1033000020FD38C0189FF001199FF00D1124EE51D7
:10331000FD4F21812C132EC020812B132BC0228125
:10332000211128C0238134812417350700F1241B83
:10333000350B2A3F3105F0F4209117032F702061DF
:103340002093170326E0289FF001299FF00D1124F8
:10335000E951FD4F80818F708061808382E193E02D
:103360000E947418DF91CF911F910C940319260FBE
:10337000371FDFCF01968770B4CF9F92AF92BF9275
:10338000CF92DF92EF92FF920F931F93CF93DF9331
:10339000CDB7DEB761970FB6F894DEBF0FBECDBFD5
:1033A0008C0185E0F801DE011D9601900D928A9551
:1033B000E1F7D801DC901196EC9011971296CC9021
:1033C00030911203409113038091150390911603DD
:1033D00021E0009731F04F3F19F421E03F3F09F021
:1033E00020E020FD9AC1F801A380B48090901403DE
:1033F000992009F43FC1A816B906E0F1B501681B90
:10340000790BCB01FF24F3948A3F910508F0F12C4E
:1034100080911703982F907FFF2009F4E2C091114B
:103420009DC0FC2C4E112BC03D1129C0C11027C0DE
:103430008F708061809317030E94241982E193E0CA
:103440000E94741880911703D80115968C938F2DC4
:1034500061960FB6F894DEBF0FBECDBFDF91CF915E
:103460001F910F91FF90EF90DF90CF90BF90AF90A2
:103470009F900895809590958A0D9B1DC3CF81E004
:10348000A114B10431F0BFEFEB1202C081E0DB12F6
:1034900080E080FD1AC081E08C2580FF18C04C2D93
:1034A0006E2D8D2D0E943219882389F082E193E0E0
:1034B0000E94741886E0E2E1F3E0DF011D928A9534
:1034C000E9F70E942419F12CC2CF80E0E6CF81E019
:1034D000AB2831F0BFEFEB1202C081E0DB1280E0DD
:1034E00080FD25C081E08C25E82FE170AE2E80FFA5
:1034F0002CC04C2D6E2D8D2D0E943219B82E8111AD
:1035000024C0DD86EE868D859E850E94641E292F4F
:1035100022952F70223068F0243090F49F7069F06B
:10352000D80115969C91907F41F4FB2C90CF80E0C0
:10353000DBCF9F7011F08823C1F3805E8830A8F341
:10354000C8010E947418BA2CF0CFCC2009F47FCFA8
:1035500080911703816080931703B5CF4E1114C07B
:103560003D1112C0C11010C0F8018583C8010E942E
:10357000741886E0F801A2E1B3E001900D928A95FB
:10358000E1F70E94241963CFDD86EE868D859E8546
:103590000E94B518882309F4CAC0CC2009F4C7C01A
:1035A00080911703803270F0209112033091130341
:1035B00038872F831986BB86AA868C87CE0107960B
:1035C0000E94741886E0F801A2E1B3E001900D9228
:1035D0008A95E1F70E9452190E942419FF24F3945E
:1035E00036CF911115C07A2DB98AA88A4D2D5E2D3E
:1035F0006C2D89890E94E41882E193E00E9474187E
:1036000086E0E2E1F3E0DF011D928A95E9F7B9CFA8
:103610004E1112C03D1110C0C1100EC0F8018583BB
:10362000C8010E947418E2E1F3E086E0DF011D9218
:103630008A95E9F7F92C0BCFDD86EE868D859E8580
:103640000E94B518882309F472C0CC2009F46FC019
:1036500080911703803208F4B5CF20911203309186
:1036600013033A8329831B82BD82AC828E83CE01F1
:103670000196A6CFA816B90638F1F501E81BF90B9B
:10368000CF01F12C8A3F910508F03DC0FC2CCC20E5
:1036900009F44DC04E1126C03D1124C0809117037E
:1036A00080FD17C0982F907FA1F0D80115968C93BC
:1036B0001597903F09F45ACF982F907F905F8F70A5
:1036C000892B15968C9352CF809590958A0D9B1DD2
:1036D000D8CF86E0F801A2E1B3E001900D928A957F
:1036E000E1F7B5CEDD86EE868D859E850E94B51804
:1036F000811168CF80911703816080931703C801FF
:103700000E947418A4CE7A2DB98AA88A4D2D5E2DF8
:103710006C2D89890E94E41873CFCC2041F0DD869E
:10372000EE868D859E850E94B51881114BCFC8010C
:103730000E94741853CF1F93CF93DF93CDB7DEB79A
:103740002C970FB6F894DEBF0FBECDBF4F835887BE
:1037500069877A878B879C87CE0107960E94BD195F
:10376000882309F442C09F8188852A853B85232BC5
:1037700039F08F3F19F481E09F3F19F080E001C0DC
:1037800081E080FD08C04F81588569857A858B85E9
:103790009C850E94F31816E08091E0029091E1026E
:1037A000891709F467C0819FC00111248E519D4F74
:1037B0000E94BD19882309F45DC0E091E0021E9FBC
:1037C000F0011124EE51FD4F4081518162817381DE
:1037D000848195810E94F3188091E00290E0019627
:1037E000877099278093E002D7CF86E0FE01379655
:1037F000DE01119601900D928A95E1F79F818885EF
:103800002A853B85232B39F08F3F19F481E09F3FB8
:1038100019F080E001C081E080FDBDCF2091E10280
:1038200030E0C9010196877099274091E00248175E
:10383000190699F096E0929FD001939FB00D112444
:10384000AE51BD4FFE01319601900D929A95E1F770
:103850008093E1020E9403199ECF0E94B11810923A
:10386000E1021092E00286E0E2E1F3E0DF011D9266
:103870008A95E9F72C960FB6F894DEBF0FBECDBF40
:10388000DF91CF911F910895EF92FF920F931F93B5
:10389000CF93DF938C01892B81F0F12CEE24E394FC
:1038A000E8012196F8018491843770F4843008F09F
:1038B0005FC08130B1F08230A1F1DF91CF911F91D3
:1038C0000F91FF90EF900895853709F44CC008F4EC
:1038D0003DC09CE7980F903780F78F770E94B9150D
:1038E00049C00E5F1F4FFE01849190E2980F9830FF
:1038F00060F48770FE2D01C0FF0F8A95EAF78F2FC5
:103900000E942E1F0E94D61E02C00E94C2148F2D3C
:10391000815030F2EFE9FFE03197F1F700C000008D
:10392000F7CF0E5F1F4FFE01849190E2980F983001
:1039300050F48770FE2D01C0FF0F8A95EAF78F2F94
:103940000E94341FDFCF0E94B915E1CF0E5F1F4FD9
:10395000FE01C491C150D8F28FE99FE00197F1F7C1
:1039600000C00000F7CF0E5F1F4FFE01F490CFCFD5
:103970000E94C2148E01CBCF08950E94BC1C60939C
:103980003A0370933B0380933C0390933D030C9464
:10399000A51808950C94BD1C0F931F9300913A0332
:1039A00010913B0320913C0330913D03602B712B20
:1039B000822B932B1F910F910C94BD1C0F931F937F
:1039C00000913A0310913B0320913C0330913D0359
:1039D00060237123822393231F910F910C94BD1CAC
:1039E0000F931F9300913A0310913B0320913C03E6
:1039F00030913D0360277127822793271F910F91F4
:103A00000C94BD1C0C94BC1C0C94021D0E94041D43
:103A10006093360370933703809338039093390390
:103A20000C94A51860E070E0CB010C94061D0F9378
:103A30001F9341E050E060E070E08A019B0104C008
:103A4000000F111F221F331F8A95D2F7C901B80139
:103A50001F910F910C94061D0F931F9341E050E0AE
:103A600060E070E004C0440F551F661F771F8A9501
:103A7000D2F78091360390913703A0913803B0912B
:103A800039038A019B01082B192B2A2B3B2BC901D7
:103A9000B8011F910F910C94061D0F931F9341E0E5
:103AA00050E060E070E004C0440F551F661F771FB0
:103AB0008A95D2F7CB01BA01609570958095909563
:103AC0000091360310913703209138033091390368
:103AD00060237123822393231F910F910C94061D61
:103AE0000F931F9341E050E060E070E004C0440F8A
:103AF000551F661F771F8A95D2F7809136039091E4
:103B00003703A0913803B09139038A019B0108273C
:103B100019272A273B27C901B8011F910F910C943F
:103B2000061D0F931F9300913603109137032091C8
:103B3000380330913903602B712B822B932B1F910B
:103B40000F910C94061D0F931F9300913603109153
:103B50003703209138033091390360237123822386
:103B600093231F910F910C94061D0F931F930091A7
:103B700036031091370320913803309139036027C1
:103B80007127822793271F910F910C94061D08958A
:103B90002CE0929F800D1124982F977071E001C046
:103BA000770F9A95EAF786958695869525E0829F08
:103BB000C001112450E040E0A62FB0E0FC01E40F6A
:103BC000F51FE85EFC4F60819D01042E02C0369512
:103BD00027950A94E2F72170219526272723262787
:103BE00020834F5F5F4F4530510541F708952CE02A
:103BF000929F800D1124982F9770869586958695B3
:103C000025E0829FA001112470E060E080E0FA01CD
:103C1000E60FF71FE85EFC4F208130E0092E02C05E
:103C2000369527950A94E2F721703327062E01C0B6
:103C3000220F0A94EAF7822B6F5F7F4F6530710580
:103C400031F70895BF92CF92DF92EF92FF920F93D8
:103C50001F93CF93DF938C01C0903603D09037032E
:103C6000E0903803F090390380913A0390913B0340
:103C7000A0913C03B0913D03C82AD92AEA2AFB2A25
:103C8000CFE1D0E0BC2ED701C6010C2E04C0B69502
:103C9000A795979587950A94D2F780FD0EC0219736
:103CA00088F7B12C8B2DDF91CF911F910F91FF9051
:103CB000EF90DF90CF90BF900895B8018C2F0E94B5
:103CC000800D019761F3EECFCF93DF93EC010E945B
:103CD000221EBE01DF91CF910C94800D1F93CF93D4
:103CE000DF93EB019091DF02992331F0CB01DF915B
:103CF000CF911F910C94641E882379F0CB010E9410
:103D0000221E182F682FCE010E94C81DBE01812FD0
:103D1000DF91CF911F910C94800DCB010E94F71D74
:103D2000182FF4CF682F80912502909126020C94D1
:103D30003220682F80912502909126020C943D201C
:103D400080912502909126020C94482080913E0398
:103D5000859585958595089580913E038770089592
:103D600098E0899F90011124622B60933E030C948C
:103D70002C1D90913E038095892380933E03282F2C
:103D8000277061F4282F082E000C330B92171306AE
:103D900029F08595859585950C944D1D08959091F4
:103DA0003E03977081E009F480E00895E0912502D8
:103DB000F0912602809162038083E0912502F091C8
:103DC0002602808190916103892B8083E0912502F6
:103DD000F0912602808190916003892B80839091DD
:103DE0003F03992381F0E0912502F0912602808122
:103DF000892B808380912502909126020E94D51FF5
:103E0000811110923F0380912502909126020C941B
:103E10008A1380916203089590916203892B8093A5
:103E200062030895982F909580916203892380936F
:103E30006203089510926203089590916103892BA3
:103E4000809361030895982F909580916103892351
:103E50008093610308951092610308959091600327
:103E6000892B809360030895982F9095809160032B
:103E700089238093600308951092600308958093CE
:103E80003F03089510923F03089580913F030895E2
:103E9000CF92DF92EF92FF926C01EE24FF2420E09C
:103EA000C114D104E104F10419F0C701B60120E105
:103EB000C72ED82EE92EFF24C114D104E104F10449
:103EC00019F0285FC701B6016B017C0154E0F6943C
:103ED000E794D794C7945A95D1F7C114D104E1045B
:103EE000F10419F02C5FC701B6016B017C0142E0BF
:103EF000F694E794D794C7944A95D1F7C114D104A6
:103F0000E104F10419F02E5FC701B601969587957B
:103F100077956795672B682B692B09F02F5F822FA8
:103F2000FF90EF90DF90CF9008956DEE7EEF90E0E0
:103F300080E00E94032D60E082E090E00E94F12C7E
:103F400060E083E090E00E94F12C60E084E090E08B
:103F50000E94F12C60E085E090E00E94F12C60E08E
:103F60008DE090E00C94F12C90E080E00E94EB2C2E
:103F700021E08D3E9E4F09F020E0822F089582E0DF
:103F800090E00C94E32C83E090E00C94E32C682FF9
:103F900083E090E00C94F12C84E090E00C94E32C0E
:103FA000682F84E090E00C94F12CFC0131969C0188
:103FB000205E3F4F80E0919191118F5FE217F307F0
:103FC000D1F708959C01FC0132969FEF80E041916A
:103FD000461751F09F3F19F4411101C0982F8F5F90
:103FE0008E31A9F79F3F09F40895290F311D97FDE0
:103FF0003A95F90162830895FC01329680962191E9
:10400000261303C0DF0111971C92E817F907B9F7CF
:104010000895E62FE695E695E695EF3169F0E80F0D
:10402000F92FF11D677021E030E001C0220F6A9581
:10403000EAF78181822B81830895E62FE695E69544
:10404000E695EF3171F0E80FF92FF11D677021E06F
:1040500030E001C0220F6A95EAF72095818128237C
:104060002183089520915202222329F02091980360
:1040700027FD0C9409200C94E21F20915202222368
:1040800029F02091980327FD0C941D200C94FC1F0F
:10409000FC01319680961192E817F907E1F708952F
:1040A00080919E03843039F11092640388E190E09E
:1040B00020E40FB6F894A895809360000FBE20937B
:1040C000600080E00E945E0D83B7817F846083BFC3
:1040D00083B7816083BF7894889583B78E7F83BFD1
:1040E0000FB6F894A8958091600088618093600075
:1040F000109260000FBE089508950895CF930E9416
:104100007C200E947C100E947D20C0E08C2F0E94A9
:104110003D11892B31F4CF5FC430C1F780E0CF91DE
:10412000089581E0FCCF0E94B1180E947E130C9488
:104130005E0D1F920F920FB60F9211248F939F93D3
:10414000AF93BF9380916403811113C08091940356
:1041500090919503A0919603B09197034196A11D6C
:10416000B11D8093940390939503A0939603B0930D
:104170009703BF91AF919F918F910F900FBE0F90BA
:104180001F90189582E084BD93E095BD9AEF97BD8E
:1041900080936E0008952FB7F894809194039091C6
:1041A0009503A0919603B09197032FBF0895CF92E6
:1041B000DF92EF92FF920F931F932FB7F8944091E5
:1041C00094035091950360919603709197032FBFCC
:1041D0006A017B01EE24FF248C0130E020E0C01650
:1041E000D106E206F30650F0481B590BCA011F9195
:1041F0000F91FF90EF90DF90CF90089541505109BB
:10420000F3CF78941F920F920FB60F9211248F93D1
:104210009F93AF93BF938091940390919503A09146
:104220009603B09197030196A11DB11D809394034D
:1042300090939503A0939603B0939703BF91AF918A
:104240009F918F910F900FBE0F901F90189581E056
:104250008093E00080E28093D8001092C9008FE143
:104260009EE40197F1F700C0000087E090EBDC01CD
:104270008093A7039093A803A093A903B093AA03E4
:1042800088E19CE00FB6F894A895809360000FBE7B
:1042900090936000FFCF0E94B41F811102C00E9462
:1042A000951F0E94BF1F809363030E94CC1F90E064
:1042B00090939903809398030E94C31F682F70E026
:1042C00090E080E00C94CA1C8091670380FF12C0CC
:1042D00060912A0285E0689FB00111247595679569
:1042E0007595679560387105A8F561157105A1F19F
:1042F000862F089581FF09C060912A0285E0689F9A
:10430000B001112475956795EDCF82FF07C06091CC
:104310002A0285E0689FB0011124E4CF2091680350
:104320002223A9F09091290260912A0285E0689FDA
:10433000B00111242917B0F6269FA001279F500D28
:104340001124692F70E0CA010E94B52CCBCF65E023
:1043500070E0CECF8FE7089581E0089580916703E4
:1043600080FF0CC06091280270E075956795759587
:1043700067956115710549F1862F089581FF06C083
:104380006091280270E075956795F3CF60912802DF
:1043900082FD0BC0909168039923A1F060912702E0
:1043A00080912802961738F0682F70E06038710508
:1043B00000F38FE70895899FC001112470E00E94E7
:1043C000B52CF4CF61E070E0D7CF81E00895803F55
:1043D00031F40E946421819580936B030895813F9D
:1043E00019F40E946421F8CF823F31F40E946421C5
:1043F000819580936A030895833F19F40E94642194
:10440000F8CF893F29F40E94AE2180936C03089570
:104410008A3F21F40E94AE218195F7CF8B3F31F482
:104420000E94AE21819580936D0308958C3F19F40D
:104430000E94AE21F8CF843F31F4809169038160FE
:10444000809369030895853F21F480916903826018
:10445000F7CF863F21F4809169038460F1CF873FD5
:1044600021F4809169038860EBCF883F21F480912B
:1044700069038061E5CF8D3F31F4809167038160EE
:104480008093670308958E3F21F4809167038260D3
:10449000F7CF8F3FB9F7809167038460F1CF803FFA
:1044A000C1F480916B0387FD10926B0380916A03C6
:1044B00081110EC080916B0381110AC080916C0341
:1044C000811106C080916D03811102C010926803B2
:1044D0000895813F29F480916B0318162CF3E6CFE1
:1044E00090916A03823F29F497FFE0CF10926A030C
:1044F000DDCF833F19F41916CCF3D8CF893F39F4B7
:1045000080916C03181694F610926C03CFCF8A3FFB
:1045100029F480916C0387FFC9CFF6CF8B3F39F424
:1045200080916D0387FFC2CF10926D03BFCF8C3F88
:1045300029F480916D031816BCF3B8CF843F31F491
:10454000809169038E7F80936903B0CF853F21F40A
:10455000809169038D7FF7CF863F21F480916903B5
:104560008B7FF1CF873F21F480916903877FEBCF69
:10457000883F21F4809169038F7EE5CF8D3F31F430
:10458000809167038E7F8093670390CF8E3F21F4E5
:10459000809167038D7FF7CF8F3F09F087CF8091A0
:1045A00067038B7FF0CF89E693E00E9495130E940A
:1045B000CB20909366038093650308951F93CF9358
:1045C000DF9380916503909166030E94D720AC0130
:1045D0009091680320912B0230E0911106C0209148
:1045E0002C028AE0289F900111244217530780F083
:1045F00080916A0310916B03D0916C03C0916D039D
:1046000081110AC0111161C0D1115FC0C1115DC01B
:10461000DF91CF911F9108959F3F19F09F5F909375
:104620006803181624F40E94642180936A03809121
:104630006A0387FF05C00E946421819580936A0305
:10464000111624F40E94642180936B0380916B0304
:1046500087FF05C00E946421819580936B03409180
:104660006A03442379F030916B03332359F025EB2F
:104670004203A001112450936A03320390011124D4
:1046800030936B031D1624F40E94AE2180936C03BB
:1046900080916C0387FF05C00E94AE2181958093B5
:1046A0006C031C1624F40E94AE2180936D0380914C
:1046B0006D0387FF05C00E94AE21819580936D0335
:1046C000DF91CF911F910C94D3229F3F09F0A6CF89
:1046D000B7CF85E0E9E6F3E0DF011D928A95E9F7BF
:1046E0001092680310926703089580918E030895D5
:1046F0000F931F93CF93DF9300D01F92CDB7DEB7F8
:104700008C010E945326823011F0843021F583E021
:1047100089831B830A8382E08093E9008FEF909165
:10472000E800815095FD06C095ED9A95F1F70000DF
:104730008111F5CF8091E80085FF0DC050E040E089
:1047400063E070E0CE0101960E9470268091E8003F
:104750008E778093E8000F900F900F90DF91CF91AC
:104760001F910F910895CF93DF9300D01F92CDB783
:10477000DEB720919E03243029F522E0298380585A
:1047800091099B838A832093E9008FEF9091E80041
:10479000815095FD06C095ED9A95F1F700008111C5
:1047A000F5CF8091E80085FF0DC050E040E063E068
:1047B00070E0CE0101960E9470268091E8008E770D
:1047C0008093E8000F900F900F90DF91CF910895A4
:1047D000CF93DF93EC010E945326823011F0843096
:1047E000F9F482E08093E9008FEF9091E800815026
:1047F00095FD06C095ED9A95F1F700008111F5CF72
:104800008091E80085FF0CC050E040E065E070E07A
:10481000CE010E9470268091E8008E778093E80098
:10482000DF91CF910895CF93DF93EC010E9453263F
:10483000823011F08430F9F4809152028823F1F033
:104840008091980387FF1AC083E08093E9008FEF7F
:104850009091E800815095FD06C095E19A95F1F799
:1048600000008111F5CF8091E80050E040E060E267
:1048700070E085FD1AC0DF91CF91089581E08093AB
:10488000E9008FEF9091E800815095FD06C095ED0D
:104890009A95F1F700008111F5CF8091E80085FF2E
:1048A000EACF50E040E068E070E0CE010E94702660
:1048B0008091E8008E778093E80080E2FE01AEE60A
:1048C000B3E001900D928A95E1F7D5CF80919D03D9
:1048D000811109C00E9400280E945D288091E20099
:1048E00084608093E200089510929D0308950895D6
:1048F00008950C94932042E061EC81E00E947E27B1
:1049000042E061EC82E00E947E2742E261EC83E0BB
:104910000E947E2742E061EC84E00E947E2742E113
:1049200060E886E00E947E2742E161E885E00C9421
:104930007E278091A003833009F457C048F481306A
:1049400081F1823009F499C08DE292E00C94F72B4A
:104950008A3009F481C08B3009F464C08930A1F732
:1049600080919F03813281F78091A3039091A403EA
:10497000009711F0029741F78091E800877F8093BC
:10498000E8008091E80082FF2BC08091F1008093C5
:104990008E038091E8008B778093E8000E94B22715
:1049A000D3CF80919F03813A79F68091E800877F89
:1049B0008093E8008091A3039091A403892B61F474
:1049C00060E28EE693E070E00E94BF268091E800EE
:1049D0008B778093E800B8CF60E090E080E0F3CF81
:1049E00080919E038111CDCF089580919F03813ADC
:1049F00009F0AACF8091A3039091A403892B09F019
:104A0000A3CF8091E800877F8093E8008091E80041
:104A100080FFFCCF809152028093F1008091E800EA
:104A20008E77BACF80919F03813209F08DCF80912C
:104A3000A3039091A403892B09F086CF8091E8000D
:104A4000877F8093E8000E94B2278091A103809322
:104A500052020E94B11878CF80919F03813209F0F1
:104A600073CF8091E800877F8093E8000E94B2278F
:104A70008091A20380938F0367CF80919F03813A37
:104A800009F062CF8091E800877F8093E8008091F1
:104A9000E80080FFFCCF80918F03BECF82E090E0E2
:104AA0009093400280933F028DE292E00C94AF2BF2
:104AB00008958DE292E00E944A2B892B31F08DE21D
:104AC00092E00E94792B0C9458250895CF93C091C1
:104AD000E9009091EC0090FD19C090E020913D021A
:104AE00020FF12C0CF70C92B90912E029F7090931F
:104AF000E9009091EB0090FF04C09091EE0097FDCB
:104B000007C0CF70C093E900CF91089590E8E6CF39
:104B10009FEF2091E800915025FD06C025ED2A95D4
:104B2000F1F700009111F5CF8093F1008DE292E052
:104B30000E94022B8091E80080FFE3CF8091E80083
:104B40008E778093E800DDCF84B7877F84BF0FB670
:104B5000F894A8958091600088618093600010921D
:104B600060000FBE80E880936100109261000E9497
:104B7000CD130E9400280E945D288091E20084608D
:104B80008093E20078940E94E62A0E94D11388E480
:104B900092E00E9479130E944E2580919E038530F9
:104BA00049F00E94D9130E9459258DE292E00E949B
:104BB000332BF3CF0E94502080919C03882369F30C
:104BC0000E947E20882349F30E945A26E6CF292F8F
:104BD00033272330310579F158F421303105F1F0D4
:104BE0002230310519F190E080E030E020E01AC079
:104BF00021323105C9F122323105A9F7633071053F
:104C000090F7FB01EE0FFF1FEB57FD4F2081318125
:104C10006E577D4FFB01808190E004C082E190E0FF
:104C200027EA38E0FA0131832083089581E990E092
:104C300026E138E0F7CF99278130910579F040F0EF
:104C40008230910571F0039771F6EAEDF7E002C04A
:104C5000E2E1F8E0849190E09F01E4CFECEFF7E02F
:104C6000F9CFE0EEF7E0F6CF6330710508F0BBCF87
:104C7000660F771FFB01E557FD4F2081318189E0E9
:104C800090E0D0CF0895CF93C82F0E944226C093C2
:104C90009003CF91089580919E03843011F081E0BC
:104CA000089582E0089580919003811102C00C94D0
:104CB0004B26089580E189BD82E189BD09B400FEDB
:104CC000FDCF8091D8008F7D8093D8008091E00047
:104CD00082608093E0008091E00081FDFCCF089528
:104CE000AF92BF92CF92DF92FF920F931F93CF9319
:104CF000DF936C01EB018A010E94D127F82E81110C
:104D000023C00115110539F0F80180819181C81B7C
:104D1000D90BC80ED91EB12CA12C2097A9F08091D7
:104D2000E80085FD22C08091E8008E778093E8003E
:104D300001151105A1F0F80180819181A80EB91E1D
:104D4000B182A08285E0F82E8F2DDF91CF911F9147
:104D50000F91FF90DF90CF90BF90AF9008950E9489
:104D6000D1278823D1F2F82EEFCFF60181916F0180
:104D70008093F1002197FFEFAF1ABF0ACECFFC015D
:104D80008091A5039091A60386179707A0F061155F
:104D9000710529F49091E8009E779093E80090E0E7
:104DA0006115710551F4911108C08091E80082FFEE
:104DB00035C080E00895BC01F2CF80919E03882326
:104DC000C9F18530C9F18091E80083FD31C080913F
:104DD000E80082FDEACF8091E80080FFE1CF2091DA
:104DE000F3008091F200322F282F6115710519F020
:104DF0002830310558F091E02830310509F090E075
:104E00002091E8002E772093E800CACF819180930B
:104E1000F100615071092F5F3F4FE7CF80919E03F2
:104E2000882341F0853041F08091E80083FFBDCFB9
:104E300081E0089582E0089583E00895FC01809167
:104E4000A5039091A60386179707A0F06115710539
:104E500029F48091E8008E778093E80090E0611556
:104E6000710551F4911108C08091E80082FF36C0AD
:104E700080E00895BC01F2CF80919E038823D1F198
:104E80008530D1F18091E80083FD32C08091E80047
:104E900082FDEACF8091E80080FFE1CF2091F3000E
:104EA0008091F200322F282F6115710519F02830FA
:104EB000310558F091E02830310509F090E08091FB
:104EC000E8008E778093E800CACF84918093F10048
:104ED0003196615071092F5F3F4FE6CF80919E035D
:104EE000882341F0853041F08091E80083FFBCCFFA
:104EF00081E0089582E0089583E00895982F973027
:104F000028F08F708093E90081E008959093E90084
:104F1000242F762F50E0981731F07091EC002091FB
:104F2000ED005091F00021FD02C09F5FE8CF30916D
:104F3000EB003E7F3093EB003091ED003D7F3093EE
:104F4000ED003091EB0031603093EB007093EC009A
:104F50002093ED005093F0002091EE0027FDE5CF67
:104F600080E0089580919F0387FF13C08091E8003F
:104F700082FF06C08091E8008B778093E80004C030
:104F800080919E038111F2CF089580919E03882322
:104F9000D9F38091E80080FFF8CF8091E8008E7708
:104FA000ECCF2091E4003091E50085E69091EC0093
:104FB00090FF06C09091E80090FF06C080E0089541
:104FC0009091E80092FDFACF90919E03992391F081
:104FD000953091F09091EB0095FD10C04091E40068
:104FE0005091E5002417350709F381509A01F1F635
:104FF00084E0089582E0089583E0089581E00895B3
:105000000E946E280E947628E0EEF0E080818160A8
:105010008083E8EDF0E080818F77808319BCA7ED75
:10502000B0E08C918E7F8C9380818F7E80831092F4
:105030009D0308950F931F93CF93DF930E946E28D3
:105040000E947628C8EDD0E088818F778883888198
:105050008068888388818F7D888319BC10929E0325
:1050600010929A0310929C0310929B0300EE10E0A2
:10507000F80180818B7F808388818160888342E012
:1050800060E080E00E947E27E1EEF0E080818E7F8C
:105090008083E2EEF0E0808181608083808188609F
:1050A0008083F80180818E7F8083888180618883FE
:1050B000DF91CF911F910F910895E8EDF0E080818D
:1050C0008F7E8083E7EDF0E080818160808384E0E3
:1050D00082BF81E080939D030C941A28E8EDF0E0F4
:1050E00080818E7F80831092E20008951092DA0012
:1050F0001092E10008951F920F920FB60F921124A3
:105100002F933F934F935F936F937F938F939F93CF
:10511000AF93BF93EF93FF938091E10082FF0BC0A9
:105120008091E20082FF07C08091E1008B7F809335
:10513000E1000E94E52A8091DA0080FF19C0809189
:10514000D80080FF15C08091DA008E7F8093DA004E
:105150008091D90080FF94C080E189BD82E189BD42
:1051600009B400FEFDCF81E080939E030E94662477
:105170008091E10080FF19C08091E20080FF15C09E
:105180008091E2008E7F8093E2008091E200806156
:105190008093E2008091D80080628093D80019BC8F
:1051A00085E080939E030E9478248091E10084FF33
:1051B00029C08091E20084FF25C080E189BD82E1A1
:1051C00089BD09B400FEFDCF8091D8008F7D80930A
:1051D000D8008091E1008F7E8093E1008091E20011
:1051E0008F7E8093E2008091E20081608093E200F4
:1051F00080919A03882309F449C084E080939E0338
:105200000E9479248091E10083FF29C08091E2000F
:1052100083FF25C08091E100877F8093E10082E0D9
:1052200080939E0310929A038091E1008E7F809379
:10523000E1008091E2008E7F8093E2008091E200A5
:1052400080618093E20042E060E080E00E947E277F
:105250008091F00088608093F0000E947724FF9195
:10526000EF91BF91AF919F918F917F916F915F91DE
:105270004F913F912F910F900FBE0F901F90189557
:1052800019BC10929E030E94742472CF8091E30097
:1052900087FD02C081E0B2CF83E0B0CF1F920F92B2
:1052A0000FB60F9211242F933F934F935F936F93F9
:1052B0007F938F939F93AF93BF93CF93EF93FF937E
:1052C000C091E900CF708091EC001092E9008091CC
:1052D000F000877F8093F00078940E948A291092D2
:1052E000E9008091F00088608093F000C093E900AD
:1052F000FF91EF91CF91BF91AF919F918F917F914E
:105300006F915F914F913F912F910F900FBE0F9032
:105310001F9018951F93CF93DF93CDB7DEB7AA9751
:105320000FB6F894DEBF0FBECDBFEFE9F3E080917A
:10533000F100819323E0E73AF207C9F70E9499242C
:105340008091E80083FF44C080919F039091A00367
:105350009A3008F03DC0E92FF0E0EF54F64D0C9480
:10536000C92CBB29E129E829E129E8293F2A612A3A
:10537000E829B82AC52A803889F0823849F5809111
:10538000A3038F70873020F58093E9008091EB00B4
:1053900085FB882780F91092E90006C080919B0365
:1053A00090919C03911182609091E800977F909377
:1053B000E8008093F1001092F1008091E8008E7770
:1053C0002DC0282F2D7F21F48823D1F0823059F170
:1053D0008091E80083FF0AC08091E800877F809376
:1053E000E8008091EB0080628093EB00AA960FB6F4
:1053F000F894DEBF0FBECDBFDF91CF911F9108950E
:105400008091A103813021F7933009F080E08093EF
:105410009C031092E9008091E800877F8093E80068
:105420000E94B227D5CF8091A1038111F2CF809144
:10543000A3038F702FEF280F263050F68093E900DA
:105440002091EB0020FFE5CF933031F48091EB0009
:1054500080628093EB00DDCF9091EB0090619093A0
:10546000EB0021E030E001C0220F8A95EAF720939B
:10547000EA001092EA008091EB008860EACF811187
:10548000A7CF1091A1031F778091E3008078812B33
:105490008093E3008091E800877F8093E8000E947A
:1054A000B2278091E80080FFFCCF8091E300806804
:1054B0008093E30083E0111101C082E080939E039A
:1054C00087CF8058823008F083CF8091A1039091DC
:1054D000A2038C3D23E09207A1F583E08A838AE250
:1054E00089834FB7F894DE01139620E03EE051E245
:1054F000E32FF0E050935700E49120FF03C0E295C2
:10550000EF703F5FEF708E2F90E0EA30C0F0C796EB
:105510008D939D932F5F243159F74FBF8091E80001
:10552000877F8093E8006AE270E0CE0101960E94D6
:10553000BF268091E8008B778093E80049CFC09622
:10554000E7CF6091A3037091A403AE014F5F5F4F5B
:105550000E94E725BC01892B09F43ACF9091E8001D
:10556000977F9093E80089819A810E941E27E1CF5E
:10557000803809F02DCF8091E800877F8093E80084
:1055800080919A038093F10018CF811121CF9091DF
:10559000A103923008F01CCF8091E800877F8093B0
:1055A000E80090939A030E94B22780919A0388237F
:1055B00031F084E080939E030E947B2409CF809188
:1055C000E30087FDF6CF81E0F5CF0895CF9380917A
:1055D0009E03882399F0C091E900CF708091EC0080
:1055E00080FD0EC080E0C82B1092E9008091E80099
:1055F00083FD0E948A29CF70C093E900CF9108955E
:1056000080E8F1CF20919E03243059F5FC014489B4
:10561000558966897789452B462B472B11F1818166
:105620008F708093E9008091F3009091F2008927B8
:1056300098278927892B11F480E008959091E8003C
:105640008091E8008E778093E80095FDF5CF0E9469
:10565000D127811107C09091E8009E779093E800D0
:10566000089582E0089520919E03243091F4FC0176
:105670004489558966897789452B462B472B49F004
:1056800021812F702093E9002091E80020FD0C94E7
:10569000022B089520919E03243019F090E080E0C1
:1056A0000895FC014489558966897789452B462BE5
:1056B000472BA1F386818F708093E9008091E800E9
:1056C00082FFECCF8091F3009091F2008927982718
:1056D0008927009731F42091E8002B772093E80088
:1056E00008958091F3009091F200892798278927E7
:1056F000089520919E03243019F08FEF9FEF0895B5
:10570000FC014489558966897789452B462B472BAF
:10571000A1F386818F708093E9008091E80082FF79
:10572000ECCF8091F3009091F20089279827892788
:10573000892B91F08091F10090E02091F30030915D
:10574000F200232732272327232B29F42091E80076
:105750002B772093E80008958FEF9FEFEECF0F9304
:105760001F93CF93DF93CDB7DEB728970FB6F8948A
:10577000DEBF0FBECDBF8C0180919E03843059F5F2
:10578000F80184899589A689B789892B8A2B8B2B67
:1057900011F183858F708093E90088E0E3E5F2E002
:1057A000DE01119601900D928A95E1F750E040E0FC
:1057B00068E070E0CE0101960E94702650E040E063
:1057C00062E070E0C80142960E9470268091E80075
:1057D0008E778093E80028960FB6F894DEBF0FBE50
:1057E000CDBFDF91CF911F910F9108950895CF9371
:1057F000DF93EC018091E80083FF10C02881809145
:10580000A3039091A4032817190641F48091A003E3
:105810008132F1F030F4803209F450C0DF91CF9141
:105820000895823209F47EC08332C1F780919F03CC
:105830008132A1F78091E800877F8093E8000E9481
:10584000B2276091A103CE01DF91CF910C94F62B8A
:1058500080919F03813A11F78091E800877F8093C0
:10586000E8008091E80080FFFCCF8C899D89AE899B
:10587000BF898093F100492F5A2F6B2F77274093D0
:10588000F100AD01662777274093F1008B2F992710
:10589000AA27BB278093F100888D8093F100898D22
:1058A0008093F1008A8D8093F1008091E8008E77DB
:1058B0008093E800DF91CF910C94B22780919F03F1
:1058C000813209F0ABCF8091E800877F8093E800B8
:1058D0008091E80082FF21C03091F1002091F10019
:1058E0009091F1008091F1003C8B2D8B9E8B8F8BE2
:1058F0008091F100888F8091F100898F8091F10073
:105900008A8F8091E8008B778093E8000E94B2270D
:10591000CE01DF91CF910C94F62B80919E038111E3
:10592000D7CF7CCF80919F03813209F077CF8091D0
:10593000E800877F8093E8000E94B2278091A1034E
:105940009091A203998B888BCE01DF91CF910C941B
:10595000F62B991B79E004C0991F961708F0961B47
:10596000881F7A95C9F78095089597FB072E16F43E
:10597000009407D077FD09D00E94CF2C07FC05D0FA
:105980003EF4909581959F4F0895709561957F4F56
:105990000895EE0FFF1F0590F491E02D0994AA1BC6
:1059A000BB1B51E107C0AA1FBB1FA617B70710F00A
:1059B000A61BB70B881F991F5A95A9F7809590953C
:1059C000BC01CD010895F999FECF92BD81BDF89A31
:1059D000992780B50895A8E1B0E042E050E00C942A
:1059E0000B2D262FF999FECF92BD81BDF89A019714
:1059F00000B4021639F01FBA20BD0FB6F894FA9A17
:105A0000F99A0FBE08950196272F0E94F22C0C944C
:105A1000F12CDC01CB01FC01F999FECF06C0F2BDEF
:105A2000E1BDF89A319600B40D9241505040B8F75C
:065A30000895F894FFCF79
:105A36000000E50500000000000000000000000076
:105A4600000000000098077D05000000000000002F
:105A560000000000000000009805000000000000A3
:105A66000000000000000000000000F80500000033
:105A760000000000000000000000000000003607E3
:105A86006E0700000000000000000000000000009B
:105A960000C5070B05000000000000000000000024
:105AA60000000000F507810500000000000000006E
:105AB6000000000000000026088505000000000028
:105AC60000000000000000000000110500000000BA
:105AD600000000000000000000000000002005009B
