:100000000C94FD020C9444030C9444030C9444039C
:100010000C9444030C9444030C9444030C94440344
:100020000C9444030C9444030C94A01D0C94731E74
:100030000C94F9170C9444030C9444030C9444035B
:100040000C9444030C9444030C9444030C94440314
:100050000C9444030C9461180C9444030C944403D2
:100060000C9444030C9444030C9444030C944403F4
:100070000C9444030C9444030C9444030C944403E4
:100080000C9444030C9444030C9444030C944403D4
:100090000C9444030C9444030C9444030C944403C4
:1000A0000C9444030C9444030C944403290014005E
:1000B0001A000800150017001C0018000C001200A0
:1000C00013002A00E20004001600070009000A00DD
:1000D0000B000D000E000F0033002800E1001D0092
:1000E0001B00060019000500110010003600370043
:1000F0003800E3000000000000000000E45CE35C66
:100100002C00E00000000000000000002900340086
:100110003600370013001C0009000A000600150015
:100120000F002A00E20004001200080018000C0072
:1001300007000B001700110016002800E100330033
:1001400014000D000E001B00050010001A0019001D
:100150001D00E3000000000000000000E45CE35C20
:100160002C00E00000000000000000002900140046
:100170001A00090013000A000D000F0018001C00EF
:1001800033002A00E20004001500160017000700E3
:100190000B00110008000C0012002800E1001D00F7
:1001A0001B000600190005000E0010003600370085
:1001B0003800E3000000000000000000E45CE35CA5
:1001C0002C00E000000000000000000029001400E6
:1001D000070015001A0005000D00090018001300A3
:1001E00033002A00E200040016000B0017000A008A
:1001F0001C001100080012000C002800E1001D0086
:100200001B001000060019000E000F00360037001A
:100210003800E3000000000000000000E45CE35C44
:100220002C00E0000000000000000000015A025A0B
:10023000035A045A055A065A235A245A255A265A4A
:10024000275A285ADF5C075A095A0B5A0D5A115A75
:10025000165A1A5A1C5A1E5A205A225AE05C085A38
:100260000A5A0C5A0E5A125A175A1B5A1D5A1F5A1A
:10027000215A295A00000000000000000F5A105AAD
:10028000185A195A00000000000000001E001E004D
:100290001E001E001E001E001E001E001E001E006E
:1002A0001E001E00DF5C14001A0008001500170075
:1002B0001C0018000C00120013002F00E05C04006A
:1002C0001600070009000A000B000D000E000F00C9
:1002D0003300340000000000000000000600190098
:1002E00011001000000000000000000035001E009A
:1002F0001F002000210022002300240025002600EA
:1003000027000000E200AD00AC00AE00AB00A90089
:100310000000000000002F0030003400E1001D014B
:100320001B0106011901AA00A800000000002D0011
:100330002E00E3000000000000000000E45C01006B
:100340004C00E0000000000000000000E25C3A0009
:100350003B003C003D0000006500460047004800AF
:1003600000000000E2003E003F00400041000000AD
:10037000000049004A004B0000000000E10042007C
:10038000430044004500000000004C004D004E00BA
:100390003100E30000000000000000000100E35C09
:1003A0002B00E0000000000000000000E15CDA5CCF
:1003B000DB5CDC5CDD5C470054005F0060006100DA
:1003C0002D000000E2004A0052004D004B003900B1
:1003D00055005C005D005E0057002800E100500001
:1003E00051004F004E000953620059005A005B0053
:1003F0000000E30000000000000000000100010018
:100400000000E0000000000000000000000000000C
:10041000000000000000000054005F006000610068
:1004200056000000E2004A0052004D004B00000060
:1004300055005C005D005E0057002800E1005000A0
:1004400051004F004E00DE5C620059005A005B0014
:100450000000E300000000000000000000000000B9
:100460000000E00000000000000000000403300075
:1004700000001A03530070006C00690074006F00E4
:1004800067007200610070006800790000001403CA
:1004900053004F00460054002F0048005200550002
:1004A000460000000403090409029100050100A0B0
:1004B000FA090400000103010100092111010001F2
:1004C0002240000705810308000A09040100010316
:1004D00000000009211101000122360007058203F6
:1004E00008000A09040200010300000009211101AB
:1004F000000122390007058303200001080B0302D5
:1005000002020100090403000102020100052400A7
:1005100010010424020205240603040705840308CD
:1005200000FF09040400020A00000007050602108B
:1005300000050705850210000512011001EF0201F8
:1005400008EDFE606001000102030105010906A13A
:1005500001050719E029E7150025019508750181B6
:100560000205081901290595057501910295017586
:100570000391010507190029F71500250195F87564
:10058000018102C005010980A10185021601002632
:1005900003001A81002A8300751095018100C005AF
:1005A0000C0901A1018503160100269C021A010015
:1005B0002A9C02751095018100C005010906A10160
:1005C000050719E029E71500250195087501810245
:1005D0009501750881010508190129059505750121
:1005E00091029501750391010507190029FF150076
:1005F00026FF00950675088100C011241FBECFEFAD
:10060000DAE0DEBFCDBF04B603FE27C080918E02C4
:1006100090918F02A0919002B09191028730904BFF
:10062000A740B04BD1F410928E0210928F0210921C
:1006300090021092910214BE84B7877F84BF0FB6D8
:10064000F894A89580916000886180936000109272
:1006500060000FBEE0E0FFE3099511E0A0E0B1E02B
:10066000E0E3F4E402C005900D92A039B107D9F798
:1006700022E0A0E9B1E001C01D92AE38B207E1F777
:100680000E94C91A0C9416220C9400000C945F046A
:10069000CF93C0E08C2F0E94B014CF5FCA30D1F747
:1006A000CF91089582E593E090939101809390011A
:1006B000109292010E94480380E00C94EE058FE5B1
:1006C00093E09093910180939001109292010E9487
:1006D000480381E00C94EE058CE693E09093910141
:1006E00080939001109292010E94480382E00C9442
:1006F000EE0589E793E09093910180939001109229
:1007000092010E94480383E00C94EE05FC01828173
:100710008823B9F00E94480385E00E948F140E944C
:100720001417811102C00E94F5160E942C1790E048
:100730009093800280937F02806880937F020C9464
:10074000301708950E94480384E00C948F14CF93CF
:10075000DF93EB018E3D2CE5920709F477C0E8F4B6
:100760008B3D2CE5920709F443C048F4843391058E
:1007700009F444C08A3D9C4599F1C1E05DC08C3DBF
:100780002CE5920709F45CC08D3D9C45B1F78A8148
:10079000882349F10E94790326C0813E2CE5920707
:1007A00009F486C080F48F3D2CE5920709F457C008
:1007B000803E9C4511F7CA8180919201CC2309F4B7
:1007C0005DC0826052C0833E2CE5920709F458C098
:1007D00008F46AC0843E9C4581F6CA8187E052C015
:1007E0008A81811102C0C0E027C00E945203FBCF62
:1007F0008A818823C1F30E945F03F5CF8091900125
:10080000909191018F55934009F0B7CF60912802E4
:100810007091290280912A0290912B020E94A816C1
:10082000863009F0AACFCA8188E3CC2319F00E9450
:10083000770CD9CF0E946E0D8C2FDF91CF91089548
:100840008A81882381F20E946C03CDCF8A8188231C
:1008500051F2E0919001F09191010995C4CFCA81C4
:1008600080919201CC2331F081608093920183309A
:1008700081F3B9CF8E7F80939201DECF8D7FFBCF46
:10088000CA8186E0CC2341F00E948F1448E067E0E3
:1008900086E00E940106A7CF0E94B01448E067E0FE
:1008A00086E00E940106C8CFCB010E9486039BCF41
:1008B0008A81882309F497CF0E94A20394CF80E015
:1008C0000C94570A81E008950C94A7030E944C10E1
:1008D0002FEF84E39CE0215080409040E1F700C07E
:1008E00000000C948718FF920F931F93CF93DF9310
:1008F0008C01FC01C081D1818091D101811146C060
:1009000082818823F1F1CE010E948515F82E682F8F
:10091000CE010E942B15BE018F2D0E945F06EC01B7
:10092000B8010E946404882309F461C0B801CE01B3
:100930000E94BE0A882309F45AC0B801CE010E9461
:10094000C108882309F453C0C531FCE5DF0709F469
:1009500025C108F5C130ECE5DE0709F44FC008F009
:100960005FC0C115DC45F1F181E08093980180936F
:100970009901C801DF91CF911F910F91FF900C94C5
:100980006204CE010E945A15F82EC5CFCE010E94F6
:100990008515BE01C2CFC53DECE5DE0709F4DBC01D
:1009A000A0F4C43DDC4501F7F8018281882309F4F5
:1009B000BBC0109298010E942B18909395018093D0
:1009C000940182E00E94BD0D12C0C83DECE5DE0737
:1009D000F9F0C93DDC4541F6F8018281882339F000
:1009E00082E01BC0F801828181110E94660480E0D0
:1009F000DF91CF911F910F91FF900895F8018281AF
:100A00008823A9F380915502816080935502EFCF2E
:100A1000F8018281882359F380E00E94681BE7CFA8
:100A2000F8018281882309F4A4CF0E941417811150
:100A300002C00E94F5160E942C1790E0909380024D
:100A400080937F02FE01E350FC4580917F0281602C
:100A5000E231F105C8F4E15DFA4F0C94DA21410569
:100A60004D055105550559055D0561056505690586
:100A70006D057105750579057D0581058505890576
:100A80008D0580917F02826080937F0280917F023A
:100A90000E9430170E944C10AACF80917F02846080
:100AA000F3CF80917F028860EFCF80917F028061D9
:100AB000EBCF80917F028062E7CF80917F028064DC
:100AC000E3CF80917F028068DFCF80917F028460D6
:100AD000EACF80917F028E7FD7CF80917F028D7F7A
:100AE000D3CF80917F028B7FCFCF80917F02877F92
:100AF000CBCF80917F028F7EC7CF80917F028F7D89
:100B0000C3CF80917F028F7BBFCF80917F028F7791
:100B1000BBCF80917F028B7FEACF90917F02892F9C
:100B200097FB87F98058B0CF8091980181110FC051
:100B300080919401909195010E943718883C91050D
:100B400030F486E20E94770C86E20E946E0D82E00D
:100B50000E94C40D4CCFF8018281882351F010927D
:100B600099010E942B18909397018093960180E23F
:100B700029CF8091990181110FC0809196019091A8
:100B800097010E943718883C910530F487E20E9453
:100B9000770C87E20E946E0D80E2DACF0E946C161D
:100BA000F8019281992381F08A7A91E009F490E02A
:100BB00090939301811106C089E20E94F5150E946D
:100BC0003916D2CE85E3F9CF80919301811104C00B
:100BD00089E20E94FC15F3CF85E3FBCFCF93DF932F
:100BE000C1E0D0E002C0CC0FDD1F8A95E2F78C2F68
:100BF0000E942717BE0190E080E0DF91CF910C9416
:100C00002D148F929F92AF92BF92CF92DF92EF926C
:100C1000FF920F931F93C12CD12C7601C39497019F
:100C2000860104C0000F111F221F331F6A95D2F7DF
:100C30004601570104C0880C991CAA1CBB1C8A954C
:100C4000D2F7D501C401802B912BA22BB32B00919D
:100C500028021091290220912A0230912B020823A8
:100C600019232A233B2380179107A207B30769F4AE
:100C7000842F1F910F91FF90EF90DF90CF90BF9046
:100C8000AF909F908F900C948F14842F1F910F9191
:100C9000FF90EF90DF90CF90BF90AF909F908F909C
:100CA0000C94B0140C9446030C94110908950C9400
:100CB00056060C94570690E080E008950895972F0B
:100CC00070E02CE0929F600D711D1124FB0190E3F8
:100CD000899FE00DF11D1124EE0FFF1FE455FF4F1A
:100CE000859194910895FC01EE0FFF1FE459FB4F8D
:100CF000859194910895CF93DF930E945F060E949F
:100D00001308EC018115904408F094C0C11580E3EC
:100D1000D80708F005C1C03ED10508F071C0C03C3D
:100D2000D10508F0ECC0C83AD10580F4C53AD10528
:100D300008F0E9C0C130D10509F46EC020F0C4301C
:100D4000D10508F069C0D0E0C0E066C0CD3BD10558
:100D5000D0F7C83AD10509F427C1C93AD10509F439
:100D600026C1CA3AD10509F425C1CB3AD10509F407
:100D700024C1CC3AD10509F423C1CB3BD10509F4F8
:100D800022C1CC3BD10509F421C1CD3AD10509F4EA
:100D900020C1C03BD10509F41FC1CE3AD10509F4E9
:100DA0001EC1CF3AD10509F41DC1C13BD10509F4DB
:100DB0001CC1C23BD10509F41BC1C33BD10509F4D9
:100DC0001AC1C43BD10509F419C1C53BD10509F4C9
:100DD00018C1C63BD10509F417C1C73BD10509F4B9
:100DE00016C1C83BD10509F415C1C93BD10509F4A9
:100DF00014C1CA3BD10509F013C1CAE2D6E40CC044
:100E0000CF3FD10509F060F4C03FD10508F086C09E
:100E1000C83ED10508F097CFCE01DF91CF9108955C
:100E2000CE019F70C11520E2D207B0F30E94730675
:100E3000EC01F2CFC11584E5D807A0F5C11523E573
:100E4000D20708F08EC0C11581E5D80708F5C11595
:100E500020E5D20708F46EC0CE0154E09695879540
:100E60005A95E1F783709C2F937021E030E002C027
:100E7000220F331F9A95E2F73C68382BC695C6952A
:100E8000C37080E2C89FE0011124C22BD32BC4CFD2
:100E9000C11582E5D80708F050C0DC2FCC27C16F00
:100EA000D06ABACFC11526E5D20758F49C2F8827FF
:100EB000C115D54508F469C0EC01CC27DF71D062BB
:100EC000ABCFC11588E5D80708F43DCFC11529E59A
:100ED000D20708F45EC0CE0190568115904208F00A
:100EE00032CF8D2F8F710E949308DD27D06290E062
:100EF000982F882788279F71C82BD92B8DCFCE019B
:100F0000805C910993CFC53AD10509F447C0C63A30
:100F1000D10509F446C0C3E8D0E47ECFD0657CCFCC
:100F2000CE019927D3FF03C0EC01D86C75CFEC013B
:100F3000D06C72CFDF70D06A6FCFCE0183709927EB
:100F400021E030E002C0220F331F8A95E2F7C695F8
:100F5000C69580E2C89FE0011124C22BD32BDC6828
:100F60005BCFCE018370992721E030E002C0220FD1
:100F7000331F8A95E2F7C695C69580E2C89FE001C7
:100F80001124C22BD32BDA6847CFEC01C46FD06A8F
:100F900043CFDC2FCC27C06FD06A3ECFC1E8D0E46E
:100FA0003BCFC2E8D0E438CFC2EED4E435CFC9EEAF
:100FB000D4E432CFCAEED4E42FCFC5EBD4E42CCFA7
:100FC000C6EBD4E429CFC3EBD4E426CFC4EBD4E4FE
:100FD00023CFC7EBD4E420CFCCECD4E41DCFCDECB1
:100FE000D4E41ACFC3E8D5E417CFCAE8D5E414CFC8
:100FF000C2E9D5E411CFC4E9D5E40ECFC1E2D6E40D
:101000000BCFC3E2D6E408CFC4E2D6E405CFC5E2F5
:10101000D6E402CFC6E2D6E4FFCEC7E2D6E4FCCEE9
:10102000C0E0D4E4F9CE8238910549F1B0F48133BF
:10103000910509F45CC048F48932910509F452C065
:101040008A32910509F458C008958533910509F451
:1010500044C08933910599F00895833E910531F19B
:1010600038F4803E910591F0823E9105B1F00895EB
:10107000863E910511F1873E910541F10895209139
:101080007F022370C9F080EE90E0089520917F02E6
:1010900020FF12C089E390E0089520917F0222FF93
:1010A0000BC024FF2EC090E080E0089520917F02C5
:1010B00022FD2AC024FDF7CF089520917F0223FF4F
:1010C000FBCF24FDF0CF87EE90E0089520917F02C2
:1010D00023FFF0CF86EE90E0089520917F0225FD5A
:1010E00016C0089520917F0225FD14C00895209117
:1010F0007F0226FD12C0089520917F0226FD10C0B8
:10110000089583EE90E0089582EE90E0089589E2DC
:1011100090E0089585E390E008958AE290E00895D4
:1011200081E390E0C9CFCF93C82F0E942C17282FBE
:1011300030E03093800220937F0282FF06C09C2F14
:101140009871983079F4C77FC46083FF06C09C2FE4
:101150009871983171F4C77EC46184FDC77E8C2F6D
:10116000CF9108959C2F9471943079F7CB7FC8600C
:10117000ECCF9C2F9471943181F7CB7EC861EDCF79
:1011800008950F931F93CF938C01FB0182818111EE
:1011900006C0C1E08C2FCF911F910F910895C0918F
:1011A000A701C11125C006311C4599F70E94C0084E
:1011B00081E08093A7010E942B189093A601809351
:1011C000A50110929A0110929C0110929B0110921D
:1011D0009E0110929D011092A00110929F01109209
:1011E000A2011092A1011092A4011092A301D2CFEA
:1011F0008091A5019091A6010E943718883C910525
:1012000040F680919A01E82FF0E0EE0FFF1FE556BF
:10121000FE4F118300838F5F80939A01C0E0BACFA5
:1012200008950C941009CF93DF9385B7806885BF2C
:1012300085B7806885BFACE7B1E040E851E0C1E028
:10124000D0E08D91E82FE295EF70F0E061A18F7012
:101250009E0101C0220F8A95EAF7922F909596235E
:1012600091A382A1822B82A34A175B0751F7A0E7C3
:10127000B1E04CE751E0C1E0D0E08D91E82FE2957C
:10128000EF70F0E061A18F709E0101C0220F8A957E
:10129000EAF7922F9095962391A382A1822B82A3A5
:1012A0004A175B0751F71092B1011092B0011092EA
:1012B000A9011092A8011092B3011092B2011092EC
:1012C000AB011092AA011092B5011092B4011092D4
:1012D000AD011092AC011092B7011092B6011092BC
:1012E000AF011092AE01DF91CF910C9452064F9254
:1012F0005F927F928F929F92AF92BF92CF92DF9236
:10130000EF92FF920F931F93CF93DF93C8EAD1E040
:101310000CE711E090E8A92E91E0B92EEE24E394B9
:10132000F12C99249394C880D98019821882D8010D
:101330008D918D01E82FE295EF70F0E091A18F7013
:10134000970101C0220F8A95EAF7892F822B81A38A
:1013500082A1822E8094882182A3B0EABA95F1F707
:1013600080E7482E81E0582E90E080E0D2017D9108
:101370002D01472F42954F7050E0DA0190967C90F6
:10138000488159817F70D70102C0AA0FBB1F7A958F
:10139000E2F7BD01672109F068C0B701082E02C05D
:1013A000660F771F0A94E2F7462B572B5983488321
:1013B00001968C309105D1F681A1882281A282A16B
:1013C000282B22A388819981C816D90641F09092D2
:1013D000B8010E942B189093BA018093B90122960C
:1013E000A016B10609F09FCF8091B801882351F172
:1013F0008091B9019091BA010E943718069710F1B7
:101400008091A8019091A9019093B1018093B001BE
:101410008091AA019091AB019093B3018093B201A6
:101420008091AC019091AD019093B5018093B4018E
:101430008091AE019091AF019093B7018093B60176
:101440001092B8010E94540681E0DF91CF911F9164
:101450000F91FF90EF90DF90CF90BF90AF909F9053
:101460008F907F905F904F90089570E060E09CCFE8
:10147000E82FF0E0EE0FFF1FE055FE4F80819181D5
:1014800008950895ECEBF1E086E0DF011D928A9566
:10149000E9F708950E941417811102C00E94F51601
:1014A0008DE090E00E94E02180937A020895CF932E
:1014B000C82F0E94420AC0937A026C2F8DE090E000
:1014C000CF910C94EE21FF920F931F93CF93DF9354
:1014D000D82FF62E0CEB11E0C0E0CD1307C0DF9142
:1014E000CF911F910F91FF900C94420AF8018191C6
:1014F0008F01811101C0F1100E948B1ACF5FEDCFD7
:10150000E82FF0E0E050FF4F9081E92FE295E6955B
:10151000E695E370F0E0E454FE4F8081892B8083F0
:1015200080E0089560E084E00E94630A80E00E9409
:101530008B1A80E0089567E00E94CE21E82FF0E04A
:10154000E454FE4F26E030E0291B310981E090E0B1
:10155000AC0102C0440F551F2A95E2F78081842B0D
:10156000808380E00895ECEBF1E0808180688083E7
:1015700061E086E00E94630A80E008959C01FB011F
:1015800020338AE53807C1F030F4C9019A558A97AB
:10159000D0F181E0089521333A45D9F790818181D6
:1015A000228143815481452B19F18F3F19F481E049
:1015B0009F3FF9F080E01DC09081818122814381AD
:1015C0005481452B39F08F3F19F481E09F3F19F08A
:1015D00080E001C081E080FD09C0822F817020FF82
:1015E000D9CF80E00E94570A80E0089520E0F5CF2F
:1015F00081E080FD06C0822F817020FFCBCF81E08B
:10160000F1CF20E0F8CF40818181928163817481A4
:10161000672B39F08F3F19F481E04F3F19F080E0DC
:1016200001C081E080FD11C0892F9091BB0180FF36
:1016300011C09F5F9093BB0180917A02882339F09B
:10164000813091F6822F0C949B0A80E0EECF822F9E
:101650000C94800A8FEF890F8093BB01811199CF81
:1016600080917A02882329F0813009F0BDCF0C9453
:10167000B30A0C94920A9093C7018093C60108950F
:10168000E091C601F091C701309721F00190F081FF
:10169000E02D099480E00895E091C601F091C70122
:1016A000309721F00280F381E02D09940895209174
:1016B000C4013091C5012817390771F09093C50115
:1016C0008093C401E091C601F091C701309721F0E9
:1016D0000680F781E02D099408952091C201309190
:1016E000C3012817390771F09093C3018093C20199
:1016F000E091C601F091C701309721F00084F18597
:10170000E02D0994089508950C94830B81E00895C9
:101710000E9422180E9413090E94AB180C944A0AD6
:101720005F926F927F928F929F92AF92BF92CF9271
:10173000DF92EF92FF920F931F93CF93DF93CDB77A
:10174000DEB72A970FB6F894DEBF0FBECDBF0E945A
:1017500077090E94860B882309F478C099ECA92E9A
:1017600091E0B92E10E000E088248394912C502E53
:10177000802F0E94380A7C01F501C190D1905F0151
:10178000C816D90609F45CC08091550281FD0E94FB
:10179000410A90E080E0CE24DF243401082E02C00C
:1017A000660C771C0A94E2F7960126213721232B39
:1017B00009F441C08E835F82E620F72081E0EF28A4
:1017C00009F480E088870E942B188160782F9A871F
:1017D00089874E815F8168858A850E944D0C000F44
:1017E000111FF801E753FE4F808191816826792609
:1017F000718260820E94400B9091C8018917B9F1F3
:101800000E94400B8093C8012A960FB6F894DEBF61
:101810000FBECDBFDF91CF911F910F91FF90EF9041
:10182000DF90CF90BF90AF909F908F907F906F9000
:101830005F900C94590601968C30910509F0ADCF5C
:101840000F5F1F4F0430110509F091CF8FEF89838F
:101850008A831B820E942B188160782F9D838C8342
:1018600049815A816B818D810E944D0CC3CF2A968C
:101870000FB6F894DEBF0FBECDBFDF91CF911F91A1
:101880000F91FF90EF90DF90CF90BF90AF909F901F
:101890008F907F906F905F900895CF93DF93CDB737
:1018A000DEB72B970FB6F894DEBF0FBECDBF4F83C8
:1018B000588769877A878B871E821D8285E0FE01A3
:1018C0003796DE01119601900D928A95E1F74981D4
:1018D0005A816B817C818D819E812B960FB6F89405
:1018E000DEBF0FBECDBFDF91CF910C94FE128823D7
:1018F00009F4F3C08238B9F40E94400B81FDEDC0B9
:1019000089E30E94F5150E9439162FEF81EE94E0CD
:10191000215080409040E1F700C0000089E30E9420
:10192000FC150C9439168338A1F40E94400B80FDFD
:10193000D4C083E50E94F5150E9439162FEF81EE81
:1019400094E0215080409040E1F700C0000083E522
:10195000E6CF8438A1F40E94400B82FDBEC087E42C
:101960000E94F5150E9439162FEF81EE94E0215068
:1019700080409040E1F700C0000087E4D0CF9CEFAA
:10198000980F913A18F40E94F515CBCF90E2980F7A
:10199000983050F4877091E001C0990F8A95EAF76A
:1019A000892F0E946F16BDCF9BE5980F933070F47E
:1019B000853A31F0863A39F083E890E00C94570B81
:1019C00081E890E0FBCF82E890E0F8CF98E5980FAF
:1019D000953108F082C0883A09F440C0893A09F488
:1019E00040C08A3A09F440C08B3A09F440C08C3AAE
:1019F00009F440C08B3B09F440C08C3B09F440C063
:101A00008D3A09F440C0803B09F440C08E3A09F495
:101A100040C08F3A09F440C0813B09F440C0823B8A
:101A200009F440C0833B09F440C0843B09F440C042
:101A3000853B09F440C0863B09F440C0873B09F46C
:101A400040C0883B09F440C0893B09F440C08A3B50
:101A500009F440C090E080E00C946D0B82EE90E0C1
:101A6000FBCF89EE90E0F8CF8AEE90E0F5CF85EBE2
:101A700090E0F2CF86EB90E0EFCF83EB90E0ECCFFD
:101A800084EB90E0E9CF87EB90E0E6CF8CEC90E040
:101A9000E3CF8DEC90E0E0CF83E891E0DDCF8AE802
:101AA00091E0DACF82E991E0D7CF84E991E0D4CF19
:101AB00081E292E0D1CF83E292E0CECF84E292E065
:101AC000CBCF85E292E0C8CF86E292E0C5CF87E235
:101AD00092E0C2CF8AE292E0BFCF0895882309F452
:101AE0004BC0823871F40E94400B81FF45C089E3EE
:101AF0000E94F5150E94391689E30E94FC150C948A
:101B00003916833859F40E94400B80FF35C083E5B5
:101B10000E94F5150E94391683E5EFCF843859F4F9
:101B20000E94400B82FF28C087E40E94F5150E94A6
:101B3000391687E4E2CF9CEF980F913AF0F290E2E9
:101B4000980F983050F4877091E001C0990F8A95F2
:101B5000EAF7892F0E947516D2CF9BE5980F933034
:101B600020F490E080E00C94570B885A853120F4E3
:101B700090E080E00C946D0B0895882321F00E9482
:101B80006F160C9439160895882321F00E9475165B
:101B90000C94391608958F929F92AF92BF92DF9264
:101BA000EF92FF920F931F93CF93DF937C01D62F79
:101BB000C72FFC01058102950F70128111110E943F
:101BC0008E160E943216D82E882371F0112331F11F
:101BD00080E28D0F883010F182E00E941C160E9476
:101BE000321691E0D82ED926BC2EB2949FE0B922AD
:101BF000EB2DF0E0E250F24F0C94DA21100E100EB3
:101C0000600E600EA20EA90EA90EA90ECA0EA90E94
:101C1000650F650FEF0FA90EA90EF80FD12CE4CFB9
:101C20000C2F0F70C07F11F00295007F1123A9F0D7
:101C3000002359F080E28D0F883010F0D11109C0D7
:101C4000802F0E946F160E9439168D2F0E94770CEC
:101C500014C0802F0E948016F6CF8D2F0E946E0D2B
:101C6000002359F080E28D0F883010F0D11124C08C
:101C7000802F0E9475160E943916DD2009F4BFC11D
:101C80000E940F1680FDBBC1F70112820E94091647
:101C90000E948F14C7010E940B100E940916DF9149
:101CA000CF911F910F91FF90EF90DF90BF90AF9079
:101CB0009F908F900C94B014802F0E948616DBCFDB
:101CC000FC2FFF70BF2EC07FC03219F0B29480EF9E
:101CD000B822DD2369F0D13021F1112369F100230D
:101CE00029F1F701858180FFB0CF8F7085831EC0F9
:101CF000112359F08B2D011103C00E94BD0DBDCFE2
:101D00000130D9F70E94A216B8CF011106C00E9477
:101D1000A5168B2D0E94C40DB0CF013009F4ADCFB4
:101D2000F6CF112329F0063008F0A7CF8B2DE5CF91
:101D3000053008F0A2CFEDCF002359F38D2F0E947C
:101D40006E0D9BCF8C2F86958695837079F08130B0
:101D5000B9F098E0B91609F459C0B91608F48DCF56
:101D600086EF8B0D823008F451C087CF8D2F9C2FCA
:101D70009370111102C090E080E00E94570B7DCF5C
:101D80008D2F9C2F9370111102C090E080E00E9473
:101D90006D0B73CF8C2F837009F04BC0111136C0BF
:101DA0002D2F229526952770220F220F6D2F6F70F1
:101DB000862E912CB12CA12C022E04C0880C991CCB
:101DC000AA1CBB1C0A94D2F760E070E0CB01D4FFE0
:101DD0000FC06FE070E080E090E004C0660F771FF6
:101DE000881F991F2A95D2F76095709580959095D8
:101DF000C695C695C370C23071F0A0F468297929E0
:101E00008A299B29C13091F00E9441140E94400B05
:101E10000E94590632CF682979298A299B290E9474
:101E20005314F4CF0E944114C501B4010E942F1431
:101E3000EDCF8695112311F08C2F8170882331F31B
:101E40002D2F229526952770220F220F6D2F6F7050
:101E5000862E912CB12CA12C022E04C0880C991C2A
:101E6000AA1CBB1C0A94D2F760E070E0CB01D4FF3F
:101E70000FC06FE070E080E090E004C0660F771F55
:101E8000881F991F2A95D2F7609570958095909537
:101E9000C695C695C370C23051F080F4682979297F
:101EA0008A299B29C13071F00E940615AFCF68299D
:101EB00079298A299B290E941815A8CF0E94061506
:101EC000C501B4010E94F414A1CFE0E2ED0FE531A9
:101ED00008F066C0F0E0E159F04F0C94DA21840F6D
:101EE000840F840F840F840F840F840F840F840F5A
:101EF000840F840F840F840F840F840F840F950F39
:101F0000A30FAA0FB10FBB0FDF708C2F8F7111239E
:101F100031F00E948F148D2F0E94BD0D1ACF0E94A8
:101F2000B0148D2F0E94C40D14CF112341F0053041
:101F300008F00FCF8C2F8F710E94D3140ACF063078
:101F400008F007CFF7CF8C2F8F71112339F00E9443
:101F50008F14FFCE8C2F8F711123C9F30E94B01400
:101F6000F8CE112329F08C2F8F710E947A14F1CEB4
:101F70000E947514EECE112349F0CF718C2F0E9470
:101F80008F1463E08C2F0E941316E3CE81E00E9431
:101F90001C16023008F4DDCE82E00E941C16D9CE59
:101FA000112349F0002321F08D2F0E94770CD1CE10
:101FB0008C2F8F71CCCF002379F0D93349F4FFEF08
:101FC00027EE83E0F15020408040E1F700C00000A0
:101FD0008D2F0E946E0DBDCE8C2F8F71BFCF4C2FD9
:101FE0004F706D2FC7010E945B060E94A71345CE5C
:101FF0004C2F4F706D2FC7010E945E063ECEDF91C1
:10200000CF911F910F91FF90EF90DF90BF90AF9015
:102010009F908F9008950F931F93CF93DF93EC01C0
:10202000988189812B813C81232B39F08F3F19F4D2
:1020300081E09F3F19F080E001C081E080FD17C082
:10204000CE010E947304882391F0688179818A818E
:102050000E94D1158C010E942A150E942C14B801EF
:10206000CE01DF91CF911F910F910C94CB0DDF9199
:10207000CF911F910F9108950E948E160E949F1676
:102080000E9403160E94391690E080E00E94570BD0
:1020900090E080E00C946D0B0E947D160C943C1037
:1020A0000E94C715E92FE295EF70E250EE30E0F4A0
:1020B000F0E0E35AFF4E0C94DA216B106B107410B1
:1020C000741076107410741074106B106B107B10F9
:1020D000741074107B10803F19F020F4803E20F4BF
:1020E00081E00895843FE1F380E00895803EC0F3ED
:1020F000813FD1F7F5CF93FB882780F90895CF93DF
:10210000DF9300D000D01F92CDB7DEB70F900F90B5
:102110000F900F900F90DF91CF910895CF93DF93A1
:1021200000D000D000D0CDB7DEB726960FB6F89419
:10213000DEBF0FBECDBFDF91CF9108951F93CF9328
:10214000DF93C091D20116E08091D3018C1304C0BB
:10215000DF91CF911F910895D0E01C9FF0011D9F4A
:10216000F00D1124EC52FE4F408151816281738148
:10217000848195810E948E102196C770E5CF409191
:10218000040250910502609106027091070280914D
:102190000802909109020C948E101F93CF93DF9345
:1021A00080910902807FD1F4809106028823B1F0EA
:1021B0008091D201D091D301B0910402C091050267
:1021C0004091070250910802A1E0BF3F09F0A0E052
:1021D000BA016095709516E0D81304C0DF91CF91D5
:1021E0001F91089521E04115510521F02A2FCF3F7D
:1021F00009F020E090E020FD38C0189FF001199F01
:10220000F00D1124EC52FE4F21812C132EC02081A1
:102210002B132BC02281211128C023813481241744
:10222000350700F1241B350B283C3105F0F42091D3
:1022300009022F7020612093090226E0289FF001F7
:10224000299FF00D1124E752FE4F80818F7080612D
:10225000808384E092E00E940B10DF91CF911F9168
:102260000C949E10260F371FDFCF01968770B4CFD6
:10227000AF92BF92CF92DF92EF92FF920F931F9394
:10228000CF93DF93CDB7DEB761970FB6F894DEBF7B
:102290000FBECDBF8C0185E0F801DE011D960190D7
:1022A0000D928A95E1F7D8014C9111965C911197A6
:1022B0001296EC9030910402609105028091070221
:1022C0009091080221E0009731F06F3F19F421E06E
:1022D0003F3F09F020E0B22FB170BB2E20FD80C13E
:1022E000F801C380D480A0900602AA2009F427C177
:1022F000C816D906D0F1D601A81BB90BCD01FF2411
:10230000F394883C910508F0F12C80910902982FF4
:10231000907FFF2009F4CAC0911187C0FE2C65137D
:1023200029C0341327C0E11025C08F7080618093CD
:1023300009020E94BF1084E092E00E940B1080917D
:102340000902F80185838F2D61960FB6F894DEBFE0
:102350000FBECDBFDF91CF911F910F91FF90EF90F6
:10236000DF90CF90BF90AF900895809590958C0DA1
:102370009D1DC5CF81E0CD2831F05F3F19F481E08C
:102380004F3F09F080E080FD24C081E08E25F82FCA
:10239000F170DF2E80FF3FC08091D2012091D301E8
:1023A00036E0821318C04D875E878D859E850E941A
:1023B000C715292F22952F70223008F1243030F5CF
:1023C0009F7009F1D80115969C91907FE1F4FB2C48
:1023D000BACF80E0DCCF90E0389FF001399FF00D5C
:1023E0001124EC52FE4F6181561306C060814613E2
:1023F00003C062816E110FC001968770D2CF9F70AB
:1024000011F0882321F3805E883008F3C8010E9410
:102410000B10BD2CDCCFEE2009F495CF8091090282
:10242000816080930902F12C8ECF651312C03413A2
:1024300010C0E1100EC0F8018583C8010E940B1086
:1024400086E0F801A4E0B2E001900D928A95E1F7F0
:1024500041C04D875E878D859E850E9450108823E0
:1024600009F4C8C0EE2009F4C5C080910902803289
:1024700070F0209104023091050238872F8319866D
:10248000DB86CA868C87CE0107960E940B1086E0F9
:10249000F801A4E0B2E001900D928A95E1F70E9464
:1024A000CD100E94BF10FF24F3944DCF911115C0A1
:1024B0007C2DD98AC88A6E2D89890E947F1084E07C
:1024C00092E00E940B1086E0E4E0F2E0DF011D9252
:1024D0008A95E9F70E94BF1036CF651312C03413F6
:1024E00010C0E1100EC0F8018583C8010E940B10D6
:1024F000E4E0F2E086E0DF011D928A95E9F7FA2C2C
:1025000022CF4D875E878D859E850E94501088233F
:1025100009F470C0EE2009F46DC080910902803288
:1025200008F4B5CF20910402309105023A83298343
:102530001B82DD82CC828E83CE010196A6CFC81687
:10254000D90638F1F601E81BF90BCF01F12C883CD4
:10255000910508F03DC0FE2CEE2009F44BC0651338
:1025600026C0341324C08091090280FD17C0982F23
:10257000907FA1F0D80115968C931597903F09F4A0
:102580005CCF982F907F905F8F70892B15968C93DE
:1025900054CF809590958C0D9D1DD8CF86E0F80185
:1025A000A4E0B2E001900D928A95E1F7CCCE4D8780
:1025B0005E878D859E850E945010811168CF809125
:1025C0000902816080930902C8010E940B10BBCEF2
:1025D0007C2DD98AC88A6E2D89890E947F1073CF7D
:1025E000EE2041F04D875E878D859E850E945010BC
:1025F00081114DCFC8010E940B1055CF1F93CF936F
:10260000DF93CDB7DEB72C970FB6F894DEBF0FBEC1
:10261000CDBF4F83588769877A878B879C87CE0188
:1026200007960E943811882309F442C09F8188854B
:102630002A853B85232B39F08F3F19F481E09F3F9A
:1026400019F080E001C081E080FD08C04F8158850D
:1026500069857A858B859C850E948E1016E0809115
:10266000D2019091D301891709F467C0819FC001FD
:1026700011248C529E4F0E943811882309F45DC0AA
:10268000E091D2011E9FF0011124EC52FE4F4081D7
:10269000518162817381848195810E948E10809125
:1026A000D20190E00196877099278093D201D7CF0D
:1026B00086E0FE013796DE01119601900D928A9513
:1026C000E1F79F8188852A853B85232B39F08F3F51
:1026D00019F481E09F3F19F080E001C081E080FDA6
:1026E000BDCF2091D30130E0C901019687709927B1
:1026F0004091D2014817190699F096E0929FD001B7
:10270000939FB00D1124AC52BE4FFE013196019043
:102710000D929A95E1F78093D3010E949E109ECF6F
:102720000E944C101092D3011092D20186E0E4E096
:10273000F2E0DF011D928A95E9F72C960FB6F89426
:10274000DEBF0FBECDBFDF91CF911F910895EF92F5
:10275000FF920F931F93CF93DF938C01892B81F00E
:10276000F12CEE24E394E8012196F801849184375A
:1027700070F4843008F05FC08130B1F08230A1F194
:10278000DF91CF911F910F91FF90EF9008958537C2
:1027900009F44CC008F43DC09CE7980F903780F7CF
:1027A0008F770E946E0D49C00E5F1F4FFE0184910E
:1027B00090E2980F983060F48770FE2D01C0FF0FF3
:1027C0008A95EAF78F2F0E9491160E94391602C04F
:1027D0000E94770C8F2D815030F2EFE9FFE03197A6
:1027E000F1F700C00000F7CF0E5F1F4FFE0184918C
:1027F00090E2980F983050F48770FE2D01C0FF0FC3
:102800008A95EAF78F2F0E949716DFCF0E946E0DF0
:10281000E1CF0E5F1F4FFE01C491C150D8F28FE986
:102820009FE00197F1F700C00000F7CF0E5F1F4F48
:10283000FE01F490CFCF0E94770C8E01CBCF08958C
:102840000E941F1460932C0270932D0280932E021D
:1028500090932F020C943C1008950C9420140F9325
:102860001F9300912C0210912D0220912E02309185
:102870002F02602B712B822B932B1F910F910C94A5
:1028800020140F931F9300912C0210912D02209180
:102890002E0230912F0260237123822393231F91F4
:1028A0000F910C9420140F931F9300912C02109100
:1028B0002D0220912E0230912F026027712782274E
:1028C00093271F910F910C9420140C941F140C94B7
:1028D00065140E9467146093280270932902809304
:1028E0002A0290932B020C943C1060E070E0CB0124
:1028F0000C9469140F931F9341E050E060E070E086
:102900008A019B0104C0000F111F221F331F8A95EB
:10291000D2F7C901B8011F910F910C9469140F935C
:102920001F9341E050E060E070E004C0440F551F89
:10293000661F771F8A95D2F780912802909129020D
:10294000A0912A02B0912B028A019B01082B192B1E
:102950002A2B3B2BC901B8011F910F910C946914CC
:102960000F931F9341E050E060E070E004C0440F1B
:10297000551F661F771F8A95D2F7CB01BA01609564
:1029800070958095909500912802109129022091D0
:102990002A0230912B0260237123822393231F91FB
:1029A0000F910C9469140F931F9341E050E060E085
:1029B00070E004C0440F551F661F771F8A95D2F739
:1029C0008091280290912902A0912A02B0912B02B5
:1029D0008A019B01082719272A273B27C901B8012B
:1029E0001F910F910C9469140F931F93009128026B
:1029F0001091290220912A0230912B02602B712B19
:102A0000822B932B1F910F910C9469140F931F939A
:102A1000009128021091290220912A0230912B0264
:102A200060237123822393231F910F910C946914C7
:102A30000F931F93009128021091290220912A02DE
:102A400030912B0260277127822793271F910F91C6
:102A50000C94691408952CE0929F800D1124982FF6
:102A6000977071E001C0770F9A95EAF78695869581
:102A7000869525E0829FC001112450E040E0A62FFA
:102A8000B0E0FC01E40FF51FE65FFD4F60819D01A2
:102A9000042E02C0369527950A94E2F721702195FD
:102AA00026272723262720834F5F5F4F4530510578
:102AB00041F708952CE0929F800D1124982F977074
:102AC00086958695869525E0829FA001112470E069
:102AD00060E080E0FA01E60FF71FE65FFD4F20811E
:102AE00030E0092E02C0369527950A94E2F721704E
:102AF0003327062E01C0220F0A94EAF7822B6F5F5C
:102B00007F4F6530710531F70895BF92CF92DF9204
:102B1000EF92FF920F931F93CF93DF938C01C0909E
:102B20002802D0902902E0902A02F0902B02809196
:102B30002C0290912D02A0912E02B0912F02C82A52
:102B4000D92AEA2AFB2ACFE1D0E0BC2ED701C60160
:102B50000C2E04C0B695A795979587950A94D2F741
:102B600080FD0EC0219788F7B12C8B2DDF91CF917E
:102B70001F910F91FF90EF90DF90CF90BF9008953D
:102B8000B8018C2F0E947B06019761F3EECFCF93A3
:102B9000DF93EC010E948515BE01DF91CF910C946B
:102BA0007B061F93CF93DF93EB019091D101992383
:102BB00031F0CB01DF91CF911F910C94C715882381
:102BC00079F0CB010E948515182F682FCE010E9445
:102BD0002B15BE01812FDF91CF911F910C947B06A5
:102BE000CB010E945A15182FF4CF682F8091400115
:102BF000909141010C949217682F8091400190911F
:102C000041010C949D1780914001909141010C94D9
:102C1000A8178091300285958595859508958091B6
:102C200030028770089598E0899F90011124622BEB
:102C3000609330020C948F14909130028095892318
:102C400080933002282F277061F4282F082E000C63
:102C5000330B9217130629F08595859585950C946D
:102C6000B014089590913002977081E009F480E0EB
:102C70000895E0914001F0914101809154028083D8
:102C8000E0914001F0914101808190915302892BA4
:102C90008083E0914001F091410180819091520246
:102CA000892B808390913102992381F0E09140013A
:102CB000F09141018081892B808380914001909126
:102CC00041010E943517811110923102809140011B
:102CD000909141010C944C0B809154020895909175
:102CE0005402892B809354020895982F90958091D7
:102CF0005402892380935402089510925402089537
:102D000090915302892B809353020895982F9095A8
:102D100080915302892380935302089510925302A5
:102D2000089590915202892B809352020895982F12
:102D300090958091520289238093520208951092B7
:102D4000520208958093310208951092310208953D
:102D5000CF92DF92EF92FF926C01EE24FF2420E0ED
:102D6000C114D104E104F10419F0C701B60120E156
:102D7000C72ED82EE92EFF24C114D104E104F1049A
:102D800019F0285FC701B6016B017C0154E0F6948D
:102D9000E794D794C7945A95D1F7C114D104E104AC
:102DA000F10419F02C5FC701B6016B017C0142E010
:102DB000F694E794D794C7944A95D1F7C114D104F7
:102DC000E104F10419F02E5FC701B60196958795CD
:102DD00077956795672B682B692B09F02F5F822FFA
:102DE000FF90EF90DF90CF9008956DEE7EEF90E032
:102DF00080E00E94002260E082E090E00E94EE21EC
:102E000060E083E090E00E94EE2160E084E090E0EA
:102E10000E94EE2160E085E090E00E94EE2160E0FB
:102E20008DE090E00C94EE2190E080E00E94E8219B
:102E300021E08D3E9E4F09F020E0822F089582E030
:102E400090E00C94E02183E090E00C94E021682F66
:102E500083E090E00C94EE2184E090E00C94E0217B
:102E6000682F84E090E00C94EE21FC0131969C01E7
:102E7000205E3F4F80E0919191118F5FE217F30741
:102E8000D1F708959C01FC0132969FEF80E04191BB
:102E9000461751F09F3F19F4411101C0982F8F5FE1
:102EA0008E31A9F79F3F09F40895290F311D97FD31
:102EB0003A95F90162830895FC013296809621913A
:102EC000261303C0DF0111971C92E817F907B9F721
:102ED0000895E62FE695E695E695EF3169F0E80F5F
:102EE000F92FF11D677021E030E001C0220F6A95D3
:102EF000EAF78181822B81830895E62FE695E69596
:102F0000E695EF3171F0E80FF92FF11D677021E0C0
:102F100030E001C0220F6A95EAF7209581812823CD
:102F20002183089520916701222329F020917F02B7
:102F300027FD0C9469170C944217209167012223F6
:102F400029F020917F0227FD0C947D170C945C17CB
:102F5000FC01319680961192E817F907E1F7089580
:102F600080918502843039F11092560288E190E018
:102F700020E40FB6F894A895809360000FBE2093CC
:102F8000600080E00E94590683B7817F846083BF20
:102F900083B7816083BF7894889583B78E7F83BF22
:102FA0000FB6F894A89580916000886180936000C6
:102FB000109260000FBE089508950895CF930E9467
:102FC000DC170E9477090E94DD17C0E08C2F0E9459
:102FD000380A892B31F4CF5FC430C1F780E0CF913C
:102FE000089581E0FCCF0E944C100E94400B0C948D
:102FF00059061F920F920FB60F9211248F939F9331
:10300000AF93BF9380915602811113C080917B02D0
:1030100090917C02A0917D02B0917E024196A11D0B
:10302000B11D80937B0290937C02A0937D02B093AC
:103030007E02BF91AF919F918F910F900FBE0F9025
:103040001F90189582E084BD93E095BD9AEF97BDDF
:1030500080936E0008952FB7F89480917B02909131
:103060007C02A0917D02B0917E022FBF0895CF9285
:10307000DF92EF92FF920F931F932FB7F894409136
:103080007B0250917C0260917D0270917E022FBF85
:103090006A017B01EE24FF248C0130E020E0C016A1
:1030A000D106E206F30650F0481B590BCA011F91E6
:1030B0000F91FF90EF90DF90CF900895415051090C
:1030C000F3CF78941F920F920FB60F9211248F9323
:1030D0009F93AF93BF9380917B0290917C02A091CC
:1030E0007D02B0917E020196A11DB11D80937B02ED
:1030F00090937C02A0937D02B0937E02BF91AF912A
:103100009F918F910F900FBE0F901F90189581E0A7
:103110008093E00080E28093D8001092C9008FE194
:103120009EE40197F1F700C0000087E090EBDC011E
:1031300080938E0290938F02A0939002B09391029D
:1031400088E19CE00FB6F894A895809360000FBECC
:1031500090936000FFCF0E941417811102C00E945B
:10316000F5160E941F17809355020E942C1790E0BD
:103170009093800280937F020E942317682F70E053
:1031800090E080E00C942D148091770208950895CA
:103190000F931F93CF93DF9300D01F92CDB7DEB76D
:1031A0008C010E94781B823011F0843021F583E07D
:1031B00089831B830A8382E08093E9008FEF9091DB
:1031C000E800815095FD06C095ED9A95F1F7000055
:1031D0008111F5CF8091E80085FF0DC050E040E0FF
:1031E00063E070E0CE0101960E94951B8091E8009B
:1031F0008E778093E8000F900F900F90DF91CF9122
:103200001F910F910895CF93DF9300D01F92CDB7F8
:10321000DEB720918502243029F522E029838058E9
:1032200091099B838A832093E9008FEF9091E800B6
:10323000815095FD06C095ED9A95F1F7000081113A
:10324000F5CF8091E80085FF0DC050E040E063E0DD
:1032500070E0CE0101960E94951B8091E8008E7768
:103260008093E8000F900F900F90DF91CF91089519
:10327000CF93DF93EC010E94781B823011F08430F1
:10328000F9F4809167018823F1F080917F0287FF34
:103290001AC083E08093E9008FEF9091E80081509D
:1032A00095FD06C095E19A95F1F700008111F5CFE3
:1032B0008091E80050E040E060E270E085FD1AC0D7
:1032C000DF91CF91089581E08093E9008FEF909195
:1032D000E800815095FD06C095ED9A95F1F7000044
:1032E0008111F5CF8091E80085FFEACF50E040E002
:1032F00068E070E0CE010E94951B8091E8008E7717
:103300008093E80080E2FE01A7E5B2E001900D9213
:103310008A95E1F7D5CF80918402811109C00E947E
:10332000251D0E94821D8091E20084608093E2004E
:103330000895109284020895089508950C94F31747
:1033400042E061EC81E00E94A31C42E061EC82E07B
:103350000E94A31C42E261EC83E00E94A31C42E0B5
:1033600061EC84E00E94A31C42E160E886E00E94D8
:10337000A31C42E161E885E00C94A31C80918702C4
:10338000833009F457C048F4813081F1823009F468
:1033900099C082E491E00C941C218A3009F481C028
:1033A0008B3009F464C08930A1F7809186028132A4
:1033B00081F780918A0290918B02009711F0029719
:1033C00041F78091E800877F8093E8008091E800D2
:1033D00082FF2BC08091F100809377028091E800FA
:1033E0008B778093E8000E94D71CD3CF8091860210
:1033F000813A79F68091E800877F8093E800809198
:103400008A0290918B02892B61F460E287E592E059
:1034100070E00E94E41B8091E8008B778093E800C5
:10342000B8CF60E090E080E0F3CF80918502811119
:10343000CDCF089580918602813A09F0AACF80917C
:103440008A0290918B02892B09F0A3CF8091E8002A
:10345000877F8093E8008091E80080FFFCCF809117
:1034600067018093F1008091E8008E77BACF809158
:103470008602813209F08DCF80918A0290918B0271
:10348000892B09F086CF8091E800877F8093E80040
:103490000E94D71C80918802809367010E944C1083
:1034A00078CF80918602813209F073CF8091E80055
:1034B000877F8093E8000E94D71C809189028093C7
:1034C000780267CF80918602813A09F062CF8091BD
:1034D000E800877F8093E8008091E80080FFFCCFC0
:1034E00080917802BECF82E090E090935501809366
:1034F000540182E491E00C94D420089582E491E098
:103500000E946F20892B31F082E491E00E949E207E
:103510000C947D1A0895CF93C091E9009091EC002E
:1035200090FD19C090E02091520120FF12C0CF7091
:10353000C92B909143019F709093E9009091EB000B
:1035400090FF04C09091EE0097FD07C0CF70C0932C
:10355000E900CF91089590E8E6CF9FEF2091E80031
:10356000915025FD06C025ED2A95F1F70000911137
:10357000F5CF8093F10082E491E00E9427208091B2
:10358000E80080FFE3CF8091E8008E778093E80029
:10359000DDCF84B7877F84BF0FB6F894A89580915C
:1035A0006000886180936000109260000FBE80E828
:1035B00080936100109261000E94840B0E94251D7F
:1035C0000E94821D8091E20084608093E2007894E2
:1035D0000E940B200E94880B8DE591E00E943B0B1E
:1035E0000E94731A80918502853049F00E94900BE9
:1035F0000E947E1A82E491E00E945820F3CF0E943C
:10360000B01780918302882369F30E94DE17882314
:1036100049F30E947F1BE6CF292F33272330310542
:1036200079F158F421303105F1F02230310519F1EA
:1036300090E080E030E020E01AC021323105C9F18D
:1036400022323105A9F76330710590F7FB01EE0FC7
:10365000FF1FED57FE4F2081318160587E4FFB01E7
:10366000808190E004C082E190E029E335E0FA0136
:1036700031832083089581E990E028EA34E0F7CF90
:1036800099278130910579F040F08230910571F0F1
:10369000039771F6ECE6F4E002C0E4EAF4E084910A
:1036A00090E09F01E4CFEEE8F4E0F9CFE2E7F4E048
:1036B000F6CF6330710508F0BBCF660F771FFB01B3
:1036C000E757FE4F2081318189E090E0D0CF089507
:1036D000CF93C82F0E94671BC0937902CF910895A2
:1036E00080918502843011F081E0089582E0089590
:1036F00080917902811102C00C94701B089580E1C1
:1037000089BD82E189BD09B400FEFDCF8091D8005A
:103710008F7D8093D8008091E00082608093E000EC
:103720008091E00081FDFCCF0895AF92BF92CF92CF
:10373000DF92FF920F931F93CF93DF936C01EB0106
:103740008A010E94F61CF82E811123C00115110573
:1037500039F0F80180819181C81BD90BC80ED91EA0
:10376000B12CA12C2097A9F08091E80085FD22C002
:103770008091E8008E778093E80001151105A1F093
:10378000F80180819181A80EB91EB182A08285E0E6
:10379000F82E8F2DDF91CF911F910F91FF90DF9029
:1037A000CF90BF90AF9008950E94F61C8823D1F26D
:1037B000F82EEFCFF60181916F018093F1002197F0
:1037C000FFEFAF1ABF0ACECFFC0180918C0290911F
:1037D0008D0286179707A0F06115710529F4909165
:1037E000E8009E779093E80090E06115710551F430
:1037F000911108C08091E80082FF35C080E00895F3
:10380000BC01F2CF809185028823C9F18530C9F1CE
:103810008091E80083FD31C08091E80082FDEACF0D
:103820008091E80080FFE1CF2091F3008091F200C9
:10383000322F282F6115710519F02830310558F005
:1038400091E02830310509F090E02091E8002E77D2
:103850002093E800CACF81918093F10061507109F3
:103860002F5F3F4FE7CF80918502882341F085305D
:1038700041F08091E80083FFBDCF81E0089582E0B0
:10388000089583E00895FC0180918C0290918D024F
:1038900086179707A0F06115710529F48091E8005B
:1038A0008E778093E80090E06115710551F49111D5
:1038B00008C08091E80082FF36C080E00895BC0116
:1038C000F2CF809185028823D1F18530D1F18091AA
:1038D000E80083FD32C08091E80082FDEACF80914C
:1038E000E80080FFE1CF2091F3008091F200322FB9
:1038F000282F6115710519F02830310558F091E035
:103900002830310509F090E08091E8008E778093AF
:10391000E800CACF84918093F1003196615071091B
:103920002F5F3F4FE6CF80918502882341F085309D
:1039300041F08091E80083FFBCCF81E0089582E0F0
:10394000089583E00895982F973028F08F70809322
:10395000E90081E008959093E900242F762F50E04C
:10396000981731F07091EC002091ED005091F0002B
:1039700021FD02C09F5FE8CF3091EB003E7F309386
:10398000EB003091ED003D7F3093ED003091EB0086
:1039900031603093EB007093EC002093ED00509376
:1039A000F0002091EE0027FDE5CF80E008958091A2
:1039B000860287FF13C08091E80082FF06C08091D5
:1039C000E8008B778093E80004C080918502811124
:1039D000F2CF0895809185028823D9F38091E80081
:1039E00080FFF8CF8091E8008E77ECCF2091E40043
:1039F0003091E50085E69091EC0090FF06C0909133
:103A0000E80090FF06C080E008959091E80092FDE4
:103A1000FACF90918502992391F0953091F0909191
:103A2000EB0095FD10C04091E4005091E500241793
:103A3000350709F381509A01F1F684E0089582E098
:103A4000089583E0089581E008950E94931D0E94E7
:103A50009B1DE0EEF0E0808181608083E8EDF0E086
:103A600080818F77808319BCA7EDB0E08C918E7F29
:103A70008C9380818F7E80831092840208950F93AF
:103A80001F93CF93DF930E94931D0E949B1DC8ED4F
:103A9000D0E088818F778883888180688883888157
:103AA0008F7D888319BC109285021092810210923A
:103AB00083021092820200EE10E0F80180818B7F79
:103AC000808388818160888342E060E080E00E949A
:103AD000A31CE1EEF0E080818E7F8083E2EEF0E0D7
:103AE000808181608083808188608083F80180810B
:103AF0008E7F8083888180618883DF91CF911F9141
:103B00000F910895E8EDF0E080818F7E8083E7EDEE
:103B1000F0E080818160808384E082BF81E08093D7
:103B200084020C943F1DE8EDF0E080818E7F80835D
:103B30001092E20008951092DA001092E1000895C8
:103B40001F920F920FB60F9211242F933F934F9312
:103B50005F936F937F938F939F93AF93BF93EF93F5
:103B6000FF938091E10082FF0BC08091E20082FF11
:103B700007C08091E1008B7F8093E1000E940A20C2
:103B80008091DA0080FF19C08091D80080FF15C0B5
:103B90008091DA008E7F8093DA008091D90080FFD7
:103BA00094C080E189BD82E189BD09B400FEFDCFEA
:103BB00081E0809385020E948B198091E10080FF53
:103BC00019C08091E20080FF15C08091E2008E7FD5
:103BD0008093E2008091E20080618093E200809116
:103BE000D80080628093D80019BC85E0809385025C
:103BF0000E949D198091E10084FF29C08091E2001C
:103C000084FF25C080E189BD82E189BD09B400FE41
:103C1000FDCF8091D8008F7D8093D8008091E10006
:103C20008F7E8093E1008091E2008F7E8093E2009E
:103C30008091E20081608093E2008091810288237C
:103C400009F449C084E0809385020E949E19809106
:103C5000E10083FF29C08091E20083FF25C08091AD
:103C6000E100877F8093E10082E0809385021092DB
:103C700081028091E1008E7F8093E1008091E200DB
:103C80008E7F8093E2008091E20080618093E20069
:103C900042E060E080E00E94A31C8091F000886018
:103CA0008093F0000E949C19FF91EF91BF91AF911A
:103CB0009F918F917F916F915F914F913F912F9144
:103CC0000F900FBE0F901F90189519BC109285028F
:103CD0000E94991972CF8091E30087FD02C081E0B4
:103CE000B2CF83E0B0CF1F920F920FB60F92112484
:103CF0002F933F934F935F936F937F938F939F93F4
:103D0000AF93BF93CF93EF93FF93C091E900CF7030
:103D10008091EC001092E9008091F000877F809301
:103D2000F00078940E94AF1E1092E9008091F0009C
:103D300088608093F000C093E900FF91EF91CF91EC
:103D4000BF91AF919F918F917F916F915F914F91B3
:103D50003F912F910F900FBE0F901F9018951F93BA
:103D6000CF93DF93CDB7DEB7AA970FB6F894DEBF37
:103D70000FBECDBFE6E8F2E08091F100819322E032
:103D8000EE38F207C9F70E94BE198091E80083FF60
:103D900044C080918602909187029A3008F03DC01D
:103DA000E92FF0E0EA52F14E0C94DA21E01E061FF2
:103DB0000D1F061F0D1F641F861F0D1FDD1FEA1F2D
:103DC000803889F0823849F580918A028F70873077
:103DD00020F58093E9008091EB0085FB882780F92E
:103DE0001092E90006C080918202909183029111A5
:103DF00082609091E800977F9093E8008093F100B3
:103E00001092F1008091E8008E772DC0282F2D7F31
:103E100021F48823D1F0823059F18091E80083FFAA
:103E20000AC08091E800877F8093E8008091EB00D2
:103E300080628093EB00AA960FB6F894DEBF0FBEA7
:103E4000CDBFDF91CF911F9108958091880281307D
:103E500021F7933009F080E0809383021092E9000B
:103E60008091E800877F8093E8000E94D71CD5CF1F
:103E7000809188028111F2CF80918A028F702FEF9A
:103E8000280F263050F68093E9002091EB0020FFA8
:103E9000E5CF933031F48091EB0080628093EB00AA
:103EA000DDCF9091EB0090619093EB0021E030E04A
:103EB00001C0220F8A95EAF72093EA001092EA00E7
:103EC0008091EB008860EACF8111A7CF1091880222
:103ED0001F778091E3008078812B8093E3008091AD
:103EE000E800877F8093E8000E94D71C8091E8005B
:103EF00080FFFCCF8091E30080688093E30083E043
:103F0000111101C082E08093850287CF80588230F2
:103F100008F083CF80918802909189028C3D23E044
:103F20009207A1F583E08A838AE289834FB7F894E8
:103F3000DE01139620E03EE051E2E32FF0E05093E3
:103F40005700E49120FF03C0E295EF703F5FEF70F0
:103F50008E2F90E0EA30C0F0C7968D939D932F5F2F
:103F6000243159F74FBF8091E800877F8093E800A4
:103F70006AE270E0CE0101960E94E41B8091E800A5
:103F80008B778093E80049CFC096E7CF60918A0293
:103F900070918B02AE014F5F5F4F0E940C1BBC0102
:103FA000892B09F43ACF9091E800977F9093E8002D
:103FB00089819A810E94431CE1CF803809F02DCF7E
:103FC0008091E800877F8093E80080918102809350
:103FD000F10018CF811121CF90918802923008F022
:103FE0001CCF8091E800877F8093E8009093810246
:103FF0000E94D71C80918102882331F084E0809355
:1040000085020E94A01909CF8091E30087FDF6CFB9
:1040100081E0F5CF0895CF9380918502882399F0B0
:10402000C091E900CF708091EC0080FD0EC080E06F
:10403000C82B1092E9008091E80083FD0E94AF1E1A
:10404000CF70C093E900CF91089580E8F1CF20911F
:104050008502243059F5FC014489558966897789A0
:10406000452B462B472B11F181818F708093E900FE
:104070008091F3009091F200892798278927892B56
:1040800011F480E008959091E8008091E8008E7727
:104090008093E80095FDF5CF0E94F61C811107C0C2
:1040A0009091E8009E779093E800089582E008954B
:1040B00020918502243091F4FC0144895589668958
:1040C0007789452B462B472B49F021812F70209370
:1040D000E9002091E80020FD0C942720089520910C
:1040E0008502243019F090E080E00895FC014489B5
:1040F000558966897789452B462B472BA1F3868105
:104100008F708093E9008091E80082FFECCF80916E
:10411000F3009091F200892798278927009731F4BE
:104120002091E8002B772093E80008958091F30018
:104130009091F20089279827892708952091850278
:10414000243019F08FEF9FEF0895FC0144895589C1
:1041500066897789452B462B472BA1F386818F7083
:104160008093E9008091E80082FFECCF8091F3001A
:104170009091F200892798278927892B91F08091C7
:10418000F10090E02091F3003091F20023273227D4
:104190002327232B29F42091E8002B772093E80094
:1041A00008958FEF9FEFEECF0F931F93CF93DF9381
:1041B000CDB7DEB728970FB6F894DEBF0FBECDBFE0
:1041C0008C0180918502843059F5F80184899589A4
:1041D000A689B789892B8A2B8B2B11F183858F7048
:1041E0008093E90088E0E8E6F1E0DE0111960190B5
:1041F0000D928A95E1F750E040E068E070E0CE0172
:1042000001960E94951B50E040E062E070E0C8011A
:1042100042960E94951B8091E8008E778093E8007B
:1042200028960FB6F894DEBF0FBECDBFDF91CF91B9
:104230001F910F9108950895CF93DF93EC01809122
:10424000E80083FF10C0288180918A0290918B0240
:104250002817190641F4809187028132F1F030F479
:10426000803209F450C0DF91CF910895823209F471
:104270007EC08332C1F7809186028132A1F780919E
:10428000E800877F8093E8000E94D71C6091880235
:10429000CE01DF91CF910C941B2180918602813A4F
:1042A00011F78091E800877F8093E8008091E80013
:1042B00080FFFCCF8C899D89AE89BF898093F100F6
:1042C000492F5A2F6B2F77274093F100AD016627B6
:1042D00077274093F1008B2F9927AA27BB2780933C
:1042E000F100888D8093F100898D8093F1008A8D93
:1042F0008093F1008091E8008E778093E800DF9151
:10430000CF910C94D71C80918602813209F0ABCFFB
:104310008091E800877F8093E8008091E80082FF29
:1043200021C03091F1002091F1009091F100809135
:10433000F1003C8B2D8B9E8B8F8B8091F100888FB1
:104340008091F100898F8091F1008A8F8091E8003F
:104350008B778093E8000E94D71CCE01DF91CF912C
:104360000C941B21809185028111D7CF7CCF809145
:104370008602813209F077CF8091E800877F8093B1
:10438000E8000E94D71C8091880290918902998B45
:10439000888BCE01DF91CF910C941B21991B79E082
:1043A00004C0991F961708F0961B881F7A95C9F7C5
:1043B00080950895EE0FFF1F0590F491E02D09946C
:1043C000F999FECF92BD81BDF89A992780B50895DD
:1043D000A8E1B0E042E050E00C940822262FF999C1
:1043E000FECF92BD81BDF89A019700B4021639F054
:1043F0001FBA20BD0FB6F894FA9AF99A0FBE089525
:104400000196272F0E94EF210C94EE21DC01CB01B5
:10441000FC01F999FECF06C0F2BDE1BDF89A3196D4
:1044200000B40D9241505040B8F70895F894FFCF72
:1044300000D0D0D0D0D0D0010102040810204142D9
:10444000444848000000484850608182848890A019
:10445000C1C2C4D0D0D0D0D0D0C80000000000006D
:10446000000000000000000000000000000000004C
:1044700032020385100000010610000001840800CC
:1044800000010000000000000000000000C4183817
:1044900019C7180319C81801A12000000000020064
:1044A000F0F1F4F5F6F7676636353497909192930C
:1044B000403639BA0584054B05BA04D304EC040030
:00000001FF
